:020000040800F2
:10000000C0070020950200084D2F000801270008B6
:10001000492F00080D1200086130000800000000A0
:10002000000000000000000000000000552F000844
:100030001112000800000000512F0008592F00087D
:10004000AF020008AF020008AF020008AF020008CC
:10005000AF020008AF020008AF020008AF020008BC
:10006000AF020008AF020008AF020008AF020008AC
:10007000AF020008AF020008AF020008AF0200089C
:10008000AF020008AF020008AF020008AF0200088C
:10009000AF020008AF020008AF020008AF0200087C
:1000A000AF020008AF020008AF020008AF0200086C
:1000B000AF020008AF020008AF020008AF0200085C
:1000C000AF020008AF020008AF020008AF0200084C
:1000D000AF020008AF020008AF020008AF0200083C
:1000E00015120008AF020008AF020008AF020008B6
:1000F000AF020008AF020008AF020008AF0200081C
:10010000AF020008AF020008AF020008AF0200080B
:10011000AF020008AF020008AF020008AF020008FB
:10012000AF020008AF020008AF020008AF020008EB
:10013000AF020008AF020008AF020008AF020008DB
:10014000AF020008AF020008AF020008AF020008CB
:10015000AF020008AF020008AF020008AF020008BB
:10016000AF020008AF020008AF020008AF020008AB
:10017000AF020008AF020008AF0200080000000054
:10018000AF020008AF020008AF020008AF0200088B
:10019000AF020008AF020008AF020008AF0200087B
:1001A000AF020008AF020008AF02000800F002F83A
:1001B00000F061F80AA090E8000C82448344AAF1A0
:1001C0000107DA4501D100F056F8AFF2090EBAE89E
:1001D0000F0013F0010F18BFFB1A43F0010318477B
:1001E000C43F0000E43F0000103A24BF78C878C143
:1001F000FAD8520724BF30C830C144BF04680C602D
:10020000704700000023002400250026103A28BF74
:1002100078C1FBD8520728BF30C148BF0B60704778
:10022000692900F03D81642900F03A81752900F0C8
:1002300037816F2900F0CE81782900F0F5810368BD
:10024000DB0928BF41F08001632900F0A684E3297F
:1002500000F0CC84002070471FB503F089FE00F049
:1002600093FD04000020002103F06CFE401C606040
:100270001FBD10B510BD00F061FD1146FFF7ECFF8A
:1002800003F09EFB00F06CFF03B4FFF7F2FF03BC2A
:1002900000F0B4FF0948804709480047FEE7FEE741
:1002A000FEE7FEE7FEE7FEE7FEE7FEE7FEE7FEE726
:1002B00004480549054A064B704700005D2F0008B9
:1002C000AD010008C0010020C0070020C0030020CD
:1002D000C003002053EA020C00F069802DE9F04BC6
:1002E0004FF00006002B1FBFB3FA83F503FA05F4A5
:1002F00024FA05F65E4012BF1643B2FA82F502FAFE
:1003000005F4C5F120051EBF22FA05FC44EA0C04E1
:10031000203556EA044C4FEA144418BF641C4FF0D1
:1003200000084FF00009904271EB030C39D300290B
:1003300019BFB1FA81F701FA07F6B0FA80F700FAAF
:1003400007F6C7F120071EBF20FA07FC46EA0C0695
:100350002037B6FBF4FCA7EB0507103F07F01F0B97
:10036000CBF120062CFA06F60CFA0BFB44BFB34681
:100370000026202FA4BF5E464FF0000B5BEA060C60
:1003800008BF4FF0010B19EB0B0948EB0608ABFB5C
:10039000027C06FB02CC0BFB03CCC01B71EB0C01F7
:1003A000C1E70B46024641464846BDE8F08B13B50F
:1003B000084318BF4FF0FF300146AFF30080BDE89F
:1003C0001C4070470FB4044910B503AA029800F00E
:1003D000F1FB10BC5DF814FBCC00002070B50446A6
:1003E00085690068C10601D5302600E02026C007D7
:1003F00007D070BDD4E9012130469047206A401CE7
:1004000020626D1EF6D570BD70B504468569007812
:10041000C00707D170BDD4E9012120209047206A90
:10042000401C20626D1EF6D570BD09684A0501D5D5
:1004300040B27047C905FCD500B2704709684A054B
:1004400001D5C0B27047C905FCD580B2704770B500
:100450000C460546012A05D02878800600D5EA69B1
:10046000002302E0012305E05B1C934202D2E05C22
:100470000028F9D1A869E618C01AA861286A1844AA
:1004800028622846FFF7AAFF04E0D5E9012114F805
:10049000010B9047B442F8D32846FFF7B5FF70BD73
:1004A0002DE9F0410646002410687529314616A54D
:1004B00010D0FFF7BAFF002802DA404213A507E088
:1004C00031688A0701D512A502E0490704D511A5B4
:1004D000012401E0FFF7B2FF00210A2206F1240700
:1004E00009E0B0FBF2FCB0FBF2F302FB1C00303081
:1004F00078541846491C0028F3D123462A46304632
:10050000BDE8F04100F0E6BA000000002D00000058
:100510002B000000200000002DE9FF5F15468A46F1
:100520000446DFF8AC80F8440027D8E900103E46C6
:10053000CDE9001010E03AF816106A4602A800F063
:100540007BFB411C07D02178890603D5E269391865
:1005500091420DD80744761C2078800602D5E069C8
:10056000B84205DDAE42E6DB3AF816000028E2D1DB
:10057000A069C01BA0612046FFF730FFD8E900103A
:10058000CDE90010002017E03AF818106A4602A8DA
:1005900000F052FBB0F1FF3F81460BD000250DF17A
:1005A000080B05E0D4E901211BF8050090476D1CFC
:1005B0004D45F7D308F10100B0428046E4DB206AE4
:1005C000384420622046FFF71FFFBDE8FF9F000070
:1005D000623A000070B5044621461068FFF72EFF0E
:1005E000002104F1240505E000F007023032C008C4
:1005F0006A54491C0028F7D12068002308A2050787
:1006000008D500F02000084304D0E069012305A2CA
:10061000401EE0612046BDE8704000F05BBA00007B
:10062000000000003000000070B504460D46214671
:100630001068FFF703FF2188090502D50F4A7A44A5
:1006400002E00E4A7A440E32002104F1240305E050
:1006500000F00F060009965D5E54491C0028F7D192
:1006600020780023000704D5702D02D009B10223A1
:1006700011322046BDE8704000F02CBA523900001B
:100680002DE9F05F894604464FF0000ADFF874B1A7
:10069000FB44C0F820A02046E1688847002874D0B9
:1006A000252806D0D4E901219047206A401C206209
:1006B000F1E700265F462046E16888472028054686
:1006C00007DB312D05D2781910F8200C08B106434C
:1006D000F1E7B00701D526F00406C4F81CA00027F6
:1006E000C4F818A02A2D09D0284603F024FC38B3FA
:1006F00004EB8708303DC8F8185019E059F8041B7E
:10070000204604EB87029161E1688847012F054686
:1007100018D1E069002820DA26F020061DE0D8F87C
:10072000180000EB800005EB40003038C8F81800D6
:100730002046E1688847054603F0FDFB0028EED11E
:10074000012F0AD02E2D08D12046E16888477F1C52
:100750000546022F46F02006C4DBA069002803DA14
:10076000404246F00106A061F00701D026F01006D5
:100770006C2D0BD0682D09D04C2D39D06A2D35D079
:10078000742D35D07A2D33D016E038E0E1682F464D
:1007900020468847B842054609D16C2F26D04FF431
:1007A0008060E168064320468847054604E06C2FD8
:1007B0001AD04FF4807006430DB3A5F141001928FB
:1007C00002D8203546F400664A462946204626606F
:1007D0004E46FFF725FD80B101280BD0F61D26F00F
:1007E000070000F1080956E74020E4E78020D8E739
:1007F0000020D6E706F104094DE7284652E7206AB3
:10080000BDE8F09F283900000FB400B589B00BA8EF
:100810006A46009003480A9900F002FA09B05DF8B0
:1008200014FB0000780000202DE9FF5F1D464FF00B
:10083000FF3B91464FF000085F46D5E90146A969A4
:1008400001987F1C8847296A824688470028F6D18C
:10085000BAF1FF3F0CD0002E24F4C06419DD60060D
:1008600014D5BAF12B0F09D0BAF12D0F0ED103E038
:10087000584604B0BDE8F09F44F48064A96901982B
:100880007F1C8847761E8246002E02DDBAF1300FAB
:1008900003D0B9F1000F26D032E0A969761E019885
:1008A0007F1C44F400748847002E824605DDBAF1AF
:1008B000780F06D0BAF1580F03D0B9F1000F10D05D
:1008C0001EE0B9F1000F02D0B9F1100F18D1A969DB
:1008D000761E01987F1C24F40074884782461020FD
:1008E00002E0082000E00A20814609E0A96908FB2F
:1008F0000908761E01987F1C44F4007488478246DC
:10090000002E05DD4946504600F07CF90028EDDA5E
:10091000E96901988847A00502D46FF00100A8E7B3
:10092000E00725D1600613D5600502D5C8F10000A7
:1009300000E0404629680A1D2A600968220501D5A1
:10094000087015E0220701D5088011E008600FE06B
:100950002868011D29600068210502D580F8008003
:1009600006E0210702D5A0F8008001E0C0F8008071
:1009700038467EE72DE9FF5F4FF0000899461446A0
:1009800046469169D2E901A7DDF838B00198884759
:10099000054659EA0B0005D009E0A1690198761CCB
:1009A00088470546216A284688470028F5D1681CF3
:1009B00003D05FEACA7005D015E04FF0FF3004B0F5
:1009C000BDE8F09F2068011D2160D0F800800AE09A
:1009D0005FEACA7001D108F8015BA169761C019831
:1009E0007F1E88470546002F1ADD681C18D0B9F114
:1009F000000F0DD0E81705EBD060421120F01F006A
:100A000059F822102A1A012090400142E0D107E053
:100A1000BBF1000FDCD12846216A88470028D7D0D7
:100A2000E16901988847BBF1000F07D1002E05DD71
:100A30005FEACA7002D1002188F80010A068B842AD
:100A400003DDBBF1000F03D017B16FF00100B6E773
:100A50003046B4E710B5044603E002F015FB401C35
:100A600009D014F8010B05490028F6D1BDE8104063
:100A70000A2002F009BB4FF0FF3010BDCC0000206F
:100A80004FF0000200B5134694469646203922BF27
:100A9000A0E80C50A0E80C50B1F12001BFF4F7AF72
:100AA000090728BFA0E80C5048BF0CC05DF804EB54
:100AB000890028BF40F8042B08BF704748BF20F8C2
:100AC000022B11F0804F18BF00F8012B70477047C0
:100AD000704770472DE9F0470D4699469246044607
:100AE00000F124080168880604D5E06921F01001AE
:100AF000216000E00120A84201DD471B00E0002743
:100B0000A1697A1902EB0900081AA0612078C006D1
:100B100002D42046FFF762FC002608E0D4E9012158
:100B20001AF806009047206A401C761C20624E4549
:100B3000F4DB2078C0060AD52046FFF74FFC06E01C
:100B4000D4E9012130209047206A401C2062381EE1
:100B5000A7F10107F4DC07E0D4E9012118F805004A
:100B60009047206A401C2062281EA5F10105F3DC95
:100B70002046FFF749FC2078000602D50220BDE898
:100B8000F0870120FBE710B5436913B1AFF3008094
:100B900001E0FFF75CFC012010BD127800F1240198
:100BA0000A7000224A700122EDE711684FF0FF320F
:100BB000E9E70000074B70B50D467B4400F06DF887
:100BC0000446284600F0B6F810B14FF0FF3070BD73
:100BD000204670BDCB24000010B5436913B1AFF3BC
:100BE000008001E0FFF798FC012010BD128800F1A1
:100BF000240182840022C2840122EDE711684FF0B3
:100C0000FF32E9E73A2800D2303820F02002412AAA
:100C100001D3A2F13700884201D34FF0FF30704773
:100C2000034B7B449361034B7B44D36100F04EB88C
:100C30003F240000C30000002DE9F04116460C4699
:100C4000054600F01DF8036893F80101012807D05C
:100C5000FF2C12D8185D80B101202C70BDE8F08106
:100C6000D3F807013246214603F20713C718284676
:100C7000BC46BDE8F041002360474FF0FF30EDE790
:100C800010B500F081F8001D10BD00BFB9320000A2
:100C900001694A1C02610878704700B58FB0CDE940
:100CA00001310021059105497944CDE90310114630
:100CB0006846FFF7E5FC0FB000BD0000E5FFFFFF51
:100CC000026811441378016018467047D1600549E5
:100CD000794451610449794411620021116111463E
:100CE00000F060B8EDFFFFFFB7000000704710B5DF
:100CF0004FF0FF34C1688A020FD5036B42689A42F5
:100D00000BD1014690F82520104600F005FA401C52
:100D100001D1204610BD002010BD11F0C00FF8D148
:100D2000026941689142F4D90268491E521CC0E927
:100D30000021F0E7007B00F080007047754600F06E
:100D400019FAAE4605006946534620F0070085466D
:100D500018B020B5FFF7ACFABDE820404FF0000610
:100D60004FF000074FF000084FF0000BAC46ACE826
:100D7000C009ACE8C009ACE8C009ACE8C00921F082
:100D800007018D4670470000004870473000002082
:100D900010B50446FFF774FF0068005D00F0010025
:100DA00010BD00002DE9F34F4FF0000A0C465646E7
:100DB0008DB001200C9001F10C000B9062690B9832
:100DC00001219047051E2DD0252D2CD0216A884762
:100DD000C0B162690B9801219047216A88470028B9
:100DE000F7D16269411E0B98904700E0761CA1691B
:100DF0000D988847216A88470028F7D1E1690D9846
:100E00008847DBE7A1690D988847A842074601D1CA
:100E1000761CD3E7E1690D9888477F1C02D1BAF1AF
:100E2000000F6FD06BE162690B9800273D46394691
:100E300090472A2804D162690B9801219047012527
:100E4000DFF8D08262690B9801219047A0F1300150
:100E50000A290AD24745E5DC07EB870100EB410789
:100E6000303FDFD445F01005ECE7E90601D46FF020
:100E700000476C280AD04C2814D0682815D06A285E
:100E80000DD074281CD07A281AD01DE062690B9806
:100E9000012190476C2802D045F0040514E045F08C
:100EA00002050DE045F020050AE062690B9801217A
:100EB0009047682802D045F0080505E045F4006534
:100EC00062690B9801219047C4E9015765283DD01C
:100ED00019DC58287AD00CDC452837D004DC2528CA
:100EE00026D041289ED131E046282FD0472899D1DD
:100EF0002CE05B2877D0612828D063287CD0642838
:100F000023D15AE0F6E06F2848D008DC66281DD0CF
:100F100067281BD0692821D06E2816D127E07028B9
:100F200045D0732868D0752847D078280DD14DE07A
:100F3000A1690D988847252805463FF469AFE16906
:100F40000D9888476D1C3FF46AAFD8E00D99234691
:100F50006A466FF00100AFF30080C5E045F0400045
:100F600023464FF000026060A80736D43EE0E80751
:100F70007FF447AF2068011D21600068290501D575
:100F800006701BE7290701D5068017E7A90703D5D7
:100F9000F117C0E9006111E706600FE745F0400076
:100FA00023464FF008026060A80716D41EE040F602
:100FB0000E0125EA0100606016E045F0400023467E
:100FC0004FF00A026060A80707D40FE045F0400028
:100FD0006060A80708D5234610220D996FF0010024
:100FE000AFF3008080E007E0102223460D996FF0F8
:100FF0000100FFF719FC77E04FF0000963284F4626
:10100000C8464B46CB4602D05B2806D038E0E806FF
:1010100001D40120A060012732E06269D4F80CB04D
:101020000B98012190475E2807D14FF001094946EE
:101030006269D4F80CB00B989047216939B9002146
:101040000A4603AB43F82120491C0829FADBD8B330
:10105000216949B308F1010862690B9801219047A1
:101060005D28F4D1B9F1000F09D0002003A951F88F
:101070002020D24341F82020401C0828F7DB03AB96
:101080002069002820794FEA40701ED05B46224636
:10109000CDF80080CDE901970D9900286FF001008F
:1010A00020DAAFF300801FE0C11703AA00EBD16183
:1010B0004B1121F01F0102EB8302411A136801203A
:1010C000884003431360C7E719E00D9922460028C2
:1010D0006FF00100009702DAAFF3008004E0FFF741
:1010E00049FC01E0AFF3008000280ADA401C06D179
:1010F0000C9820B14FF0FF300FB0BDE8F08F504694
:10110000FAE7E90701D10AF1010A064400200C9030
:1011100054E60000CCCCCC0CCA68431C0FD00D4B5D
:101120001A420CD1D3070AD081F825004B680B6313
:1011300000238B6012F0C06F0B6003D004E04FF00F
:10114000FF30704742F00072034B1A40034B1A43C2
:10115000CA60704780200800BFFFDFFF0010480012
:1011600010B50446AFF300802046BDE81040FFF7FD
:101170008BB80000004870471000002000000000FD
:1011800030B44FF0013C50F8042B51F8043BCCFA3A
:1011900052F4D51A20D1FCB950F8042B51F8043B75
:1011A000CCFA52F4D51A17D1B4B950F8042B51F82F
:1011B000043BCCFA52F4D51A0ED16CB950F8042B7A
:1011C00051F8043BCCFA52F4D51A05D1002CDAD0F0
:1011D00030BC4FF00000704729BAB1FA81F111F02C
:1011E0001801D1F120008440F2D1CA40CB4012F066
:1011F000FF0213F0FF0330BCD01A704701491820DA
:10120000ABBEFEE72600020070470000FEE70000CC
:10121000704700004FF4805000F026B8B0B5044687
:1012200000F016F9054640F20000C2F20000007816
:10123000611C18BF044400BF00F00AF9401BA04223
:10124000FAD3B0BDB0F5805F18BF704780B541F6E6
:101250000000C4F202004FF4804100F0EBF8BDE85A
:10126000804001F021BF000043F61441C4F20101A7
:101270000A68024214BF08607047FFF7E3BF00002E
:101280002DE9F04F82B000F13E4242F2004502F1FA
:10129000FF77C4F202050A2243F6004E4FEAB72652
:1012A000A84208BF0922C4F2010E092E38BF4FEA36
:1012B000B7220125002600274FF00008009208E021
:1012C00008F101080437B8F1100F06F1020600F02A
:1012D000A7800C6805FA08F914EA090FF0D0D1F8D4
:1012E00004B003220BF0030CACF10104B240012C5A
:1012F0006FEA020A10D88268CC6802EA0A02B44097
:10130000224382604268CBF3001422EA090204FA05
:1013100008F42243426005E0BCF1030F02D14FF014
:10132000030C20E0C2688C6802EA0A02B44022433F
:10133000BCF1020FC26016D16FF0030202EA58023C
:101340000244D2F820C007F01C050F230C69AB4003
:101350002CEA030304FA05F52B431362D1F804B019
:1013600001250BF0030C02680CFA06F302EA0A02EC
:101370001A431BF4403F0260A2D0002243F644030C
:101380000192C4F202031A684FF6084C42F48042FC
:101390001A601A68CFF6FF7C02F480420192019A2B
:1013A00028F00302724452F80C3007F00C050F24A9
:1013B000AC40A343009C04FA05F52B4342F80C30E3
:1013C000DEF808204B6842EA090543F60C4CDC02C3
:1013D00058BF22EA0905CEF80850C4F2010CDCF827
:1013E00000209C0242EA090558BF22EA0905CCF810
:1013F0000050DEF804209C0342EA090558BF22EAA7
:101400000905CEF80450DEF80020DB0342EA0905A6
:1014100058BF22EA0905CEF80050012550E700BF69
:1014200002B0BDE8F08F00000069084018BF01203D
:1014300070470000426902EA0103914341EA034117
:1014400081617047002A08BF09048161704700006C
:1014500040F22010C2F200000068704770B5B8B3C7
:10146000044690F83D0028B9002084F83C0020464E
:1014700000F056FB242084F83D002068016821F02C
:1014800001010160016841F400410160016821F43B
:101490000041016000F0B2FC48F28041C0F21E0140
:1014A00040F60013D4F804E088424FF00001C0F287
:1014B0003D0348F2A16C4FF0000238BF0121984271
:1014C000C0F2010C38BF0122E64538BF0A460AB116
:1014D000012070BD4DF68361C4F21B31A0FB0112E7
:1014E0002168950C4B684FF4967623F03F0343EA4E
:1014F0009243754344F6D3564B60C1F262060B6AC1
:10150000A5FB0656B50923F03F03E64538BF950C09
:101510006A1C1A430A62CA6948F2A0664CF6FF7355
:10152000C0F20106B64522EA03020BD801384FEAA1
:101530004E03B0FBF3F001306FF31F30042898BF67
:1015400004201EE0A368013863B119230EFB03F3E6
:10155000B0FBF3F001306FF31F3078B100F580403D
:1015600008E000BF0EEB4E03B0FBF3F001306FF369
:101570001F3028B100F5004003E000BF012000E06B
:1015800001201043C8610868D4E9072320F0C00097
:10159000104318430860886848F2FF3204F10C06D3
:1015A00090434CCE18431043A5698860C86820F06A
:1015B000FF0030432843C860086840F0010008601D
:1015C00000202021206484F83D10206384F83E0030
:1015D00070BD00002DE9F04784B0984617460E46CE
:1015E0000446FFF735FF94F83D10202923D1054626
:1015F00020688169890719D5FFF72AFF401B192840
:10160000F6D900202021206384F83D1084F83E00A4
:10161000206C04F13C0940F02000206402200021ED
:1016200089F8001004B0BDE8F08700BFA14619F8A2
:101630003C1F012904D1022004B0BDE8F08700BF9F
:10164000012289F800200368DDE90D1A0C9ADB07F6
:1016500003D1036843F001030360036823F40063CC
:101660000360222084F83D00402084F83E000020E2
:10167000206462626185608D314620850020CFF64E
:10168000FF70E06220463A464346CDF800A001953F
:1016900001F038F820B1012004B0BDE8F08700BFA8
:1016A000208DA8B102282BD0012835D121680A68E5
:1016B00022F480620A60002203924A6903928A69D6
:1016C0000392039A0A6842F400720A602CE000BF99
:1016D0000020039020684169039181690391039977
:1016E000016841F400710160202084F83D00002071
:1016F00084F83E00002189F8001004B0BDE8F087AE
:1017000021680A6822F480620A600A6842F4006272
:101710000A600022039202E00021039121684A69D5
:1017200003928969039103990AF1010680B20328A3
:1017300018D8022842D0012856D1BAF1000F00F083
:10174000AB802068014651F8142F520600F1A880A2
:101750000868C00600F1E280FFF77AFE401B5045A2
:10176000EFD9D0E0BAF1000F10D000BF20680146D9
:1017700051F8142F52060ED40868C00600F1CE802E
:10178000FFF766FE401B5045F0D9BCE02068416978
:10179000490640F1B1800069616A0870606A226898
:1017A000411C208D616201382085638D013B63857A
:1017B00053695B0740F18080106973E020684169DC
:1017C000490747D4002E59D0BAF1000F00F0998094
:1017D000FFF73EFE401B504500F2958020684169AE
:1017E0004907F5D536E000BF2068416949070FD4A5
:1017F000002E65D0BAF1000F00F08380FFF728FEBD
:10180000401B504500F27F80206841694907F5D5AB
:10181000016821F4806101600069616A0870606A92
:10182000218D01300139606221852068618D013987
:101830006185416949070DD4002E4FD0BAF1000FE0
:101840005FD0FFF705FE401B50455CD8206841691A
:101850004907F6D5016841F4007101600069616AC9
:101860000870606A2268411C6162218D01392185FE
:10187000618D013961851169417014E04169490741
:10188000E8D4416949075CBF41695FEA4171E1D42D
:1018900041694907F2D5DDE72068416949062BD542
:1018A0000069616A0870606A218D01306062481EBB
:1018B0002085618D0139618501047FF437AF13E71D
:1018C00041694907A4D4416949075CBF41695FEA9E
:1018D00041719DD441694907F2D599E741694907AA
:1018E000B8D4416949075CBF41695FEA4171B1D42D
:1018F00041694907F2D5ADE750F8141FC906014602
:101900000CD4FFF7A5FD00202021206384F83D10B2
:1019100084F83E00206C40F020000AE06FF01000D8
:10192000086000202021206384F83D1084F83E00E8
:10193000206C20640120002189F8001004B0BDE86B
:10194000F08700002DE9F04383B0994616460F4614
:101950000446FFF77DFD94F83D1020291CD1054673
:1019600020688169890713D5FFF772FD401B19288C
:10197000F6D900202021206384F83D1084F83E0031
:10198000216C41F02001216484F83C0004E000BF98
:1019900094F83C10012903D1022003B0BDE8F08384
:1019A000012284F83C200368DDE90B180A9ADB0762
:1019B00003D1036843F001030360036823F4006369
:1019C0000360212084F83D00402084F83E00002080
:1019D000206462626185608D394620850020CFF6E3
:1019E000FF70E062204632464B46CDF800800195FC
:1019F00001F018F820B1012003B0BDE8F08300BF6A
:101A0000208D002850D0206808F10106014651F8C9
:101A1000142F12062CD49EB1B8F1000F5AD000BF7B
:101A2000086840055ED4FFF713FD401B404556D8BB
:101A30002068014651F8142F1206F1D518E000BFB6
:101A40000A6852054ED40A68120611D40A68520573
:101A500048D40A6812060BD40A68520542D40A68B0
:101A6000120605D40A6852053CD40A681206E7D566
:101A7000626A114611F8013B0361238D6162591EB0
:101A80002185678D013F678547697F070AD50F0468
:101A900008D051780161911C6162991E2185628D87
:101AA000013A62850904B1D1204641462A4601F037
:101AB000F3F838BB2068016841F400710160202010
:101AC00084F83D00002084F83E0084F83C0003B018
:101AD000BDE8F0830868400504D4FFF7B9FC202076
:101AE00004E000BF6FF48060086004200021202221
:101AF000216384F83D2084F83E10226C104320645A
:101B000084F83C10206C04287FF475AF20680168CD
:101B100041F400710160012003B0BDE8F0830000D2
:101B20007047000040F2000040F22011C2F20000B5
:101B3000C2F2000100780A68104408607047000093
:101B400080B543F60040C4F20200016841F4007120
:101B50000160016841F480610160016841F48071B5
:101B60000160032000F08AF8002000F005F800F082
:101B700027F8002080BD000070B540F20006C2F2D8
:101B8000000640F208013278C2F200014FF47A7385
:101B90000968B3FBF2F20446B1FBF2F1084600F02B
:101BA00045FB0F2C4FF0010508D838B94FF0FF3036
:101BB00021460022002500F035F87460284670BDEB
:101BC00082B0002043F640010190C4F202014A684D
:101BD00042F480424A604A6802F480420192019ACB
:101BE0000090086840F080500860086800F080505D
:101BF00000900098072002B000F040B8002848BFCD
:101C00007047C1B200F01F00012202FA00F04EF24C
:101C10000012CEF2000242EAD10121F00301086075
:101C20007047000010B54EF60C5CCEF2000CDCF8EC
:101C30000030C3F3022E8EF00704042C28BF0424C6
:101C4000BEF103034FF0FF3E0EFA04F438BF002349
:101C5000A14399400EFA03F39A43114300F00F0297
:101C600000F160430901043A03F56443624400282B
:101C700048BF02F10C03197010BD00004EF60C5164
:101C8000CEF200010A684FF6FF031A4060F30A2201
:101C900042F0806040F0FD70086070472DE9F0412F
:101CA000002800F08B8043F60808C4F202080446BE
:101CB000D8F8F8030D4600F00F00884207D288F8E4
:101CC000F853D8F8F80300F00F00A84276D1206846
:101CD000810717D5410705D5D8F8001041F4E05128
:101CE000C8F80010010705D5D8F8001041F460418C
:101CF000C8F80010D8F80010A26821F0F0011143D4
:101D0000C8F80010C0073FD1D8F8F80300F00F0062
:101D1000A84207D988F8F853D8F8F80300F00F0064
:101D2000A8424BD12068410707D5D8F80010E268D7
:101D300021F4E0511143C8F80010000708D5D8F885
:101D40000000216920F4604040EAC100C8F80000AA
:101D500000F07CF8D8F8001043F6CD72C1F30311FF
:101D6000C0F60002515C40F2080220FA01F140F294
:101D70000400C2F200000068C2F200021160FFF726
:101D8000FBFE0020BDE8F0816068811E022907D2B9
:101D900058F8081C89015CBF0120BDE8F08111E002
:101DA000012807D158F8081C89035CBF0120BDE851
:101DB000F08107E058F8081C890703D40120BDE82A
:101DC000F08100BFD8F8001021F003010843C8F8E3
:101DD0000000FFF73DFB064641F28837D8F80000C7
:101DE000616800F00C00B0EB810F8DD0FFF730FB85
:101DF000801BB842F2D90320BDE8F08140F2080010
:101E000043F60801C2F20000C4F20201006809684A
:101E100043F6DD72C1F38221C0F60002515CC84076
:101E20007047000040F2080043F60801C2F20000CB
:101E3000C4F202010068096843F6DD72C1F3423161
:101E4000C0F60002515CC8407047000010B543F670
:101E50000404C4F20204606800F00C0142F2004085
:101E60000829C0F2F40007D0042918BF10BD41F2C0
:101E70000020C0F27A0010BD216801F03F02216805
:101E800023684902C3F3881106D4A1FB0001002393
:101E9000FEF720FA07E000BF41F20020C0F27A000E
:101EA0004843B0FBF2F021680222C1F3014102EB8A
:101EB0004101B0FBF1F010BD2DE9F04182B00028E6
:101EC00068D00446007843F60006C007C4F2020654
:101ED0000BD0B06800F00C00042840F09F80306800
:101EE000800302D56068002854D0207880071AD576
:101EF000B06810F00C0F09D0B06800F00C00082892
:101F000040F0A6807068400200F1A280306880072F
:101F100002D5E06801283DD13068216920F0F80041
:101F200040EAC10030602078000737D420784007AD
:101F30004CD4A56955B3B06800F00C00082840F0F7
:101F4000BB80012D26D07068E16900F480028A42CE
:101F500020D1216A00F03F028A421BD147F6C071AE
:101F6000626A0140B1EB821F14D1A16A4FF6FF7380
:101F7000C903994300F44032A1F580318A4209D166
:101F8000E16A00F07060B0EB016F03D1002002B095
:101F9000BDE8F081012002B0BDE8F0816069002851
:101FA00040F20000C4F2472076D00121C0F8801E24
:101FB000FFF74EFA054600BF706F8007B6D4FFF7F3
:101FC00047FA401B0228F7D9DDE000BF306C10F063
:101FD00080580AD100200190306C40F0805030646D
:101FE000306C00F080500190019847F20007C4F275
:101FF00000073868C00541D4386840F48070386004
:10200000FFF726FA054600BF3868C00536D4FFF74B
:102010001FFA401B0228F7D9B5E000BFB06800F0F6
:102020000C00082803D1706840023FF558AF606883
:10203000B0F5803F07D0B0F5A02F40F08D8030681C
:1020400040F480203060306840F4803030608DE0B3
:10205000E068002852D00020C4F24720012101602E
:10206000FFF7F6F9054600BF306880073FF554AF2B
:10207000FFF7EEF9401B0228F6D984E0A06801289A
:1020800005D005284ED1306F40F004003067306F26
:1020900040F0010030674FE00021C0F8801EFFF7DC
:1020A000D7F90546706F80077FF540AFFFF7D0F98D
:1020B000401B0228F6D966E00027C4F2472700201B
:1020C0003866FFF7C5F9022D05460BD1306880014F
:1020D0005ED5FFF7BDF9401B02284FF00300F5D98C
:1020E00055E700BF306880017FF550AFFFF7B0F9CA
:1020F000401B02284FF00300F4D948E70020C4F247
:10210000472000210160FFF7A3F9054630688007EA
:102110007FF509AFFFF79CF9401B02284FF0030041
:10212000F4D934E7316F002821F001013167316FB4
:1021300021F0040131674DD0FFF78AF9054641F2DD
:10214000883700BF306F800756D4FFF781F9401BF6
:10215000B842F7D917E000BF3168002821F4803178
:102160003160316821F4802131604FD0FFF770F980
:10217000054600BF306880033FF5B7AEFFF768F94A
:10218000401B6428F6D9032002B0BDE8F08100BFEF
:1021900004F11C052FCD084340EA8210D9034FF605
:1021A000FF729143A1F5803140EA056008437060F9
:1021B00001203866FFF74CF9044600BF3068800103
:1021C0003FF5E4AEFFF744F9001B02284FF003008F
:1021D000F4D9DCE6FFF73CF9054641F2883700BF49
:1021E000306F800708D5FFF733F9401BB8424FF036
:1021F0000300F5D9CBE600BFB8F1000F7FF499AE2C
:10220000306C20F08050306493E600BFFFF720F977
:10221000054600BF306880037FF567AEFFF718F909
:10222000401B64284FF00300F4D9B0E6411E0020A3
:10223000B0EB116F1CBF012070474EF21002CEF2BE
:10224000000251604EF62351CEF20001F0230B70D4
:102250000721906011607047002804BF012070477B
:1022600010B5044690F83D0028B9002084F83C00E1
:10227000204600F021F8242084F83D002068C16841
:1022800021F40051C160204600F072FE206801690F
:1022900021F490410161416921F02A014161C16845
:1022A00041F40051C16000202021206484F83D10D9
:1022B00084F83E1010BD0000704700002DE9F04387
:1022C00081B0044690F83E0020280DD10E4600292A
:1022D0004FF0010000F0CC801746002A00F0C880C3
:1022E00094F83C00012803D1022001B0BDE8F0833E
:1022F000012084F83C00002022211D46206484F83F
:102300003E102063FFF7A4F8A785E785A16807467C
:10231000B1F5805F01D1206910B1B046002601E01F
:102320004FF00008002084F83C00E08D002800F009
:102330009B8005F101090DE040684FF000086FF344
:102340005F2026F8020BE08D0138E085E08D002843
:1023500000F08A802068016889060DD4B9F1000F69
:1023600018D04DB3FFF774F8C01BA84224D82068DA
:1023700001688906F6D500BFB8F1000FDCD0A1686E
:10238000B1F5805F14D009B9216989B1406800F0C6
:102390007F000EE001688906EED4016889065CBF03
:1023A00001685FEA8161E7D401688906F2D5E3E755
:1023B000406808F8010BC6E7206850E8030F216861
:1023C00020F4D07041E80302E2B1206850E8030F26
:1023D000216820F4D07041E803029AB1206850E8E7
:1023E000030F216820F4D07041E8030252B1206845
:1023F00050E8030F216820F4D07041E80302002A5E
:10240000DAD100BF206850E8050F216820F00100F4
:1024100041E80502DAB1206850E8050F216820F094
:10242000010041E8050292B1206850E8050F2168DB
:1024300020F0010041E805024AB1206850E8050F8C
:10244000216820F0010041E80502002ADAD12020AD
:1024500084F83D0084F83E00002084F83C0003200E
:1024600001B0BDE8F08300BF202084F83E000020CA
:1024700001B0BDE8F08300002DE9F04381B00446CF
:1024800090F83D0020280DD10F4600294FF00100A3
:1024900000F0DD801646002A00F0D98094F83C0058
:1024A000012803D1022001B0BDE8F083012084F8A7
:1024B0003C000020206421201D4684F83D00FEF7EA
:1024C000C7FFA684E684A1680646B1F5805F03D104
:1024D0002069002800F01081B8460027002084F809
:1024E0003C00E18C2068002900F0908005F1010992
:1024F0000DE000BFB8F1000F28D018F8011B4160B3
:10250000E18C0139E184E18C002900F07F800168D1
:102510000906EFD4B9F1000F0AD0FDB1FEF798FF1C
:10252000801BA8421AD8206801680906F6D5E1E7A1
:1025300001680906DED4016809065CBF01685FEA2C
:102540000161D7D401680906F2D5D3E737F8021B39
:102550004FF000086FF35F21D1E700BF206850E81B
:10256000030F216820F4D07041E80302BAB3206859
:1025700050E8030F216820F4D07041E8030272B3E1
:10258000206850E8030F216820F4D07041E803026E
:102590002AB3206850E8030F216820F4D07041E886
:1025A0000302002ADAD11AE0206850E8050F2168FA
:1025B00020F0010041E80502DAB1206850E8050F7B
:1025C000216820F0010041E8050292B1206850E83E
:1025D000050F216820F0010041E805024AB120689A
:1025E00050E8050F216820F0010041E80502002AAB
:1025F000DAD1202084F83D0084F83E00002084F8E1
:102600003C00032001B0BDE8F08300BF016849062B
:1026100019D4FDB1691C0DD10168490613D40168B4
:1026200049065CBF01685FEA41610CD40168490654
:10263000F2D508E0FEF70CFF801BA8420AD82068FC
:1026400000684006F6D5202084F83D00002001B047
:10265000BDE8F083206850E8030F216820F4D070B3
:1026600041E80302E2B3206850E8030F216820F438
:10267000D07041E803029AB3206850E8030F216844
:1026800020F4D07041E8030252B3206850E8030FF1
:10269000216820F4D07041E80302002ADAD11FE05B
:1026A000206850E8050F216820F0010041E805028C
:1026B000002A9ED0206850E8050F216820F0010014
:1026C00041E80502002A3FF494AF206850E8050F66
:1026D000216820F0010041E80502002A3FF489AF9B
:1026E000206850E8050F216820F0010041E805024C
:1026F000002AD5D17DE700BF4FF00008EEE60000CC
:10270000FEE700002DE9F04383B0044600689946D7
:102710000368904643F48062026002680B9D42F4B5
:102720008072026042690A9ED2070F461DD1711C59
:1027300011D0002E00F03681FEF78AFE401BB04219
:1027400000F2328120684169C907F5D00DE000BF71
:102750004169C90709D14169C90706D14169C9075A
:1027600004BF41695FEAC171F2D007F0FE0707615B
:102770004169890738D44169721C01F4806111D024
:1027800049BB002E00F03A81FEF762FE401BB042CA
:1027900000F2368120684169890725D441694905DD
:1027A000F2D518E0B9B9416989071DD441694905D5
:1027B00011D44169890717D4416949050BD441698E
:1027C000890711D44169490505D4416989070BD4AA
:1027D00041694905E7D5016841F4007101606FF472
:1027E0008061416104200CE100210291014651F811
:1027F000142F02924A680292029A0A68120620D4A2
:10280000002E00F0AB80721C51D10A68520500F115
:10281000AD800A68120614D40A68520500F1A68039
:102820000A6812060DD40A68520500F19F800A68F2
:10283000120606D40A68520500F198800A6812064A
:10284000E3D5B9F1010F45D04FEA182101610146E6
:1028500051F8142F12063DD4002E00F07F80721C18
:102860002AD10A68520500F181800A68120631D423
:102870000A6852057AD40A6812062BD40A685205EF
:1028800074D40A68120625D40A6852056ED40A6800
:102890001206E6D51EE000BFFEF7DAFD401BB0428F
:1028A00061D82068014651F8142F1206C9D408686F
:1028B0004005F1D55AE000BF0868400556D4FEF740
:1028C000C7FD401BB0424ED82068014651F8142F76
:1028D0001206F1D55FFA88F10161014651F8142F13
:1028E00012061AD4D6B3721C33D10A6852053DD4ED
:1028F0000A68120611D40A68520537D40A6812060B
:102900000BD40A68520531D40A68120605D40A6845
:1029100052052BD40A681206E7D50168002241F45B
:102920008071016020464FF001113346009500F0A0
:1029300007FA002850D02068006844E0FEF788FDC0
:10294000401BB0420FD82068014651F8142F1206E0
:10295000E3D408684005F1D508E000BF08684005E9
:1029600004D4FEF775FD202004E000BF6FF4806002
:102970000860042000212022216384F83D2084F88F
:102980003E10226C1043206484F83C10206C042814
:1029900043D12068016841F400710160012003B057
:1029A000BDE8F083FEF754FD00202021206384F869
:1029B0003D1084F83E00216C41F020012164216823
:1029C00084F83C000868C00544BF4FF400702064E0
:1029D000032003B0BDE8F083206847F001010161E6
:1029E0000221C0F20101204632462B4600F050FA87
:1029F000002818BF012003B0BDE8F083FEF728FDD2
:102A0000202000212022216384F83D2084F83E10FC
:102A1000226C1043206484F83C10012003B0BDE810
:102A2000F08300002DE9F04381B004460068904631
:102A30000268099D42F4807202604269089E9946CC
:102A4000D2070F461DD1711C11D0002E00F0D2808C
:102A5000FEF7FEFC401BB04200F2CE8020684169C8
:102A6000C907F5D00DE000BF4169C90709D1416927
:102A7000C90706D14169C90704BF41695FEAC1714D
:102A8000F2D007F0FE0101614169890738D441693C
:102A9000721C01F4806111D049BB002E00F0E88067
:102AA000FEF7D6FC401BB04200F2E480206841698A
:102AB000890725D441694905F2D518E0B9B94169BA
:102AC00089071DD44169490511D44169890717D483
:102AD000416949050BD44169890711D44169490508
:102AE00005D4416989070BD441694905E7D50168D7
:102AF00041F4007101606FF4806141610420BAE02B
:102B000000210091014651F8142F00924A6800926A
:102B1000009A0A6812061ED4002E00F08580721CEE
:102B20004DD10A68520500F187800A68120612D456
:102B30000A68520500F180800A6812060BD40A6800
:102B4000520579D40A68120605D40A68520573D46E
:102B50000A681206E5D5B9F1010F43D04FEA1821F2
:102B60000161014651F8142F12063BD4002E5BD0B0
:102B7000721C29D10A6852055ED40A68120631D443
:102B80000A68520558D40A6812062BD40A685205FE
:102B900052D40A68120625D40A6852054CD40A6831
:102BA0001206E7D51EE000BFFEF752FC401BB04204
:102BB0003FD82068014651F8142F1206CBD408687C
:102BC0004005F1D538E000BF0868400534D4FEF771
:102BD0003FFC401BB0422CD82068014651F8142F0E
:102BE0001206F1D55FFA88F10161002001B0BDE85D
:102BF000F08300BFFEF72CFC00202021206384F826
:102C00003D1084F83E00216C41F0200121642168D0
:102C100084F83C000868C00544BF4FF4007020648D
:102C2000032001B0BDE8F0830868400504D4FEF736
:102C30000FFC202004E000BF6FF4806008600420D7
:102C400000212022216384F83D2084F83E10226C6C
:102C50001043206484F83C10206C042817D12068AD
:102C6000016841F400710160012001B0BDE8F0830A
:102C7000FEF7EEFB202000212022216384F83D2076
:102C800084F83E10226C1043206484F83C1001202C
:102C900001B0BDE8F083000070B50368044653F846
:102CA000140F400737D40E46F1B1701C24D100BF79
:102CB0001868400532D4186840072CD418684005BD
:102CC0002CD41868400726D41868400526D4186804
:102CD000400720D41868400520D4186840074FF0FA
:102CE000000048BF70BDE3E71868400516D4FEF742
:102CF000AFFB202016E000BF154600BF1868400556
:102D00000CD4FEF7A5FB401BB042F2D8236853F861
:102D1000140F4007F2D5002070BD00BF6FF4806033
:102D20001860042000212022216384F83D2084F8CB
:102D30003E10226C10432064012084F83C1070BDCA
:102D40002DE9F04105461446DDF8188001F47F00B6
:102D50002A681E46B0F5803F8FB241D15069384095
:102D6000C01BB0FA80F04009A0427BD1701C2DD06E
:102D7000002E7BD0FEF76CFBA0EB0800B04277D8AA
:102D8000286840693840C01BB0FA80F04009A04272
:102D9000F0D00020BDE8F08150693840C01BB0FA87
:102DA00080F04009A0425DD150693840C01BB0FAA4
:102DB00080F04009A04255D150693840C01BB0FA9C
:102DC00080F04009A0424FF000005FD150693840C8
:102DD000C01BB0FA80F04009A042DDD042E000BF45
:102DE00090693840C01BB0FA80F04009A04239D148
:102DF000701C1FD0D6B300BFFEF72AFBA0EB080063
:102E0000B04235D8286880693840C01BB0FA80F0DD
:102E10004009A042F0D00020BDE8F0819069384020
:102E2000C01BB0FA80F04009A0424FF0000018BF6C
:102E3000BDE8F08190693840C01BB0FA80F04009CD
:102E4000A0420FD190693840C01BB0FA80F0400911
:102E5000A04207D190693840C01BB0FA80F0400909
:102E6000A042DBD00020BDE8F08100BFFEF7F0FA01
:102E700000202021286385F83D1085F83E00296C4C
:102E800041F02001296485F83C000120BDE8F08173
:102E9000F0B581B0044600681D4643698FB203EA6D
:102EA0000701B94202D1002001B0F0BD41691646C8
:102EB000013201F480610FD059BB9EB3FEF7C8FA0E
:102EC000401BB04230D8206841693940B942EAD04D
:102ED00041694905F2D51CE0D9B941693940B94287
:102EE000E1D04169490514D441693940B942DAD089
:102EF000416949050DD441693940B942D3D041698E
:102F0000490506D441693940B942CCD041694905E7
:102F1000E3D5016841F4007101606FF480614161A3
:102F2000042002E0FEF794FA2020002120222163F1
:102F300084F83D2084F83E10226C1043206484F80D
:102F40003C10012001B0F0BDFEE70000FEE70000EC
:102F50007047000070470000FEF7E4BD4EF6885051
:102F6000CEF20000016841F470010160704700007A
:102F700010B504460068D4E902C22369016921F44E
:102F8000405111430161626943EA0C01E369114355
:102F9000C268194349F20C639A431143C160416905
:102FA000A26921F4407141F20043114340F4806270
:102FB000C4F201039A42416102D1FEF733FF01E0FE
:102FC000FEF71CFFE16963681922B1F5004FA0FB11
:102FD000020123D15A00DB0FFDF77CF948F21F51A3
:102FE000C5F2EB11A0FB01235A094FF69C73C0F602
:102FF000FF7303F1805302FB0300322303EBC00095
:10300000A0FB01014FF4F87000EA111000EB021070
:10301000C1F3421108442168886010BD9A009B0FDB
:10302000FDF758F948F21F51C5F2EB11A0FB01233F
:103030005A094FF69C73C0F6FF7302FB030032235C
:1030400003EB0010A0FB0101F02000EA511000EB9F
:103050000210C1F3431108442168886010BD0000CC
:10306000FEE7000080B582B040F27810C2F20000A6
:103070000DF10701012247F23053FFF71FF99DF8C8
:10308000070002B080BD000080B582B0019040F220
:103090007810C2F2000001A9012247F23053FFF775
:1030A000EBF9019802B080BD70B584B044F27A109B
:1030B000C0F60000FDF7CEFC40F27005C2F200053C
:1030C0006868297801260DF10E024FF0FF34CDE932
:1030D00000260F2201230294FEF77CFA60B102461B
:1030E00044F21410C0F600000F21FDF76BF94FF009
:1030F000FF34204604B070BD9DF80E2044F2BB00A2
:10310000C0F600000F21FDF75DF99DF80E0020F0DC
:1031100001008DF80E008DF80F0044F28A10C0F601
:103120000000FDF797FC686829780DF10F02CDE9E2
:1031300000260F2201230294FEF704FC9DF80F10D5
:103140000446002818BF014644F2E70244F23C104E
:10315000C0F60002C0F600000CBF10464FF0FF346E
:10316000CAB20F21FDF72EF9204604B070BD000051
:1031700070B584B044F27A10C0F60000FDF76AFC26
:1031800040F27005C2F200056868297801260DF149
:103190000E024FF0FF34CDE900260F2201230294E6
:1031A000FEF718FA60B1024644F21410C0F60000AF
:1031B0000F21FDF707F94FF0FF34204604B070BD32
:1031C0009DF80E2044F2BB00C0F600000F21FDF771
:1031D000F9F89DF80E0020F002008DF80E008DF831
:1031E0000F0044F28A10C0F60000FDF733FC686857
:1031F00029780DF10F02CDE900260F220123029458
:10320000FEF7A0FB9DF80F100446002818BF0146EA
:1032100044F2E70244F23C10C0F60002C0F600009F
:103220000CBF10464FF0FF34CAB20F21FDF7CAF8A9
:10323000204604B070BD000070B584B044F27A102E
:10324000C0F60000FDF706FC40F27005C2F2000572
:103250006868297801260DF10E024FF0FF34CDE9A0
:1032600000260E2201230294FEF7B4F960B1024653
:1032700044F21410C0F600000E21FDF7A3F84FF041
:10328000FF34204604B070BD9DF80E2044F2BB0010
:10329000C0F600000E21FDF795F89DF80E0020F015
:1032A00001008DF80E008DF80F0044F28A10C0F670
:1032B0000000FDF7CFFB686829780DF10F02CDE91A
:1032C00000260E2201230294FEF73CFB9DF80F100E
:1032D0000446002818BF014644F2E70244F23C10BD
:1032E000C0F60002C0F600000CBF10464FF0FF34DD
:1032F000CAB20E21FDF766F8204604B070BD00008A
:1033000070B584B044F27A10C0F60000FDF7A2FB5D
:1033100040F27005C2F200056868297801260DF1B7
:103320000E024FF0FF34CDE900260E220123029455
:10333000FEF750F960B1024644F21410C0F60000E6
:103340000E21FDF73FF84FF0FF34204604B070BD6A
:103350009DF80E2044F2BB00C0F600000E21FDF7E0
:1033600031F89DF80E0020F002008DF80E008DF867
:103370000F0044F28A10C0F60000FDF76BFB68688E
:1033800029780DF10F02CDE900260E2201230294C7
:10339000FEF7D8FA9DF80F100446002818BF014622
:1033A00044F2E70244F23C10C0F60002C0F600000E
:1033B0000CBF10464FF0FF34CAB20E21FDF702F8E1
:1033C000204604B070BD000070B584B044F27A109D
:1033D000C0F60000FDF73EFB40F27005C2F20005AA
:1033E0006868297801260DF10E024FF0FF34CDE90F
:1033F00000260E2201230294FEF7ECF860B102468B
:1034000044F21410C0F600000E21FCF7DBFF4FF071
:10341000FF34204604B070BD9DF80E2044F2BB007E
:10342000C0F600000E21FCF7CDFF9DF80E0040F025
:1034300001008DF80E008DF80F0044F28A10C0F6DE
:103440000000FDF707FB686829780DF10F02CDE950
:1034500000260E2201230294FEF774FA9DF80F1045
:103460000446002818BF014644F2E70244F23C102B
:10347000C0F60002C0F600000CBF10464FF0FF344B
:10348000CAB20E21FCF79EFF204604B070BD0000BA
:1034900010B582B0044630A0FDF7DCFA0020CDF86C
:1034A000030000906A460020072100F0A3F908B14C
:1034B00002B010BD9DF800209DF80130110901EB0C
:1034C000810102F00F0202EB41019DF802C0217060
:1034D000190901EB810103F00F0202EB41015FEAE0
:1034E0004C62617006D4CCF3011141EA81014A00BB
:1034F00009E000BF4FEACC610A2202EAE1725FEA0A
:103500008C6148BF0C320CF00F011143A1709DF883
:1035100004109DF80520C1F3011343EA830301F071
:103520000F0101EB4301217111099DF806C001EB68
:10353000810102F00F0202EB410161714FEA1C119F
:1035400001EB81010CF00F0202EB410101F5FA6180
:10355000E18002B010BD00BF6952746347657443D7
:10356000757272656E744461746554696D653A0D67
:103570000000000010B582B0044644F26810C0F6A6
:103580000000FDF767FA0020062C01900ED09CB9D0
:1035900028A0FDF75FFA01AA0720042100F02AF90C
:1035A00060B14FF0FF3002B010BD00BF01AA0B2088
:1035B000032100F01FF918B302B010BD25A0FDF7DC
:1035C00049FA9DF804009DF805109DF8062040F08A
:1035D00080009DF807308DF8040041F080008DF8E0
:1035E000050042F080008DF8060043F080008DF861
:1035F000070001A90720042200F06EF902B010BDF7
:103600009DF804009DF805109DF8062040F080000C
:103610008DF8040041F080008DF8050042F0800034
:103620008DF8060001A90B20032200F055F902B025
:1036300010BD00BF52656164206265666F726520CF
:103640007365742041315F5065725365636F6E64BA
:103650000D000000577269746520746F20736574E3
:103660002041315F5065725365636F6E640D0000D9
:103670002DE9F04383B00546070A060C44F26810B2
:10368000C0F600000C464FEA11294FEA1148FDF739
:10369000E1F9E9B2CD204143C90A01EB8102A5EB72
:1036A000420242EA01118DF80510F9B24143C90AFC
:1036B00001EB8102A7EB420242EA01118DF80610EC
:1036C000F1B24143CA0A302302EB820203EAD1116C
:1036D000A6EB420211438DF8071000218DF8081067
:1036E000E1B24143C90A01EB8102A4EB420242EA82
:1036F00001118DF809105FFA89F14843C00A00EB07
:103700008001A9EB410141EA00108DF80A00A8F5FB
:10371000FA6081B24CF6CD425143C90C01EB8102F3
:10372000A0EB420040EA01108DF80B000DF10501FD
:103730000020072200F0D0F803B0BDE8F0830000BD
:1037400070B584B044F27A10C0F60000FDF782F93B
:1037500040F27005C2F200056868297801260DF173
:103760000E024FF0FF34CDE900260E220123029411
:10377000FDF730FF9DF80E10002818BF014644F2F7
:10378000BB0244F21410C0F60002C0F6000008BFED
:103790001046CAB20E21FCF715FE9DF80E0040F04F
:1037A00004008DF80F0044F28A10C0F60000FDF707
:1037B00051F9686829780DF10F02CDE900260E2233
:1037C00001230294FEF7BEF89DF80F10002818BFE1
:1037D000014644F2E70244F23C10C0F60002C0F693
:1037E000000008BF1046CAB20E21FCF7EBFD04B082
:1037F00070BD000070B584B006461DA015460C468D
:10380000FDF728F940F27001C2F20001486809781A
:103810004FF0FF32A3B2CDE90132324601230095C9
:10382000FDF7D8FE40B1024616A03146FCF7CAFDAE
:103830004FF0FF3004B070BD1DA03146FCF7C2FD53
:10384000012C0CDB6E1E44F29B15C0F6000500BF78
:1038500016F8011F2846FCF7B5FD013CF8D144F2EB
:103860006510C0F60000FDF7F5F8002004B070BD4B
:10387000695274635F526561644E42797465730D79
:103880000000000009695274635F526561644E4232
:1038900079746573206661696C65642830782530B9
:1038A0003258292C206572723A25640D0A000000F6
:1038B00009695274635F526561644E42797465733D
:1038C0002073756363207265616420283078253029
:1038D0003258203D3E20000070B584B006461DA041
:1038E00014460D46FDF7B6F840F27001C2F2000131
:1038F000486809784FF0FF32A3B2CDE90132324671
:1039000001230095FEF71EF840B1024616A031468D
:10391000FCF758FD4FF0FF3004B070BD1DA03146DC
:10392000FCF750FD012C0CDB6E1E44F29B15C0F61B
:10393000000500BF16F8011F2846FCF743FD013CB7
:10394000F8D144F26510C0F60000FDF783F80020BE
:1039500004B070BD695274635F57726974654E42FA
:10396000797465730D00000009695274635F5772C2
:103970006974654E4279746573206661696C65642B
:1039800028307825303258292C206572723A256407
:103990000D0A000009695274635F57726974654EBD
:1039A00042797465732073756363207772697465F7
:1039B0002028307825303258203D3E20000000007D
:1039C0009CB043F6300440F2000AC4F20204C4F290
:1039D000020AFEF7B5F810AD05F108002821FDF741
:1039E0004FF800270F97CDE90D77CDE90B770A97B0
:1039F0002069012640F080502061206900F080504D
:103A00000A900A9847F200000A97CFF6FE705AF81B
:103A1000001066F38F314AF800105AF8000000F4E5
:103A200040400A900A984FF4803011902846109632
:103A30001697FEF741FA28B1EFF3108072B600BF77
:103A4000FEE700BF0F200BA9C1C14FF4A050CDE984
:103A50000E000BA80021FEF721F928B1EFF310802A
:103A600072B600BFFEE700BF0027109720680AF576
:103A7000C05B40F04000206020680DF1400800F07D
:103A80004000109010984FF4C04010900125584607
:103A90004146CDE911571397FDF7F2FB58464FF415
:103AA00000510022FDF7CEFC58464FF48041002221
:103AB000FDF7C8FC0B972068414640F001002060EC
:103AC000206800F001000B900B985046CDE910578C
:103AD000CDE91277FDF7D4FB0B976069414640F0C2
:103AE00010006061606900F010000B900B984FF4BB
:103AF000C06010900220CDE911070720CDE91370B6
:103B00005046FDF7BDFB40F27810AAF57041C2F2B5
:103B100000000C234FF4E13280E88600C0E903770F
:103B2000C0E90537C761FEF797FB0B9720681225A0
:103B300040F0040020602068042600F004000B9090
:103B40000B984FF48070109050464146CDE91157C4
:103B5000CDE91376FDF794FB4FF4007010A90AF538
:103B60000069A1C148464146CDE91376FDF788FBBF
:103B70000B97206945F6004140F400002061206960
:103B8000C4F2000100F400000B900B9840F22410E6
:103B9000C2F2000048F2A062C0F2010280E8860092
:103BA0004FF48041C760C0E90417C0E90677076297
:103BB000FDF754FC002819BF0146B7A0BCA00021A6
:103BC000FCF700FC40F22410C2F20000D02100F00B
:103BD000ABF9FFF731FBFFF793FBFFF765FAFFF750
:103BE000C7FA0120FFF7ACFD4FF4805010904FF45E
:103BF000041011900020CDE9120010A94846FDF7ED
:103C00003FFB282000210022FEF70CF82820FDF7BA
:103C1000F5FF0BA8FFF73CFC9DF830009DF83170D4
:103C20009DF82C309DF82D209DF82E10BDF83260A7
:103C3000CDE90007A3A00296FCF7C4FB0FF2A82869
:103C4000B2A70DF1270600BF4046FCF703FF384638
:103C50003146FCF7D9FD9DF827006E2800F0CC8096
:103C60007928F1D144F2B80944F24F070FF2A028A5
:103C7000C0F6000904AEC0F6000700BF4046FCF7DE
:103C8000A1FB48463146FCF7BFFD3846FCF7E2FE93
:103C90000498A0F6B83111F57A7FEFD344F26408A6
:103CA00044F2B80944F24F07C0F60008C0F6000914
:103CB00005AEC0F60007ADF8320000BF4046FCF785
:103CC00081FB48463146FCF79FFD3846FCF7C2FEB3
:103CD0000598A0F10D0111F10C0FEFD344F251083A
:103CE00044F2B80944F24F07C0F60008C0F60009D4
:103CF00006AEC0F600078DF8310000BF4046FCF765
:103D000061FB48463146FCF77FFD3846FCF7A2FED2
:103D10000698A0F1200111F11F0FEFD344F27808AB
:103D200044F2B80944F24F07C0F60008C0F6000993
:103D300007AEC0F600078DF8300000BF4046FCF724
:103D400041FB48463146FCF75FFD3846FCF782FEF2
:103D500007981728F2D844F2A20844F2B80944F2AE
:103D60004F07C0F60008C0F6000908AEC0F600070D
:103D70008DF82E004046FCF725FB48463146FCF7FF
:103D800043FD3846FCF766FE08983B28F2D844F21B
:103D90008C0844F2B80944F24F07C0F60008C0F698
:103DA00000090AAEC0F600078DF82D004046FCF76A
:103DB00009FB48463146FCF727FD3846FCF74AFE2A
:103DC0000A9B3B2BF2D89DF830009DF831709DF88E
:103DD0002D209DF82E10BDF83260CDE9000743F686
:103DE000E570C0F600008DF82C300296FCF7EAFA78
:103DF000DDE90B01FFF73CFC44F22300C0F60000B4
:103E0000FCF728FEEFF3108072B600200021002599
:103E1000FFF7B0FBFFF7D8FA44F2030844F2320789
:103E20000BAEC0F60008C0F6000762B60AE000BF9D
:103E300050460121FDF7F8FA002808BF0546642026
:103E4000FDF7ECF950460121FDF7EEFA0028EFD01E
:103E5000002DEDD13046FFF71BFB18B13846FCF7BB
:103E6000F9FD11E09DF830009DF831509DF82C309F
:103E70009DF82D209DF82E10BDF83240CDE90005AB
:103E800040460294FCF79EFA58464FF40051FDF765
:103E9000D1FA0125D3E700BF69326320696E6974E6
:103EA0002070726F626C656D2025750D0A00000030
:103EB00069326320696E69742073756363202575A8
:103EC0000D0A000063757272656E742074696D6509
:103ED0003A2025753A25753A25752025752F2575C3
:103EE0002F25750D0A000000446F20796F7520772B
:103EF000616E7420746F206368616E6765207469F9
:103F00006D653F2028792F6E290D00002563000084
:103F100053657420596561722028323030302D325B
:103F2000393939293A20000040F27002C2F2000209
:103F300050601170704730380A2801D20120704754
:103F40000020704710B500290AD00878002807D053
:103F500005487844FDF714F9002801D0002010BD71
:103F60000248784410BD0000720200006A0200009E
:103F7000F1EE100A4FF6FF71C0F2C03120EA0100E5
:103F800040F04070E1EE100A7047000000000000B1
:103F90000000000030313233343536373839414291
:103FA000434445464030580030313233343536379B
:103FB0003839616263646566403078000400000847
:103FC00000000000000000020001000010000000DE
:103FD00000000000000102030406070809000000B9
:103FE00000010203044E65772074696D653A20254F
:103FF000753A25753A25752025752F25752F257558
:104000000D0A00683A25757C6D3A25757C733A2552
:104010007520643A25752F6D3A25752F793A2575E7
:104020000D0A0053746172742050726F6772616D73
:104030000D006952746347657443757272656E74DE
:104040004461746554696D653A204572726F720DF2
:10405000005365742064617465202830312D33313C
:10406000293A2000536574204D6F6E746820283003
:10407000312D3132293A200053657420486F757212
:1040800073202830302D3233293A200053657420B4
:104090005365636F6E6473202830302D3539293AAB
:1040A0002000536574204D696E7574657320283047
:1040B000302D3539293A200025640009695274638E
:1040C0005F52656164427974652073756363207221
:1040D00065616420283078253032583D3E3078259F
:1040E000303258290D0A0009695274635F577269AA
:1040F000746542797465207375636320777269749F
:1041000065283078253032583D3E30782530325899
:10411000290D0A0009695274635F5265616442792E
:104120007465206661696C65642830782530325882
:10413000292C206572723A25640D0A0009695274AF
:10414000635F577269746542797465206661696C52
:10415000656428307825303258292C206572723AEF
:1041600025640D0A00290D00695274635365744477
:1041700061746554696D653A0D00695274635F52EC
:10418000656164427974653A0D00695274635F57E2
:1041900072697465427974653A0D00203078253073
:1041A00032580000D8420008000000201000000033
:1041B000E8010008E842000810000020B0070000F5
:1041C000040200081001000043000000F8FFFFFF98
:1041D000004040404040404040404141414141401A
:1041E00040404040404040404040404040404040CF
:1041F000400502020202020202020202020202025E
:104200000220202020202020202020020202020262
:1042100002029090909090901010101010101010BA
:1042200010101010101010101010101002020202C6
:10423000020288888888888808080808080808080A
:104240000808080808080808080808080202020206
:10425000400000000000000000000000000000001E
:10426000000000000000000000000000000000004E
:10427000000000000000000000000000000000003E
:10428000000000000000000000000000000000002E
:10429000000000000000000000000000000000001E
:1042A000000000000000000000000000000000000E
:1042B00000000000000000000000000000000000FE
:1042C00000000000000000000000000000000000EE
:1042D00000000000000000000100000010000000CD
:0842E0000024F40000000000BE
:04000005080001AD41
:00000001FF
