:020000040800F2
:1000000000000320D98F0008BB3E0008BD3E000859
:10001000BF3E0008C13E0008C33E000800000000CB
:10002000000000000000000000000000E187000860
:10003000C53E00080000000071880008A981000882
:1000400029900008299000082990000829900008AC
:10005000299000082990000829900008299000089C
:10006000299000082990000829900008299000088C
:10007000299000082990000829900008299000087C
:10008000299000082990000829900008299000086C
:10009000299000082990000829900008299000085C
:1000A000299000082990000829900008299000084C
:1000B000299000082990000829900008299000083C
:1000C000299000082990000829900008299000082C
:1000D000299000082990000829900008299000081C
:1000E000299000082990000829900008299000080C
:1000F00029900008299000082990000829900008FC
:1001000029900008299000082990000829900008EB
:100110002990000829900008C93E0008299000088D
:1001200029900008299000082990000829900008CB
:1001300029900008299000082990000829900008BB
:1001400029900008299000082990000829900008AB
:10015000299000082990000829900008299000089B
:10016000299000082990000829900008299000088B
:10017000299000082990000829900008000000003C
:10018000299000082990000829900008299000086B
:10019000299000082990000829900008299000085B
:0C01A000D53E000829900008E13E000850
:1001B00010B5054C237833B9044B13B10448AFF3A1
:1001C00000800123237010BD6001002000000000AA
:1001D000E40D020808B5034B1BB103490348AFF314
:1001E000008008BD0000000064010020E40D02084A
:1001F00053B94AB9002908BF00281CBF4FF0FF318E
:100200004FF0FF3000F072B9ADF1080C6DE904CE8B
:1002100000F006F8DDF804E0DDE9022304B07047E1
:100220002DE9F047089E04468846002B4BD18A42B0
:10023000154667D9B2FA82F24AB1C2F1200701FA33
:1002400002F320FA07F7954047EA030894404FEA83
:10025000154E230CB8FBFEF71FFA85FC0EFB178822
:1002600043EA084307FB0CF1994209D9EB1807F15F
:10027000FF3080F01B81994240F21881023F2B44ED
:100280005B1AA4B2B3FBFEF00EFB103344EA034446
:1002900000FB0CFCA44509D92C1900F1FF3380F0B8
:1002A0000781A44540F2048102382C4440EA07400B
:1002B000A4EB0C0400271EB1D4400023C6E9004380
:1002C0003946BDE8F0878B4209D9002E00F0EB805B
:1002D0000027C6E9000138463946BDE8F087B3FA81
:1002E00083F7002F47D18B4202D3824200F2FA807B
:1002F000841A61EB030301209846002EE0D0C6E982
:100300000048DDE702B9FFDEB2FA82F2002A40F0CF
:100310008F80491B4FEA154E1FFA85F80127B1FB64
:10032000FEFC230C0EFB1C1143EA014308FB0CF1FD
:10033000994207D9EB180CF1FF3002D2994200F232
:10034000CD808446591AA3B2B1FBFEF00EFB101407
:1003500043EA044408FB00F8A04507D92C1900F132
:10036000FF3302D2A04500F2B6801846A4EB080481
:1003700040EA0C409FE7C7F1200CBB4022FA0CFE7C
:100380004EEA030E01FA07F420FA0CF521FA0CF3F9
:100390004FEA1E482543B3FBF8F92C0C08FB193330
:1003A0001FFA8EFA44EA034309FB0AF49C4202FA5C
:1003B00007F200FA07F10BD91EEB030309F1FF3036
:1003C00080F087809C4240F28480A9F10209734446
:1003D0001B1BADB2B3FBF8F008FB103345EA034436
:1003E00000FB0AFAA24508D91EEB040400F1FF3312
:1003F0006BD2A24569D90238744440EA0940A0FB97
:100400000289A4EB0A044C45C2464B4654D351D052
:10041000002E69D0B1EB0A0564EB030404FA0CFC6E
:10042000FD40FC404CEA0505C6E90054002747E7BB
:10043000C2F1200320FA03F7954001FA02F021FAF5
:1004400003F34FEA154E3843010CB3FBFEF71FFAD6
:1004500085F80EFB173341EA034107FB08F38B4293
:1004600004FA02F407D9691807F1FF3C2FD28B4236
:100470002DD9023F2944CB1A81B2B3FBFEF00EFB0B
:10048000103341EA034100FB08F38B4207D9691896
:1004900000F1FF3C17D28B4215D902382944C91A02
:1004A00040EA07473BE73746304609E70746E7E6B5
:1004B0001846FBE64145ABD2B8EB020A69EB0E02E7
:1004C00001381346A4E76046E9E7184695E7674612
:1004D000D1E781467CE702382C4447E7ACF1020CB7
:1004E0002B442FE7384608E73746E9E6704700BF58
:1004F00001F0FF01102A2BDB10F0070F08D010F8D5
:10050000013B013A8B422DD010F0070F42B3F6D1D8
:10051000F0B441EA012141EA014122F007047FF0F1
:1005200000070023F0E80256083C85EA010586EA48
:10053000010685FA47F5A3FA87F586FA47F6A5FA84
:1005400087F68EB9EED1F0BC01F0FF0102F0070290
:1005500032B110F8013B013A83EA010313B1F8D13B
:100560000020704701387047002D06BF354603381C
:10057000073815F0010F07D1013015F4807F02BF55
:10058000013015F4C03F0130F0BC0138704700BFA6
:10059000704704387047704710B5102104461EF0AC
:1005A000A9FD204610BDA0F10400F5E71521C068A3
:1005B00000F04CB8A0F10400FFF7F8BF10B500221E
:1005C0008260044AC16002F108042432046042607F
:1005D00010BD00BF3C0E0208704770477047000016
:1005E00010B5034B0360044600F0A8F9204610BD87
:1005F000780E020810B50446FFF7F2FF20464FF4CC
:10060000D8711EF077FD204610BDD0F8A831013317
:100610003C2B02DCC0F8A8317047D0F8AC21013285
:100620000023642AC0F8A831D8BF1346C0F8AC3103
:100630007047000010B5044600F05AFA014B2360E1
:10064000204610BD780E020800F079B910B50B46AF
:100650000446064A142100F5B87011F093FC04F129
:10066000E400BDE810400FF051BC00BF6C0E020862
:100670007047000010B5034B0360044600F012FC05
:10068000204610BDAC0E020810B50446FFF7F2FF7D
:10069000204641F21C111EF02DFD204610BD000029
:1006A00010B5044600F05EFC014B2360204610BDEF
:1006B000AC0E020800F0ACBB41F218123C2183588A
:1006C0000133835093FBF1F201FB12332BB91E224D
:1006D000642100F5967008F03CBD70477047704784
:1006E00004387047704710B5102104461EF002FD13
:1006F000204610BDA0F10400F5E7000010B500226F
:100700008260044AC16002F1080420320460426041
:1007100010BD00BFD80E02087047704710B5034BDC
:100720000360044600F0D8FD204610BD0C0F0208FF
:1007300010B50446FFF7F2FF20464FF4BA711EF0E1
:10074000D9FC204610BD000010B5044600F01EFE86
:10075000014B2360204610BD0C0F020800F0BDBD08
:10076000704704387047704710B5102104461EF0DA
:10077000C1FC204610BDA0F10400F5E710B5002231
:100780008260044AC16002F10804203204604260C1
:1007900010BD00BF380F0208002202607047000041
:1007A000064A1368B3F57A7F05DD006800231360FD
:1007B00003689B6818470133136070477C01002071
:1007C000704700F598730868496803C3704770471D
:1007D00001F076B810B54FF4AE7104461EF08AFCF5
:1007E000204610BD10B50446D0F85801FFF7D8FFD9
:1007F0002046BDE810400EF097BB10B50446D0F877
:10080000400158B10368DB68984738B1D4F840011B
:1008100003689B6898470023C4F8403110BD00006E
:1008200010B5044601F014F8014B2360204610BDBA
:100830006C0F020890F8252012B103685B69184715
:1008400070470020704781807047C18070470181E8
:1008500070474181704770477047704770477047D5
:10086000C38810B4D21A83885DF8044BC91A036890
:1008700012B25B6D09B218474FF6FF7383814FF0D8
:10088000FF3303621368C36110607047704770479D
:1008900090F825201AB190F8242002B11860704712
:1008A00090F82C00704708B590F832300BB1FFF784
:1008B000C1FF08BD7047704730B585B0036801813E
:1008C0006D4601460446D3F884302846984795E89B
:1008D00007003C3484E8070005B030BD30B585B072
:1008E000036841816D4601460446D3F884302846AA
:1008F000984795E807003C3484E8070005B030BD10
:100900000022028042808280C280704780F83610C8
:10091000704770B5036804461B6B154698472368FB
:10092000294620465B6EBDE870401847002070479E
:1009300008B5FFF77FFF08BD806C704770477047B0
:1009400070477047704730B4C56844686A10034602
:10095000ED0704EB02009B6848BFA25830BC48BFBB
:10096000D358184743682BB183682BB9C06800F08F
:1009700001007047184670470120704710B50821E4
:1009800004461EF0B7FB204610BD10B54C210446AE
:100990001EF0B0FB204610BD10B5402104461EF0ED
:1009A000A9FB204610BD10B5102104461EF0A2FB85
:1009B000204610BD10B54FF4D47104461EF09AFBCA
:1009C000204610BD70B503685E6B124B1B68044671
:1009D0008DB22BB9104B114A6C2111481FF06EFAE1
:1009E0001049828D0988914203D80F4B0B4A6D2123
:1009F000F3E713F812200D4B1B6853F8220003682D
:100A00001B6B9847291A3346204609B2BDE870404F
:100A1000184700BF70310120E3100208D811020806
:100A20002511020874310120661102087831012075
:100A300010B50446806A50B10368DB68984730B14E
:100A4000A06A036821469B68BDE81040184710BDA6
:100A500070B504460D460AF08DFDE06B58B1036891
:100A6000DB68984738B1E06B03682A4621469B68EB
:100A7000BDE87040184770BD38B500F1A803994231
:100A800004460D4603D10EF0B3F900F029FF6C3493
:100A9000A54205D10EF0ACF9BDE8384000F070BFBA
:100AA00038BD00224FF0FF31C0E90021826070475D
:100AB00070B5036804461B6B1546984723682946A2
:100AC00020465B6BBDE87040184770B504461E4673
:100AD000BDF91050FFF7ECFF2368314620469A6BB2
:100AE0009047236829462046DB6BBDE870401847D5
:100AF0002DE9F04F04468FB0A34600250FF058FDB6
:100B0000AC4BE5634BF8403BAB4B23640126FF2322
:100B100004F16C0A04F1A80984F86630A4F8445082
:100B2000A4F84650A4F84850A4F84A50A4F84C50F1
:100B3000A4F84E50A4F85050A4F85250C4E91555EA
:100B4000E565A4F86050A4F8625084F8645084F815
:100B50006560A56650460BF02DFD48460BF02AFD5A
:100B6000964BC4F80C314FF6FF73A4F81031A4F87B
:100B70002431A4F82631924BC4F8E4304FF47F02BC
:100B800004F59873C4F818211846A4F8E850A4F89E
:100B9000EA50A4F8EC50A4F8EE50A4F8F050A4F8F1
:100BA000F250A4F8F450A4F8F650C4E93E55C4F845
:100BB0000051A4F80451A4F8065184F8085184F8AF
:100BC0000961C4F8145184F81C5184F81D51A4F82B
:100BD0002051A4F82251C4F82851C4F82C51029392
:100BE0000BF0E8FC774BC4F83031774BC4F8983100
:100BF000764BC4F8A0314FF4A0732A4658460093B0
:100C00002946F023C4F86C5184F85461C4F89C411F
:100C1000C4F8A451FFF759FF271D4FF07F43A36687
:100C20005946384608F0E2FB4FF48E728C2150464C
:100C3000FFF73EFF0B23ADF82C300DF1300B4FF0DA
:100C400009030BAAADF8303009A9134650460AAA89
:100C5000CDF800B0ADF82450ADF828600BF014FCCE
:100C60004FF0190204F5CC704FF6F971A4F8A420E6
:100C7000A4F8A6100390C4F894005146384608F032
:100C8000B5FB48464FF48E722946FFF711FF0A2341
:100C90000AA80246ADF82C3009A84FF00903014616
:100CA000ADF8303048460BABCDF800B0ADF824506D
:100CB000ADF828600BF0E8FB4FF01902039BA4F895
:100CC000E0204FF6F971A4F8E210C4F8D03049469C
:100CD000384608F08BFB04F1E4086E2332220093BF
:100CE0002946F0234046FFF7F0FE394BC4F8143193
:100CF000D4F8E430A4F818510DF110094846D3F89F
:100D000084304146984799E8070004F5907383E8DA
:100D10000700304B1B6804F5B8792BB92E4B2F4ACE
:100D200060212F481FF0CAF82E4B1B88022B03D8D6
:100D30002D4B2A4A6121F4E72C4B0221186801F05F
:100D400095FD2B4A03461421484611F01BF91B4B15
:100D5000C4F82C91594640460C93ADF834600BF022
:100D600065F84146384608F041FB29460298D922E9
:100D7000FFF79EFE0223ADF824300323ADF82830A0
:100D80000C23ADF82C30ADF830300AAA0BAB09A912
:100D90000298CDF800B00BF077FB61233846A4F839
:100DA0006831A4F86A51029908F020FB20460FB080
:100DB000BDE8F08FAC1102082C2E0208B80F020813
:100DC000C80F020858100208D0100208790A00085B
:100DD000FF4400FF70310120E310020813120208E3
:100DE0002511020874310120661102087C310120AE
:100DF000E010020800207047B1F904308380012020
:100E0000704770477047017670478182C282704791
:100E10007047704730B4C56844686A100346ED07F0
:100E200004EB02009B6848BFA25830BC48BFD358AF
:100E3000184743682BB183682BB9C06800F00100E4
:100E40007047184670470120704710B520210446AE
:100E50001EF050F9204610BD10B5102104461EF0BA
:100E600049F9204610BD70B505460B8825F8043FAA
:100E70000446284611F0B0FAA071284611F03CF95A
:100E80000646284611F06CF90023A360E081A68194
:100E900004F108000DF010FE284611F019FA206147
:100EA00070BD000010B5034B036004460CF0BEFAA1
:100EB000204610BD6413020810B5064B03600446BB
:100EC0000CF0B4FA204641F218111EF013F9204636
:100ED00010BD00BF6413020838B500F1A8039942A1
:100EE00004460D4603D10DF083FF00F019FD6C346C
:100EF000A54205D10DF07CFFBDE8384000F030BDC3
:100F000038BD000070B500238380114D114B036084
:100F10002A6892F87610064609B1D06C00B990683C
:100F20000368DB6A98472B68B0FA80F4D86C6409D0
:100F300028B10368DB6A9847002808BF01242CB950
:100F4000054B064A06482C211EF0B8FF304670BDFE
:100F50001831012070120208A01202089013020832
:100F6000FE1202082DE9F04F044691B0A346002579
:100F70000FF01EFBD04BE5634BF8403BCF4B236497
:100F80004FF0010804F16C0AFF2384F86630A4F8DE
:100F90004450A4F84650A4F84850A4F84A50A4F885
:100FA0004C50A4F84E50A4F85050A4F85250C4E944
:100FB0001555E565A4F86050A4F8625084F86450B3
:100FC00084F86580A56650460BF0F4FA04F1A80396
:100FD000184602930BF0EEFA04F1E4030393B84BC6
:100FE000C4F8E430B74BC4F80C3104F596764FF6EC
:100FF000FF774FF47F03C4F81831A4F81071A4F8F8
:101000002471A4F82671A4F8E850A4F8EA50A4F8D2
:10101000EC50A4F8EE50A4F8F050A4F8F250A4F864
:10102000F450A4F8F650C4E93E55C4F80051A4F8B1
:101030000451A4F8065184F8085184F80981C4F8D1
:10104000145184F81C5184F81D51A4F82051A4F8BF
:101050002251C4F8285130460AF086FF04F5337255
:10106000ADF83870104610AF0492FFF74BFF964B67
:10107000C4F8D43237F8083DA4F8D832394604F51C
:10108000357084F8DA52A4F8DC52A4F8DE52A4F8E1
:10109000E052A4F8E252C4F8E452A4F8E852A4F8EA
:1010A000EA5284F8EC52FFF7DEFE884BC4F8CC32EB
:1010B0002433C4F8D43241F20813E2180592844A6A
:1010C000E250059A41F210135460824AE25041F214
:1010D000141304F53E70E5504FF461610CF09CF977
:1010E0004FF4A07300932A46F02329465846FFF791
:1010F000ECFC04F104094FF07F42A26659464846D1
:1011000008F074F9294650464FF48E72FFF7D0FC70
:101110000DA94FF00A020B46ADF834200CA94FF090
:101120000902ADF8382050460A4600970BA94FF641
:10113000F97BADF82C50ADF830800BF0A5F9059A8D
:10114000C4F894204FF01901A4F8A4104846514661
:10115000A4F8A6B008F04AF902984FF48E728C21D8
:10116000FFF7A6FC4FF00902ADF838200BA80DAA36
:101170000B23ADF8343001461346029800970CAAB1
:10118000ADF82C50ADF830800BF07EF9059AC4F81C
:10119000D0204FF01901A4F8E01048460299A4F8B5
:1011A000E2B008F023F90398F7223921FFF780FC19
:1011B0000DF1180A4FF07F42C4F814210399A4F8E6
:1011C000185150460AF098FB9AE8070004F590730E
:1011D00083E807004FF0040A3A4B03980E93394610
:1011E000ADF83CA00AF022FE0399484608F0FEF84C
:1011F00039463046ADF838A008F08BF8F02300935C
:101200002A4629463046FFF760FC782211463046D0
:101210000AF083FF304679226FF074010BF002F878
:101220002B46642229463046009507F044FF30469D
:1012300032210AF0A1FF0A224123304606210AF09A
:1012400057FF414630460AF0EFFE414630460AF06D
:10125000EEFE414630460AF0EDFE3946052304987D
:10126000ADF8383009F07DFB30460AF0E6FE049B0D
:10127000836230460AF0E1FE4FF448634363304630
:101280000AF0DBFE4FF44663036430460AF0D5FEF5
:10129000B42109F0FDFB17228E231146009330463E
:1012A000C0230AF099FE4846314608F09FF82046D0
:1012B00011B0BDE8F08F00BF641302082C2E0208A5
:1012C0009C2D0208B80F020854120208D02A020806
:1012D00090120208D90E000870477047704730B46A
:1012E000C56844686A100346ED0704EB02009B687A
:1012F00048BFA25830BC48BFD358184743682BB1E9
:1013000083682BB9C06800F0010070471846704729
:101310000120704710B5102104461DF0EBFE204659
:1013200010BD10B54FF4BA7104461DF0E3FE20461F
:1013300010BD38B500F16C03994204460D4603D147
:101340000DF056FD00F0FCFAA834A54205D10DF0D1
:101350004FFDBDE8384000F0D3BA38BD0A4A0260FC
:1013600000228280C280028142818281C281028207
:101370004282C0E90522C2610284428480F82420AE
:10138000012280F825207047BC3002082DE9F04F7B
:1013900004468FB0274600250FF00AF98D4BE56310
:1013A00047F8403B26231A462946384603931EF049
:1013B00000FE3846FFF7D2FF874A226404F16C0B27
:1013C000FF2204F1A80A84F86620A56658460BF0AF
:1013D000F1F850460BF0EEF8039B04F1E4091A46CD
:1013E000294648461EF0E5FD4846FFF7B7FF4FF097
:1013F000010384F80831039B784AC4F8E4204FF6CF
:10140000FF7804F58E761A462946A4F81281A4F8CE
:10141000148184F81681A4F81881C4F80C5184F85A
:10142000105130461EF0C5FD3046FFF797FF6C4B5C
:10143000C4F81C316B4BC4F844314FF47F03C4F83B
:101440005031694BC4F86431684BC4F86C312A469A
:10145000A4F84881A4F85C81A4F85E812946384646
:10146000C4F84C5184F8545184F85551A4F858519B
:10147000A4F85A51C4F86051C4F86841C4F87051D6
:10148000FFF716FB3846F021FFF7E1F938464FF435
:10149000A071FFF7DEF904F104084FF07F43A36663
:1014A0003946404607F0A2FF294658464FF48E724F
:1014B000FFF7FEFA0BA80A23ADF82C304FF001021B
:1014C00003460AA80CAFADF828204FF009010246E8
:1014D00009A8ADF83010009701465846ADF82450E1
:1014E0000AF0D2FF04F5B27E4FF6F97C4FF01900F6
:1014F000C4F894E0A4F8A6C0A4F8A4005946404655
:10150000CDF80CE007F072FF50464FF48E728C213C
:10151000FFF7CEFA4FF00102ADF828200B230BAAFB
:101520004FF00901ADF82C30ADF83010134609A981
:101530000AAA50460097ADF824500AF0A5FF4FF6CE
:10154000F97C039AA4F8E2C04FF01900A4F8E00077
:10155000C4F8D0205146404607F048FF4846A02234
:101560002321FFF7A5FA0823ADF82C300723A4F8B0
:1015700018313A460BA94846ADF830300AF066FEFD
:101580004946404607F032FF132230461621FFF746
:101590008FFA0DF11009164BC4F84C31314648460C
:1015A000A4F850510AF0A8F999E8070004F5AC73C3
:1015B00083E807000B4B0C9339463046ADF83450A6
:1015C0000AF034FC4046314607F010FF20460FB0C9
:1015D000BDE8F08FEC1302082C2E0208B82C02088C
:1015E0009C2D0208B80F0208D41302083313000818
:1015F000F7EF07FF704770477047416070477047CB
:10160000012303727047704770477047704710B4EA
:10161000C468416862100346E40701EB02009B685E
:1016200048BF8A585DF8044B48BFD35818474368F1
:101630002BB183682BB9C06800F0010070471846D1
:1016400070470120704710B50C2104461DF052FD73
:10165000204610BD10B54FF4AE7104461DF04AFD92
:10166000204610BD10B5102104461DF043FD204654
:1016700010BD10B5402104461DF03CFD204610BDB4
:1016800010B5402104461DF035FD204610BD08B5BB
:101690000DF0AEFBBDE808400EF03CB870B5044656
:1016A00090F8390094F838300130C0B2984284F88C
:1016B000390005D901232372002384F8393070BD25
:1016C000B4F93A2000210FF025F983B213F001029A
:1016D00006D04FF6FF710028D8BF0A46981800B20E
:1016E000238AC01AA08760680368DB6998470546AB
:1016F0004DB1A988A38F19442B6828461B6B09B2EA
:101700009847AD69F4E760680368BDE870405B69BD
:10171000184770B5044690F8390094F83830013015
:10172000C0B2984284F8390005D9012323720023FE
:1017300084F8393070BDB4F93A2000210FF0EAF88E
:1017400083B213F0010206D04FF6FF710028D8BF14
:101750000A46981800B2238AC01AA08760680368F6
:10176000DB69984705464DB1A988A38F19442B68BA
:1017700028461B6B09B29847AD69F4E760680368B7
:10178000BDE870405B691847054B1B783BB1436867
:101790002BB11A6800F10C01526E184610477047C1
:1017A00015310120054B1B783BB143682BB11A68FA
:1017B00000F10C01526E1846104770471531012098
:1017C00070B5037A0546BBB940680368DB69984782
:1017D00004464CB1A1886B8FC91A236820461B6B45
:1017E00009B29847A469F4E76868036805F10C0139
:1017F0001B6EBDE87040184770BD70B5037A054692
:10180000BBB940680368DB69984704464CB1A188BE
:101810006B8FC91A236820461B6B09B29847A469CD
:10182000F4E76868036805F10C011B6EBDE87040C1
:10183000184770BD70B5036804469B6B1546984702
:10184000236829462046DB6BBDE87040184700003E
:10185000F8B5044617460E460DF0D6FB144BC4F8F7
:1018600058611C60134E144B236000253068134BE5
:10187000C4F83C51C4F84051C4F84431C4F848514C
:10188000C4F84C51C4F85051C4F854710368012194
:101890009B689847284600F0AFFF336893F876209E
:1018A0000AB1D86C00B9986815F0F9FA2046F8BD6D
:1018B0006C3101201831012038140208201402086C
:1018C000064BC0F84C310023C0F8503100F5A2732C
:1018D000C0F84801C0F84031704700BFED1A000859
:1018E000064BC0F84C310023C0F8503100F5A2730C
:1018F000C0F84801C0F84031704700BFB51C00086F
:10190000064BC0F84C310023C0F8503100F5A273EB
:10191000C0F84801C0F84031704700BF3D210008C1
:10192000064BC0F84C310023C0F8503100F5A273CB
:10193000C0F84801C0F84031704700BF9D22000840
:10194000064BC0F84C310023C0F8503100F5A273AB
:10195000C0F84801C0F84031704700BF151E0008AC
:10196000064BC0F84C310023C0F8503100F5A2738B
:10197000C0F84801C0F84031704700BF751F00082B
:10198000064BC0F84C310023C0F8503100F5A2736B
:10199000C0F84801C0F84031704700BFFD2300087F
:1019A00003685B6A184703685B6A18472DE9F047CC
:1019B00007469068DDF820A0994603681B6A8846B0
:1019C0001546984741F21B13984205D8414B424AAD
:1019D000A32142481EF072FA686803681B6A9847A0
:1019E0000F2803D83E4B3C4AA421F2E7E86803687D
:1019F0001B6A98470B2803D83A4B374AA521E8E7DA
:101A00000DF0F6F904300DF031FAD9F8000010B1FC
:101A10000368DB689847D9F8000010B103681B68B9
:101A20009847386810B103685B699847D8F8000098
:101A300010B103685B689847386810B103681B6889
:101A40009847D8F8000010B103689B689847E86889
:101A5000036800215B6A9847044620B10023436075
:101A60000372214B03600021A868FFF799FF064627
:101A700008B1FEF715FE68680021FFF794FF0546E0
:101A800010B13146FEF73AFEC9F80040C8F80050E0
:101A90003E60E5B12B1DCAF80030C5F808A03368D8
:101AA000F5633046DB6898472B6828461B689847E3
:101AB000214630460EF028FF236820461B699847D0
:101AC000236820465B6998472846BDE8F0872B4687
:101AD000E1E700BFE81402085F1902087615020862
:101AE000B71502085A1602088414020807B5D0F880
:101AF00058310093D0F85421044B00F59E710448EE
:101B0000FFF754FF03B05DF804FB00BF6031012014
:101B10005C31012003685B6A18470000F8B5054690
:101B20000026134B4660067245F80C3B04462846D7
:101B30000F4609F0E1FD0F4B84F838701B7884F8EC
:101B40003960A6871BB9012323722046F8BD0A4BD2
:101B50000A4FB3F90020B7F9001026612846FFF7B5
:101B600069FE284609F044FD3B886387EDE700BF26
:101B7000CC140208153101200C3101200A3101205A
:101B80002DE9F04707469068DDF820A099460368E4
:101B90001B6A88461446984741F21B13984205D8A1
:101BA0003F4B404AA32140481EF088F96068036813
:101BB0001B6A98470F2803D83C4B3A4AA421F2E706
:101BC000E06803681B6A98473F2803D8384B354ABA
:101BD000A521E8E70DF00CF904300DF047F9D9F82C
:101BE000000010B10368DB689847D9F8000010B115
:101BF00003681B689847386810B103685B699847A9
:101C0000D8F8000010B103685B689847386810B1D5
:101C100003681B689847D8F8000010B103689B68F8
:101C200098470021E068FFF775FF054610B11421C1
:101C3000FFF774FF0021A068FFF7B2FE064608B167
:101C4000FEF72EFD60680021FFF7ADFE044610B1DF
:101C50003146FEF753FDC9F80050C8F800403E6019
:101C6000E4B1231DCAF80030C4F808A03368F46357
:101C70003046DB689847236820461B68984729460A
:101C800030460EF041FE2B6828461B6998472B68AA
:101C900028465B6998472046BDE8F0872346E1E780
:101CA000E8140208AA1B020876150208B7150208F4
:101CB0005A16020807B5D0F858310093D0F85421CD
:101CC000044B00F59E710448FFF75AFF03B05DF81E
:101CD00004FB00BF603101205C3101202DE9F04799
:101CE00007469068DDF820A0994603681B6A88467D
:101CF00014469847B0F5D87F05D2414B414AA321FD
:101D000041481EF0DBF8606803681B6A98470F289B
:101D100003D83E4B3B4AA421F2E7E06803681B6A04
:101D200098473F2803D83A4B364AA521E8E70DF0FB
:101D30005FF804300DF09AF8D9F8000010B103688C
:101D4000DB689847D9F8000010B103681B68984712
:101D5000386810B103685B699847D8F8000010B183
:101D600003685B689847386810B103681B68984738
:101D7000D8F8000010B103689B6898470021E0681C
:101D8000FFF7C8FE054610B11421FFF7C7FEA06893
:101D9000036800215B6A9847064608B1FEF74AFCD3
:101DA0006068036800215B6A9847044610B13146B9
:101DB000FEF704FCC9F80050C8F800403E60E4B1EA
:101DC000231DCAF80030C4F808A03368F463304615
:101DD000DB689847236820461B68984729463046A9
:101DE0000EF092FD2B6828461B6998472B68284601
:101DF0005B6998472046BDE8F0872346E1E700BFCE
:101E0000E8140208161E020876150208B715020823
:101E10005A16020807B5D0F858310093D0F854216B
:101E2000044B00F59E710448FFF758FF03B05DF8BE
:101E300004FB00BF603101205C3101202DE9F04737
:101E400007469068DDF820A0994603681B6A88461B
:101E500014469847B0F5BA7F05D2414B414AA321B9
:101E600041481EF02BF8606803681B6A98470F28EA
:101E700003D83E4B3B4AA421F2E7E06803681B6AA3
:101E800098473F2803D83A4B364AA521E8E70CF09B
:101E9000AFFF04300CF0EAFFD9F8000010B103687E
:101EA000DB689847D9F8000010B103681B689847B1
:101EB000386810B103685B699847D8F8000010B122
:101EC00003685B689847386810B103681B689847D7
:101ED000D8F8000010B103689B6898470021E068BB
:101EE000FFF718FE054610B11421FFF717FEA06892
:101EF000036800215B6A9847064608B1FEF724FC98
:101F00006068036800215B6A9847044610B1314657
:101F1000FEF734FCC9F80050C8F800403E60E4B158
:101F2000231DCAF80030C4F808A03368F4633046B3
:101F3000DB689847236820461B6898472946304647
:101F40000EF0E2FC2B6828461B6998472B68284650
:101F50005B6998472046BDE8F0872346E1E700BF6C
:101F6000E81402082E18020876150208B7150208B0
:101F70005A16020807B5D0F858310093D0F854210A
:101F8000044B00F59E710448FFF758FF03B05DF85D
:101F900004FB00BF603101205C31012003685B6AF3
:101FA00018470000F8B505460026134B4660067238
:101FB00045F80C3B044628460F4609F09DFB0F4BA5
:101FC00084F838701B7884F83960A6871BB9012320
:101FD00023722046F8BD0A4B0A4FB3F90020B7F927
:101FE000001026612846FFF725FC284609F000FB73
:101FF0003B885B426387ECE7A81402081531012097
:102000000C3101200A3101202DE9F0470746906884
:10201000DDF820A0994603681B6A88461446984755
:1020200041F21B13984205D83F4B404AA321404838
:102030001DF044FF606803681B6A98470F2803D8A7
:102040003C4B3A4AA421F2E7E06803681B6A9847D0
:102050003F2803D8384B354AA521E8E70CF0C8FEE5
:1020600004300CF003FFD9F8000010B10368DB68FE
:102070009847D9F8000010B103681B689847386882
:1020800010B103685B699847D8F8000010B1036885
:102090005B689847386810B103681B689847D8F8A0
:1020A000000010B103689B6898470021E068FFF7C3
:1020B00075FF054610B11421FFF774FF0021A068D9
:1020C000FFF76EFC064608B1FEF7EAFA60680021E9
:1020D000FFF769FC044610B13146FEF70FFBC9F863
:1020E0000050C8F800403E60E4B1231DCAF800303B
:1020F000C4F808A03368F4633046DB689847236867
:1021000020461B689847294630460EF0FDFB2B6899
:1021100028461B6998472B6828465B6998472046E4
:10212000BDE8F0872346E1E7E8140208771A0208C1
:1021300076150208B71502085A16020807B5D0F836
:1021400058310093D0F85421044B00F59E71044897
:10215000FFF75AFF03B05DF804FB00BF60310120B8
:102160005C3101202DE9F04707469068DDF820A09A
:10217000994603681B6A884614469847B0F5D87F8D
:1021800005D2414B414AA32141481DF097FE6068AA
:1021900003681B6A98470F2803D83E4B3B4AA4218B
:1021A000F2E7E06803681B6A98473F2803D83A4B78
:1021B000364AA521E8E70CF01BFE04300CF056FE71
:1021C000D9F8000010B10368DB689847D9F800001F
:1021D00010B103681B689847386810B103685B69E1
:1021E0009847D8F8000010B103685B6898473868D2
:1021F00010B103681B689847D8F8000010B1036855
:102200009B6898470021E068FFF7C8FE054610B1BB
:102210001421FFF7C7FEA068036800215B6A984796
:10222000064608B1FEF706FA6068036800215B6A9B
:102230009847044610B13146FEF7C0F9C9F800507E
:10224000C8F800403E60E4B1231DCAF80030C4F86D
:1022500008A03368F4633046DB689847236820465B
:102260001B689847294630460EF04EFB2B682846DF
:102270001B6998472B6828465B6998472046BDE84C
:10228000F0872346E1E700BFE8140208DD1C0208DE
:1022900076150208B71502085A16020807B5D0F8D5
:1022A00058310093D0F85421044B00F59E71044836
:1022B000FFF758FF03B05DF804FB00BF6031012059
:1022C0005C3101202DE9F04707469068DDF820A039
:1022D000994603681B6A884614469847B0F5BA7F4A
:1022E00005D2414B414AA32141481DF0E7FD6068FA
:1022F00003681B6A98470F2803D83E4B3B4AA4212A
:10230000F2E7E06803681B6A98473F2803D83A4B16
:10231000364AA521E8E70CF06BFD04300CF0A6FD71
:10232000D9F8000010B10368DB689847D9F80000BD
:1023300010B103681B689847386810B103685B697F
:102340009847D8F8000010B103685B689847386870
:1023500010B103681B689847D8F8000010B10368F3
:102360009B6898470021E068FFF718FE054610B10A
:102370001421FFF717FEA068036800215B6A9847E5
:10238000064608B1FEF7E0F96068036800215B6A61
:102390009847044610B13146FEF7F0F9C9F80050ED
:1023A000C8F800403E60E4B1231DCAF80030C4F80C
:1023B00008A03368F4633046DB68984723682046FA
:1023C0001B689847294630460EF09EFA2B6828462F
:1023D0001B6998472B6828465B6998472046BDE8EB
:1023E000F0872346E1E700BFE8140208FD16020863
:1023F00076150208B71502085A16020807B5D0F874
:1024000058310093D0F85421044B00F59E710448D4
:10241000FFF758FF03B05DF804FB00BF60310120F7
:102420005C31012013B5002249B102AB019203F8DF
:10243000052D0268946801AAA04702B010BD0846A5
:10244000FBE7C0897047008A7047C0887047808862
:102450007047807A00F07F007047807AC00970472B
:10246000406A7047806A704770478B88C0690A6805
:10247000DB0A50F823001044704710B5C2B1137B3B
:10248000B3B1547BD27A240204F4E0641443026AA8
:1024900098B202EB840213888B4202D192F90200B7
:1024A00010BD05D8013880B204320028F3D1F7E717
:1024B0000020F5E710B52C2104461CF01BFE204639
:1024C00010BD000030B58BB00446BDF860500895D3
:1024D000BDF85C5007959DF8505006959DF84C50FE
:1024E00005959DF8485004959DF8445003959DF836
:1024F000405002959DF83C500195BDF8385000952C
:102500000DF0B2FD064B2360159BE361169B236221
:10251000199B63621A9BA36220460BB030BD00BFBB
:10252000581F020830B5174D2C78BFF35B8F14F09D
:1025300001048FB022D128461CF0B4FDF0B13F2336
:102540000993114B0893114B11490A940122CDE9CB
:1025500006430423CDE903320A230093CDE90B445B
:102560000594CDE901440B48FFF7ACFF28461CF069
:10257000A5FD094A094907481CF0B7FD05480FB0F9
:1025800030BD00BF80010020945702089057020818
:10259000A4550208840100200000002069240008DE
:1025A00030B5184D2C78BFF35B8F14F001048FB059
:1025B00024D128461CF076FD00B33F230993124B2B
:1025C0000893124B07930123CDE905430493042399
:1025D000CDE90243282316220D490093CDE90B448F
:1025E00029230A9401940B48FFF76CFF28461CF03E
:1025F00065FD094A094907481CF077FD05480FB0F9
:1026000030BD00BFB00100208C570208B05702084F
:10261000CC550208B4010020000000206924000805
:1026200030B5184D2C78BFF35B8F14F001048FB0D8
:1026300024D128461CF036FD00B33F230993124BEA
:102640000893124B07930123CDE905430493042318
:10265000CDE9024314230A220D490093CDE90B442E
:1026600018230A9401940B48FFF72CFF28461CF00E
:1026700025FD094A094907481CF037FD05480FB0F8
:1026800030BD00BFE001002098570208B45702088F
:1026900000570208E401002000000020692400081F
:1026A000704710B5042104461CF024FD204610BDDF
:1026B000012908B508D003D3022909D0002002E07F
:1026C00000F012F8006808BD00F00EF84068FAE764
:1026D00000F00AF88068F6E700487047C41F020857
:1026E0000E207047052070470048704710020020F8
:1026F00010B5FFF795FF044C2060FFF751FF6060B5
:10270000FFF710FFA06010BD1002002000207047EE
:10271000002070470EB403B503AB002153F8042B1F
:1027200001930DF0C9FA02B05DF804EB03B07047F5
:102730000CB407B504AB53F8042B01930DF0BCFAAD
:1027400003B05DF804EB02B07047000010B5436CB5
:10275000044673B3038F2BB9184B194AC521194886
:102760001DF0ACFBC38E00EB43035B8C0BB30EF090
:102770005AFE238F012B03D8134B144ACB21EEE7CB
:10278000E28E531C9BB2092B194688BFA3F10A01A4
:1027900004EB410140F63F10498C814209D10A2BDC
:1027A00004EB420228BF002304EB4303508C5884FF
:1027B00051842046BDE810400EF038BDDC200208F0
:1027C00009220208E520020829210208372102080F
:1027D0000EF0F3BC10B586B002AC84E806001A46D1
:1027E0000AAB05930193099B00932146089B0BF0CC
:1027F000A1FE06B010BD000038B5D8B9114B124883
:102800001B681249BBB11A689C681A4402605A6876
:102810001A440A601C446CB10D4B00221A80FFF769
:1028200063FF0546FFF75EFF0A4B1C600A4B1D6005
:102830000A4B188038BD0A4B03600A4B0B600A4BE9
:102840001C68E8E71C02002020020020240200206F
:1028500028020020703101207831012074310120DC
:10286000B4BC0D0890BC0D08B0BC0D08044B1B682F
:1028700053F82100034B1B6803EB4000704700BF77
:102880002402002020020020012380F8741080F828
:1028900075307047002070474164034B003118BF0A
:1028A00001211970704700BF1531012000207047C9
:1028B000836B0BB10846184770474FF6FF7070479F
:1028C000406803689B6918477047704780F8261076
:1028D000704790F82600704710B50022B1F9084003
:1028E000B1F90A10028042808480C18010BD0022AC
:1028F000028042808280C28070470000034B902299
:1029000083F85A2383F85823704700BF00E100E0A2
:10291000094A0A49D3680A48C3F30A03013B9BB238
:102920000B801169C1F30A01013901801364536BF3
:1029300043F0010353637047006801402E020020FA
:102940002C020020014B986A704700BF8468014048
:10295000024B0122996243F8602C70478468014061
:1029600010B531B90A4B0B4A0B4840F2D2211DF089
:10297000A5FAC0E90F120032084918BF01220A70F7
:1029800002681946D2F88C20BDE81040104700BFFD
:1029900017230208D12302084F2302081431012013
:1029A00008B5094B1B888B4203D8084B1B88934200
:1029B00005D9074B074A08489E211DF07FFA074BAF
:1029C0001980074B1A8008BD0A3101200C31012003
:1029D000B42202088E2302084F230208103101207E
:1029E0001231012070B5044606F0EBFF23685D6EDE
:1029F0000CF0FEF901462046A8472368054AD3F8A3
:102A000088502046AC460023A2F51631BDE8704040
:102A1000604700BF005802D006F0BABF90F84B30B4
:102A200013B1024B01221A7006F0BEBF2A02002029
:102A300006F078BF07F0D3B810B5044607F006FDDE
:102A400023682046D3F8AC30BDE81040184790F812
:102A500077301BB1406803681B68184718467047F9
:102A600010B590F8744090F834100C4B8C421A78E2
:102A700009D03AB90A4A0B491488088810800C809A
:102A800001221A7010BD002AFCD0054A054914889D
:102A9000088810800C800022F3E700BF0E3101206F
:102AA0000A3101200C310120034B4FF080629A6003
:102AB0004FF080729A60704700E100E0084B4FF0E1
:102AC0008062C3F88820BFF34F8FBFF36F8F4FF042
:102AD0008072C3F88820BFF34F8FBFF36F8F7047AA
:102AE00000E100E010B5144C236823B3134B144AE3
:102AF0001B6C11888B4213D1124B198803F05AFDBD
:102B0000226892F86630013382F8663000F04EFA9F
:102B1000206807F09BFC0020BDE8104000F062BC7C
:102B200003F048FD206803681B6A98470020BDE851
:102B3000104000F081BC10BD183101200068014038
:102B40002E0200202C02002003685B6C1847012035
:102B5000704703689B6A184782B0002301930D4BAE
:102B60001A6B42F400021A631A6B02F4000201921B
:102B7000019A1A6942F400021A611A6922F40002E9
:102B80001A61054B054A1A61054B4FF080629A6045
:102B900002B0704700380240D8330120AD2B000846
:102BA00000E100E040F2EF3070470000024B1B688C
:102BB000586803685B6918471831012008B50B286D
:102BC0000BD8DFE800F01206100A0A0A0A08080803
:102BD0000808012008BD0520FCE7054B054A06480A
:102BE00066211DF06BF90020F4E70220F2E700BF38
:102BF000392402080A2502085424020808B50A28C4
:102C000009D8DFE800F010060E08080808060606D6
:102C10000600012008BD054B054A064887211DF026
:102C20004DF90020F6E70220F4E700BF392402083E
:102C30005425020854240208F8B50C46487FFFF7D3
:102C4000BDFFA77F05463846FFF7B8FF0646384662
:102C5000FFF7D4FFA38A628BD21A494B1A64A18A68
:102C6000628B521A9A61A18A228B521A1A61586396
:102C7000A18AE28A42EA01425A642269DA636268FE
:102C8000DA602268402A70D010D8042A3BD0202A6B
:102C90006BD0237F45EA0365394B45F40035DD6190
:102CA000617FA27F914267D0364A4BE0B2F5807FC8
:102CB0001BD0B2F5007F23D0802AEAD1A068021D84
:102CC000DA62227F45EA026545F40035DD615E6225
:102CD00022695A610278EAB1012A35D02A4B2B4A7F
:102CE0002B4840F211111DF0E9F8217F294A42EAF0
:102CF0000162DA61E2681A625E6222695A6120E06A
:102D0000217F254AF3E7227F45EA026545F4003535
:102D1000DD61F1E7D9694288501E21F47F4222F03B
:102D2000100242EA0022DA610121154BDA6942F011
:102D30002002DA61DA699206FCD410229A60002936
:102D4000B2D0164A1A60F8BDDA694088217F22F4B1
:102D50007F4222F01002013842F01002FF3942EAAD
:102D6000002218BF0121DA61DFE7237F45EA03650E
:102D700045F40035024BCBE740F20122E2E700BF09
:102D800000B00240010201001F240208CC24020806
:102D9000542402080A000200090002000102020095
:102DA00010B5887F0C46FFF729FF1C4B5863A18A9A
:102DB000E28A42EA01425A642269DA63628BA18A9A
:102DC000521A1A642268082A16D1A18A628B521AF2
:102DD0009A61A18A628B521A1A615862217F104A45
:102DE00042EA0162DA61E2681A6222695A61226982
:102DF000DA600C4A1A6010BD0022D8611A61E168DD
:102E00000A0A480902F4784200F4FC600243C1F364
:102E1000C4010A439A63044AECE700BF00B00240D1
:102E2000090001000102020001020300054B0360DA
:102E3000054B4FF08062C3F88820BFF34F8FBFF37C
:102E40006F8F70478424020800E100E010B504464B
:102E5000FFF7ECFF20464FF45A611CF04BF9204677
:102E600010BD000070B505462C460A4B0C300026FC
:102E700068602E726E7244F8203B6022214607F093
:102E80003BFC05F55A63E6602434A342FBD1284697
:102E900070BD00BF84240208034B1A68D207FCD41B
:102EA00023229A60704700BF00B0024030B50E4C3C
:102EB0002568ED07FCD423251204A56042F0010229
:102EC0000225FF2B65636264E063E16008D01B06A6
:102ED00043F00213E361054B65626061236030BD1E
:102EE000034BE3610123F9E700B002400100020057
:102EF000020002FF30B50B4C2568ED07FCD42325FA
:102F000012041B06A56043F40033022542F00102BF
:102F100065636264E063E160E361034B6562606185
:102F2000236030BD00B0024001000200012108B55D
:102F30000022084605F0BBF90A4B186028B90A4B75
:102F40000A4A28210A481CF0B9FF00220421012066
:102F500005F04EFA074B186018B9074B034A2C21AD
:102F6000F0E708BD340200209F250208532602081E
:102F7000E82502083002002011260208024B4FF01B
:102F8000FF31186805F0DEB934020020014B1868E3
:102F900005F004BA34020020024B0021186805F045
:102FA000D1B900BF34020020FFF7F0BF0348044945
:102FB000006800231A4605F057BA00BF300200200F
:102FC0000400002013B5084C00231A4601A920680C
:102FD00005F07CFA4FF0FF33002201A9206805F0CC
:102FE00075FA02B010BD00BF300200207047704774
:102FF0007047012070474020704700EB8110083077
:10300000704700EB8110083070470120704741F293
:103010001C10704741F21C1303FB0100083070477D
:1030200041F21C1303FB0100083070470120704778
:103030001020704700EB01100830704700EB0110C2
:10304000083070470846FEF73BBC000010B5034B44
:103050000360044606F00CF8204610BDF426020872
:1030600010B50446FFF7F2FF204648211CF042F855
:10307000204610BD10B5034B0360044605F0F8FF71
:10308000204610BDC026020810B50446FFF7F2FF27
:10309000204641F224111CF02DF8204610BD0000FE
:1030A00010B5034B0360044605F0E2FF204610BD57
:1030B0008C26020810B50446FFF7F2FF20461821BF
:1030C0001CF018F8204610BD10B5094B03600446EB
:1030D00000F58A501030FFF7B9FF04F12C00FFF71C
:1030E000C9FF04F11400FFF7DBFF204610BD00BF4D
:1030F0002827020810B50446FFF7E6FF204641F2F4
:10310000F8211BF0F7FF204610BD00002DE9F34128
:10311000FFF7E2FA0546FFF7E3FA002401462346EB
:103120002846224600940EF0D3FF264B264A274D10
:103130001A602046FFF760FB25480EF031FF2B7820
:10314000BFF35B8FDB0736D428461BF0ABFF0028AC
:1031500031D0204C204F214BE76007F14C0604F1A1
:10316000140004F12C086060C4F808802661236014
:1031700005F080FF1A4B6361404605F07BFF194B59
:10318000E362384605F076FF174B3B6007F14800D5
:10319000FDF702FB224607F148013046FDF740FBF0
:1031A0003046FEF78DFB28461BF088FF0F4A10497A
:1031B00020461BF09AFF0F4802B0BDE8F04100F036
:1031C000D5B800BF7C3101205423002038020020F4
:1031D000080000203C0200208C1300202827020851
:1031E0008C260208C0260208F426020800000020EF
:1031F000C9300008D822002070470000014800F0C4
:10320000C7B800BFD822002010B5042104461BF027
:1032100071FF204610BD10B5782104461BF06AFFEF
:10322000204610BD10B57C2104461BF063FF2046EC
:1032300010BD0000F8B5394C394D3A4F3A4B3B4977
:103240002B60224628461BF050FF394E3846FFF7C8
:1032500009FE2246374938461BF047FF304612F038
:1032600037F82246344930461BF03FFF22463349A7
:1032700033481BF03AFF3348334941663349C56050
:1032800000230122324D0385C0E90176C0E90433F1
:10329000C0E90633C0E9083380F82A30C3620386E8
:1032A000C0E90E33C0E9103380F8483080F8492077
:1032B00080F84A3080F84B30C0E91333C0E9153349
:1032C000C0E9173380F8683080F8693080F86A30D8
:1032D00080F86B3080F86C300860F02129801D4D3B
:1032E000036729801C4D80F874304FF4A071298049
:1032F0001A4D80F875302980194980F876300B70A6
:10330000184B80F8772080F8782080F8342003600C
:1033100022461549BDE8F8401BF0E7BE000000203A
:10332000341500203815002014280208ED2F00085D
:10333000582300202D2E0008EF2F0008A12600089A
:1033400008000020D82200200100000118310120CF
:103350000A310120103101200C31012012310120ED
:103360000E3101203C270208F12F000870B50446F9
:10337000FFF738FB2368D3F88850044BD4E90F12C9
:103380002046AC46BDE87040604700BF00B004D0A6
:1033900008B503680446D3F8803098472368204670
:1033A0009B6F9847FFF70EFE236820461B6F9847D8
:1033B000292000F067FCFFF705FE236820461B6FFD
:1033C0009847F8E7FFF7BEBAFFF7C2BAFFF730BB7E
:1033D000FFF794BAFFF768BBFFF770BBFFF798BA27
:1033E00006F09ABA032821D8DFE800F0020B121980
:1033F0000F4B1A68B2FA82F2520904210D4802F00A
:10340000CDBA0B4B5A68B2FA82F252090821F5E79D
:10341000074B9A68B2FA82F252091021EEE7044B88
:10342000DA68B2FA82F252092021E7E7704700BF5A
:10343000D023002000100240032821D8DFE800F04C
:10344000020B12190F4B1A68003218BF0122042117
:103450000D4802F0A3BA0B4B5A68003218BF012284
:103460000821F5E7074B9A68003218BF01221021A6
:10347000EEE7044BDA68003218BF01222021E7E7AB
:10348000704700BFD02300200010024003280DD851
:10349000DFE800F00206080A0421054802F083BABA
:1034A0000821FAE71021F8E72021F6E7704700BF6E
:1034B0000010024008B5032811D8DFE800F0020A26
:1034C0000C0E0421074802F063FA431E584258418B
:1034D00008BD0821F6E71021F4E72021F2E70020DB
:1034E000F3E700BF0010024070B5084D002401262C
:1034F000E0B2FFF7DFFF28B155F82430012B18BFE9
:1035000045F824600134052CF2D170BDD023002091
:1035100038B50C4B0C4C18800C4B8220198063681A
:10352000984740F6110398420AD1094D23682C6050
:10353000822098472B688220DB689847002038BD9E
:103540000120FCE7E023002024000020E2230020EB
:10355000E42300204FF4A071F020FFF7D9BF000052
:10356000F7B52C4D2B6804461B698220984780B222
:10357000208000284BD02B680DF106025B6901A961
:1035800082209847BDF80630A3F5B4739BB20B2296
:10359000B3FBF2F333B1204A12889A423CBF02F1E6
:1035A000FF339BB2BDF8042040F6B8318A4295BF84
:1035B000C2F57162C2F56D620E320832ADF80420B8
:1035C000BDF804100F22B1FBF2F131B1134A128899
:1035D0008A423CBF02F1FF3189B2114E114D306871
:1035E0002F6882B2814288BF8A1AB8B298BF521A35
:1035F000BB428CBF181AC01A92B280B20244052A8C
:10360000C4BF31602B60336863802B68A38003B034
:10361000F0BD00BFE4230020E2230020E0230020CF
:10362000E8230020EC23002037B568460D461446F9
:10363000FFF796FFBDF8000030B1BDF802302B60F7
:10364000BDF804302360012003B030BD054BD3F832
:10365000882042F47002C3F888204FF000629A601C
:10366000704700BF00ED00E070B588B00023029302
:10367000204B1A6C42F010021A641B6C03F010030A
:103680000293064601A903A8029B01F097F9069B45
:103690004BBB01F083F9184C184B236040F2E73321
:1036A000E360174BB0FBF3F0013800236060204665
:1036B0002361A360A36101F0EBFA054680B92046BF
:1036C00001F09CF9054658B9362001F0C1FF0F2ED4
:1036D0000DD82A463146362001F086FF094B1E6080
:1036E000284608B070BD01F059F94000D3E7012524
:1036F000F6E700BF003802402432012000100040ED
:1037000040420F001C00002007B5064B02A91B68B1
:1037100021F8020D0122044802F05DFA03B05DF8C1
:1037200004FB00BF14000020C432012030B595B066
:103730003022002108A81CF03CFC1422002103A820
:103740001CF037FC00241D4B01941A6C42F080528F
:103750001A641B6C03F080530193019B184B029475
:103760001A6842F440421A601B6803F44043029313
:103770000122029B4FF48033CDE9082302254FF448
:103780008003CDE90E5308214FF4A873CDE910133F
:1037900008A804231393129500F088FE0F23CDE9A7
:1037A00003354FF4A0504FF48053CDE906030521B3
:1037B00003A8059401F054F815B030BD003802405C
:1037C000007000402DE980489BB002F013FFFFF726
:1037D000ADFF142200210DA800241CF0EAFBC64B0B
:1037E00000941A6BC548C64D42F010021A631A6B5A
:1037F00002F010020092009A01941A6B42F020022B
:103800001A631A6B02F020020192019A02941A6B59
:1038100042F080021A631A6B02F080020292029A4E
:1038200003941A6B42F004021A631A6B02F004024A
:103830000392039A04941A6B42F001021A631A6B02
:1038400002F001020492049A05941A6B42F00202FB
:103850001A631A6B02F002020592059A06941A6B1B
:1038600042F040021A631A6B02F040020692069A76
:1038700007941A6B42F008021A631B6B03F00803EB
:10388000079322463C21079B02F088F82246042138
:103890009C4802F083F822464FF440519A4802F0C7
:1038A0007DF822464FF4C041984802F077F801268F
:1038B0004FF003083C230DA99048CDF84080022723
:1038C0004FF00409CDE90D360F9401F073FF0DA9F7
:1038D0008C480F94CDE90D96109701F06BFF4FF4D3
:1038E00040530DA98848CDE90D36CDE90F4701F0C9
:1038F00061FF0DA94FF4C0438448CDE90D36CDE9F1
:103900000F4401F057FF8248824B036002F0E0FF52
:10391000814A824B2C62C5E9002328464FF480433C
:10392000C5E90434C5E90244C5E9064401F0B2FB27
:103930001021284601F000FE2146284601F01EFE17
:103940007748784984624FF48273C0E900134FF4DA
:1039500000751823C0E906530A23734DC362C0E9FA
:103960000244C0E90444C0E9084402F0D5F86F4BB2
:103970000D97C5E900364FF0100A4023C5E904A3AE
:103980004FF4C073C5E906344FF40063C5E9083449
:103990004FF40053AB620DA907232846CDE9103838
:1039A000CDE90E394FF0080BC5E90249CDE9127790
:1039B00000F026FD4FF6FF7209A9284608940996E3
:1039C000CDE90AB60C9400F03BFD304602F03EFE15
:1039D0004FF6FF7209A92846CDE9097BCDE90B64B2
:1039E00000F02EFD4FF6FF7209A92846CDE9098B9C
:1039F000CDE90B9400F024FD4FF40C730893089B61
:103A00000C934FF6FF7209A92846CDE9099B0B9646
:103A100000F016FD40F26A51284600F02FFD3422D6
:103A200021460DEB02001CF0C4FA414D414B2C61C4
:103A3000C5E900340923C5E905361D2340F20D1CF4
:103A4000C5E9073840F24313C5E909C340F2171E20
:103A500040F24713C5E90BE3C5E90244AC8685F89B
:103A60003640284602F0A0FCFF21F022CDE91214D6
:103A70004FF4806805214FF4A073CDE90E24CDE901
:103A80001481CDE916420DA922462846CDE910370A
:103A9000294D18930D94ADF864408DF8664002F0FE
:103AA00060FD264B2B601B6898472B68244DDB6814
:103AB0009847244BC5E90A47C5E90C442846C5E99F
:103AC0000034C5E9027402F0C1FA3146284602F01A
:103AD0007DFB02F00EFF02F00BFF04F073FB1A4AAD
:103AE0003946504604F084FC184B194A1860394690
:103AF000504604F07DFC2DE00038024000100240EA
:103B00007032012000080240000C02400018024000
:103B10001C33012000300240005C0040A086010000
:103B2000C43201200050014024340120400100A093
:103B30002833012000680140F02300204C000020C1
:103B4000D833012000B00240BC28020824330120F1
:103B5000D4280208094B0A4A18602146094804F093
:103B60005DFB094B094A18602146094804F056FBE1
:103B7000084B186004F038FBFEE700BFD03301208B
:103B800060280208753E00086C3201203C280208BB
:103B900001690008D43301207047704710B586B022
:103BA00006AC074B04F8012D1B68029301230A465B
:103BB000CDE900430146034801F01CFB06B010BDEF
:103BC00010000020703201207FB506AA002302F801
:103BD000013D084B1B6802930123CDE900230A46EF
:103BE0000146054801F09AFB9DF8170007B05DF803
:103BF00004FB00BF10000020703201201FB5084CEC
:103C000024680092CDE901340A46012301460548A3
:103C100001F084FB003018BF012004B010BD00BFCC
:103C2000100000207032012002F010BD10B5064CCB
:103C300000222046042101F0B1FE20460122042189
:103C4000BDE8104001F0AABE0008024038B50B4C98
:103C5000054601224FF40051094801F09FFE002261
:103C60000421204601F09AFE2846FFF74DFD20462C
:103C700001220421BDE8384001F090BE0008024056
:103C8000000C024038B50B4C054600224FF40051A1
:103C9000094801F083FE00220421204601F07EFE47
:103CA0002846FFF731FD204601220421BDE83840B7
:103CB00001F074BE00080240000C0240F7B5144C3D
:103CC000144D07460E4620460022042101F066FEF0
:103CD00000224FF40051284601F060FE3846FFF7FD
:103CE00013FD0D4B0D481B68324601A902F00FF978
:103CF000284601224FF40051019E01F04FFE20465C
:103D00000122042101F04AFE304603B0F0BD00BF9D
:103D100000080240000C024014000020C4320120C0
:103D200002F094BC07B58DF805208DF804000A4612
:103D300019B101290DD0002008E00848142301A979
:103D4000006804F091FBB0FA80F0400903B05DF820
:103D500004FB1423002201A90148F1E724330120C8
:103D6000D033012008B5134618B101280AD000202D
:103D700007E002460548006804F0A8FBB0FA80F0AE
:103D8000400908BD00220248F5E700BF24330120A6
:103D9000D033012008B501224FF40051074801F04B
:103DA000FDFD074B0122DA724FF0FF325A6000220C
:103DB00011461046BDE80840FFF7B4BF00180240A6
:103DC0001834012008B500224FF40051074801F0D3
:103DD000E5FD074B00224FF0FF315960DA721146C2
:103DE0001046BDE80840FFF79DBF00BF0018024025
:103DF0001834012008B500224FF40051054801F0A5
:103E0000CDFD054B0022DA721A704FF0FF325A6076
:103E100008BD00BF00180240183401200B4B187871
:103E200058B9597A012907D19A7A012A02D11A7010
:103E300001207047022AFAD070470138012802D8C1
:103E40005A7A002AF3D00020F6E700BF1834012088
:103E5000074B1A78012A07D002D3022A06D07047EE
:103E60004FF0FF325A607047FFF794BFFFF7AABFC9
:103E70001834012008B50A4CFFF7BCFF04F109050E
:103E8000626829460020FFF76DFF20720028F7D0F6
:103E9000FFF7C4FF0028F3D0FFF7DAFFF0E700BF19
:103EA000183401200268034B9A4201D102F0BCBBD6
:103EB000704700BF0010004070477047FEE7FEE704
:103EC000FEE7FEE770470000014800F0D5BD00BFE7
:103ED00024320120014802F0E3BA00BF2833012058
:103EE000014802F0E3B800BFD833012008B50A4BFF
:103EF0001968024609B909491960186869460244F7
:103F00008A4206D91CF006F80C2303604FF0FF30FC
:103F100008BD1A60FCE700BFF4230020A034012094
:103F200082B00E4B00220092596C41F480415964DA
:103F3000596C01F48041009100990192196C41F093
:103F4000805119641B6C03F080530193019B0F2176
:103F50006FF0010002B001F047BB00BF0038024023
:103F60000268094B9A4282B00BD100230193074BA0
:103F70001A6B42F480521A631B6B03F48053019353
:103F8000019B02B0704700BF003002400038024081
:103F900007B50F4B02689A4216D10022A3F5F043F1
:103FA0000192196B41F4000119631B6B03F40003C8
:103FB000019305215A20019B01F016FB5A2003B002
:103FC0005DF804EB01F044BB03B05DF804FB00BFF7
:103FD00000B002402DE9F043044689B014220021CC
:103FE00003A81BF0E6FF2268244B9A4243D1244CDD
:103FF000244800250095236B43F004032363236BBF
:1040000003F004030093009B0195236B43F001032D
:104010002363236B03F001030193019B4FF012090B
:104020004FF400734FF001080327042603A9CDE9DC
:104030000339CDE90587079601F0BCFB4FF4807387
:1040400003A911480796CDE90339CDE9058701F0A9
:10405000B1FB0295236C43F400032364236C03F447
:1040600000030293029B236A43F400032362236A42
:1040700023F40003236209B0BDE8F083005C004034
:10408000003802400008024000000240F0B599B03C
:1040900004461422002107A81BF08BFF30220DEBF1
:1040A000020000211BF085FF22685E4B9A4240F01F
:1040B000B78008230C93C0231093042312930CA8F9
:1040C0004FF40033159302F0D5FA08B1FFF7F4FE70
:1040D000554B5648002400945A6C42F080625A6452
:1040E0005A6C02F080620092009A01941A6B42F0BE
:1040F00020021A631A6B02F020020192019A0294C4
:104100001A6B42F001021A631A6B02F0010202926A
:10411000029A03941A6B42F002021A631A6B02F0BD
:1041200002020392039A04941A6B42F040021A634B
:104130001A6B02F040020492049A05941A6B42F042
:1041400004021A631A6B02F004020592059A06949F
:104150001A6B42F008021A631B6B03F00803069304
:1041600002250E26069B0B964FF4806307A9CDE926
:104170000735CDE9094501F01DFB41F6580307A9B4
:104180002B480B96CDE907350927CDE9094501F004
:1041900011FB032307A927480B97CDE90735CDE984
:1041A000094501F007FB4FF4706307A921480B96FE
:1041B000CDE90735CDE9094501F0FCFA4FF40C6370
:1041C00007A91D480B96CDE90735CDE9094501F052
:1041D000F1FAC02307A919480B96CDE90735CDE9B7
:1041E000094501F0E7FA082307A915480B96CDE920
:1041F0000735CDE9094501F0DDFA4FF4A05307A9D1
:104200000D480B97CDE90735CDE9094501F0D2FA04
:1042100058202246052101F0E7F9582001F018FA4C
:1042200019B0F0BD0068014000380240001402409F
:104230000000024000040240001802400008024052
:10424000000C024010B5044688B01422002103A8D7
:104250001BF0AFFE2268144B9A4223D103F568434A
:10426000002101915A6C114842F480125A645A6C30
:1042700002F480120192019A02911A6B42F020021C
:104280001A631B6B03F020030293029B4FF46072CE
:1042900002230321CDE903230523CDE9061303A956
:1042A00001F088FA08B010BD00500140001402402F
:1042B0002DE9F04186B01422002101A81BF079FEFF
:1042C0002B4B1C68002C4FD14FF00108C3F8008025
:1042D000284B00949A6B284842EA08029A639B6B29
:1042E00003EA08030093022703260C25009B01A97B
:1042F0004FF63F03CDE90137CDE9046501F05AFAE5
:1043000001A91E480595CDE90187CDE9034601F0D5
:1043100051FA48F2331301A919480595CDE901373F
:10432000CDE9034601F046FA4FF6837301A915481B
:104330000595CDE90137CDE9034601F03BFA4CF292
:10434000037301A910480595CDE90137CDE903466E
:1043500001F030FA602301A90C480595CDE9013739
:10436000CDE9034601F026FA06B0BDE8F08100BFB2
:10437000F8230020003802400014024000080240E8
:104380000018024000100240000C024000040240ED
:104390000120704708B51BF0BDFD162303604FF0E8
:1043A000FF3008BD08B51BF0B5FD16230360FEE71E
:1043B00070B50E4615460C46A31B9D4201DC2846EF
:1043C00070BDAFF3008004F8010BF5E770B50E4641
:1043D00015460C46A31B9D4201DC284670BD14F80F
:1043E000010BAFF30080F5E74FF0FF3070474FF45B
:1043F00000534B6000207047012070470020704739
:1044000038B50D460446C8B190F82C3003F0FF02D1
:104410001BB980F82D20FFF74BFF022384F82C30C6
:10442000211D206801F022F962682068294601F008
:1044300051F9012384F82C30002038BD0120FCE71D
:1044400070B5054690F82C00C0B202280E4612D076
:1044500000F0FB04012C0FD1022385F82C302868D2
:1044600001F07AF93368022B06BF052385F82C305A
:1044700085F82C40002070BD0120FCE738B50446CB
:1044800090F82C00C0B202280DD094F82C50EDB258
:10449000012D09D1022384F82C30206801F080F925
:1044A00084F82C50002038BD0120FCE72DE9F341B1
:1044B000044608B9012041E00368DD0710D42368F1
:1044C00098075AD423681A0700F19C8023685B0779
:1044D00000F1BA80A069002840F01C8100202DE086
:1044E000A44B9A6802F00C02042A07D09A6802F0E2
:1044F0000C02082A0AD15B68590207D59D4B1B683C
:104500009A03DCD56368002BD9D1D3E76268994B55
:10451000B2F5803F15D11A6842F480321A606368A0
:10452000F3B102F08DF8934D06462B689B03C6D479
:1045300002F086F8801B6428F7D9032002B0BDE89A
:10454000F081B2F5A02F1A6803D142F480221A60DC
:10455000E1E722F480321A601A6822F48022DDE753
:1045600002F06EF8834D06462B689F03A7D502F034
:1045700067F8801B6428F7D9DFE77E4B9A6812F052
:104580000C0F07D09A6802F00C02082A11D15B6860
:104590005E020ED4774B1A68950702D5E268012AAD
:1045A00088D11A68216922F0F80242EAC1021A6031
:1045B00088E7E268704BB2B101221A6002F040F85D
:1045C0006C4D06462B68980707D52B68226923F0A7
:1045D000F80343EAC2032B6074E702F031F8801B52
:1045E0000228EFD9A9E71A6002F02AF8614D0646C1
:1045F0002B6899077FF566AF02F022F8801B02282E
:10460000F6D99AE762695D4B7AB101221A6002F02D
:1046100017F8584D06466B6F9F073FF557AF02F0EE
:104620000FF8801B0228F6D987E71A6002F008F815
:10463000504D06466B6F98077FF548AF02F000F8C3
:10464000801B0228F6D978E74A4B1A6C12F0805288
:104650002BD101921A6C42F080521A641B6C03F049
:1046600080530193019B0126454D2B68D9051ED52A
:10467000A268404B012A2AD11A6F42F001021A6740
:10468000A368002B37D001F0DBFF3A4D074641F21B
:1046900088382B6F9B0728D5002E3FF41BAF354A77
:1046A000136C23F08053136414E70026DCE72B68B7
:1046B00043F480732B6001F0C3FF07462B68DA05D3
:1046C000D6D401F0BDFFC01B0228F7D935E7052A73
:1046D0001A6F03D142F004021A67CDE722F00102FB
:1046E0001A671A6F22F00402C9E701F0A9FFC01B84
:1046F0004045CED921E701F0A3FF1E4D074641F208
:1047000088382B6F9807C7D501F09AFFC01B40452A
:10471000F7D912E7174DAB6803F00C03082B46D00E
:10472000184E00230228336034D101F089FF074678
:104730002B68990128D4D4E907321343626A43EA0B
:104740008213E26A43EA0263A26A0A4C5208013AFF
:1047500043EA02436B600123336001F071FF0546B9
:1047600023689A013FF5BAAE01F06AFF401B0228A8
:10477000F6D9E2E60038024000004742800E474288
:10478000007000406000474201F05AFFC01B022841
:10479000CED9D2E601F054FF04462B689B017FF589
:1047A0009DAE01F04DFF001B0228F6D9C5E6012899
:1047B0003FF4C4AE6B68E26903F4800191427FF478
:1047C00079AE216A03F03F028A427FF473AE616AD8
:1047D00047F6C0721A40B2EB811F7FF46BAEA26A3B
:1047E000520803F44031013AB1EB024F7FF462AE5C
:1047F000E26A03F07063B3EB026F14BF0120002084
:104800009CE600BF08B513498B6803F00C03042B2A
:1048100003D0082B03D0104800E0104808BD4A68B8
:104820004B68496813F4800314BF0C480A48C1F36D
:10483000881118BF002302F03F02A1FB0001FBF723
:10484000D7FC044B5B68C3F3014301335B00B0FB4F
:10485000F3F0E3E7003802400024F40000127A008D
:104860002DE9F0410D46044610B90120BDE8F08164
:10487000454B1A6802F00F028A422AD323689E072A
:104880002FD42368D90743D43F4B1A6802F00F0294
:10489000AA4268D823685A076ED423681B0707D535
:1048A0003A4A2169936823F4604343EAC103936061
:1048B000FFF7A8FF354B364A9B68C3F30313D35C5D
:1048C000D840344B1860344B1868FEF7CDFE0020FA
:1048D000CCE7CAB21A701B6803F00F038B42C4D135
:1048E000CCE7580741BF294A936843F4E0539360EB
:1048F0002368264A13F0080F1EBF936843F46043F1
:1049000093609368A16823F0F0030B439360B8E7CA
:1049100062681E4B012A1CD11B6813F4003FA4D00F
:104920001A4EB36823F003031343B36001F088FE0B
:1049300041F288380746B368626803F00C03B3EBB2
:10494000820FA1D001F07CFEC01B4045F3D90320AB
:104950008CE7911E01291B6802D813F0007FDEE767
:1049600013F0020FDBE7EAB21A701B6803F00F03C3
:10497000AB427FF47AAF8DE7044AE168936823F491
:10498000E0530B43936088E7003C0240003802404C
:10499000242802080C0000201C000020044B054ABB
:1049A0009B68C3F38223D35C034A1068D8407047E6
:1049B00000380240342802080C0000200F23036056
:1049C0000B4B9A6802F0030242609A6802F0F00210
:1049D00082609A6802F4E052C2609B68DB0803F4CC
:1049E000E0530361034B1B6803F00F030B60704738
:1049F00000380240003C02407047000090F83D3013
:104A0000012B31D10268022380F83D30D36843F096
:104A10000103D3600368154A93421AD0B3F1804F63
:104A200017D0A2F57C42934213D002F580629342E4
:104A30000FD002F5806293420BD002F57842934288
:104A400007D002F57052934203D0A2F594329342FC
:104A500004D19A6802F00702062A03D01A6842F0CD
:104A600001021A60002070470120704700000140D9
:104A7000704770477047704710B503681A6991070F
:104A800004460FD5DA6892070CD56FF002021A615E
:104A90000123037703689B699B077AD0FFF7E9FF3F
:104AA0000023237723681A69500711D5DA68510764
:104AB0000ED56FF004021A610223237723689B69E5
:104AC00013F4407F20466AD0FFF7D3FF00232377FB
:104AD00023681A69120710D5DA6810070DD56FF030
:104AE00008021A61042323772368DB6999072046AB
:104AF0005BD0FFF7BEFF0023237723681A69D20635
:104B000011D5DA68D0060ED56FF010021A610823AD
:104B100023772368DB6913F4407F20464BD0FFF7EF
:104B2000A8FF0023237723681A69D10708D5DA681C
:104B3000D20705D56FF001021A612046FFF7B2F9DE
:104B400023681A69100608D5DA68110605D56FF0D2
:104B500080021A61204600F033FD23681A6952066C
:104B600008D5DA68500605D56FF040021A61204674
:104B7000FFF781FF23681A69910622D5DA68920649
:104B80001FD56FF020021A612046BDE8104000F0EA
:104B900016BDFFF76DFF2046FFF76CFF80E7FFF7BC
:104BA00067FF2046FFF766FF90E7FFF761FF2046AB
:104BB000FFF760FF9FE7FFF75BFF2046FFF75AFF15
:104BC000AFE710BD304A0368904212D0B0F1804F79
:104BD0000FD0A2F57C4290420BD002F58062904249
:104BE00007D002F58062904203D002F578429042ED
:104BF00019D14A6823F070031343234A904229D005
:104C0000B0F1804F26D0A2F57C42904222D002F52E
:104C1000806290421ED002F5806290421AD002F566
:104C20007842904216D0194A904213D002F5806221
:104C300090420FD002F5806290420BD0A2F59832DC
:104C4000904207D002F58062904203D002F5806264
:104C5000904203D1CA6823F4407313434A6923F096
:104C60008003134303608B68C3620B688362064B47
:104C7000984203D003F58063984201D10B69036326
:104C800001234361704700BF000001400040014024
:104C900010B5044630B390F83D3003F0FF021BB965
:104CA00080F83C20FFF7A8FE022384F83D302068FE
:104CB000211DFFF787FF012384F84630002084F888
:104CC0003E3084F83F3084F8403084F8413084F836
:104CD000423084F8433084F8443084F8453084F816
:104CE0003D3010BD0120FCE701684B6913F480637F
:104CF0004FF0000210D06FF480634B6120230263F9
:104D000080F83D3080F83E20036C80F83C2043F072
:104D10000403036401207047184670472DE9F041F1
:104D20000446164698468FB22568686937EA00003F
:104D300018D06B695A0517D52B6843F400732B60A4
:104D400023686FF480625A6100232022236384F871
:104D50003D2084F83E30226C42F00402226484F844
:104D60003C300120BDE8F081731CDED001F068FC0E
:104D7000A0EB0800B04201D8002ED5D1002320229C
:104D8000236384F83D2084F83E30226C42F02002F8
:104D9000E4E770B504460D46164623685B695B0779
:104DA00001D5002070BD2046FFF79EFFA8B96A1C00
:104DB000F3D001F045FC801BA84201D8002DECD1B6
:104DC00000232022236384F83D2084F83E30226CA7
:104DD00084F83C3042F0200222640120E2E770B502
:104DE00004460D4616462068436913F0400301D07F
:104DF000002010E04269D2060ED56FF01002426129
:104E00002022236384F83D2084F83E30226C226403
:104E100084F83C30012070BD01F012FC801BA842D8
:104E200001D8002DDFD100232022236384F83D2008
:104E300084F83E30226C42F02002E8E72DE9F84386
:104E4000089E044690461F464FEA11498DB22168DC
:104E5000B9F1010F0CBF4B698B6935EA03030CBF35
:104E600001230023984501D0002016E07B1CEFD0E1
:104E700001F0E6FB801BB84201D8002FE7D10023E8
:104E80002022236384F83D2084F83E30226C84F88D
:104E90003C3042F0200222640120BDE8F88370B566
:104EA00004460D46164623685B691B0601D50020A3
:104EB00070BD2046FFF718FFA8B96A1CF3D001F0B7
:104EC000BFFB801BA84201D8002DECD1002320227B
:104ED000236384F83D2084F83E30226C84F83C3013
:104EE00042F0200222640120E2E700002DE9FF41A8
:104EF000154602680B9E9846136843F4807313604E
:104F00000F460A9B009600224FF001110446FFF75E
:104F100095FF236838B11B68DB0502D54FF4007399
:104F2000236403200AE007F0FE071F610A9A19496B
:104F300033462046FFF7F2FE18B1012004B0BDE869
:104F4000F081236803905A6903929B690393324668
:104F50000A99039B2046FFF7A2FF40B1236C042B64
:104F600001BF2268136843F400731360E5E7B8F1EA
:104F7000010F236802D1EDB21D61DFE72A0A1A6131
:104F80000A9932462046FFF78AFF0028E6D12368B7
:104F9000F1E700BF020001002DE9FF41164602685B
:104FA0000B9D9846136843F480631360026813688E
:104FB00043F4807313600F460A9B009500224FF064
:104FC00001110446FFF73AFF236848B11B68DB056F
:104FD00002D54FF400732364032004B0BDE8F081D0
:104FE000FFB207F0FE021A6129490A9A2B462046B1
:104FF000FFF794FE08B10120EFE7236803905A6998
:1050000003929B6903932A460A99039B2046FFF764
:1050100046FF40B1236C042B01BF2268136843F4A0
:1050200000731360E7E7B8F1010F236825D1F6B2EA
:105030001E612A460A992046FFF731FF02460028E2
:10504000E8D121680B6843F480730B6020460A9B0B
:1050500000954FF00111FFF7F1FE23680028B5D14C
:1050600047F001071F610A9A09492B462046FFF7BE
:1050700055FE003018BF0120AFE7320A1A610A99C5
:105080002A462046FFF70BFF0028C3D12368CEE74E
:105090000200010070B5044608B9012070BD90F807
:1050A0003D3003F0FF021BB980F83C20FEF792FF71
:1050B0002268242384F83D30136823F00103136031
:1050C0002268136843F4004313602268136823F4D2
:1050D00000431360FFF762FC424B62689A4294BF40
:1050E000414B424B98428CBF00230123002BD4D16B
:1050F00022683F495368B0FBF1F123F03F030B43B3
:1051000053606668374B25689E4288BF4FF496739C
:105110002A6A8ABF4B434B1C4FF47A7122F03F023C
:1051200084BFB3FBF1F3013313432B62216863683F
:10513000CA692C4D22F44F42AB4222F0FF0200F12B
:10514000FF3035D85B00B0FBF3F0431CC3F30B0317
:10515000042B38BF04231343CB612168D4E9073003
:105160000A68034322F0C00213430B602168D4E9AC
:1051700003038A6822F40342034322F0FF0213432D
:105180008B602168D4E90530CA68034322F0FF022E
:105190001343CB602268136843F0010313600020BF
:1051A0002023206484F83D30206384F83E0075E7B6
:1051B000A56855B903EB4303B0FBF3F0431CC3F3FD
:1051C0000B036BB143F40043C5E719256B43B0FBF8
:1051D000F3F0431CC3F30B0313B143F44043BAE7AA
:1051E0000123B8E7A08601007F841E00FF083D0070
:1051F00040420F002DE9F743044699460F4690467A
:105200000C9E01F01DFA94F83D30202B054603D08A
:10521000022003B0BDE8F0830090192301223D492C
:105220002046FFF70BFE0028F2D194F83C30012B0A
:10523000EED0012384F83C3023681A68D2075EBFA1
:105240001A6842F001021A602268136823F40063AE
:105250001360212384F83D30402384F83E3000233E
:1052600023640A9B6362BDF82C306385638D2385BC
:10527000294BE362CDE900654B464246394620465C
:10528000FFF734FE00282DD00120C2E7FFF707FE0C
:1052900040B1236C042B01BF2268136843F40073F0
:1052A0001360F1E7626A236812781A61616A628D9D
:1052B0004B1C6362238D013A92B2013B62859BB223
:1052C00022682385506940070CD55BB14B78136188
:1052D000636A01336362238D013B2385638D013B48
:1052E0009BB26385238D2A4631462046002BCDD1C3
:1052F000FFF74FFD0028CCD12268136843F40073F8
:105300001360202384F83D3084F83C0084F83E008C
:105310007FE700BF020010000000FFFF2DE9F0430F
:10532000044687B099460D469046109F01F088F9D3
:1053300094F83D30202B064604D00225284607B0BD
:10534000BDE8F08300901923012278492046FFF739
:1053500075FD0028F1D194F83C30012BEDD00123EC
:1053600084F83C3023681A68D0075EBF1A6842F0A0
:1053700001021A602268136823F400631360222379
:1053800084F83D30402384F83E30002323640E9B94
:105390006362BDF83C306385638D2385644BE362B3
:1053A0002946CDE900764B4642462046FFF7F4FDFC
:1053B000054608B10125C1E7228D2368B2B90290E4
:1053C0005A6902929A690292029A1A6842F4007229
:1053D0001A60DFF86081238D002B2FD1202284F802
:1053E0003D2084F83C3084F83E30A7E7012A0BD1F9
:1053F0001A6822F480621A60236803905A69039243
:105400009A690392039AE0E7022A10D11A6822F4FB
:1054100080621A602268136843F400631360236893
:1054200004905A6904929B690493049BD1E7059008
:105430005A6905929B690593059BCAE7032B58D8C7
:10544000012B15D1324639462046FFF7C8FC00280B
:10545000B0D123681A69636A1A70636A01336362A0
:10546000238D013B2385638D013B9BB26385B2E7AE
:10547000022B00963B464FF00002414620461AD1CF
:10548000FFF7DCFC002895D12268136843F4007311
:10549000136023681A69636A1A70626A531C636234
:1054A000238D013B2385638D013B9BB2638523687C
:1054B0001B695370D1E7FFF7C1FC024600287FF457
:1054C00079AF21680B6823F480630B602368196946
:1054D000636A1970636A009601336362238D013B2E
:1054E0002385638D013B9BB2638541463B46204645
:1054F000C6E7324639462046FFF771FC00287FF4A4
:1055000059AF23681A69636A1A70626A531C63622E
:10551000238D013B2385638D013B9BB2638523680B
:10552000596949077FF557AFC2E700BF0200100075
:105530000000FFFF0400010010B590F83D30DBB221
:10554000202B19D10468242280F83D20226822F003
:10555000010222600468626A22F01002626204683A
:10556000626A1143616201680A6842F001020A60DE
:1055700080F83D30002010BD0220FCE730B590F8E7
:105580003D20D2B2202A18D10568242380F83D306E
:105590002C6824F001042C600468656A4FF6F073EF
:1055A0002B400B439BB2636201680B6843F001031D
:1055B0000B6080F83D20002030BD0220FCE77047E2
:1055C00070470000074AD36823F4E0631B041B0CF8
:1055D00043F0BF63000243F4003300F4E060034390
:1055E000D360704700ED00E070B5174BDC68C4F382
:1055F0000224C4F10705042D04F1040328BF042587
:105600004FF0FF36062B06FA05F38CBF033C00244F
:1056100021EA0303A34006FA04F422EA0404002862
:1056200043EA0403A8BF00F160404FEA0313BCBF84
:1056300000F00F00054ADBB2AABF00F56140135429
:1056400080F8003370BD00BF00ED00E014ED00E015
:10565000002808DB4209012300F01F0003FA00F0D4
:10566000014B43F82200704700E100E030B5D1E97A
:1056700007340A684D6A2343154C92B902682B43DC
:10568000224013434A6813438A681343CA6813438A
:105690000A6913434A6913438A691343036000206C
:1056A00030BD02682B4322F4F84213430360436881
:1056B0004A68234013438A681343CA6813430A693C
:1056C00013434A6913438A6913434360E7E700BF02
:1056D0000080FFFF30B5CB684D695C1E6B1E1B055B
:1056E00043EA0434CAB90B688268013B02F0704295
:1056F000234313434A68013A43EA02138A68013A92
:1057000043EA02230A69013A43EA02438A69013AF9
:1057100043EA02638360002030BD836823F4700392
:1057200023F4704323438360C3684A6803F07043E3
:10573000013A43EA02130A68013A13438A68013ABC
:1057400043EA02230A69013A43EA02438A69013AB9
:1057500043EA0263C360DEE770B51546D1E9003263
:10576000044613430069CA68800D43EA42238A68ED
:1057700080050343013A43EA4213236100F060FFCE
:105780000646A06910F0200003D06B1CF9D00DB9BB
:10579000032070BD00F054FF801BA842F1D9F7E749
:1057A000436923F47F5323F03E0343EA41014161FF
:1057B000002070472DE9F74FDFF8C8C16F4CDFF8C4
:1057C000C881DFF8C8E1002301250A689D402A400E
:1057D000954240F0B9804E6806F003065F0003254D
:1057E000013EBD40012E6FEA050511D8866806EA24
:1057F0000509CE68BE4046EA09068660466826EA84
:1058000002094E68C6F300169E4046EA0906466045
:105810004E6806F00306032E07D0C66806EA05099F
:105820008E68BE4046EA0906C6604E6806F003066A
:10583000022E16D14FEAD30A00EB8A0A03F0070BB7
:10584000DAF820604FEA8B0B4FF00F0909FA0BF9D9
:1058500026EA09090E6906FA0BF646EA0906CAF8AD
:105860002060066835404E6806F00306BE403543AA
:1058700005604D6815F4403F66D04FF0000BCDF841
:1058800004B0DCF844603E4D46F48046CCF84460F9
:10589000DCF8446006F480460196019E23F003067E
:1058A00006F1804606F59C3603F00309D6F808A0F9
:1058B0004FEA89090F2707FA09F7A8422AEA0707DA
:1058C00049D005F58065A84247D005F58065A84216
:1058D00045D005F58065A84243D0404543D070458A
:1058E00043D005F54065A84241D005F58065A84242
:1058F0003FD005F58065A8423DD005F58065A842FA
:1059000014BF0A25092505FA09F53D43B5604D6820
:10591000A768D643ED0254BF37401743A7604D68D0
:10592000E768AD0254BF37401743E7604D686768CA
:10593000AD0354BF3740174367604D682768ED03D8
:1059400054BF3740174327600133102B7FF43CAF1F
:1059500003B0BDE8F08F5D46D5E70125D3E702250A
:10596000D1E70325CFE70425CDE70525CBE70625BD
:10597000C9E70725C7E70825C5E700BF003C014088
:1059800000000240003802400010024000140240B3
:105990000369194214BF0120002070470AB18161D8
:1059A00070470904FBE7436901EA030221EA0301A6
:1059B00041EA0241816170472DE9F3411D461646D7
:1059C0000F46044600F03CFE35442D1A00F038FE28
:1059D000244B1B68C3F3CB3380466B43226801938F
:1059E000936837EA030301D0002031E0731CF7D03D
:1059F00000F026FEA0EB0800A8422CD322685368D2
:105A000023F0E00353606368B3F5827F0BD1A36892
:105A1000B3F5004F02D0B3F5806F04D1226813684C
:105A200023F040031360A36AB3F5005F09D1226835
:105A3000136823F4005313602268136843F400537F
:105A40001360012384F85130002384F85030032080
:105A500002B0BDE8F081019B002B019B08BF00252F
:105A6000013BBBE70C00002010B513464268B2F5BD
:105A7000827F04460BD18268B2F5004F02D0B2F5A6
:105A8000806F04D12068026822F0400202606268E0
:105A9000B2F5827F0BD1A268B2F5806F0A4607D0BB
:105AA00080212046FFF788FF20B9002010BD0A465C
:105AB0000121F6E7636D43F0200363650320F5E7FA
:105AC00073B51346124A134E15684268B5FBF6F6D5
:105AD0004FF47A757543B2F5827F044601950BD178
