:020000040802F0
:1000000000000320D1090208090802080F080208AD
:10001000150802081B080208210802080000000059
:100020000000000000000000000000002708020897
:1000300035080208000000004308020851080208C1
:10004000210A0208210A0208210A0208210A0208DC
:10005000210A0208210A0208210A0208210A0208CC
:10006000210A0208210A0208210A0208210A0208BC
:10007000210A0208210A0208210A0208210A0208AC
:10008000210A0208210A0208210A0208210A02089C
:10009000210A0208210A0208210A0208210A02088C
:1000A000210A0208210A0208210A0208210A02087C
:1000B000210A0208210A0208210A0208210A02086C
:1000C000210A0208210A0208210A0208210A02085C
:1000D000210A0208210A0208210A0208210A02084C
:1000E000210A0208210A0208210A0208210A02083C
:1000F000210A0208210A0208210A0208210A02082C
:10010000210A0208210A0208210A0208210A02081B
:10011000210A0208210A0208210A0208210A02080B
:10012000210A0208210A0208210A0208210A0208FB
:10013000210A0208210A0208210A0208210A0208EB
:10014000210A0208210A0208210A0208210A0208DB
:10015000210A0208210A0208210A0208210A0208CB
:10016000210A0208210A0208210A0208210A0208BB
:10017000210A0208210A0208210A020800000000E0
:10018000210A0208210A0208210A0208210A02089B
:10019000210A0208210A0208210A0208210A02088B
:0C01A000210A0208210A0208210A0208B4
:1001AC0010B5054C237833B9044B13B10448AFF3A5
:1001BC0000800123237010BD70000020000000009F
:1001CC00B42C020808B5034B1BB103490348AFF329
:1001DC00008008BD0000000074000020B42C020850
:1001EC0053B94AB9002908BF00281CBF4FF0FF3192
:1001FC004FF0FF3000F074B9ADF1080C6DE904CE8E
:10020C0000F006F8DDF804E0DDE9022304B07047E5
:10021C002DE9F047089D04468E46002B4DD18A42AD
:10022C00944669D9B2FA82F252B101FA02F3C2F1E0
:10023C00200120FA01F10CFA02FC41EA030E944071
:10024C004FEA1C48210CBEFBF8F61FFA8CF708FB92
:10025C0016E341EA034306FB07F199420AD91CEB6A
:10026C00030306F1FF3080F01F81994240F21C819C
:10027C00023E63445B1AA4B2B3FBF8F008FB1033E4
:10028C0044EA034400FB07F7A7420AD91CEB040419
:10029C0000F1FF3380F00A81A74240F207816444E9
:1002AC00023840EA0640E41B00261DB1D44000236E
:1002BC00C5E900433146BDE8F0878B4209D9002DD2
:1002CC0000F0EF800026C5E9000130463146BDE85C
:1002DC00F087B3FA83F6002E4AD18B4202D38242C6
:1002EC0000F2F980841A61EB030301209E46002D75
:1002FC00E0D0C5E9004EDDE702B9FFDEB2FA82F2CA
:10030C00002A40F09280A1EB0C014FEA1C471FFA27
:10031C008CFE0126200CB1FBF7F307FB131140EA0E
:10032C0001410EFB03F0884208D91CEB010103F1DB
:10033C00FF3802D2884200F2CB804346091AA4B29D
:10034C00B1FBF7F007FB101144EA01440EFB00FE71
:10035C00A64508D91CEB040400F1FF3102D2A645D6
:10036C0000F2BB800846A4EB0E0440EA03409CE775
:10037C00C6F12007B34022FA07FC4CEA030C20FA22
:10038C0007F401FA06F31C43F9404FEA1C4900FA42
:10039C0006F3B1FBF9F8200C1FFA8CFE09FB1811BF
:1003AC0040EA014108FB0EF0884202FA06F20BD932
:1003BC001CEB010108F1FF3A80F08880884240F282
:1003CC008580A8F102086144091AA4B2B1FBF9F0C6
:1003DC0009FB101144EA014100FB0EFE8E4508D9C1
:1003EC001CEB010100F1FF346CD28E456AD9023846
:1003FC00614440EA0840A0FB0294A1EB0E01A1422B
:10040C00C846A64656D353D05DB1B3EB080261EB98
:10041C000E0101FA07F722FA06F3F1401F43C5E972
:10042C00007100263146BDE8F087C2F12003D840A8
:10043C000CFA02FC21FA03F3914001434FEA1C47EA
:10044C001FFA8CFEB3FBF7F007FB10360B0C43EADC
:10045C00064300FB0EF69E4204FA02F408D91CEB8C
:10046C00030300F1FF382FD29E422DD9023863448A
:10047C009B1B89B2B3FBF7F607FB163341EA03412A
:10048C0006FB0EF38B4208D91CEB010106F1FF3879
:10049C0016D28B4214D9023E6144C91A46EA004670
:1004AC0038E72E46284605E70646E3E61846F8E602
:1004BC004B45A9D2B9EB020864EB0C0E0138A3E74B
:1004CC004646EAE7204694E74046D1E7D0467BE72C
:1004DC00023B614432E7304609E76444023842E7A4
:1004EC00704700BF80B500AF00F096FA00F014F82A
:1004FC0000F09CF800F070F8054801F045FF4FF44F
:10050C008041044800F0C9FDC82000F0F7FAF6E776
:10051C00CC2C02080018024080B594B000AF07F153
:10052C00200330220021184601F0B8FE07F10C031D
:10053C0000221A605A609A60DA601A610023BB606C
:10054C00234B1B6C224A43F080531364204B1B6CCF
:10055C0003F08053BB60BB6800237B601D4B1B68A2
:10056C0023F440431B4A43F480431360194B1B682C
:10057C0003F440437B607B6802233B620123FB62F4
:10058C0010233B630023BB6307F12003184600F0E4
:10059C009FFD0346002B01D000F0BAF80F23FB603F
:1005AC0000233B6100237B610023BB610023FB61C3
:1005BC0007F10C030021184601F002F80346002B4A
:1005CC0001D000F0A5F800BF5037BD4680BD00BF7C
:1005DC00003802400070004080B500AF114B124A49
:1005EC001A60104B4FF4E1325A600E4B00229A60A5
:1005FC000C4B0022DA600B4B00221A61094B0C22C7
:10060C005A61084B00229A61064B0022DA610548B8
:10061C0001F0B6F90346002B01D000F079F800BFC9
:10062C0080BD00BF8C0000200010014080B588B058
:10063C0000AF07F10C0300221A605A609A60DA606E
:10064C001A610023BB60194B1B6B184A43F0010362
:10065C001363164B1B6B03F00103BB60BB680023D9
:10066C007B60124B1B6B114A43F0400313630F4B1F
:10067C001B6B03F040037B607B6800224FF48041CE
:10068C000B4800F0F1FC4FF48043FB6001233B610D
:10069C0000237B610023BB6107F10C03194604485E
:1006AC0000F036FB00BF2037BD4680BD003802404D
:1006BC000018024080B582B000AF786000BF391DD1
:1006CC0047F230530122054801F0A7F90346002BED
:1006DC00F5D17B6818460837BD4680BD8C000020DC
:1006EC0080B582B000AF0023FB7100BFF91D47F24B
:1006FC0030530122054801F022FA0346002BF5D1B4
:10070C00FB7918460837BD4680BD00BF8C00002021
:10071C0080B400AF72B600BFFEE7000080B483B0B7
:10072C0000AF00237B60104B5B6C0F4A43F480439B
:10073C0053640D4B5B6C03F480437B607B6800233C
:10074C003B60094B1B6C084A43F080531364064B07
:10075C001B6C03F080533B603B6800BF0C37BD46FD
:10076C005DF8047B704700BF0038024080B58AB04A
:10077C0000AF786007F1140300221A605A609A6087
:10078C00DA601A617B681B68194A93422CD10023EA
:10079C003B61184B5B6C174A43F010035364154BC9
:1007AC005B6C03F010033B613B690023FB60114B56
:1007BC001B6B104A43F0010313630E4B1B6B03F0CE
:1007CC000103FB60FB684FF4C0637B610223BB61D8
:1007DC000023FB6103233B6207237B6207F11403B5
:1007EC001946054800F094FA00BF2837BD4680BD75
:1007FC0000100140003802400000024080B400AFFD
:10080C00FEE780B400AFFEE780B400AFFEE780B433
:10081C0000AFFEE780B400AFFEE780B400AF00BFCE
:10082C00BD465DF8047B704780B400AF00BFBD4689
:10083C005DF8047B704780B400AF00BFBD465DF827
:10084C00047B704780B500AF00F038F900BF80BD65
:10085C0080B586B000AFF860B9607A6000237B6128
:10086C000AE0FFF73DFF0146BB685A1CBA60CAB2EA
:10087C001A707B6901337B617A697B689A42F0DB81
:10088C007B6818461837BD4680BD80B586B000AF72
:10089C00F860B9607A6000237B6109E0BB685A1C80
:1008AC00BA601B781846FFF705FF7B6901337B6143
:1008BC007A697B689A42F1DB7B6818461837BD462B
:1008CC0080BD80B483B000AF78604FF0FF33184622
:1008DC000C37BD465DF8047B704780B483B000AF25
:1008EC00786039603B684FF400525A600023184618
:1008FC000C37BD465DF8047B704780B483B000AF05
:10090C007860012318460C37BD465DF8047B7047B0
:10091C0080B485B000AFF860B9607A6000231846E7
:10092C001437BD465DF8047B7047000080B586B077
:10093C0000AF7860144A154BD31A7B617B693B611D
:10094C00134B1B68002B02D1114B124A1A60104B2F
:10095C001A687B6813443A699A4207D201F074FC16
:10096C0003460C221A604FF0FF3309E0084B1B685A
:10097C00FB60074B1A687B681344054A1360FB68DD
:10098C0018461837BD4680BD000003200004000047
:10099C00D0000020E800002080B400AF074BD3F853
:1009AC008830064A43F47003C2F88830034B044A7B
:1009BC009A6000BFBD465DF8047B704700ED00E017
:1009CC0000000208DFF834D00D480E490E4A00230F
:1009DC0002E0D458C4500433C4188C42F9D30B4AE7
:1009EC000B4C002301E013600432A242FBD3FFF74F
:1009FC00D3FF01F02FFCFFF775FD704700000320BB
:100A0C000000002070000020742D020870000020EF
:100A1C00E8000020FEE7000080B500AF0E4B1B681D
:100A2C000D4A43F4007313600B4B1B680A4A43F4E2
:100A3C0080631360084B1B68074A43F48073136090
:100A4C00032000F031F90F2000F008F8FFF766FEE4
:100A5C000023184680BD00BF003C024080B582B028
:100A6C0000AF7860124B1A68124B1B7819464FF482
:100A7C007A73B3FBF1F3B2FBF3F3184600F03BF9D6
:100A8C000346002B01D001230EE07B680F2B0AD804
:100A9C00002279684FF0FF3000F011F9064A7B68AC
:100AAC001360002300E0012318460837BD4680BDC3
:100ABC0000000020080000200400002080B400AFDB
:100ACC00064B1B781A46064B1B681344044A1360EA
:100ADC0000BFBD465DF8047B704700BF08000020D6
:100AEC00D400002080B400AF034B1B681846BD46F1
:100AFC005DF8047B704700BFD400002080B584B043
:100B0C0000AF7860FFF7EEFFB8607B68FB60FB68B6
:100B1C00B3F1FF3F05D00A4B1B781A46FB68134410
:100B2C00FB6000BFFFF7DEFF0246BB68D31AFA6812
:100B3C009A42F7D800BF00BF1037BD4680BD00BF3A
:100B4C000800002080B485B000AF78607B6803F0AB
:100B5C000703FB600C4BDB68BB60BA684FF6FF0306
:100B6C001340BB60FB681A02BB68134343F0BF63BE
:100B7C0043F40033BB60044ABB68D36000BF143736
:100B8C00BD465DF8047B704700ED00E080B400AF1B
:100B9C00044BDB681B0A03F007031846BD465DF8DF
:100BAC00047B704700ED00E080B483B000AF0346D7
:100BBC003960FB7197F90730002B0ADB3B68DAB21E
:100BCC000C4997F907301201D2B20B4483F8002379
:100BDC000AE03B68DAB20849FB7903F00F03043BE7
:100BEC001201D2B20B441A7600BF0C37BD465DF829
:100BFC00047B704700E100E000ED00E080B489B0B8
:100C0C0000AFF860B9607A60FB6803F00703FB6122
:100C1C00FB69C3F10703042B28BF0423BB61FB69E9
:100C2C000433062B02D9FB69033B00E000237B61F4
:100C3C004FF0FF32BB6902FA03F3DA43BB681A4088
:100C4C007B699A404FF0FF317B6901FA03F3D9437A
:100C5C007B680B40134318462437BD465DF8047B74
:100C6C007047000080B582B000AF78607B68013BB4
:100C7C00B3F1807F01D301230FE00A4A7B68013B6B
:100C8C0053600F214FF0FF30FFF78EFF054B002212
:100C9C009A60044B07221A60002318460837BD4699
:100CAC0080BD00BF10E000E080B582B000AF78607E
:100CBC007868FFF747FF00BF0837BD4680BD80B599
:100CCC0086B000AF0346B9607A60FB7300237B618A
:100CDC00FFF75CFF78617A68B9687869FFF78EFF77
:100CEC00024697F90F3011461846FFF75DFF00BF1B
:100CFC001837BD4680BD80B582B000AF786078688B
:100D0C00FFF7B0FF034618460837BD4680BD00000C
:100D1C0080B489B000AF7860396000237B61002318
:100D2C003B610023BB610023FB6177E10122FB697E
:100D3C0002FA03F37B613B681B687A6913403B61E1
:100D4C003A697B699A4240F066813B685B6803F0C4
:100D5C000303012B05D03B685B6803F00303022BF4
:100D6C0030D17B689B68BB61FB695B00032202FA94
:100D7C0003F3DB43BA691340BB613B68DA68FB6978
:100D8C005B0002FA03F3BA691343BB617B68BA696F
:100D9C009A607B685B68BB610122FB6902FA03F312
:100DAC00DB43BA691340BB613B685B681B0903F00A
:100DBC000102FB6902FA03F3BA691343BB617B6856
:100DCC00BA695A603B685B6803F00303032B17D0C6
:100DDC007B68DB68BB61FB695B00032202FA03F3EF
:100DEC00DB43BA691340BB613B689A68FB695B00E3
:100DFC0002FA03F3BA691343BB617B68BA69DA6020
:100E0C003B685B6803F00303022B23D1FB69DA0810
:100E1C007B68083253F82230BB61FB6903F007038F
:100E2C009B000F2202FA03F3DB43BA691340BB6148
:100E3C003B681A69FB6903F007039B0002FA03F392
:100E4C00BA691343BB61FB69DA087B680832B9697C
:100E5C0043F822107B681B68BB61FB695B000322B3
:100E6C0002FA03F3DB43BA691340BB613B685B686E
:100E7C0003F00302FB695B0002FA03F3BA69134344
:100E8C00BB617B68BA691A603B685B6803F44033EA
:100E9C00002B00F0C0800023FB60664B5B6C654A46
:100EAC0043F480435364634B5B6C03F48043FB60FB
:100EBC00FB68614AFB699B08023352F82330BB6123
:100ECC00FB6903F003039B000F2202FA03F3DB43DD
:100EDC00BA691340BB617B68584A934237D07B6830
:100EEC00574A934231D07B68564A93422BD07B6849
:100EFC00554A934225D07B68544A93421FD07B6855
:100F0C00534A934219D07B68524A934213D07B6860
:100F1C00514A93420DD07B68504A934207D07B686C
:100F2C004F4A934201D1092312E00A2310E008230F
:100F3C000EE007230CE006230AE0052308E0042357
:100F4C0006E0032304E0022302E0012300E0002377
:100F5C00FA6902F0030292009340BA691343BB6131
:100F6C003549FB699B080233BA6941F823203D4B94
:100F7C009B68BB613B69DB43BA691340BB613B684F
:100F8C005B6803F48013002B03D0BA693B691343ED
:100F9C00BB61344ABB699360324BDB68BB613B6914
:100FAC00DB43BA691340BB613B685B6803F4001315
:100FBC00002B03D0BA693B691343BB61294ABB6957
:100FCC00D360284B5B68BB613B69DB43BA69134058
:100FDC00BB613B685B6803F40033002B03D0BA6938
:100FEC003B691343BB611F4ABB6953601D4B1B68B4
:100FFC00BB613B69DB43BA691340BB613B685B680F
:10100C0003F48033002B03D0BA693B691343BB61F3
:10101C00144ABB691360FB690133FB61FB690F2B3D
:10102C007FF684AE00BF00BF2437BD465DF8047B5D
:10103C00704700BF003802400038014000000240F9
:10104C000004024000080240000C02400010024064
:10105C000014024000180240001C02400020024014
:10106C0000240240003C014080B483B000AF7860A3
:10107C000B467B8013467B707B78002B03D07A88E1
:10108C007B689A6103E07B881A047B689A6100BFD5
:10109C000C37BD465DF8047B704780B485B000AF5B
:1010AC0078600B467B807B685B69FB607A88FB68A9
:1010BC0013401A04FB68D9437B880B401A437B68A6
:1010CC009A6100BF1437BD465DF8047B7047000081
:1010DC0080B586B000AF78607B68002B01D101230E
:1010EC0067E27B681B6803F00103002B75D0884B0B
:1010FC009B6803F00C03042B0CD0854B9B6803F00E
:10110C000C03082B12D1824B5B6803F48003B3F5FC
:10111C00800F0BD17E4B1B6803F40033002B5BD08C
:10112C007B685B68002B57D1012342E27B685B68CC
:10113C00B3F5803F06D1764B1B68754A43F4803378
:10114C0013601DE07B685B68B3F5A02F0CD1704B6E
:10115C001B686F4A43F4802313606D4B1B686C4A09
:10116C0043F4803313600BE0694B1B68684A23F42B
:10117C0080331360664B1B68654A23F4802313602D
:10118C007B685B68002B13D0FFF7ACFC386108E080
:10119C00FFF7A8FC02463B69D31A642B01D9032341
:1011AC0007E25B4B1B6803F40033002BF0D014E018
:1011BC00FFF798FC386108E0FFF794FC02463B69A6
:1011CC00D31A642B01D90323F3E1514B1B6803F4AD
:1011DC000033002BF0D100E000BF7B681B6803F0EC
:1011EC000203002B63D04A4B9B6803F00C03002BCB
:1011FC000BD0474B9B6803F00C03082B1CD1444BC2
:10120C005B6803F48003002B16D1414B1B6803F081
:10121C000203002B05D07B68DB68012B01D0012376
:10122C00C7E13B4B1B6823F0F8027B681B69DB00B2
:10123C00374913430B603AE07B68DB68002B20D006
:10124C00344B01221A60FFF74DFC386108E0FFF7C0
:10125C0049FC02463B69D31A022B01D90323A8E1AE
:10126C002B4B1B6803F00203002BF0D0284B1B68A0
:10127C0023F0F8027B681B69DB00254913430B60E4
:10128C0015E0244B00221A60FFF72CFC386108E0B3
:10129C00FFF728FC02463B69D31A022B01D9032322
:1012AC0087E11B4B1B6803F00203002BF0D17B681A
:1012BC001B6803F00803002B36D07B685B69002B9E
:1012CC0016D0154B01221A60FFF70CFC386108E0B0
:1012DC00FFF708FC02463B69D31A022B01D9032302
:1012EC0067E10B4B5B6F03F00203002BF0D01BE0AC
:1012FC00094B00221A60FFF7F5FB38610EE0FFF78F
:10130C00F1FB02463B69D31A022B07D9032350E1A8
:10131C000038024000004742800E4742884B5B6F0A
:10132C0003F00203002BEAD17B681B6803F0040373
:10133C00002B00F097800023FB75814B1B6C03F096
:10134C008053002B0FD10023BB607D4B1B6C7C4A60
:10135C0043F0805313647A4B1B6C03F08053BB60D7
:10136C00BB680123FB75774B1B6803F48073002B60
:10137C0018D1744B1B68734A43F480731360FFF7E6
:10138C00B1FB386108E0FFF7ADFB02463B69D31AAD
:10139C00022B01D903230CE16A4B1B6803F4807305
:1013AC00002BF0D07B689B68012B06D1644B1B6F24
:1013BC00634A43F0010313671CE07B689B68052BB1
:1013CC000CD15F4B1B6F5E4A43F0040313675C4BFD
:1013DC001B6F5B4A43F0010313670BE0584B1B6F09
:1013EC00574A23F001031367554B1B6F544A23F0E4
:1013FC00040313677B689B68002B15D0FFF772FB07
:10140C0038610AE0FFF76EFB02463B69D31A41F2E2
:10141C008832934201D90323CBE0494B1B6F03F075
:10142C000203002BEED014E0FFF75CFB38610AE0FE
:10143C00FFF758FB02463B69D31A41F288329342BC
:10144C0001D90323B5E03E4B1B6F03F00203002BC5
:10145C00EED1FB7D012B05D1394B1B6C384A23F0A7
:10146C00805313647B689B69002B00F0A180344B84
:10147C009B6803F00C03082B5CD07B689B69022BE8
:10148C0041D1314B00221A60FFF72CFB386108E088
:10149C00FFF728FB02463B69D31A022B01D9032321
:1014AC0087E0274B1B6803F00073002BF0D17B689F
:1014BC00DA697B681B6A1A437B685B6A9B011A4377
:1014CC007B689B6A5B08013B1B041A437B68DB6AE5
:1014DC001B061B4913434B601B4B01221A60FFF781
:1014EC0001FB386108E0FFF7FDFA02463B69D31AAD
:1014FC00022B01D903235CE0114B1B6803F0007332
:10150C00002BF0D054E0104B00221A60FFF7EAFADF
:10151C00386108E0FFF7E6FA02463B69D31A022B62
:10152C0001D9032345E0064B1B6803F00073002B25
:10153C00F0D13DE07B689B69012B07D1012338E09A
:10154C000038024000700040600047421B4B5B6853
:10155C00FB607B689B69012B28D0FB6803F480023D
:10156C007B68DB699A4221D1FB6803F03F027B6800
:10157C001B6A9A421AD1FA6847F6C07313407A680C
:10158C00526A9201934211D1FB6803F440327B689A
:10159C009B6A5B08013B1B049A4207D1FB6803F072
:1015AC0070627B68DB6A1B069A4201D0012300E063
:1015BC00002318461837BD4680BD00BF00380240D6
:1015CC0080B584B000AF786039607B68002B01D1A6
:1015DC000123CCE0684B1B6803F00F033A689A4276
:1015EC000CD9654B3A68D2B21A70634B1B6803F086
:1015FC000F033A689A4201D00123B8E07B681B685C
:10160C0003F00203002B20D07B681B6803F004035B
:10161C00002B05D0594B9B68584A43F4E053936018
:10162C007B681B6803F00803002B05D0534B9B68A9
:10163C00524A43F460439360504B9B6823F0F00292
:10164C007B689B684D4913438B607B681B6803F078
:10165C000103002B44D07B685B68012B07D1474BFF
:10166C001B6803F40033002B19D101237FE07B6846
:10167C005B68022B03D07B685B68032B07D13F4B65
:10168C001B6803F00073002B09D101236FE03B4B67
:10169C001B6803F00203002B01D1012367E0374BD9
:1016AC009B6823F003027B685B68344913438B60AF
:1016BC00FFF718FAF8600AE0FFF714FA0246FB6825
:1016CC00D31A41F28832934201D903234FE02B4BBA
:1016DC009B6803F00C027B685B689B009A42EBD121
:1016EC00254B1B6803F00F033A689A420CD2224B2D
:1016FC003A68D2B21A70204B1B6803F00F033A6899
:10170C009A4201D0012332E07B681B6803F004038A
:10171C00002B08D0194B9B6823F4E0527B68DB68E4
:10172C00164913438B607B681B6803F00803002B7E
:10173C0009D0124B9B6823F460427B681B69DB0069
:10174C000E4913438B6000F021F802460B4B9B684B
:10175C001B0903F00F030A49CB5C22FA03F3094A75
:10176C001360094B1B681846FFF778F900231846DD
:10177C001037BD4680BD00BF003C0240003802401F
:10178C00E82C020800000020040000202DE9B04FD6
:10179C0090B000AF00237B630023FB6300233B630B
:1017AC000023BB63594B9B6803F00C03082B0DD033
:1017BC00082B00F2A180002B02D0042B03D09BE05D
:1017CC00534BBB639BE0534BBB6398E04F4B5B6845
:1017DC0003F03F037B634D4B5B6803F48003002BEA
:1017EC0028D04A4B5B689B0900223B627A623B6AB9
:1017FC00C3F308000021474B03FB01F2002300FB5D
:10180C0003F31344434AA0FB0212FA620A46BA627B
:10181C00FA6A1344FB627B6B0022BB61FA61D7E965
:10182C000623D7E90A01FEF7DBFC02460B461346FA
:10183C00FB6353E0354B5B689B0900223B617A618B
:10184C003B69C3F3080A4FF0000B52465B464FF05E
:10185C0000004FF00001590141EAD26150010246EB
:10186C000B46B2EB0A0863EB0B094FF000024FF08A
:10187C0000034FEA891343EA98634FEA8812B2EBEC
:10188C00080463EB09054FF000024FF00003EB0076
:10189C0043EA5473E20014461D4614EB0A033B6002
:1018AC0045EB0B037B604FF000024FF00003D7E9D0
:1018BC00004529468B02214643EA915321468A0270
:1018CC00104619467B6B0022BB60FA60D7E90223F5
:1018DC00FEF786FC02460B461346FB630B4B5B681C
:1018EC001B0C03F0030301335B003B63FA6B3B6B94
:1018FC00B2FBF3F3BB6302E0054BBB6300BFBB6BF6
:10190C0018464037BD46BDE8B08F00BF00380240D6
:10191C000024F40040787D0180B400AF034B1B68B9
:10192C001846BD465DF8047B704700BF00000020E0
:10193C0080B500AFFFF7F0FF0246054B9B689B0A92
:10194C0003F007030349CB5C22FA03F3184680BD6E
:10195C0000380240F82C020880B500AFFFF7DCFF1E
:10196C000246054B9B685B0B03F007030349CB5CFA
:10197C0022FA03F3184680BD00380240F82C020806
:10198C0080B582B000AF78607B68002B01D1012359
:10199C003FE07B6893F83D30DBB2002B06D17B68CF
:1019AC00002283F83C207868FEF7E0FE7B68242256
:1019BC0083F83D207B681B68DA687B681B6822F41F
:1019CC000052DA60786800F0CBF97B681B681A6902
:1019DC007B681B6822F490421A617B681B685A6909
:1019EC007B681B6822F02A025A617B681B68DA68E4
:1019FC007B681B6842F40052DA607B6800221A6430
:101A0C007B68202283F83D207B68202283F83E20CF
:101A1C00002318460837BD4680BD80B58AB002AF9A
:101A2C00F860B9603B601346FB8000237B61FB6868
:101A3C0093F83D30DBB2202B7CD1BB68002B02D05D
:101A4C00FB88002B01D1012375E0FB6893F83C3037
:101A5C00012B01D102236EE0FB68012283F83C20AC
:101A6C00FB6800221A64FB68212283F83D20FFF7F3
:101A7C0039F87861FB68FA889A84FB68FA88DA840A
:101A8C00FB689B68B3F5805F08D1FB681B69002B72
:101A9C0004D10023FB61BB68BB6103E0BB68FB6145
:101AAC000023BB61FB68002283F83C202AE03B68E2
:101ABC0000937B6900228021F86800F0E2F803466D
:101ACC00002B01D0032336E0FB69002B0BD1BB6943
:101ADC001B881A46FB681B68C2F308025A60BB6974
:101AEC000233BB6107E0FB691A78FB681B685A601C
:101AFC00FB690133FB61FB68DB8C9BB2013B9AB247
:101B0C00FB68DA84FB68DB8C9BB2002BCFD13B6883
:101B1C0000937B6900224021F86800F0B2F803467C
:101B2C00002B01D0032306E0FB68202283F83D2024
:101B3C00002300E0022318462037BD4680BD80B547
:101B4C008AB002AFF860B9603B601346FB8000239B
:101B5C007B61FB6893F83E30DBB2202B40F08C802D
:101B6C00BB68002B02D0FB88002B01D1012384E041
:101B7C00FB6893F83C30012B01D102237DE0FB681C
:101B8C00012283F83C20FB6800221A64FB682222A5
:101B9C0083F83E20FB6800221A63FEF7A3FF7861EE
:101BAC00FB68FA889A85FB68FA88DA85FB689B687B
:101BBC00B3F5805F08D1FB681B69002B04D10023AF
:101BCC00FB61BB68BB6103E0BB68FB610023BB61CD
:101BDC00FB68002283F83C2043E03B6800937B6960
:101BEC0000222021F86800F04CF80346002B01D0AD
:101BFC00032342E0FB69002B0CD1FB681B685B687C
:101C0C009BB2C3F308039AB2BB691A80BB69023357
:101C1C00BB611FE0FB689B68B3F5805F07D0FB6876
:101C2C009B68002B0AD1FB681B69002B06D1FB6853
:101C3C001B685B68DAB2FB691A7008E0FB681B680A
:101C4C005B68DBB203F07F03DAB2FB691A70FB69E5
:101C5C000133FB61FB68DB8D9BB2013B9AB2FB68E5
:101C6C00DA85FB68DB8D9BB2002BB6D1FB6820229A
:101C7C0083F83E20002300E0022318462037BD469F
:101C8C0080BD80B590B000AFF860B9603B60134682
:101C9C00FB7150E0BB6CB3F1FF3F4CD0BB6C002B25
:101CAC0007D0FEF71FFF02463B68D31ABA6C9A4264
:101CBC0041D2FB681B680C33BB62BB6A53E8003F24
:101CCC007B627B6A23F4D073FB63FB681B680C3369
:101CDC00FA6B7A633B63396B7A6B41E80023FB62E6
:101CEC00FB6A002BE5D1FB681B6814337B617B69B5
:101CFC0053E8003F3B613B6923F00103BB63FB6886
:101D0C001B681433BA6B3A62FB61F9693A6A41E8B1
:101D1C000023BB61BB69002BE5D1FB68202283F853
:101D2C003D20FB68202283F83E20FB68002283F8CC
:101D3C003C2003230FE0FB681B681A68BB68134048
:101D4C00BA689A420CBF01230023DBB21A46FB7916
:101D5C009A429FD0002318464037BD4680BD0000F4
:101D6C002DE9B04FC0B000AFC7F8F400D7F8F4308D
:101D7C001B681B6923F44050D7F8F430D968D7F8A6
:101D8C00F4301A6840EA01031361D7F8F4309A680A
:101D9C00D7F8F4301B691A43D7F8F4305B691A434F
:101DAC00D7F8F430DB691343C7F8F830D7F8F430C0
:101DBC001B68DB6823F4164121F00C01D7F8F430D2
:101DCC001A68D7F8F8300B43D360D7F8F4301B6897
:101DDC005B6923F44070D7F8F4309969D7F8F43084
:101DEC001A6840EA01035361D7F8F4301A688F4B34
:101DFC009A4205D0D7F8F4301A688D4B9A4204D128
:101E0C00FFF7AAFDC7F8FC0003E0FFF791FDC7F848
:101E1C00FC00D7F8F430DB69B3F5004F40F00C81CF
:101E2C00D7F8FC300022C7F8E830C7F8EC20D7E927
:101E3C003A4522462B469118B9655B41FB65D7E9BB
:101E4C001623214612EB0108294643EB01094FF0FA
:101E5C0000024FF000034FEAC90343EA58734FEAFC
:101E6C00C80290469946234618EB0303C7F8E030A6
:101E7C002B4649EB0303C7F8E430D7F8F4305B6822
:101E8C000022C7F8D830C7F8DC20D7E936120B4649
:101E9C00DB183B65134642EB03037B65D7E9142340
:101EAC00D7E93801FEF79CF902460B46614BA3FBC0
:101EBC0002235B091C01D7F8FC300022C7F8D03094
:101ECC00C7F8D420D7E9348942464B469118B964F7
:101EDC005B41FB64D7E91223414612EB010A4946E8
:101EEC0043EB010B4FF000024FF000034FEACB0322
:101EFC0043EA5A734FEACA0292469B4643461AEB90
:101F0C000303C7F8C8304B464BEB0303C7F8CC3080
:101F1C00D7F8F4305B680022C7F8C030C7F8C4208B
:101F2C00D7E930120B46DB183B64134642EB030334
:101F3C007B64D7E91023D7E93201FEF751F9024649
:101F4C000B4611463B4BA3FB01235B09642202FBAE
:101F5C0003F3CB1ADB0003F13202364BA3FB022353
:101F6C005B095B0003F4F8731C44D7F8FC300022C7
:101F7C00C7F8B830C7F8BC20D7E92E8942464B4683
:101F8C009118B9635B41FB63D7E90E2341465118A5
:101F9C00396349464B417B634FF000024FF000031D
:101FAC00D7E90CAB5946CB00514643EA5173514625
:101FBC00CA0010461946034642469B18C7F8B03073
:101FCC004B460A4642EB0303C7F8B430D7F8F4305B
:101FDC005B680022C7F8A830C7F8AC20D7E92A12F2
:101FEC000B46DB18BB62134642EB0303FB62D7E9DB
:101FFC000A23D7E92C01FEF7F3F802460B460D4BEA
:10200C00A3FB02135B09642101FB03F3D31ADB006E
:10201C003233084AA2FB03235B0903F00702D7F80B
:10202C00F4301B6822449A6005E100BF00100140A7
:10203C00001401401F85EB51D7F8FC300022C7F883
:10204C00A030C7F8A420D7E9288942464B469118FE
:10205C0039625B417B62D7E90823414654184946F3
:10206C0043EB01054FF000024FF00003EB0043EA95
:10207C005473E20014461D464346E318C7F89830E3
:10208C004B4645EB0303C7F89C30D7F8F4305B683C
:10209C000022C7F89030C7F894204FF000024FF0A0
:1020AC000003D7E9244529468B00214643EA917366
:1020BC0021468A00D7E92601FEF792F802460B4624
:1020CC00604BA3FB02235B091C01D7F8FC300022F8
:1020DC00C7F88830C7F88C20D7E9228942464B468E
:1020EC009118B9615B41FB61D7E906234146511850
:1020FC00396149464B417B614FF000024FF00003C0
:10210C00D7E904AB5946CB00514643EA51735146CB
:10211C00CA0010461946034642469B18C7F8803041
:10212C004B460A4642EB0303C7F88430D7F8F43029
:10213C005B680022BB67FA674FF000024FF00003A8
:10214C00D7E91E8949468B00414643EA91734146C3
:10215C008A00D7E92001FEF743F802460B46394BBB
:10216C00A3FB02135B09642101FB03F3D31A1B01CC
:10217C003233344AA2FB03235B0903F0F0031C4403
:10218C00D7F8FC3000223B677A67D7E91C894246B6
:10219C004B469118B9605B41FB60D7E9022341467D
:1021AC005118396049464B417B604FF000024FF0AB
:1021BC000003D7E900AB5946CB00514643EA5173B3
:1021CC005146CA0010461946034642469B18BB6648
:1021DC004B460A4642EB0303FB66D7F8F4305B68C8
:1021EC0000223B667A664FF000024FF00003D7E9FD
:1021FC00188949468B00414643EA917341468A004F
:10220C00D7E91A01FDF7ECFF02460B460D4BA3FB79
:10221C0002135B09642101FB03F3D31A1B01323354
:10222C00084AA2FB03235B0903F00F02D7F8F43032
:10223C001B6822449A6000BF07F58077BD46BDE855
:10224C00B08F00BF1F85EB51014B1868704700BF62
:10225C000C00002070B50D4D0D4C641BA410002615
:10226C00A64209D10B4D0C4C00F01EFD641BA410B2
:10227C000026A64205D170BD55F8043B984701369F
:10228C00EEE755F8043B98470136F2E76C2D02084F
:10229C006C2D02086C2D0208702D020802440346B6
:1022AC00934200D1704703F8011BF9E770B50E4655
:1022BC00054618B183690BB900F048FAAB69AC68F4
:1022CC0013B9284600F042FA2C4B9C4220D16C6882
:1022DC00636EDB0705D4A389980502D4A06D00F0CA
:1022EC00D3FAA38919071DD52369DBB1013EA36875
:1022FC0016F8011F013BA36039BB002B38DA2246CC
:10230C000A21284600F048F8013011D00A2511E0C6
:10231C001B4B9C4201D1AC68DAE71A4B9C4208BFBC
:10232C00EC68D5E72146284600F088F80028DDD077
:10233C004FF0FF35636EDA0705D4A3899B0502D4F1
:10234C00A06D00F0A2FA284670BD002B04DAA26939
:10235C009A4206DC0A2904D023685A1C22601970A0
:10236C00C5E72246284600F017F80130BFD1DFE759
:10237C0023680A255A1C22601D70DBE7242D0208F5
:10238C00442D0208042D0208024B01461868FFF781
:10239C008DBF00BF0C000020F8B50E461446054654
:1023AC0018B183690BB900F0D1F9214B9C422BD1A8
:1023BC006C68A369A360A3891A072FD523696BB333
:1023CC0023692068C01A6369F6B28342374604DC7D
:1023DC002146284600F026F930BBA368013BA360D8
:1023EC0023685A1C22601E7063690130834204D03A
:1023FC00A389DB0706D50A2E04D12146284600F016
:10240C0011F988B93846F8BD0A4B9C4201D1AC6829
:10241C00CFE7094B9C4208BFEC68CAE72146284627
:10242C0000F00CF80028CBD04FF0FF37EAE700BFE4
:10243C00242D0208442D0208042D0208324B70B5DD
:10244C001D6806460C4625B1AB6913B9284600F049
:10245C007DF92E4B9C420FD16C68A389B4F90C20EA
:10246C0019072CD4DD0611D40923336042F0400344
:10247C00A3814FF0FF303EE0254B9C4201D1AC686C
:10248C00EBE7244B9C4208BFEC68E6E7580712D5F3
:10249C00616B41B104F14403994202D0304600F023
:1024AC005BFA00236363A38923F02403A381002335
:1024BC00636023692360A38943F00803A381236924
:1024CC004BB9A38903F42073B3F5007F03D02146E5
:1024DC00304600F001FAA089B4F90C2010F0010389
:1024EC000AD00023A36063695B42A361236943B9EB
:1024FC0010F08000BAD170BD810758BF6369A3602A
:10250C00F4E70020F7E700BF0C000020242D0208A0
:10251C00442D0208042D02088A892DE9F041054654
:10252C0010070C4658D44B68002B05DC0B6C002BA9
:10253C0002DC0020BDE8F081E66A002EF9D0002311
:10254C0012F480522F682B6032D0606DA3895A0729
:10255C0005D56368C01A636B0BB1236CC01A0023DA
:10256C000246E66A216A2846B047431CA38906D175
:10257C0029681D292CD82A4ACA40D60728D50022FA
:10258C006260D9042269226004D5421C01D12B68F7
:10259C0003B96065616B2F600029CAD004F1440354
:1025AC00994202D0284600F0D7F900206063C1E7B9
:1025BC00216A01232846B047411CC7D12B68002B48
:1025CC00C4D01D2B01D0162B01D12F60B1E7A389EC
:1025DC0043F04003A381ADE70F69002FA9D0930707
:1025EC000E6808BF4B690F6018BF0023A6EB0708E5
:1025FC008B60B8F1000F9CDD216AA66A43463A460F
:10260C002846B047002806DCA38943F04003A38189
:10261C004FF0FF308EE70744A8EB0008E9E700BF56
:10262C000100402038B50B6905460C4613B900254E
:10263C00284638BD18B183690BB900F087F8144BE4
:10264C009C421BD16C68B4F90C30002BEFD0626E3D
:10265C00D00704D4990502D4A06D00F015F92846D2
:10266C002146FFF759FF636EDA070546E0D4A389CC
:10267C009B05DDD4A06D00F008F9D9E7054B9C4211
:10268C0001D1AC68DFE7044B9C4208BFEC68DAE789
:10269C00242D0208442D0208042D0208002310B535
:1026AC000446C0E90033C0E904338360818143668A
:1026BC00C2818361194608225C30FFF7EFFD054BA0
:1026CC006362054BA362054BE362054B24622363F3
:1026DC0010BD00BF452B0208672B02089F2B020878
:1026EC00C32B0208014900F0AFB800BF3126020825
:1026FC0070B568224D1E55430E4605F1740100F06D
:10270C0097F9044640B10021C0E900160C30A060D6
:10271C0005F16802FFF7C2FD204670BD014800F0CC
:10272C00B3B800BFD9000020014800F0AEB800BF1C
:10273C00D9000020014800F0A7B800BFDA00002043
:10274C00014800F0A2B800BFDA00002010B5044622
:10275C00FFF7F0FFA3691BB1BDE81040FFF7F0BF16
:10276C00C4E912332365134B134A1B68A262A342BC
:10277C0004BF0123A361204600F020F860602046CE
:10278C0000F01CF8A060204600F018F80022E06071
:10279C0004216068FFF782FFA06801220921FFF77E
:1027AC007DFFE06802221221FFF778FF0123A3616D
:1027BC00D2E700BF002D0208F1260208F8B5074643
:1027CC00FFF7ACFF1E4B1E68B36913B93046FFF719
:1027DC00BDFF4836D6E90134013B03D533680BB352
:1027EC003668F7E7B4F90C50D5B9164BE36004F131
:1027FC005800656600F047F8FFF796FFC4E90155ED
:10280C00C4E904552560A5610822294604F15C0041
:10281C00FFF744FDC4E90D55C4E912552046F8BD37
:10282C006834D9E704213846FFF762FF044630606C
:10283C000028D5D1FFF778FF0C233B60EEE700BFF3
:10284C00002D02080100FFFF2DE9F84306468846DB
:10285C0000F148040027D4E90195B9F1010905D527
:10286C002468002CF7D13846BDE8F883AB89012BDE
:10287C0007D9B5F90E30013303D029463046C0478D
:10288C0007436835E9E770477047704770B50E46E7
:10289C00B1F90E10002996B014461D4608DAB6F9A7
:1028AC000C3000222A601A0610D44FF480630EE01C
:1028BC006A4600F0A7F90028F1DB019A02F4704295
:1028CC00A2F500535A425A412A60EEE740230020F9
:1028DC00236016B070BD00008B8973B59D0706464A
:1028EC000C4607D504F14703236023610123636180
:1028FC0002B070BD01AB6A46FFF7C8FF00990546F0
:10290C00304600F095F848B9B4F90C309A05EFD47C
:10291C0023F0030343F00203A381E3E70D4BB362FF
:10292C00A389206043F08003A381009B6361019B1A
:10293C0020615BB1B4F90E10304600F075F928B186
:10294C00A38923F0030343F00103A381A08905436A
:10295C00A581CDE7F126020837B5002944D051F8FE
:10296C00043C0190002BA1F10404B8BFE41800F062
:10297C007DF91E4A0198136833B96360146003B083
:10298C00BDE8304000F078B9A34208D92568611938
:10299C008B4201BF19685B6849192160EDE71A4643
:1029AC005B680BB1A342FAD911685518A5420BD13B
:1029BC00246821445418A3421160E0D11C685B6860
:1029CC00536021441160DAE702D90C230360D6E787
:1029DC00256861198B4204BF19685B68636004BF8A
:1029EC00491921605460CAE703B030BDDC000020F7
:1029FC0070B50E4E0C463168054611B900F08CF8D6
:102A0C0030602146284600F087F8431C0AD0C41CCD
:102A1C0024F00304A04207D0211A284600F07CF8C9
:102A2C00013001D14FF0FF34204670BDE000002092
:102A3C002DE9F041CD1C25F0030508350C2D38BFD0
:102A4C000C25002D074601DBA94205D90C233B6060
:102A5C0000263046BDE8F0812E4E00F007F93368B1
:102A6C001C4634BB29463846FFF7C2FF431C0446BC
:102A7C004DD134682646002E40D123683146384665
:102A8C0004EB030800F048F880453AD1216803357F
:102A9C006D1A25F0030508350C2D38BF0C25294679
:102AAC003846FFF7A5FF01302BD023682B44236059
:102ABC000EE02268521B1ED40B2A16D96119A342B0
:102ACC00256018BF5960636808BF316062514B6064
:102ADC00384604F10B0600F0CFF826F00706231D4C
:102AEC00F21AB6D09B1BA350B3E76268A3420CBF8B
:102AFC0032605A60ECE723466468B2E73446766885
:102B0C00B9E70C233B60384600F0B6F8A1E7256026
:102B1C00DEE700BFDC00002038B5064D002304467C
:102B2C0008462B60FDF702FF431C02D12B6803B152
:102B3C00236038BDE400002010B50C46B1F90E102E
:102B4C0000F0A0F80028ABBF636DA3891B1823F419
:102B5C008053ACBF6365A38110BD2DE9F0411F46C6
:102B6C008B89DB0505460C46164605D5B1F90E10CA
:102B7C000223002200F068F8A389B4F90E1023F4A4
:102B8C008053A38132463B462846BDE8F04100F015
:102B9C0017B810B50C46B1F90E1000F055F8431CDF
:102BAC00A38915BF606523F4805343F48053A3813C
:102BBC0018BFA38110BDB1F90E1000F013B80000BE
:102BCC0038B5074D04460846114600222A601A46BD
:102BDC00FDF75BFE431C02D12B6803B1236038BDAB
:102BEC00E400002038B5064D0023044608462B604F
:102BFC00FDF767FE431C02D12B6803B1236038BD7F
:102C0C00E400002038B5074D002304460846114661
:102C1C002B60FDF762FE431C02D12B6803B12360CD
:102C2C0038BD00BFE400002038B5064D0023044633
:102C3C0008462B60FDF761FE431C02D12B6803B1E3
:102C4C00236038BDE400002038B5074D0446084623
:102C5C00114600222A601A46FDF75AFE431C02D187
:102C6C002B6803B1236038BDE40000200148FFF756
:102C7C000BBE00BFD80000200148FFF706BE00BF06
:102C8C00D800002038B5074D0446084611460022EE
:102C9C002A601A46FDF7DCFD431C02D12B6803B1F8
:102CAC00236038BDE4000020F8B500BFF8BC08BCB8
:102CBC009E467047F8B500BFF8BC08BC9E467047EE
:102CCC0068656C6C6F20776F726C642066726F6DC8
:102CDC00204170702031207632210D000000000060
:102CEC0000000000010203040607080900000000B0
:102CFC00010203041000002000000000000000008E
:102D0C0000000000000000000000000000000000B7
:102D1C0000000000000000000000000000000000A7
:102D2C000000000000000000000000000000000097
:102D3C000000000000000000000000000000000087
:102D4C000000000000000000000000000000000077
:082D5C0000000000000000006F
:082D6400B8D4FF7F010000005C
:042D6C00D101020887
:042D7000AD010208A7
:102D74000024F400100000000100000010000020F6
:102D840000000000242D0208442D0208042D02082E
:102D9400000000000000000000000000000000002F
:102DA400000000000000000000000000000000001F
:102DB400000000000000000000000000000000000F
:102DC40000000000000000000000000000000000FF
:102DD40000000000000000000000000000000000EF
:04000005080209D113
:00000001FF
