:020000040800F2
:1000000068070020950200085D260008111E000800
:1000100059260008450B0008712700080000000061
:10002000000000000000000000000000652600083D
:10003000490B00080000000061260008692600083E
:10004000AF020008AF020008AF020008AF020008CC
:10005000AF020008AF020008AF020008AF020008BC
:10006000AF020008AF020008AF020008AF020008AC
:10007000AF020008AF020008AF020008AF0200089C
:10008000AF020008AF020008AF020008AF0200088C
:10009000AF020008AF020008AF020008AF0200087C
:1000A000AF020008AF020008AF020008AF0200086C
:1000B000AF020008AF020008AF020008AF0200085C
:1000C000AF020008AF020008AF020008AF0200084C
:1000D000AF020008AF020008AF020008AF0200083C
:1000E000AF020008AF020008AF020008AF0200082C
:1000F000AF020008AF020008AF020008AF0200081C
:10010000AF020008AF020008AF020008AF0200080B
:10011000AF020008AF020008AF020008AF020008FB
:10012000AF020008AF020008AF020008AF020008EB
:10013000AF020008AF020008AF020008AF020008DB
:10014000AF020008AF020008AF020008AF020008CB
:10015000AF020008AF020008AF020008AF020008BB
:10016000AF020008AF020008AF020008AF020008AB
:10017000AF020008AF020008AF0200080000000054
:10018000AF020008AF020008AF020008AF0200088B
:10019000AF020008AF020008AF020008AF0200087B
:1001A000AF020008AF020008AF02000800F002F83A
:1001B00000F061F80AA090E8000C82448344AAF1A0
:1001C0000107DA4501D100F056F8AFF2090EBAE89E
:1001D0000F0013F0010F18BFFB1A43F0010318477B
:1001E000982B0000B82B0000103A24BF78C878C1C3
:1001F000FAD8520724BF30C830C144BF04680C602D
:10020000704700000023002400250026103A28BF74
:1002100078C1FBD8520728BF30C148BF0B60704778
:10022000692900F03D81642900F03A81752900F0C8
:1002300037816F2900F0CE81782900F0F5810368BD
:10024000DB0928BF41F08001632900F08083E329A6
:1002500000F0A683002070471FB502F027FD00F0D4
:1002600019FC04000020002102F00AFD401C60601F
:100270001FBD10B510BD00F0E7FB1146FFF7ECFF06
:1002800002F07AFB00F00AFC03B4FFF7F2FF03BCB4
:1002900000F050FC0948804709480047FEE7FEE7A8
:1002A000FEE7FEE7FEE7FEE7FEE7FEE7FEE7FEE726
:1002B00004480549054A064B704700006D260008B2
:1002C000AD010008680100206807002068030020D5
:1002D0006803002053EA020C00F069802DE9F04B1E
:1002E0004FF00006002B1FBFB3FA83F503FA05F4A5
:1002F00024FA05F65E4012BF1643B2FA82F502FAFE
:1003000005F4C5F120051EBF22FA05FC44EA0C04E1
:10031000203556EA044C4FEA144418BF641C4FF0D1
:1003200000084FF00009904271EB030C39D300290B
:1003300019BFB1FA81F701FA07F6B0FA80F700FAAF
:1003400007F6C7F120071EBF20FA07FC46EA0C0695
:100350002037B6FBF4FCA7EB0507103F07F01F0B97
:10036000CBF120062CFA06F60CFA0BFB44BFB34681
:100370000026202FA4BF5E464FF0000B5BEA060C60
:1003800008BF4FF0010B19EB0B0948EB0608ABFB5C
:10039000027C06FB02CC0BFB03CCC01B71EB0C01F7
:1003A000C1E70B46024641464846BDE8F08B13B50F
:1003B000084318BF4FF0FF300146AFF30080BDE89F
:1003C0001C4070470FB4044910B503AA029800F00E
:1003D000CBFA10BC5DF814FB7800002070B5044621
:1003E00085690068C10601D5302600E02026C007D7
:1003F00007D070BDD4E9012130469047206A401CE7
:1004000020626D1EF6D570BD70B504468569007812
:10041000C00707D170BDD4E9012120209047206A90
:10042000401C20626D1EF6D570BD09684A0501D5D5
:1004300040B27047C905FCD500B2704709684A054B
:1004400001D5C0B27047C905FCD580B2704770B500
:100450000C460546012A05D02878800600D5EA69B1
:10046000002302E0012305E05B1C934202D2E05C22
:100470000028F9D1A869E618C01AA861286A1844AA
:1004800028622846FFF7AAFF04E0D5E9012114F805
:10049000010B9047B442F8D32846FFF7B5FF70BD73
:1004A0002DE9F0410646002410687529314616A54D
:1004B00010D0FFF7BAFF002802DA404213A507E088
:1004C00031688A0701D512A502E0490704D511A5B4
:1004D000012401E0FFF7B2FF00210A2206F1240700
:1004E00009E0B0FBF2FCB0FBF2F302FB1C00303081
:1004F00078541846491C0028F3D123462A46304632
:10050000BDE8F04100F0C0B9000000002D0000007F
:100510002B000000200000002DE9FF5F15468A46F1
:100520000446DFF8AC80F8440027D8E900103E46C6
:10053000CDE9001010E03AF816106A4602A800F063
:100540003BFA411C07D02178890603D5E2693918A6
:1005500091420DD80744761C2078800602D5E069C8
:10056000B84205DDAE42E6DB3AF816000028E2D1DB
:10057000A069C01BA0612046FFF730FFD8E900103A
:10058000CDE90010002017E03AF818106A4602A8DA
:1005900000F012FAB0F1FF3F81460BD000250DF1BB
:1005A000080B05E0D4E901211BF8050090476D1CFC
:1005B0004D45F7D308F10100B0428046E4DB206AE4
:1005C000384420622046FFF71FFFBDE8FF9F000070
:1005D0009E27000070B5044621461068FFF72EFFE5
:1005E000002104F1240505E000F007023032C008C4
:1005F0006A54491C0028F7D12068002308A2050787
:1006000008D500F02000084304D0E069012305A2CA
:10061000401EE0612046BDE8704000F035B90000A2
:10062000000000003000000070B504460D46214671
:100630001068FFF703FF2188090502D50F4A7A44A5
:1006400002E00E4A7A440E32002104F1240305E050
:1006500000F00F060009965D5E54491C0028F7D192
:1006600020780023000704D5702D02D009B10223A1
:1006700011322046BDE8704000F006B98E26000019
:100680002DE9F05F894604464FF0000ADFF874B1A7
:10069000FB44C0F820A02046E1688847002874D0B9
:1006A000252806D0D4E901219047206A401C206209
:1006B000F1E700265F462046E16888472028054686
:1006C00007DB312D05D2781910F8200C08B106434C
:1006D000F1E7B00701D526F00406C4F81CA00027F6
:1006E000C4F818A02A2D09D0284602F0C2FA38B35F
:1006F00004EB8708303DC8F8185019E059F8041B7E
:10070000204604EB87029161E1688847012F054686
:1007100018D1E069002820DA26F020061DE0D8F87C
:10072000180000EB800005EB40003038C8F81800D6
:100730002046E1688847054602F09BFA0028EED182
:10074000012F0AD02E2D08D12046E16888477F1C52
:100750000546022F46F02006C4DBA069002803DA14
:10076000404246F00106A061F00701D026F01006D5
:100770006C2D0BD0682D09D04C2D39D06A2D35D079
:10078000742D35D07A2D33D016E038E0E1682F464D
:1007900020468847B842054609D16C2F26D04FF431
:1007A0008060E168064320468847054604E06C2FD8
:1007B0001AD04FF4807006430DB3A5F141001928FB
:1007C00002D8203546F400664A462946204626606F
:1007D0004E46FFF725FD80B101280BD0F61D26F00F
:1007E000070000F1080956E74020E4E78020D8E739
:1007F0000020D6E706F104094DE7284652E7206AB3
:10080000BDE8F09F6426000010B5044603E001F047
:10081000B1FF401C09D014F8010B05490028F6D19E
:10082000BDE810400A2001F0A5BF4FF0FF3010BD19
:10083000780000204FF0000200B51346944696461B
:10084000203922BFA0E80C50A0E80C50B1F12001E3
:10085000BFF4F7AF090728BFA0E80C5048BF0CC091
:100860005DF804EB890028BF40F8042B08BF7047EF
:1008700048BF20F8022B11F0804F18BF00F8012B61
:1008800070477047704770472DE9F0470D4699460D
:100890009246044600F124080168880604D5E06900
:1008A00021F01001216000E00120A84201DD471B7A
:1008B00000E00027A1697A1902EB0900081AA0617B
:1008C0002078C00602D42046FFF788FD002608E005
:1008D000D4E901211AF806009047206A401C761CD2
:1008E00020624E45F4DB2078C0060AD52046FFF78B
:1008F00075FD06E0D4E9012130209047206A401CB4
:100900002062381EA7F10107F4DC07E0D4E90121D9
:1009100018F805009047206A401C2062281EA5F1A7
:100920000105F3DC2046FFF76FFD2078000602D5B5
:100930000220BDE8F0870120FBE710B5436913B141
:10094000AFF3008001E0FFF782FD012010BD1278B7
:1009500000F124010A7000224A700122EDE71168BB
:100960004FF0FF32E9E70000074B70B50D467B44BE
:1009700000F053F80446284600F062F810B14FF03A
:10098000FF3070BD204670BD031E000010B54369E6
:1009900013B1AFF3008001E0FFF7BEFD012010BDF1
:1009A000128800F1240182840022C2840122EDE732
:1009B00011684FF0FF32E9E72DE9F04116460C4689
:1009C000054600F01DF8036893F80101012807D0DF
:1009D000FF2C12D8185D80B101202C70BDE8F08189
:1009E000D3F807013246214603F20713C7182846F9
:1009F000BC46BDE8F041002360474FF0FF30EDE713
:100A000010B500F047F8001D10BD00BF75220000B2
:100A100001694A1C02610878704700B58FB0CDE9C2
:100A200001310021059105497944CDE903101146B2
:100A30006846FFF725FE0FB000BD0000E5FFFFFF91
:100A4000007B00F080007047754600F031F8AE463C
:100A500005006946534620F00700854618B020B5CA
:100A6000FFF726FCBDE820404FF000064FF00007DE
:100A70004FF000084FF0000BAC46ACE8C009ACE802
:100A8000C009ACE8C009ACE8C00921F007018D46F7
:100A900070470000004870473000002010B5044641
:100AA000AFF300802046BDE81040FFF7EDBB00002B
:100AB000004870471000002030B44FF0013C50F85F
:100AC000042B51F8043BCCFA52F4D51A20D1FCB9CE
:100AD00050F8042B51F8043BCCFA52F4D51A17D134
:100AE000B4B950F8042B51F8043BCCFA52F4D51A9F
:100AF0000ED16CB950F8042B51F8043BCCFA52F4E7
:100B0000D51A05D1002CDAD030BC4FF00000704768
:100B100029BAB1FA81F111F01801D1F12000844015
:100B2000F2D1CA40CB4012F0FF0213F0FF0330BCF9
:100B3000D01A704701491820ABBEFEE7260002001C
:100B400070470000FEE7000070470000B0B50446A3
:100B500000F0F8F8054640F20000C2F2000000780C
:100B6000611C18BF044400BF00F0ECF8401BA04219
:100B7000FAD3B0BD2DE9F04F82B000F13E4242F20F
:100B8000004502F1FF77C4F202050A2243F6004E47
:100B90004FEAB726A84208BF0922C4F2010E092E67
:100BA00038BF4FEAB7220125002600274FF0000882
:100BB000009208E008F101080437B8F1100F06F1BF
:100BC000020600F0A7800C6805FA08F914EA090F7C
:100BD000F0D0D1F804B003220BF0030CACF1010407
:100BE000B240012C6FEA020A10D88268CC6802EA8F
:100BF0000A02B440224382604268CBF3001422EA26
:100C0000090204FA08F42243426005E0BCF1030F34
:100C100002D14FF0030C20E0C2688C6802EA0A029D
:100C2000B4402243BCF1020FC26016D16FF0030240
:100C300002EA58020244D2F820C007F01C050F2334
:100C40000C69AB402CEA030304FA05F52B4313624D
:100C5000D1F804B001250BF0030C02680CFA06F37E
:100C600002EA0A021A431BF4403F0260A2D00022AB
:100C700043F644030192C4F202031A684FF6084C8B
:100C800042F480421A601A68CFF6FF7C02F4804278
:100C90000192019A28F00302724452F80C3007F0D6
:100CA0000C050F24AC40A343009C04FA05F52B432C
:100CB00042F80C30DEF808204B6842EA090543F69A
:100CC0000C4CDC0258BF22EA0905CEF80850C4F2E9
:100CD000010CDCF800209C0242EA090558BF22EA18
:100CE0000905CCF80050DEF804209C0342EA09050F
:100CF00058BF22EA0905CEF80450DEF80020DB03D5
:100D000042EA090558BF22EA0905CEF8005001253C
:100D100050E700BF02B0BDE8F08F00000069084056
:100D200018BF012070470000426902EA01039143A5
:100D300041EA034181617047002A08BF09048161CB
:100D40007047000040F2CC00C2F20000006870471B
:100D500070B5B8B3044690F83D0028B9002084F877
:100D60003C00204600F056FB242084F83D0020681B
:100D7000016821F001010160016841F40041016056
:100D8000016821F40041016000F09EFC48F28041BE
:100D9000C0F21E0140F60013D4F804E088424FF080
:100DA0000001C0F23D0348F2A16C4FF0000238BFD1
:100DB00001219842C0F2010C38BF0122E64538BF3C
:100DC0000A460AB1012070BD4DF68361C4F21B31A1
:100DD000A0FB01122168950C4B684FF4967623F026
:100DE0003F0343EA9243754344F6D3564B60C1F246
:100DF00062060B6AA5FB0656B50923F03F03E645DC
:100E000038BF950C6A1C1A430A62CA6948F2A06688
:100E10004CF6FF73C0F20106B64522EA03020BD876
:100E200001384FEA4E03B0FBF3F001306FF31F308F
:100E3000042898BF04201EE0A368013863B1192379
:100E40000EFB03F3B0FBF3F001306FF31F3078B10A
:100E500000F5804008E000BF0EEB4E03B0FBF3F05E
:100E600001306FF31F3028B100F5004003E000BFF0
:100E7000012000E001201043C8610868D4E907237D
:100E800020F0C000104318430860886848F2FF3221
:100E900004F10C0690434CCE18431043A5698860BA
:100EA000C86820F0FF0030432843C860086840F05D
:100EB0000100086000202021206484F83D10206398
:100EC00084F83E0070BD00002DE9F04784B09846DC
:100ED00017460E460446FFF735FF94F83D102029CB
:100EE00023D1054620688169890719D5FFF72AFFB4
:100EF000401B1928F6D900202021206384F83D10DA
:100F000084F83E00206C04F13C0940F0200020648D
:100F10000220002189F8001004B0BDE8F08700BF6E
:100F2000A14619F83C1F012904D1022004B0BDE8F4
:100F3000F08700BF012289F800200368DDE90D1A5F
:100F40000C9ADB0703D1036843F0010303600368D5
:100F500023F400630360222084F83D00402084F8DD
:100F60003E000020206462626185608D31462085EC
:100F70000020CFF6FF70E06220463A464346CDF8A7
:100F800000A0019500F046FF20B1012004B0BDE8AB
:100F9000F08700BF208DA8B102282BD0012835D1C1
:100FA00021680A6822F480620A60002203924A697A
:100FB00003928A690392039A0A6842F400720A60F3
:100FC0002CE000BF002003902068416903918169F3
:100FD00003910399016841F400710160202084F8B5
:100FE0003D00002084F83E00002189F8001004B084
:100FF000BDE8F08721680A6822F480620A600A6806
:1010000042F400620A600022039202E00021039190
:1010100021684A6903928969039103990AF10106DB
:1010200080B2032818D8022842D0012856D1BAF13C
:10103000000F00F0AB802068014651F8142F5206D3
:1010400000F1A8800868C00600F1E280FFF77AFE90
:10105000401B5045EFD9D0E0BAF1000F10D000BFCF
:101060002068014651F8142F52060ED40868C006B5
:1010700000F1CE80FFF766FE401B5045F0D9BCE082
:1010800020684169490640F1B1800069616A0870D1
:10109000606A2268411C208D616201382085638D61
:1010A000013B638553695B0740F18080106973E001
:1010B00020684169490747D4002E59D0BAF1000F82
:1010C00000F09980FFF73EFE401B504500F29580EE
:1010D000206841694907F5D536E000BF20684169BD
:1010E00049070FD4002E65D0BAF1000F00F08380BD
:1010F000FFF728FE401B504500F27F8020684169C1
:101100004907F5D5016821F4806101600069616AD1
:101110000870606A218D0130013960622185206884
:10112000618D01396185416949070DD4002E4FD089
:10113000BAF1000F5FD0FFF705FE401B50455CD8A9
:10114000206841694907F6D5016841F400710160E2
:101150000069616A0870606A2268411C6162218DC1
:1011600001392185618D013961851169417014E072
:1011700041694907E8D4416949075CBF41695FEAB1
:101180004171E1D441694907F2D5DDE72068416941
:1011900049062BD50069616A0870606A218D0130AB
:1011A0006062481E2085618D0139618501047FF4EC
:1011B00037AF13E741694907A4D4416949075CBFC8
:1011C00041695FEA41719DD441694907F2D599E7C8
:1011D00041694907B8D4416949075CBF41695FEA81
:1011E0004171B1D441694907F2D5ADE750F8141FF8
:1011F000C90601460CD4FFF7A5FD0020202120637D
:1012000084F83D1084F83E00206C40F020000AE095
:101210006FF01000086000202021206384F83D104A
:1012200084F83E00206C20640120002189F8001021
:1012300004B0BDE8F08700002DE9F04383B0994683
:1012400016460F460446FFF77DFD94F83D10202911
:101250001CD1054620688169890713D5FFF772FD07
:10126000401B1928F6D900202021206384F83D1066
:1012700084F83E00216C41F02001216484F83C0098
:1012800004E000BF94F83C10012903D1022003B010
:10129000BDE8F083012284F83C200368DDE90B18E7
:1012A0000A9ADB0703D1036843F001030360036874
:1012B00023F400630360212084F83D00402084F87B
:1012C0003E000020206462626185608D3946208581
:1012D0000020CFF6FF70E062204632464B46CDF844
:1012E0000080019500F026FF20B1012003B0BDE889
:1012F000F08300BF208D002850D0206808F101063F
:10130000014651F8142F12062CD49EB1B8F1000FEB
:101310005AD000BF086840055ED4FFF713FD401B9C
:10132000404556D82068014651F8142F1206F1D5D1
:1013300018E000BF0A6852054ED40A68120611D49C
:101340000A68520548D40A6812060BD40A68520586
:1013500042D40A68120605D40A6852053CD40A68C9
:101360001206E7D5626A114611F8013B0361238D2D
:101370006162591E2185678D013F678547697F0737
:101380000AD50F0408D051780161911C6162991E41
:101390002185628D013A62850904B1D1204641461A
:1013A0002A4601F001F838BB2068016841F4007159
:1013B0000160202084F83D00002084F83E0084F87D
:1013C0003C0003B0BDE8F0830868400504D4FFF793
:1013D000B9FC202004E000BF6FF4806008600420A6
:1013E00000212022216384F83D2084F83E10226CE5
:1013F0001043206484F83C10206C04287FF475AFFF
:101400002068016841F400710160012003B0BDE86B
:10141000F08300007047000040F2000040F2CC0171
:10142000C2F20000C2F2000100780A6810440860AD
:101430007047000080B543F60040C4F20200016826
:1014400041F400710160016841F48061016001684C
:1014500041F480710160032000F076F8002000F074
:1014600005F800F027F8002080BD000070B540F2BC
:101470000006C2F2000640F208013278C2F2000112
:101480004FF47A730968B3FBF2F20446B1FBF2F150
:10149000084600F031FB0F2C4FF0010508D838B991
:1014A0004FF0FF3021460022002500F021F8746043
:1014B000284670BD82B0002043F640010190C4F27E
:1014C00002014A6842F480424A604A6802F480425B
:1014D0000192019A0090086840F080500860086806
:1014E00000F0805000900098072002B000F02CB867
:1014F00010B54EF60C5CCEF2000CDCF80030C3F3F5
:10150000022E8EF00704042C28BF0424BEF103032E
:101510004FF0FF3E0EFA04F438BF0023A143994078
:101520000EFA03F39A43114300F00F0200F16043F7
:101530000901043A03F564436244002848BF02F1FC
:101540000C03197010BD00004EF60C51CEF20001D4
:101550000A684FF6FF031A4060F30A2242F08060E7
:1015600040F0FD70086070472DE9F041002800F060
:101570008B8043F60808C4F202080446D8F8F80342
:101580000D4600F00F00884207D288F8F853D8F8CB
:10159000F80300F00F00A84276D12068810717D524
:1015A000410705D5D8F8001041F4E051C8F8001003
:1015B000010705D5D8F8001041F46041C8F80010C3
:1015C000D8F80010A26821F0F0011143C8F800100B
:1015D000C0073FD1D8F8F80300F00F00A84207D9A0
:1015E00088F8F853D8F8F80300F00F00A8424BD160
:1015F0002068410707D5D8F80010E26821F4E051CF
:101600001143C8F80010000708D5D8F80000216978
:1016100020F4604040EAC100C8F8000000F07CF807
:10162000D8F8001042F60952C1F30311C0F60002C7
:10163000515C40F2080220FA01F140F20400C2F2CB
:1016400000000068C2F200021160FFF70FFF0020E7
:10165000BDE8F0816068811E022907D258F8081C95
:1016600089015CBF0120BDE8F08111E0012807D1AC
:1016700058F8081C89035CBF0120BDE8F08107E031
:1016800058F8081C890703D40120BDE8F08100BF89
:10169000D8F8001021F003010843C8F80000FFF754
:1016A00051FB064641F28837D8F80000616800F027
:1016B0000C00B0EB810F8DD0FFF744FB801BB842CC
:1016C000F2D90320BDE8F08140F2080043F608019A
:1016D000C2F20000C4F202010068096842F6195221
:1016E000C1F38221C0F60002515CC840704700007F
:1016F00040F2080043F60801C2F20000C4F2020101
:101700000068096842F61952C1F34231C0F600027E
:10171000515CC8407047000010B543F60404C4F2A1
:101720000204606800F00C0142F200400829C0F297
:10173000F40007D0042918BF10BD41F20020C0F208
:101740007A0010BD216801F03F0221682368490238
:10175000C3F3881106D4A1FB00010023FEF7BAFDF4
:1017600007E000BF41F20020C0F27A004843B0FB1E
:10177000F2F021680222C1F3014102EB4101B0FB0A
:10178000F1F010BD2DE9F04182B0002868D0044688
:10179000007843F60006C007C4F202060BD0B0681A
:1017A00000F00C00042840F09F803068800302D5D0
:1017B0006068002854D0207880071AD5B06810F0EF
:1017C0000C0F09D0B06800F00C00082840F0A6808B
:1017D0007068400200F1A2803068800702D5E0689E
:1017E00001283DD13068216920F0F80040EAC100AD
:1017F00030602078000737D4207840074CD4A569A2
:1018000055B3B06800F00C00082840F0BB80012DF3
:1018100026D07068E16900F480028A4220D1216AF2
:1018200000F03F028A421BD147F6C071626A014054
:10183000B1EB821F14D1A16A4FF6FF73C90399431C
:1018400000F44032A1F580318A4209D1E16A00F00A
:101850007060B0EB016F03D1002002B0BDE8F081F1
:10186000012002B0BDE8F0816069002840F200006C
:10187000C4F2472076D00121C0F8801EFFF762FA3B
:10188000054600BF706F8007B6D4FFF75BFA401BB8
:101890000228F7D9DDE000BF306C10F080580AD183
:1018A00000200190306C40F080503064306C00F0CB
:1018B00080500190019847F20007C4F20007386891
:1018C000C00541D4386840F480703860FFF73AFAB8
:1018D000054600BF3868C00536D4FFF733FA401B11
:1018E0000228F7D9B5E000BFB06800F00C00082866
:1018F00003D1706840023FF558AF6068B0F5803F93
:1019000007D0B0F5A02F40F08D80306840F48020E3
:101910003060306840F4803030608DE0E06800284E
:1019200052D00020C4F2472001210160FFF70AFADB
:10193000054600BF306880073FF554AFFFF702FA55
:10194000401B0228F6D984E0A068012805D00528AC
:101950004ED1306F40F004003067306F40F001002E
:1019600030674FE00021C0F8801EFFF7EBF9054615
:10197000706F80077FF540AFFFF7E4F9401B022846
:10198000F6D966E00027C4F2472700203866FFF743
:10199000D9F9022D05460BD1306880015ED5FFF7DD
:1019A000D1F9401B02284FF00300F5D955E700BFDD
:1019B000306880017FF550AFFFF7C4F9401B022863
:1019C0004FF00300F4D948E70020C4F2472000217B
:1019D0000160FFF7B7F90546306880077FF509AF6A
:1019E000FFF7B0F9401B02284FF00300F4D934E7A9
:1019F000316F002821F001013167316F21F00401BE
:101A000031674DD0FFF79EF9054641F2883700BF98
:101A1000306F800756D4FFF795F9401BB842F7D9CD
:101A200017E000BF3168002821F48031316031684F
:101A300021F4802131604FD0FFF784F9054600BFC3
:101A4000306880033FF5B7AEFFF77CF9401B642890
:101A5000F6D9032002B0BDE8F08100BF04F11C05F7
:101A60002FCD084340EA8210D9034FF6FF7291430D
:101A7000A1F5803140EA05600843706001203866B6
:101A8000FFF760F9044600BF306880013FF5E4AE1F
:101A9000FFF758F9001B02284FF00300F4D9DCE6E9
:101AA000FFF750F9054641F2883700BF306F8007D5
:101AB00008D5FFF747F9401BB8424FF00300F5D9AE
:101AC000CBE600BFB8F1000F7FF499AE306C20F088
:101AD0008050306493E600BFFFF734F9054600BF3D
:101AE000306880037FF567AEFFF72CF9401B642850
:101AF0004FF00300F4D9B0E6411E0020B0EB116FA7
:101B00001CBF012070474EF21002CEF2000251605D
:101B10004EF62351CEF20001F0230B7007219060A6
:101B200011607047002804BF0120704710B50446BB
:101B300090F83D0028B9002084F83C00204600F0D1
:101B400021F8242084F83D002068C16821F4005168
:101B5000C160204600F094FD2068016921F49041A5
:101B60000161416921F02A014161C16841F40051DC
:101B7000C16000202021206484F83D1084F83E10CC
:101B800010BD0000704700002DE9F04381B004460D
:101B900090F83D0020280DD10F4600294FF001009C
:101BA00000F0DD801646002A00F0D98094F83C0051
:101BB000012803D1022001B0BDE8F083012084F8A0
:101BC0003C000020206421201D4684F83D00FFF7E2
:101BD000B9F8A684E684A1680646B1F5805F03D112
:101BE0002069002800F01081B8460027002084F802
:101BF0003C00E18C2068002900F0908005F101098B
:101C00000DE000BFB8F1000F28D018F8011B4160AB
:101C1000E18C0139E184E18C002900F07F800168CA
:101C20000906EFD4B9F1000F0AD0FDB1FFF78AF829
:101C3000801BA8421AD8206801680906F6D5E1E79A
:101C400001680906DED4016809065CBF01685FEA25
:101C50000161D7D401680906F2D5D3E737F8021B32
:101C60004FF000086FF35F21D1E700BF206850E814
:101C7000030F216820F4D07041E80302BAB3206852
:101C800050E8030F216820F4D07041E8030272B3DA
:101C9000206850E8030F216820F4D07041E8030267
:101CA0002AB3206850E8030F216820F4D07041E87F
:101CB0000302002ADAD11AE0206850E8050F2168F3
:101CC00020F0010041E80502DAB1206850E8050F74
:101CD000216820F0010041E8050292B1206850E837
:101CE000050F216820F0010041E805024AB1206893
:101CF00050E8050F216820F0010041E80502002AA4
:101D0000DAD1202084F83D0084F83E00002084F8D9
:101D10003C00032001B0BDE8F08300BF0168490624
:101D200019D4FDB1691C0DD10168490613D40168AD
:101D300049065CBF01685FEA41610CD4016849064D
:101D4000F2D508E0FEF7FEFF801BA8420AD8206803
:101D500000684006F6D5202084F83D00002001B040
:101D6000BDE8F083206850E8030F216820F4D070AC
:101D700041E80302E2B3206850E8030F216820F431
:101D8000D07041E803029AB3206850E8030F21683D
:101D900020F4D07041E8030252B3206850E8030FEA
:101DA000216820F4D07041E80302002ADAD11FE054
:101DB000206850E8050F216820F0010041E8050285
:101DC000002A9ED0206850E8050F216820F001000D
:101DD00041E80502002A3FF494AF206850E8050F5F
:101DE000216820F0010041E80502002A3FF489AF94
:101DF000206850E8050F216820F0010041E8050245
:101E0000002AD5D17DE700BF4FF00008EEE60000C4
:101E1000FEE700002DE9F04383B0044600689946D0
:101E20000368904643F48062026002680B9D42F4AE
:101E30008072026042690A9ED2070F461DD1711C52
:101E400011D0002E00F03681FEF77CFF401BB0421F
:101E500000F2328120684169C907F5D00DE000BF6A
:101E60004169C90709D14169C90706D14169C90753
:101E700004BF41695FEAC171F2D007F0FE07076154
:101E80004169890738D44169721C01F4806111D01D
:101E900049BB002E00F03A81FEF754FF401BB042D0
:101EA00000F2368120684169890725D441694905D6
:101EB000F2D518E0B9B9416989071DD441694905CE
:101EC00011D44169890717D4416949050BD4416987
:101ED000890711D44169490505D4416989070BD4A3
:101EE00041694905E7D5016841F4007101606FF46B
:101EF0008061416104200CE100210291014651F80A
:101F0000142F02924A680292029A0A68120620D49A
:101F1000002E00F0AB80721C51D10A68520500F10E
:101F2000AD800A68120614D40A68520500F1A68032
:101F30000A6812060DD40A68520500F19F800A68EB
:101F4000120606D40A68520500F198800A68120643
:101F5000E3D5B9F1010F45D04FEA182101610146DF
:101F600051F8142F12063DD4002E00F07F80721C11
:101F70002AD10A68520500F181800A68120631D41C
:101F80000A6852057AD40A6812062BD40A685205E8
:101F900074D40A68120625D40A6852056ED40A68F9
:101FA0001206E6D51EE000BFFEF7CCFE401BB04295
:101FB00061D82068014651F8142F1206C9D4086868
:101FC0004005F1D55AE000BF0868400556D4FEF739
:101FD000B9FE401BB0424ED82068014651F8142F7C
:101FE0001206F1D55FFA88F10161014651F8142F0C
:101FF00012061AD4D6B3721C33D10A6852053DD4E6
:102000000A68120611D40A68520537D40A68120603
:102010000BD40A68520531D40A68120605D40A683E
:1020200052052BD40A681206E7D50168002241F454
:102030008071016020464FF001113346009500F099
:1020400007FA002850D02068006844E0FEF77AFEC6
:10205000401BB0420FD82068014651F8142F1206D9
:10206000E3D408684005F1D508E000BF08684005E2
:1020700004D4FEF767FE202004E000BF6FF4806008
:102080000860042000212022216384F83D2084F888
:102090003E10226C1043206484F83C10206C04280D
:1020A00043D12068016841F400710160012003B050
:1020B000BDE8F083FEF746FE00202021206384F86F
:1020C0003D1084F83E00216C41F02001216421681C
:1020D00084F83C000868C00544BF4FF400702064D9
:1020E000032003B0BDE8F083206847F001010161DF
:1020F0000221C0F20101204632462B4600F050FA80
:10210000002818BF012003B0BDE8F083FEF71AFED7
:10211000202000212022216384F83D2084F83E10F5
:10212000226C1043206484F83C10012003B0BDE809
:10213000F08300002DE9F04381B00446006890462A
:102140000268099D42F4807202604269089E9946C5
:10215000D2070F461DD1711C11D0002E00F0D28085
:10216000FEF7F0FD401BB04200F2CE8020684169CE
:10217000C907F5D00DE000BF4169C90709D1416920
:10218000C90706D14169C90704BF41695FEAC17146
:10219000F2D007F0FE0101614169890738D4416935
:1021A000721C01F4806111D049BB002E00F0E88060
:1021B000FEF7C8FD401BB04200F2E4802068416990
:1021C000890725D441694905F2D518E0B9B94169B3
:1021D00089071DD44169490511D44169890717D47C
:1021E000416949050BD44169890711D44169490501
:1021F00005D4416989070BD441694905E7D50168D0
:1022000041F4007101606FF4806141610420BAE023
:1022100000210091014651F8142F00924A68009263
:10222000009A0A6812061ED4002E00F08580721CE7
:102230004DD10A68520500F187800A68120612D44F
:102240000A68520500F180800A6812060BD40A68F9
:10225000520579D40A68120605D40A68520573D467
:102260000A681206E5D5B9F1010F43D04FEA1821EB
:102270000161014651F8142F12063BD4002E5BD0A9
:10228000721C29D10A6852055ED40A68120631D43C
:102290000A68520558D40A6812062BD40A685205F7
:1022A00052D40A68120625D40A6852054CD40A682A
:1022B0001206E7D51EE000BFFEF744FD401BB0420A
:1022C0003FD82068014651F8142F1206CBD4086875
:1022D0004005F1D538E000BF0868400534D4FEF76A
:1022E00031FD401BB0422CD82068014651F8142F14
:1022F0001206F1D55FFA88F10161002001B0BDE856
:10230000F08300BFFEF71EFD00202021206384F82B
:102310003D1084F83E00216C41F0200121642168C9
:1023200084F83C000868C00544BF4FF40070206486
:10233000032001B0BDE8F0830868400504D4FEF72F
:1023400001FD202004E000BF6FF4806008600420DD
:1023500000212022216384F83D2084F83E10226C65
:102360001043206484F83C10206C042817D12068A6
:10237000016841F400710160012001B0BDE8F08303
:10238000FEF7E0FC202000212022216384F83D207C
:1023900084F83E10226C1043206484F83C10012025
:1023A00001B0BDE8F083000070B50368044653F83F
:1023B000140F400737D40E46F1B1701C24D100BF72
:1023C0001868400532D4186840072CD418684005B6
:1023D0002CD41868400726D41868400526D41868FD
:1023E000400720D41868400520D4186840074FF0F3
:1023F000000048BF70BDE3E71868400516D4FEF73B
:10240000A1FC202016E000BF154600BF186840055B
:102410000CD4FEF797FC401BB042F2D8236853F867
:10242000140F4007F2D5002070BD00BF6FF480602C
:102430001860042000212022216384F83D2084F8C4
:102440003E10226C10432064012084F83C1070BDC3
:102450002DE9F04105461446DDF8188001F47F00AF
:102460002A681E46B0F5803F8FB241D1506938408E
:10247000C01BB0FA80F04009A0427BD1701C2DD067
:10248000002E7BD0FEF75EFCA0EB0800B04277D8B0
:10249000286840693840C01BB0FA80F04009A0426B
:1024A000F0D00020BDE8F08150693840C01BB0FA80
:1024B00080F04009A0425DD150693840C01BB0FA9D
:1024C00080F04009A04255D150693840C01BB0FA95
:1024D00080F04009A0424FF000005FD150693840C1
:1024E000C01BB0FA80F04009A042DDD042E000BF3E
:1024F00090693840C01BB0FA80F04009A04239D141
:10250000701C1FD0D6B300BFFEF71CFCA0EB080068
:10251000B04235D8286880693840C01BB0FA80F0D6
:102520004009A042F0D00020BDE8F0819069384019
:10253000C01BB0FA80F04009A0424FF0000018BF65
:10254000BDE8F08190693840C01BB0FA80F04009C6
:10255000A0420FD190693840C01BB0FA80F040090A
:10256000A04207D190693840C01BB0FA80F0400902
:10257000A042DBD00020BDE8F08100BFFEF7E2FB07
:1025800000202021286385F83D1085F83E00296C45
:1025900041F02001296485F83C000120BDE8F0816C
:1025A000F0B581B0044600681D4643698FB203EA66
:1025B0000701B94202D1002001B0F0BD41691646C1
:1025C000013201F480610FD059BB9EB3FEF7BAFB14
:1025D000401BB04230D8206841693940B942EAD046
:1025E00041694905F2D51CE0D9B941693940B94280
:1025F000E1D04169490514D441693940B942DAD082
:10260000416949050DD441693940B942D3D0416986
:10261000490506D441693940B942CCD041694905E0
:10262000E3D5016841F4007101606FF4806141619C
:10263000042002E0FEF786FB2020002120222163F7
:1026400084F83D2084F83E10226C1043206484F806
:102650003C10012001B0F0BDFEE70000FEE70000E5
:102660007047000070470000FEF7D6BE4EF6885057
:10267000CEF20000016841F4700101607047000073
:1026800010B504460068D4E902C22369016921F447
:10269000405111430161626943EA0C01E36911434E
:1026A000C268194349F20C639A431143C1604169FE
:1026B000A26921F4407141F20043114340F4806269
:1026C000C4F201039A42416102D1FFF711F801E01F
:1026D000FEF7FAFFE16963681922B1F5004FA0FB2C
:1026E000020123D15A00DB0FFDF7F4FD48F21F5120
:1026F000C5F2EB11A0FB01235A094FF69C73C0F6FB
:10270000FF7303F1805302FB0300322303EBC0008D
:10271000A0FB01014FF4F87000EA111000EB021069
:10272000C1F3421108442168886010BD9A009B0FD4
:10273000FDF7D0FD48F21F51C5F2EB11A0FB0123BC
:102740005A094FF69C73C0F6FF7302FB0300322355
:1027500003EB0010A0FB0101F02000EA511000EB98
:102760000210C1F3431108442168886010BD0000C5
:10277000FEE7000080B582B0019040F22410C2F262
:10278000000001A9012247F23053FFF7FDF901983B
:1027900002B080BDB0B584B040F27001C2F2000159
:1027A0004A680978044601200DF10F034FF47A7549
:1027B000CDE900301046002201230295FEF784FB8C
:1027C00060B1024613A00021FDF7FCFD1BA0FEF73F
:1027D0001BF84FF0FF35284604B0B0BD9DF80F2020
:1027E00042F62150C0F6000000210025FDF7EAFD69
:1027F0009DF80F10080900EB800001F00F0202EBBA
:1028000040002070C2B213A0FDF7DCFD284604B0E2
:10281000B0BD00BF695274635F52656164427974F0
:1028200065206661696C65642830782530325829E6
:102830002C206572723A25640D0A00006952746397
:102840004765745365636F6E64733A206661696CA3
:102850000D000000695274634765745365636F6EC1
:1028600064733A207375636320676574203078253C
:102870003032583D3E25750D0A00000070B584B019
:102880000446CD206043C00A00EB8001A4EB410167
:1028900041EA001640F27001C2F20001486809786E
:1028A00001220DF10F034FF47A75CDE900320022B9
:1028B00001238DF80F600295FEF7BEFC9DF80F1006
:1028C00042F64C520546002818BF0146C0F60002E9
:1028D0000BA008BF1046CAB20021FDF773FD12A17C
:1028E0001BA0F2B2002D08BF08462146FDF76AFD85
:1028F000002D18BF4FF0FF35284604B070BD00BF53
:10290000695274635F5772697465427974652066B1
:1029100061696C656428307825303258292C20652F
:1029200072723A25640D0A006952746353657453D8
:1029300065636F6E64733A207375636320736574A7
:102940002025753D3E3078253032580D0A000000B4
:10295000695274635365745365636F6E64733A2090
:102960006661696C207365742025753D3E3078255D
:102970003032580D0A00000092B043F630090024AE
:10298000C4F20209C4F20204FEF754FD06AD05F1DB
:1029900008002821FDF74EFF00260596CDE90366C5
:1029A000CDE901660096D9F81000012740F080506B
:1029B000C9F81000D9F8100000F08050009000987D
:1029C00047F200000096CFF6FE70215867F38F3172
:1029D0002150205800F44040009000984FF480307F
:1029E0000790284606970C96FEF7CCFE20B1EFF331
:1029F000108072B6FEE700BF0F20CDE901074FF44B
:102A0000A050CDE9040001A800210396FEF7ACFD1B
:102A100020B1EFF3108072B6FEE700BF00260696E5
:102A2000D9F8000004F5C05540F04000C9F8000096
:102A3000D9F800000DF1180800F040000690069843
:102A40004FF400500690012728464146CDE907760D
:102A50000996FEF78FF828464FF400510122FEF741
:102A60006BF90196D9F80000414640F00100C9F821
:102A70000000D9F8000000F0010001900198204604
:102A8000CDE90676CDE90866FEF774F80196D9F827
:102A90001400414640F01000C9F81400D9F81400A1
:102AA00000F01000019001984FF4C06006900220E1
:102AB000CDE907060720CDE909602046FEF75AF860
:102AC00040F22410A4F57041C2F200000C234FF430
:102AD000E13280E84600C0E90366C0E90536C66118
:102AE000FFF720F80196D9F800004FF0120A40F0E5
:102AF0000400C9F80000D9F80000042700F0040021
:102B0000019001984FF48070069020464146CDE92F
:102B100007A6CDE90967FEF72DF84FF40070CDE95F
:102B2000060A04F5006041460A97CDE90866FEF7FB
:102B300021F80196D9F8100045F6004140F4000054
:102B4000C9F81000D9F81000C4F2000100F4000028
:102B50000190019840F2D000C2F200004FF4804290
:102B600048F2A063C0F2010380E84A00C0E90362B2
:102B7000C0E90566C0E90766FEF7EAF8002819BF54
:102B800001461FA024A00021FDF71CFC40F2D0004C
:102B9000C2F20000D02100F065F80120FFF76EFEC0
:102BA00022A0FDF731FE002701AE0FF2A8080FF2B8
:102BB0008C0909E020460121FEF7B0F8002808BF83
:102BC00007466420FDF7C2FF20460121FEF7A6F864
:102BD0000028EFD0002FEDD13046FFF7DBFD18B114
:102BE0004846FDF711FE04E09DF804104046FDF74D
:102BF000E9FB28464FF40051FEF796F80127E0E77D
:102C000069326320696E69742070726F626C656DE1
:102C10002025750D0A00000069326320696E697411
:102C200020737563632025750D0A0000537461726B
:102C3000742050726F6772616D0D00006952746389
:102C40004765745365636F6E64733A204572726FA3
:102C5000720D00007365636F6E64733A25750D0A1B
:102C60000000000040F27002C2F2000250601170D9
:102C7000704730380A2801D2012070470020704781
:102C800010B500290AD00878002807D005487844F4
:102C9000FDF712FF002801D0002010BD0248784443
:102CA00010BD00000A01000002010000F1EE100A50
:102CB0004FF6FF71C0F2C03120EA010040F04070D1
:102CC000E1EE100A70470000000000000000000064
:102CD0003031323334353637383941424344454652
:102CE000403058003031323334353637383961624C
:102CF000636465664030780004000008000000004E
:102D000000000002000100001000000000000000B0
:102D10000001020304060708090000000001020385
:102D200004695274635F526561644279746520730B
:102D300075636320726561642028307825303258CD
:102D40003D3E307825303258290D0A0069527463AF
:102D50005F5265616442797465207375636320779F
:102D600072697465283078253032583D3E307825B8
:102D7000303258290D0A0000A82E0008000000205B
:102D800010000000E8010008B82E00081000002024
:102D90005807000004020008100100004300000072
:102DA000F8FFFFFF0040404040404040404041416C
:102DB0004141414040404040404040404040404010
:102DC00040404040400502020202020202020202AA
:102DD00002020202022020202020202020202002A7
:102DE0000202020202029090909090901010101037
:102DF00010101010101010101010101010101010D3
:102E00000202020202028888888888880808080866
:102E10000808080808080808080808080808080832
:102E2000020202024000000000000000000000005A
:102E30000000000000000000000000000000000092
:102E40000000000000000000000000000000000082
:102E50000000000000000000000000000000000072
:102E60000000000000000000000000000000000062
:102E70000000000000000000000000000000000052
:102E80000000000000000000000000000000000042
:102E90000000000000000000000000000000000032
:102EA0000000000000000000010000001000000011
:082EB0000024F4000000000002
:04000005080001AD41
:00000001FF
