:020000040800F2
:1000000010080020F902000801030008030300089B
:1000100005030008070300080903000800000000AA
:100020000000000000000000000000000B030008BA
:100030000D030008000000000F030008A1300008B5
:100040001303000813030008130300081303000838
:100050001303000813030008130300081303000828
:100060001303000813030008130300081303000818
:100070001303000813030008130300081303000808
:1000800013030008130300081303000813030008F8
:1000900013030008130300081303000813030008E8
:1000A00013030008130300081303000813030008D8
:1000B00013030008130300081303000813030008C8
:1000C00013030008130300081303000813030008B8
:1000D00013030008130300081303000813030008A8
:1000E0001303000813030008130300081303000898
:1000F0001303000813030008130300081303000888
:100100001303000813030008130300081303000877
:100110001303000813030008130300081303000867
:100120001303000813030008130300081303000857
:100130001303000813030008130300081303000847
:100140001303000813030008130300081303000837
:100150001303000813030008130300081303000827
:100160001303000813030008130300081303000817
:100170001303000813030008130300080000000025
:1001800013030008130300081303000813030008F7
:1001900013030008130300081303000813030008E7
:1001A00013030008130300081303000800F002F80B
:1001B00000F092F80AA090E8000C82448344AAF16F
:1001C0000107DA4501D100F087F8AFF2090EBAE86D
:1001D0000F0013F0010F18BFFB1A43F0010318477B
:1001E000EC4300000C440000103A24BF78C878C1EA
:1001F000FAD8520724BF30C830C144BF04680C602D
:10020000704700000023002400250026103A28BF74
:1002100078C1FBD8520728BF30C148BF0B60704778
:100220006E2900F0D581702900F00B83662904F057
:10023000CA80652904F0C780672904F0C480612959
:1002400004F0C38003681B0A28BF41F080016929BC
:1002500000F08281642900F07F81752900F07C81A3
:100260006F2900F09982782900F0D782E92900F0FF
:100270003382E42900F03082F52900F02D82EF2945
:1002800000F09682F82900F0D6820368DB0928BFC7
:1002900041F08001632900F0EF87732900F0F487B3
:1002A000E32900F0FF87F32901F004800020704764
:1002B0001FB504F07BF801F057F80400002000217E
:1002C00004F05EF8401C60600020002104F042F859
:1002D000E0601FBD10B510BD01F018F81146FFF722
:1002E000E7FF03F027FA01F0F5F803B4FFF7F2FF98
:1002F00003BC01F03BF9000009488047094800476A
:10030000FEE7FEE7FEE7FEE7FEE7FEE7FEE7FEE7C5
:10031000FEE7FEE704480549054A064B7047000022
:10032000A9300008AD0100081002002010080020CC
:10033000100400201004002053EA020C00F0698031
:100340002DE9F04B4FF00006002B1FBFB3FA83F5E9
:1003500003FA05F424FA05F65E4012BF1643B2FA1A
:1003600082F502FA05F4C5F120051EBF22FA05FC4C
:1003700044EA0C04203556EA044C4FEA144418BFF2
:10038000641C4FF000084FF00009904271EB030C21
:1003900039D3002919BFB1FA81F701FA07F6B0FA8B
:1003A00080F700FA07F6C7F120071EBF20FA07FC06
:1003B00046EA0C062037B6FBF4FCA7EB0507103F16
:1003C00007F01F0BCBF120062CFA06F60CFA0BFBFC
:1003D00044BFB3460026202FA4BF5E464FF0000B5B
:1003E0005BEA060C08BF4FF0010B19EB0B0948EB59
:1003F0000608ABFB027C06FB02CC0BFB03CCC01B4C
:1004000071EB0C01C1E70B46024641464846BDE888
:10041000F08B13B5084318BF4FF0FF300146AFF320
:100420000080BDE81C4070470FB4044910B503AA12
:10043000029800F0E1F810BC5DF814FB7800002091
:100440004FF0000200B5134694469646203922BF6D
:10045000A0E80C50A0E80C50B1F12001BFF4F7AFB8
:10046000090728BFA0E80C5048BF0CC05DF804EB9A
:10047000890028BF40F8042B08BF704748BF20F808
:10048000022B11F0804F18BF00F8012B7047704706
:100490007047704770B5044685690068C10601D58C
:1004A000302600E02026C00707D070BDD4E9012126
:1004B00030469047206A401C20626D1EF6D570BD04
:1004C00070B5044685690078C00707D170BDD4E9CE
:1004D000012120209047206A401C20626D1EF6D525
:1004E00070BD09684A0501D540B27047C905FCD501
:1004F00000B2704709684A0501D5C0B27047C90506
:10050000FCD580B2704770B50C460546012A05D06F
:100510002878800600D5EA69002302E0012305E07F
:100520005B1C934202D2E05C0028F9D1A869E6186E
:10053000C01AA861286A184428622846FFF7AAFF53
:1005400004E0D5E9012114F8010B9047B442F8D337
:100550002846FFF7B5FF70BD2DE9F041064600249F
:1005600010687529314616A510D0FFF7BAFF00288C
:1005700002DA404213A507E031688A0701D512A5C7
:1005800002E0490704D511A5012401E0FFF7B2FFFD
:1005900000210A2206F1240709E0B0FBF2FCB0FBBF
:1005A000F2F302FB1C00303078541846491C002836
:1005B000F3D123462A463046BDE8F04100F055BA53
:1005C000000000002D0000002B00000020000000B3
:1005D00011680268006A530501D508700AE0D30566
:1005E00001D5088006E0130603D5C217C1E9000251
:1005F00000E0086001207047074B70B50D467B4452
:1006000000F01DFE0446284600F058FE10B14FF0E1
:10061000FF3070BD204670BD0F3100002DE9FF5F37
:1006200015468A460446DFF8AC80F8440027D8E92E
:1006300000103E46CDE9001010E03AF816106A4668
:1006400002A800F03FFE411C07D02178890603D59F
:10065000E269391891420DD80744761C207880064B
:1006600002D5E069B84205DDAE42E6DB3AF8160095
:100670000028E2D1A069C01BA0612046FFF70AFF55
:10068000D8E90010CDE90010002017E03AF8181062
:100690006A4602A800F016FEB0F1FF3F81460BD07B
:1006A00000250DF1080B05E0D4E901211BF8050038
:1006B00090476D1C4D45F7D308F10100B0428046CC
:1006C000E4DB206A384420622046FFF7F9FEBDE8EB
:1006D000FF9F0000A23D00002DE9F0418046D21DA1
:1006E00022F007020025D2E90002F52915A614D050
:1006F000011E72F1000106DA0023D0EB030063EB68
:10070000020211A608E0D8F800108B0701D50FA649
:1007100002E0490701D50EA601251146002408F183
:10072000240704E000F05CF930323A55641C50EACA
:100730000102F7D12B46324621464046BDE8F04142
:1007400000F093B9000000002D0000002B00000015
:100750002000000030B4002100F1240408E002F081
:100760000705D208303542EA4372DB086554491C5C
:1007700052EA0305F3D10468002310A2250708D527
:1007800004F020040C4304D0C46901230CA2641EAD
:10079000C46130BC00F069B910B504462146106848
:1007A000FFF7A8FE02462046BDE810400023D1E72F
:1007B000D21D22F00701D1E90023CBE700000000A1
:1007C00030000000F0B40D460188090502D5214C27
:1007D0007C4402E01F4C7C440E34002100F12406CE
:1007E00008E002F00F071209E75D42EA03721B09F5
:1007F0007754491C52EA0307F3D102780023120709
:1008000004D5702D06D009B1022311342246F0BC64
:1008100000F02BB901231034F8E770B504460D46FB
:1008200021461068FFF766FE024629462046BDE8CD
:1008300070400023C6E7D21D22F00703D3E900234E
:10084000C0E70368126843F0200303600823C36114
:100850000023B7E7043C00002DE9F05F8946044619
:100860004FF0000ADFF874B1FB44C0F820A0204626
:10087000E1688847002874D0252806D0D4E90121F2
:100880009047206A401C2062F1E700265F46204620
:10089000E16888472028054607DB312D05D2781905
:1008A00010F8200C08B10643F1E7B00701D526F097
:1008B0000406C4F81CA00027C4F818A02A2D09D0EB
:1008C000284603F03FFD38B304EB8708303DC8F8F5
:1008D000185019E059F8041B204604EB8702916177
:1008E000E1688847012F054618D1E069002820DA21
:1008F00026F020061DE0D8F8180000EB800005EB7C
:1009000040003038C8F818002046E168884705469E
:1009100003F018FD0028EED1012F0AD02E2D08D1AA
:100920002046E16888477F1C0546022F46F02006D6
:10093000C4DBA069002803DA404246F00106A0614A
:10094000F00701D026F010066C2D0BD0682D09D0D1
:100950004C2D39D06A2D35D0742D35D07A2D33D029
:1009600016E038E0E1682F4620468847B842054641
:1009700009D16C2F26D04FF48060E16806432046F1
:100980008847054604E06C2F1AD04FF48070064368
:100990000DB3A5F14100192802D8203546F40066B0
:1009A0004A462946204626604E46FFF739FC80B16C
:1009B00001280BD0F61D26F0070000F1080956E7C4
:1009C0004020E4E78020D8E70020D6E706F10409BC
:1009D0004DE7284652E7206ABDE8F09F943B0000AF
:1009E00030B5B0F10A0271F100034FEA900E4EEA01
:1009F000817EB0EB0E0061EB91014FEA101E4EEAD2
:100A0000017E10EB0E0041EB11114FEA102E4EEA61
:100A1000016E10EB0E0041EB11214FEA104E4EEA31
:100A2000014E10EB0E0041EB1141401841F1000165
:100A30004FEAD00040EA41704FEAD1014FEA810409
:100A400044EA907410EB800544EB01046D1944EB0B
:100A50000404521BA3414FF0000348BF0A3200D5E3
:100A600030BD401C41F1000130BD2DE9F0470D467D
:100A700099469246044600F124080168880604D588
:100A8000E06921F01001216000E00120A84201DDB1
:100A9000471B00E00027A1697A1902EB0900081A38
:100AA000A0612078C00602D42046FFF7F3FC0026A0
:100AB00008E0D4E901211AF806009047206A401C9A
:100AC000761C20624E45F4DB2078C0060AD520460D
:100AD000FFF7E0FC06E0D4E9012130209047206ACE
:100AE000401C2062381EA7F10107F4DC07E0D4E9BE
:100AF000012118F805009047206A401C2062281E3A
:100B0000A5F10105F3DC2046FFF7DAFC20780006AA
:100B100002D50220BDE8F0870120FBE72DE9FF4F59
:100B20000C461E464FF0FF378BB0D2E90001DDF8CE
:100B300060800A908A46C1F30A5505B93D460021F6
:100B400008464FF00000BAF1000F00F4400005DA4B
:100B500000EB80004FF4400101EA50004FEA905949
:100B6000B9F1010F00DDB9460A9850EA4A000ED0EB
:100B700044F61050A5F2FF3545432F14B8F1000F8D
:100B80001ED07542291E1EDDC9F100021CE0B8F11D
:100B9000010F4FF0000001D0302103E0F24305E0E7
:100BA0002154401CB042FBDB30460022002121547E
:100BB0000B99C1F80880C1E900200FB0BDE8F08FA3
:100BC000BD1B6D1CDEE74A4600DA694206A800F04C
:100BD0000FFC06AB93E8070003AB83E80700504621
:100BE0000A9902F0CFFF8DE80700A0F500501F38EA
:100BF00000900398002D0ADD42F21F014A46084486
:100C0000002303A90390684603F038FA09E0A0F531
:100C100000504A461F38002303A90390684603F09A
:100C200042FA8DE807000004000C03D04FF0FF30BB
:100C3000410800E01046B8F1000F03D000220092F6
:100C400015461EE0751E05D4FFF7CAFE3032625508
:100C50006D1EF9D5B3460122084302D000227F1C45
:100C600004E02078302801D100227F1E002A099755
:100C700084D01DE0112D07DAFFF7B2FE3032625545
:100C80006D1C50EA0102F5D1084302D00098C8B1AA
:100C90000EE00021681E05E0235C625C6354225470
:100CA000401E491C8142F7DBAB46A81B401E099041
:100CB000002004F80B000B98099AC0F80880C0E9DE
:100CC000002B7AE711264FF0000857E72DE9F04F87
:100CD00088460446D21D22F0070191B0D1E90001F7
:100CE000CDE90A0103F016FB02460B98C00F01D0B4
:100CF0002D2007E02068810701D52B2002E020216C
:100D000001EAC000032A099001D0072A05DB034647
:100D10004146204600F02CFB0BE12078800601D5EF
:100D2000E06900E00620B8F1650F814606D0B8F111
:100D3000660F18D0B8F1670F70D131E00020B9F11B
:100D4000110F009001DB112301E009F101030AAA50
:100D500001A90CA8FFF7E2FEDDE90C70002609F1FD
:100D60000105834647E001204B4600904FF00047C5
:100D70000AAA01A90CA8FFF7D1FEDDE90DB00C9974
:100D80005D46002610B909F101000D18B9EB050008
:100D900003D4C0F1FF3609F10105A5EB09002BE0F2
:100DA000B9F1010F01DA4FF001090020B9F1110F7B
:100DB0000090484601DD112300E003460AAA01A97C
:100DC0000CA8FFF7ABFEDDE90C704D46002683460C
:100DD000207800070AD4AB4500DA5D4601A8012D52
:100DE00004DD411911F8011C302907D04F4502DA02
:100DF00017F1040F04DA012082460FE06D1EEEE7C2
:100E0000002F02DCED1B3E4403E0781CA84200DD0D
:100E10007D1CB81B00F1010A4FF000472078000745
:100E200003D4AA4501DB4FF0FF3A0021B7F1004F90
:100E30000DF143088DF8431024D002202B23002FFE
:100E400001DA7F422D230A21021EA0F1010000DCFD
:100E50005FB197FBF1FC97FBF1F201FB1C7C17469D
:100E60000CF1300C08F801CDEEE7A8F10100037099
:100E70002188090501D5452100E06521A0F101087F
:100E800000F8011C09980FA9A1EB0807FF1D00B18C
:100E90000120411901EBEA70A1693844081A401E8B
:100EA000A0612078C00602D42046FFF7F3FA099823
:100EB00028B1D4E901219047206A401C20622078A3
:100EC000C00622D52046FFF7E5FA1EE0002E04DB1F
:100ED000B34502DD01A8805D00E03020D4E90121A6
:100EE0009047206A401C2062761CAAF101005FEA4C
:100EF000000A0AD100F038FAC0680168405CD4E901
:100F000001219047206A401C2062281EA5F101059E
:100F1000DCDC07E0D4E9012118F8010B9047206AD6
:100F2000401C2062381EA7F10107F3DC2046FFF7C2
:100F3000C7FA032011B041E62DE9F04F04460D46F3
:100F4000D21D22F0070089B0D0E900974846394603
:100F500003F0E0F90246F80F01D02D2307E02068E6
:100F6000810701D52B2302E0202101EAC0038DF87F
:100F700020300BB1012000E00020032A824601D07E
:100F8000072A04DB2946204600F0F2F93FE12078E9
:100F9000800601D40D2500E0E569C7F30A560D2D42
:100FA00049DA00214FEA175B08464FF00000002F96
:100FB00000F4400007DA00EB80004FF4400100EB42
:100FC000D07001EA60008115012901DD4FF0FF3189
:100FD00000224FEA850CBCF1180F06D31346ACF182
:100FE00018004FF08052C24003E04FF4801323FA00
:100FF0000CF30CF10C0CBCF1200F04D3ACF1200C61
:1010000009FA0CF001E007FA0CF000294FF0004853
:1010100001DD18B90FE00ED140450CD319EB0209E0
:101020005F4121B9404502D19F4329EA0209BBEB48
:10103000175F00D0761C2088000502D57B487844D5
:1010400002E07A487844193808AA302302F80A30B6
:10105000037C0AF10101002E0AF1020A53546A4688
:1010600002DC4FF0300101E04FF031014FF0010898
:101070008DF8001002D0A6F2FF3603E059EA4701CE
:1010800000D06B4E002D02DC2178090704D54FF00B
:1010900002082E218DF80110C44600210BE0C7F391
:1010A00003433F01C35C491C6D1E02F8083005294B
:1010B00008F1010801DA002DF1DC00210CE000EB61
:1010C0001973491C1B786D1E082902F808304FEA75
:1010D000091908F1010801DA002DF0DC21688B06FE
:1010E00002D516E0A8F10108E04505DD02EB080392
:1010F00013F8013C302BF5D0B8F1000F09DD02EBFD
:10110000080313F8013C2E2B03D1090701D4A8F1E1
:101110000108002D05DD3E2102F808106D1E08F1C2
:101120000108407C002E02F8080008F1010804DAEA
:101130002D20764202F8080002E02B2002F8080079
:101140000A214FF47A70864208F101080BDB96FB06
:10115000F0F3303302F8083096FBF0F308F10108A1
:1011600000FB136601E0642E0CDB642096FBF0F3B9
:10117000303302F8083096FBF0F308F1010800FB69
:10118000136601E00A2E06DB96FBF1F0303002F820
:10119000080008F1010896FBF1F001FB1060303007
:1011A00002F80800A16908F1010808EB050202EB4A
:1011B0000A00081AA0612078C00602D42046FFF772
:1011C00069F9216A08AE01EB0A00206204E0D4E963
:1011D000012116F8010B9047BAF1010AF7D22078E5
:1011E000C00602D52046FFF755F96E4609E016F80D
:1011F000010B3E280FD0D4E901219047206A401C02
:101200002062B8F10108F2D22046FFF759F909B07F
:101210000320BDE8F08F206A2844206203E0D4E96F
:101220000121302090476D1EEBD3F8E7E233000038
:1012300002FCFFFF01694A1C02610878704700B593
:101240008FB0CDE901310021059105497944CDE9FF
:10125000031011466846FFF7FFFA0FB000BD00000B
:10126000E5FFFFFF10B5436913B1AFF3008001E064
:10127000FFF749F9012010BD127800F124010A702E
:1012800000224A700122EDE711684FF0FF32E9E7D2
:1012900010B5436913B1AFF3008001E0FFF7BEF969
:1012A000012010BD128800F1240182840022C28432
:1012B0000122EDE711684FF0FF32E9E7007B00F013
:1012C000800070472DE9F04116460C46054600F0B7
:1012D00043F8036893F80101012807D0FF2C12D8C6
:1012E000185D80B101202C70BDE8F081D3F80701B2
:1012F0003246214603F20713C7182846BC46BDE80C
:10130000F041002360474FF0FF30EDE7754600F0F5
:10131000EBF8AE4605006946534620F007008546C7
:1013200018B020B5FEF7F6FFBDE820404FF00006EC
:101330004FF000074FF000084FF0000BAC46ACE850
:10134000C009ACE8C009ACE8C009ACE8C00921F0AC
:1013500007018D467047000010B500F005F8001D2C
:1013600010BD00BF1D300000004870473000002055
:101370002DE9F0411F46044603260168072A01F4BF
:10138000006004DB08B116A505E016A503E008B16E
:1013900015A500E015A521F010002060A069C01E71
:1013A000A0610FB1401EA0612046FFF773F84FB156
:1013B000D4E9012138469047206A401C2062C01CB5
:1013C000206206E0206AFAE7D4E9012115F8010B52
:1013D0009047761EF8D22046FFF772F8BDE8F081FC
:1013E0004E414E006E616E00494E4600696E6600C9
:1013F0002DE9F047814616468AB0354878440DC835
:101400008DE80D0032487844801C03AC0DC884E898
:101410000D0041F69B300844372190FBF1F290FB20
:10142000F1F5A5F1800501FB12041B3C02D56442D5
:10143000012000E00020DFF898A080460027FA4451
:10144000AAF1BE0A0EE0E0070AD03246684607EB72
:10145000470101230AEB810102F025FE8DE8070018
:1014600064107F1C002CEED1194F7F44AE3F19E071
:10147000E80715D007EB04100DF1180A90E80E00EC
:101480008AE80E00C068F04201D1981908903246EF
:10149000012306A903A802F006FE03AB83E80700B8
:1014A0006D10641C002DE3D14FF0010332466946F4
:1014B000B8F1000F03A802D002F0E0FD01E002F055
:1014C000F2FDC9E90001C9F808200AB0BDE8F087BB
:1014D000B430000010B50446AFF300802046BDE8EC
:1014E0001040FEF702BF00000048704710000020C7
:1014F00030B44FF0013C50F8042B51F8043BCCFAC7
:1015000052F4D51A20D1FCB950F8042B51F8043B01
:10151000CCFA52F4D51A17D1B4B950F8042B51F8BB
:10152000043BCCFA52F4D51A0ED16CB950F8042B06
:1015300051F8043BCCFA52F4D51A05D1002CDAD07C
:1015400030BC4FF00000704729BAB1FA81F111F0B8
:101550001801D1F120008440F2D1CA40CB4012F0F2
:10156000FF0213F0FF0330BCD01A70470149182066
:10157000ABBEFEE7260002007047000083B0029079
:101580008DF80710002000909DF8070018B9FFE7BC
:101590000020009017E09DF80700012804D1FFE724
:1015A0004FF4807000900DE09DF80700022804D1F0
:1015B000FFE74FF40070009003E04FF4407000909C
:1015C000FFE7FFE7FFE702980C2804D3FFE7029844
:1015D00004300290FFE743F61041C4F202010868AC
:1015E00020F440700860009A08681043086008689A
:1015F00020F0F8000860029A086840EAC20040F053
:1016000002000860086840F48030086003B070474A
:1016100082B001908DF8031043F61041C4F202012C
:10162000086820F44070086008680860086840F0A6
:10163000010008609DF803000199087002B070472E
:1016400084B003900193009243F61041C4F202016A
:10165000086820F440700860086840F44070086032
:10166000086840F001000860009803990860BFF323
:101670006F8F01980399486004B0704782B0019061
:10168000ADF8021043F61041C4F20201086820F4DC
:1016900040700860086840F480700860086840F096
:1016A00001000860BDF802000199088002B070478F
:1016B00082B00190009143F61041C4F20201086823
:1016C00020F440700860086840F400700860086802
:1016D00040F00100086000980199086002B070476E
:1016E00043F60C40C4F202000068C00600280FD583
:1016F000FFE740F2DC11C2F20001C86940F01000BF
:10170000C86143F60C41C4F2020110200860FFE7F3
:1017100043F60C40C4F202000068800600280FD592
:10172000FFE740F2DC11C2F20001C86940F0080096
:10173000C86143F60C41C4F2020120200860FFE7B3
:1017400043F60C40C4F202000068400600280FD5A2
:10175000FFE740F2DC11C2F20001C86940F004006A
:10176000C86143F60C41C4F2020140200860FFE763
:1017700043F60C40C4F202000068000600280FD5B2
:10178000FFE740F2DC11C2F20001C86940F002003C
:10179000C86143F60C41C4F2020180200860FFE7F3
:1017A00043F60C40C4F202000068C005002810D5C2
:1017B000FFE740F2DC11C2F20001C86940F001000D
:1017C000C86143F60C41C4F202014FF48070086016
:1017D000FFE743F60C40C4F20200006880070028CF
:1017E0000FD5FFE740F2DC11C2F20001C86940F0FA
:1017F0002000C86143F60C41C4F2020102200860D7
:10180000FFE7704780B584B002900020019040F25D
:10181000DC11C2F20001C86100F046FB0190FFE755
:1018200043F60C40C4F202000068C003002815D53E
:10183000FFE70298013080B1FFE7029840B1FFE76F
:1018400000F032FB0199401A0299884204D9FFE75F
:1018500003208DF80F0023E0FFE7E1E743F60C409B
:10186000C4F202000068C00738B1FFE743F60C413C
:10187000C4F2020101200860FFE743F60C40C4F205
:101880000200006810F4F97F06D0FFE7FFF728FF99
:1018900001208DF80F0003E000208DF80F00FFE716
:1018A0009DF80F0004B080BD80B584B0039000F0B7
:1018B000FBFA0290039801900198013048B1FFE7CC
:1018C00040F20500C2F2000001780198084401903E
:1018D000FFE7FFE700F0E8FA0299401A0199884211
:1018E00001D2FFE7F6E704B080BD000043F61041E7
:1018F000C4F20201086840F0004008600020704710
:1019000080B588B0069005910393029201208DF86E
:101910000700FFE740F2DC10C2F20000007E012861
:1019200004D1FFE702208DF81F0051E040F2DC11E6
:10193000C2F2000101200876FFE7FFE74CF25030C9
:10194000FFF760FF8DF807009DF8070098BBFFE7E1
:10195000069830B9FFE705989DF80810FFF758FE84
:101960001AE00698012806D1FFE70598BDF808108F
:10197000FFF784FE0FE00698022805D1FFE70598DF
:101980000299FFF795FE05E00598029A039BFFF781
:1019900057FEFFE7FFE7FFE74CF25030FFF732FF5B
:1019A0008DF8070043F61041C4F20201086820F0E8
:1019B00001000860FFE7FFE740F2DC11C2F200011E
:1019C00000200876FFE79DF807008DF81F00FFE76D
:1019D0009DF81F0008B080BD81B000208DF8030085
:1019E00043F61040C4F202000068C00FD8B1FFE710
:1019F00043F60441C4F2020140F22310C4F26750DE
:101A0000086048F6AB10CCF6EF50086043F6104083
:101A1000C4F202000068C00F20B1FFE701208DF87A
:101A20000300FFE7FFE79DF8030001B070470000E7
:101A300090B00F900E9100200C900B900A900D909A
:101A4000FFE70D980F2800F2E881FFE70D990120CC
:101A500088400C900E9800680C9908400B900B98E9
:101A60000C99884240F0D481FFE70E98406800F05E
:101A70000300012807D0FFE70E98406800F003003C
:101A800002282FD1FFE70F9880680A900D98410037
:101A9000032000FA01F10A9888430A900E98C06862
:101AA0000D99490000FA01F10A9808430A900A9832
:101AB0000F9988600F9840680A900D99012000FAEC
:101AC00001F10A9888430A900E984068C0F300100C
:101AD0000D9900FA01F10A9808430A900A980F99A3
:101AE0004860FFE70E98406800F00300032818D014
:101AF000FFE70F98C0680A900D984100032000FA94
:101B000001F10A9888430A900E9880680D9949005F
:101B100000FA01F10A9808430A900A980F99C860E0
:101B2000FFE70E98406800F00300022826D1FFE787
:101B30000F980D996FF0030202EA51010844006A00
:101B40000A900D9800F0070081000F2000FA01F1C3
:101B50000A9888430A900E9800690D9901F00701D0
:101B6000890000FA01F10A9808430A900A980F992F
:101B70000D9B02EA530211440862FFE70F980068C8
:101B80000A900D984100032000FA01F10A98884359
:101B90000A900E98406800F003000D99490000FA81
:101BA00001F10A9808430A900A980F9908600E9864
:101BB00080798007002800F02A81FFE7FFE70020F6
:101BC000099043F64400C4F20200016841F48041E8
:101BD0000160006800F4804009900998FFE70D98C3
:101BE00020F0030043F60801C4F2010140580A90B6
:101BF0000D9800F0030081000F2000FA01F10A980F
:101C000088430A900F980021C4F20201884203D150
:101C1000FFE7002008907AE00F9840F20041C4F2FC
:101C20000201884203D1FFE7012007906CE00F9882
:101C300040F60001C4F20201884203D1FFE702200E
:101C400006905EE00F9840F60041C4F2020188421F
:101C500003D1FFE70320059050E00F9841F2000107
:101C6000C4F20201884203D1FFE70420049042E05D
:101C70000F9841F20041C4F20201884203D1FFE70C
:101C80000520039034E00F9841F60001C4F20201F0
:101C9000884203D1FFE70620029026E00F9841F624
:101CA0000041C4F20201884203D1FFE707200190FE
:101CB00018E00F9842F20001C4F20201884203D1F9
:101CC000FFE7082000900AE00F9942F20042C4F2B8
:101CD00002020A20914208BF09200090FFE7009805
:101CE0000190FFE701980290FFE702980390FFE759
:101CF00003980490FFE704980590FFE70598069085
:101D0000FFE706980790FFE707980890FFE7089815
:101D1000C0B20D9901F00301890000FA01F10A989F
:101D200008430A900A980D9921F0030143F608022E
:101D3000C4F20102885043F60840C4F20100006872
:101D40000A900B990A9888430A900E988079C006E9
:101D5000002805D5FFE70B990A9808430A90FFE78A
:101D60000A9843F60841C4F20101086043F60C40AA
:101D7000C4F2010000680A900B990A9888430A90FF
:101D80000E9880798006002805D5FFE70B990A9800
:101D900008430A90FFE70A9843F60C41C4F2010198
:101DA000086043F60440C4F2010000680A900B99F1
:101DB0000A9888430A900E9880798007002805D5F4
:101DC000FFE70B990A9808430A90FFE70A9843F641
:101DD0000441C4F20101086043F60040C4F201006E
:101DE00000680A900B990A9888430A900E988079A7
:101DF000C00728B1FFE70B990A9808430A90FFE74C
:101E00000A9843F60041C4F201010860FFE7FFE7CA
:101E1000FFE70D9801300D9013E610B070470000F9
:101E200082B00190ADF8021001980069BDF802106F
:101E3000084204D0FFE701208DF8010003E00020F4
:101E40008DF80100FFE79DF8010002B07047000027
:101E500083B00290ADF80610029840690090009A95
:101E6000BDF8060002EA0001904340EA01400299F1
:101E7000886103B07047000082B00190ADF8021095
:101E80008DF801209DF8010028B1FFE7BDF80200A0
:101E90000199886105E0BDF802000004019988619C
:101EA000FFE702B07047000040F20820C2F20000D5
:101EB0000068704740F20500C2F20000027840F26C
:101EC0000821C2F200010868104408607047000051
:101ED00080B543F60041C4F20201086840F4007086
:101EE0000860086840F480600860032000F05CF837
:101EF0000F2000F005F800F03BF8002080BD000046
:101F000080B582B0009040F20000C2F2000000688C
:101F100040F20501C2F200010A784FF47A71B1FB78
:101F2000F2F1B0FBF1F000F077FD20B1FFE7012006
:101F30008DF8070018E000980F280DD8FFE70099EA
:101F40004FF0FF30002200F015F8009840F2080131
:101F5000C2F20001086003E001208DF8070003E0F1
:101F600000208DF80700FFE79DF8070002B080BD54
:101F70007047000080B586B08DF817000491039279
:101F80000020029001F07CFB02909DF91700019067
:101F900002980499039A01F023F80146019801F090
:101FA00077FB06B080BD000080B582B0019001983B
:101FB00001F090FB02B080BD80B584B00290019129
:101FC000029820B9FFE701208DF80F0021E1019868
:101FD00043F60041C4F20201096801F00F01884292
:101FE00012D9FFE7019943F60040C4F202000170E4
:101FF000006800F00F000199884204D0FFE701203B
:102000008DF80F0005E1FFE70298007880070028AF
:102010002AD5FFE7029800784007002809D5FFE796
:1020200043F60801C4F20201086840F4E050086079
:10203000FFE7029800780007002809D5FFE743F67C
:102040000801C4F20201086840F460400860FFE73C
:1020500043F60801C4F20201086820F0F000029A79
:10206000926810430860FFE702980078C0070028D4
:102070006ED0FFE702984068012811D1FFE743F6D0
:102080000000C4F20200006800F400310020B0EB50
:10209000514F04D1FFE701208DF80F00B9E02CE08B
:1020A00002984068022805D0FFE70298406803289C
:1020B00011D1FFE743F60000C4F20200006800F00F
:1020C00000710020B0EB516F04D1FFE701208DF8C3
:1020D0000F009EE010E043F60000C4F2020000682A
:1020E00000F002010020B0EB510F04D1FFE7012006
:1020F0008DF80F008DE0FFE7FFE743F60801C4F21B
:102100000201086820F00300029A52681043086038
:10211000FFF7CAFE0090FFE743F60800C4F2020092
:10212000006800F00C0002994968B0EB810F0ED0F6
:10213000FFE7FFF7B9FE0099401A41F28931884262
:1021400004D3FFE703208DF80F0062E0E4E7FFE728
:10215000019843F60041C4F20201096801F00F0141
:10216000884212D2FFE7019943F60040C4F2020010
:102170000170006800F00F000199884204D0FFE769
:1021800001208DF80F0044E0FFE702980078400737
:1021900000280CD5FFE743F60801C4F202010868E5
:1021A00020F4E050029AD26810430860FFE70298DA
:1021B0000078000700280DD5FFE743F60801C4F2B8
:1021C0000201086820F46040029A126940EAC200E5
:1021D0000860FFE700F04CF843F60801C4F2020182
:1021E0000968C9B20A0944F2CC41C0F60001895C11
:1021F000C84040F20001C2F20001086040F208004D
:10220000C2F200000068FFF77BFE00208DF80F008F
:10221000FFE79DF80F0004B080BD000040F2000011
:10222000C2F200000068704780B5FFF7F7FF43F681
:102230000801C4F202010968C1F3822244F2DC41C0
:10224000C0F60001895CC84080BD000080B5FFF782
:10225000E5FF43F60801C4F20201096889B24A0B9E
:1022600044F2DC41C0F60001895CC84080BD00003A
:1022700080B586B00020059004900390029043F64C
:102280000800C4F20200006800F00C000146019151
:1022900040B1FFE7019804280AD0FFE70198082819
:1022A0000CD04FE042F20040C0F2F40002904FE048
:1022B00041F20020C0F27A00029049E043F60400A7
:1022C000C4F20200016801F03F010591006840027C
:1022D000002813D5FFE743F60400C4F202000068AB
:1022E000C0F3881041F20021C0F27A01A0FB010185
:1022F000059A0023FEF720F8049012E043F604004C
:10230000C4F202000068C0F3881042F20041C0F23B
:10231000F401A0FB0101059A0023FEF70DF80490DB
:10232000FFE743F60400C4F20200006800F4403105
:10233000022000EBD130039004980399B0FBF1F038
:10234000029005E042F20040C0F2F4000290FFE784
:10235000029806B080BD000080B586B00490049855
:1023600020B9FFE701208DF8170050E304980078AA
:10237000C007002800F0A580FFE743F60800C4F27C
:102380000200006800F00C00042813D0FFE743F6B9
:102390000800C4F20200006800F00C0008281ED1FA
:1023A000FFE743F60400C4F2020000684002002880
:1023B00015D5FFE743F60000C4F20200006800F400
:1023C00000310020B0EB514F08D0FFE7049840687F
:1023D00020B9FFE701208DF8170018E370E0FFE750
:1023E00004984068B0F5803F09D1FFE743F600014B
:1023F000C4F20201086840F48030086020E00498CC
:102400004068B0F5A02F0DD1FFE743F60001C4F2FC
:102410000201086840F480200860086840F48030B9
:1024200008600CE043F60001C4F20201086820F4E1
:1024300080300860086820F480200860FFE7FFE72C
:10244000FFE704984068E8B1FFE7FFF72DFD039030
:10245000FFE743F60000C4F20200006800F4003118
:102460000020B0EB514F0CD1FFE7FFF71DFD0399A2
:10247000401A652804D3FFE703208DF81700C6E251
:10248000E7E71CE0FFF710FD0390FFE743F60000CD
:10249000C4F20200006800F400310020B0EB514F9C
:1024A0000CD0FFE7FFF700FD0399401A652804D31D
:1024B000FFE703208DF81700A9E2E7E7FFE7FFE752
:1024C000FFE7049800788007002840F19680FFE736
:1024D00043F60800C4F20200006810F00C0F13D09D
:1024E000FFE743F60800C4F20200006800F00C00A9
:1024F00008282CD1FFE743F60400C4F2020000686C
:102500004002002823D4FFE743F60000C4F2020093
:10251000006800F002010020B0EB510F09D0FFE786
:102520000498C068012804D0FFE701208DF8170047
:102530006DE243F60001C4F20201086820F0F800E1
:10254000049A126940EAC2000860FFE754E0049868
:10255000C06870B3FFE70021C4F247210120086082
:10256000FFF7A2FC0390FFE743F60000C4F202006D
:10257000006800F002010020B0EB510F0CD1FFE722
:10258000FFF792FC0399401A032804D3FFE70320C6
:102590008DF817003BE2E7E743F60001C4F20201C1
:1025A000086820F0F800049A126940EAC200086046
:1025B00021E00021C4F2472100200860FFF774FCED
:1025C0000390FFE743F60000C4F20200006800F049
:1025D00002010020B0EB510F0CD0FFE7FFF764FCC5
:1025E0000399401A032804D3FFE703208DF817004E
:1025F0000DE2E7E7FFE7FFE7FFE704980078000751
:1026000000284BD5FFE70498406918B3FFE740F670
:102610008061C4F2472101200860FFF745FC039068
:10262000FFE743F67400C4F20200006800F0020104
:102630000020B0EB510F0CD1FFE7FFF735FC0399F9
:10264000401A032804D3FFE703208DF81700DEE1CA
:10265000E7E722E040F68061C4F2472100200860ED
:10266000FFF722FC0390FFE743F67400C4F2020078
:10267000006800F002010020B0EB510F0CD0FFE722
:10268000FFF712FC0399401A032804D3FFE7032045
:102690008DF81700BBE1E7E7FFE7FFE70498007854
:1026A0004007002840F1CE80FFE700208DF80700AA
:1026B00043F64000C4F202000068C000002815D4B0
:1026C000FFE7FFE70020009043F64000C4F202005D
:1026D000016841F080510160006800F08050009076
:1026E0000098FFE701208DF80700FFE747F20000A0
:1026F000C4F200000068C005002822D4FFE747F2BA
:102700000001C4F20001086840F480700860FFF71F
:10271000CBFB0390FFE747F20000C4F20000006823
:10272000C00500280CD4FFE7FFF7BEFB0399401A51
:10273000032804D3FFE703208DF8170067E1EAE7D9
:10274000FFE7FFE704988068012809D1FFE743F617
:102750007001C4F20201086840F0010008601FE047
:102760000498806805280DD1FFE743F67001C4F294
:102770000201086840F004000860086840F00100A9
:1027800008600CE043F67001C4F20201086820F012
:1027900001000860086820F004000860FFE7FFE718
:1027A000FFE704988068F8B1FFE7FFF77DFB03902F
:1027B000FFE743F67000C4F20200006800F0020177
:1027C0000020B0EB510F0ED1FFE7FFF76DFB03992F
:1027D000401A41F28931884204D3FFE703208DF883
:1027E000170014E1E5E71EE0FFF75EFB0390FFE74B
:1027F00043F67000C4F20200006800F002010020FD
:10280000B0EB510F0ED0FFE7FFF74EFB0399401AD4
:1028100041F28931884204D3FFE703208DF8170085
:10282000F5E0E5E7FFE79DF80700012809D1FFE79C
:1028300043F64001C4F20201086820F080500860AD
:10284000FFE7FFE704988069002800F0DC80FFE7DD
:1028500043F60800C4F20200006800F00C000828EB
:1028600000F08580FFE70498806902285CD1FFE7CB
:102870006021C4F2472100200860FFF715FB039098
:10288000FFE743F60000C4F20200006800F00071A8
:102890000020B0EB516F0CD0FFE7FFF705FB039969
:1028A000401A032804D3FFE703208DF81700AEE099
:1028B000E7E70499C869D1F820C04B6A8A6A40EA00
:1028C0000C0040EA8310D2034FF6FF739A43A2F53F
:1028D00080321043C96A40EA016043F60401C4F241
:1028E000020108606021C4F2472101200860FFF75F
:1028F000DBFA0390FFE743F60000C4F20200006831
:1029000000F000710020B0EB516F0CD1FFE7FFF732
:10291000CBFA0399401A032804D3FFE703208DF86C
:10292000170074E0E7E721E06021C4F247210020AE
:102930000860FFF7B9FA0390FFE743F60000C4F21E
:102940000200006800F000710020B0EB516F0CD065
:10295000FFE7FFF7A9FA0399401A032804D3FFE71A
:1029600003208DF8170052E0E7E7FFE74AE00498FC
:102970008069012804D1FFE701208DF8170046E0A7
:1029800043F60400C4F202000068029004988069D3
:10299000012831D0FFE7029800F480000499C9694A
:1029A000884229D1FFE7029800F03F000499096AA4
:1029B000884221D1FFE7029847F6C0710840049988
:1029C000496AB0EB811F17D1FFE7029800F440304D
:1029D0000499896AC9034FF6FF729143A1F58031CA
:1029E000884209D1FFE7029800F070600499C96A33
:1029F000B0EB016F04D0FFE701208DF8170006E06F
:102A0000FFE7FFE7FFE700208DF81700FFE79DF8DD
:102A1000170006B080BD000080B582B0019001981B
:102A200000F014FB02B080BD80B582B00090009829
:102A300020B9FFE701208DF807003EE0009880698B
:102A400008B1FFE700E0FFE7009890F83D0040B9CB
:102A5000FFE70099002081F83C00009800F032F870
:102A6000FFE70099242081F83D0000980168C868BC
:102A700020F40050C860009800F020FB0098016826
:102A8000086920F49040086100980168486920F0C6
:102A90002A00486100980168C86840F40050C86086
:102AA000009900200864009A202182F83D10009AC5
:102AB00082F83E108DF80700FFE79DF8070002B08E
:102AC00080BD000081B0009001B0704780B58AB031
:102AD00008900791ADF81A200593002002900898FD
:102AE00090F83E00202840F09B80FFE7079820B137
:102AF000FFE7BDF81A0020B9FFE701208DF8270095
:102B000092E0FFE7089890F83C00012804D1FFE725
:102B100002208DF8270087E00899012081F83C0009
:102B2000FFE7FFE7089900200864089A222182F84D
:102B30003E1008990863FFF7B7F90290BDF81A0034
:102B400008998885BDF81A000899C8850898806892
:102B5000B0F5805F09D1FFE70898006928B9FFE761
:102B6000002004900798039004E007980490002048
:102B70000390FFE7FFE70899002081F83C00FFE79A
:102B8000FFE70898C08D002842D0FFE70898029B15
:102B900005996A4611602021002200F02DFB20B12A
:102BA000FFE703208DF827003EE0049858B9FFE7BF
:102BB0000898006840686FF35F20039908800398C5
:102BC000023003901FE008988068B0F5805F08D05D
:102BD000FFE70898806850B9FFE70898006930B9A6
:102BE000FFE70898006840680499087007E00898B3
:102BF0000068406800F07F0004990870FFE70498BF
:102C000001300490FFE70899C88D0138C885B8E7FE
:102C10000899202081F83E0000208DF8270003E06D
:102C200002208DF82700FFE79DF827000AB080BD3D
:102C300080B58AB008900791ADF81A20059300205E
:102C40000290089890F83D00202840F09080FFE71F
:102C5000079820B1FFE7BDF81A0020B9FFE701206F
:102C60008DF8270087E0FFE7089890F83C000128DE
:102C700004D1FFE702208DF827007CE008990120AD
:102C800081F83C00FFE7FFE70899002008640899F5
:102C9000212081F83D00FFF707F90290BDF81A00E6
:102CA00008998884BDF81A000899C8840898806833
:102CB000B0F5805F09D1FFE70898006928B9FFE700
:102CC000002004900798039004E0079804900020E7
:102CD0000390FFE7FFE70899002081F83C00FFE739
:102CE000FFE70898C08C58B3FFE70898029B059946
:102CF0006A4611608021002200F07EFA20B1FFE7D1
:102D000003208DF8270036E0049858B9FFE70398B0
:102D100000886FF35F2008990968486003980230C3
:102D2000039008E0049800780899096848600498BE
:102D300001300490FFE70899C88C0138C884D0E7B7
:102D40000898029B05996A4611604021002200F014
:102D500053FA20B1FFE703208DF827000BE0089914
:102D6000202081F83D0000208DF8270003E002209C
:102D70008DF82700FFE79DF827000AB080BD00000E
:102D800040F2CC01C2F20001002008707047000040
:102D900080B582B0FEF720FE40F27500C2F200005E
:102DA00000780190FFE7019840F27501C2F200013E
:102DB000097840F27402C2F200021278114488428B
:102DC00009DAFFE701980221FEF7D8FBFFE7019837
:102DD00001300190E7E7FEF789FD02B080BD0000F9
:102DE00089B00890079106928DF8173040F2700074
:102DF000C2F2000000680899084404909DF817008A
:102E00000146009140B1FFE7009801281AD0FFE782
:102E1000009802282DD043E000200390FFE703989C
:102E2000069988420DD2FFE7049800780799039A23
:102E30008854049801300490FFE703980130039010
:102E4000EDE72DE000200290FFE702980699884206
:102E50000ED2FFE7049800880799029A21F8120021
:102E6000049802300490FFE7029801300290ECE7EA
:102E700016E000200190FFE70198069988420ED2E3
:102E8000FFE7049800680799019A41F82200049826
:102E900004300490FFE7019801300190ECE7FFE770
:102EA00009B0704782B08DF807008DF806100092C7
:102EB0009DF8070040F27501C2F2000108709DF80C
:102EC000060040F27401C2F200010870009840F25E
:102ED0007001C2F20001086002B0704780B58AB08C
:102EE0000990089107928DF81B3040F27000C2F2F1
:102EF0000000006809990844059040F2CC00C2F235
:102F000000000078C00748B9FFE7FFF741FF40F233
:102F1000CC01C2F2000101200870FFE7FEF75CFD62
:102F20009DF81B000146019140B1FFE7019801287F
:102F30001DD0FFE70198022833D04CE00020049018
:102F4000FFE704980799884210D2FFE7059908988F
:102F5000049A825C00231846FEF7D2FC05980130E3
:102F60000590FFE7049801300490EAE733E0002081
:102F70000390FFE703980799884211D2FFE705996C
:102F80000898039A30F8122001200023FEF7B8FCBD
:102F9000059802300590FFE7039801300390E9E7B8
:102FA00019E000200290FFE702980799884211D2A9
:102FB000FFE705990898029A50F822200220002382
:102FC000FEF79EFC059804300590FFE7029801305B
:102FD0000290E9E7FFE7FEF789FC0AB080BD000038
:102FE00088B0079006910592079800F007000490BA
:102FF0000498C0F10700052803D3FFE704200190DF
:1030000004E00498C0F107000190FFE701980390E5
:1030100004980430062803D8FFE70020009003E05E
:10302000049803380090FFE70098029006980399EF
:10303000012202FA01F101390840029B98400599EA
:103040009A40013A1140084308B0704780B582B0F9
:10305000009000980138B0F1807F03D3FFE7012092
:10306000019019E0009801384EF21401CEF20001EF
:1030700008604FF0FF300F2100F00AFB4EF21801FC
:10308000CEF20001002008604EF21002CEF20002E3
:10309000072111600190FFE7019802B080BD000098
:1030A00080B5FEF707FF80BD4EF68851CEF20001D5
:1030B000086840F4700008607047000080B586B072
:1030C000059005980068006920F44050059A116841
:1030D000D26810430861059988680B694A69C96913
:1030E000184310430843049005980068C06849F2EB
:1030F0000C6188430499084305990968C8600598DC
:103100000068406920F44070059A11689269104384
:1031100048610598006841F20001C4F2010188424B
:1031200009D0FFE70598006841F20041C4F20101AF
:10313000884204D1FFE7FFF789F8039003E0FFF727
:1031400073F80390FFE70598C069B0F5004F29D1E7
:10315000FFE703981921A0FB0101059A1368029368
:1031600053685A00DB0FFDF7E7F80299864648F2EC
:103170001F53C5F2EB13AEFB0320420910014FF0C1
:10318000640C02FB1CEC322202EBCC02A2FB0332E9
:10319000F82303EA521300EB4300C2F34212104437
:1031A000886026E003981921A0FB0101059A1368A5
:1031B000019353689A009B0FFDF7BEF8019984466E
:1031C00048F21F52C5F2EB12ACFB023043096420F7
:1031D00003FB10CC322000EB0C10A0FB0202F0200D
:1031E00000EA521000EB0310C2F34312104488604F
:1031F000FFE706B080BD000080B588B0DDF828C0CC
:10320000069005918DF813200393FFE70698006858
:10321000006805990840401AB0FA80F040099DF80E
:103220001310884249D1FFE70A980130002843D0A3
:10323000FFE70A9840B1FFE7FEF736FE0399401A10
:103240000A99884237D9FFE7FFE7FFE70698006849
:1032500050E8030F20F4D0700290FFE7029906981F
:10326000026842E803100028F0D1FFE7FFE7FFE71C
:10327000FFE70698006850E8050F20F00100019074
:10328000FFE701990698026842E805100028F0D18E
:10329000FFE7FFE70699202081F83D00069981F8B5
:1032A0003E00FFE70699002081F83C00FFE703207D
:1032B0008DF81F0005E0FFE7A8E700208DF81F004C
:1032C000FFE79DF81F0008B080BD000080B582B008
:1032D00040F2D000C2F200000DF10701012247F2D6
:1032E0003053FFF7F3FB9DF8070002B080BD0000EC
:1032F00082B08DF80700ADF80410BDF804009DF809
:10330000071080EA0120ADF804000020ADF80200AB
:10331000FFE7BDF8020007281CDCFFE7BDF804004A
:103320000004002809D5FFE7BDF8041041F2210090
:1033300080EA4100ADF8040005E0BDF8040040005B
:10334000ADF80400FFE7FFE7BDF802000130ADF87B
:103350000200DEE7BDF8040002B0704780B584B01B
:1033600002908DF807100DF10500022100F050F8D1
:103370000298802100F04CF8ADF8000040F2CE0039
:10338000C2F20000007820B1FFE74FF0FF30039059
:103390003AE0FFF79BFF0002ADF80200FFF796FF4F
:1033A0000146BDF802000844ADF8020040F2CE002C
:1033B000C2F2000090F90000012804D1FFE74FF0AD
:1033C000FF30039020E0BDF80200BDF800108842F5
:1033D00010D1FFE79DF805009DF80710884209D13C
:1033E000FFE79DF806009DF8071081F0FF01884275
:1033F00007D0FFE7182000F045F84FF0FF300390AA
:1034000002E000200390FFE7039804B080BD0000B5
:1034100080B586B0049003910020ADF80A000190B9
:10342000FFE701980399884222D2FFE7FFF74EFF9A
:103430008DF8030040F2CE00C2F20000007820B107
:10344000FFE70120ADF8160017E09DF90300BDF875
:103450000A10FFF74DFFADF80A009DF8030004992C
:103460004A1C04920870FFE7019801300190D8E7E8
:10347000BDF80A00ADF81600FFE7BDF8160006B06B
:1034800080BD000080B582B08DF8070040F2D0000A
:10349000C2F200000DF10701012247F23053FFF79D
:1034A000C7FB02B080BD000080B588B00790ADF8C2
:1034B0001A100592049300208DF80E0001218DF85A
:1034C0000B1004990880BDF81A007F2807DCFFE77D
:1034D00004208DF80F0001208DF80E00FFE7FFE7B4
:1034E0009DF80E00C007002840F0C680FFE740F2BC
:1034F0000400C2F200000078012804D1FFE7432055
:10350000FFF7C0FF03E00620FFF7BCFFFFE740F234
:10351000D000C2F200000DF10D0101224FF47A73C8
:10352000FFF7D4FA8DF80C009DF80C00002840F04D
:103530007880FFE79DF80D000138014601911A28B7
:1035400000F262800199DFE801F00E5F5F445F5F87
:103550005F5F5F5F5F5F5F5F5F5F5F5F5F5F5F5F7B
:103560005F535F5F5300079804990988084440F24D
:103570000401C2F200010978FFF7F0FEE0B9FFE7AD
:1035800040F20401C2F20001087801300870049989
:10359000088880300880BDF81A008038ADF81A001D
:1035A000BDF81A007F2806DCFFE701208DF80F0028
:1035B0008DF80E00FFE70BE005208DF80F0040F2BC
:1035C0000401C2F20001012008708DF80E00FFE72F
:1035D00026E00620FFF756FF01208DF80E0040F28E
:1035E0000401C2F20001087000208DF80F0017E0FE
:1035F00001208DF80E0040F20401C2F200010870B3
:1036000002208DF80F000BE001208DF80E0040F233
:103610000401C2F20001087005208DF80F00FFE7D9
:1036200029E09DF80C00032818D1FFE79DF80B0056
:1036300001308DF80B009DF80B00059988420CD9DC
:10364000FFE701208DF80E0040F20401C2F20001F4
:10365000087003208DF80F00FFE70BE001208DF8C4
:103660000E0040F20401C2F20001087005208DF83E
:103670000F00FFE7FFE733E79DF80F0008B080BDBC
:103680004EF60C50CEF200000068C0F302207047E6
:1036900082B08DF8070000919DF9070000280AD438
:1036A000FFE7009800019DF907104EF20042CEF2AC
:1036B000000288540BE0009800019DF8071001F00B
:1036C0000F014EF61452CEF200028854FFE702B00A
:1036D0007047000083B00290029800F0070000904D
:1036E0004EF60C51CEF200010868019001984FF699
:1036F000FF02104001900198009A40EA0220002247
:10370000C0F2FA52104301900198086003B070476C
:1037100080B582B00190009140F2D000C2F200006A
:1037200001A9012247F23053FFF782FA019802B053
:1037300080BD000080B58CB0002008900B90FEF793
:10374000C7FB00F037F900F085F900F0E3F944F227
:103750003650C0F60000FCF767FE41F60000C4F2E8
:1037600002004FF480410122FEF786FB4FF47A708D
:10377000FEF79AF8089840F20421C2F2000108709E
:103780008DF82B00FFE70020C4F202000121FEF7B4
:1037900047FB01280AD1FFE744F20350C0F60000BE
:1037A000FCF742FE01208DF82B0012E06420FEF7AA
:1037B0007BF840F20421C2F2000108780130087061
:1037C000FFE740F20420C2F2000000786428DADB50
:1037D000FFE7052002210022C0F60202FFF762FB8C
:1037E0009DF82B00C007002800F09D80FFE744F201
:1037F000E440C0F60000FCF717FEFFE741F60000CA
:10380000C4F202004FF40051FEF722FB40F2141004
:10381000C2F2000040F2FC13C2F20003C8210A22E7
:10382000FFF742FE0146079105286DD80799DFE8AA
:1038300001F01D0357434A6440F20020C2F2000029
:103840000690006840F2FC11C2F2000105910A885E
:1038500040F21411C2F200010023FFF73FFB05986C
:10386000069902880868104408604EE040F2002083
:10387000C2F200000490006840F2FC11C2F20001A4
:1038800003910A8840F21411C2F200010023FFF7ED
:1038900025FB03980499028808681044086044F2E4
:1038A000AC50C0F60000FCF7BFFD40F2CD01C2F203
:1038B00000010120087028E044F25350C0F60000D7
:1038C000FCF7B2FD21E044F28650C0F60000FCF7A0
:1038D000ABFD40F2CD01C2F200010120087014E0FE
:1038E00044F21950C0F60000FCF79EFD40F2CD01F5
:1038F000C2F200010120087007E040F2CD01C2F2DF
:1039000000010120087000E0FFE7FFE740F2CD0072
:10391000C2F200000078C00700283FF46FAFFFE755
:10392000FFF72EFAFFE741F60000C4F20200009014
:103930004FF4005100220192FEF79EFA0098019A7E
:103940004FF48041FEF798FA019B40F21411C2F245
:103950000001029101221846FFF742FA029800780E
:10396000FF2812D0FFE744F26050C0F60000FCF7D9
:103970005BFD4FF47A70FDF797FF0420C0F602005C
:103980000068099009988047FFE744F27450C0F638
:103990000000FCF749FDFFE741F60000C4F2020019
:1039A0004FF48041FEF754FA4FF47A70FDF77CFF34
:1039B000F2E7000080B594B008A83021FCF740FD84
:1039C000002007900690059004900390FFE70020E8
:1039D000029043F64000C4F20200016841F08051B9
:1039E0000160006800F0805002900298FFE7FFE756
:1039F0000020019047F20000C4F20000016801229B
:103A000062F38F310160006800F44040019001983A
:103A1000FFE7012008904FF48030099000200E90BD
:103A200008A8FEF799FC10B1FFE7FFE7FEE70F20BB
:103A3000039001200490002105914FF4A0500690BE
:103A4000079103A8FEF7B8FA10B1FFE7FFE7FEE71A
:103A500014B080BD80B58CB0FFE70020069043F61F
:103A60003000C4F20200016841F001010160006809
:103A700000F0010006900698FFE7FFE700200590A0
:103A800043F63000C4F20200016841F040010160D9
:103A9000006800F0400005900598FFE74FF4C04033
:103AA00007900120009008900020049009900A904F
:103AB00041F60000C4F20200039007A90291FDF74D
:103AC000B7FF009A029904980792089009900A900B
:103AD0000020C4F202000190FDF7AAFF01980299AC
:103AE000049A4FF4C06307930223089309920723B3
:103AF0000B930A92FDF79CFF0398049A4FF4005130
:103B0000FEF7BAF90398049A4FF48041FEF7B4F92E
:103B10000CB080BD80B582B0FFE70020019043F675
:103B20004400C4F20200016841F010010160006825
:103B300000F0100001900198FFE740F2D000C2F2BF
:103B40000000009041F20001C4F2010101604FF455
:103B5000E131416000218160C16001610C2242615C
:103B60008161C161FEF760FF50B1FFE741F60000DF
:103B7000C4F202004FF48041FEF76AF9FFE7FEE766
:103B800002B080BD5FEA400C08BF91F0000F4FEA21
:103B90008C234FEAC12243EA51514FEA1C5018BF0F
:103BA00000F5F0404FEA300018BF41F000415FEAF5
:103BB0006C5C00F02980BCF1FF3F08BF40F0804002
:103BC0007047130C06BF12044FF0100C4FF0000C9E
:103BD000130E04BF12020CF1080C130F04BF1201E4
:103BE0000CF1040C930F04BF92000CF1020CD30FE4
:103BF00004BF52000CF1010C11464FF00002A0F17D
:103C00001F00A0EB0C00704711F0004F08BF704779
:103C100031F000413FF4D5AF0B0C06BF09044FF063
:103C2000100C4FF0000C0B0E04BF09020CF1080C35
:103C30000B0F04BF09010CF1040C8B0F04BF8900AA
:103C40000CF1020CCB0F04BF49000CF1010CCCF1BC
:103C5000200322FA03F341EA030102FA0CF2A0EB7B
:103C60000C0000F10100704723F07F4720F07F4CEB
:103C700080EA030000F00040ACEB070303F57C533F
:103C800003F1FF032DE9804909B44FEA144324EA04
:103C900003484FEA154B25EA0B4E0FF2042606EBBC
:103CA00013273E7803FB0667C7F5000707FB06F6F8
:103CB0004FEAD64606F102064FEA543707FB066C78
:103CC000CCF1005C4FEA1C472CEA074C0CFB06F5D4
:103CD00007FB06F404EB15464FEA961649085FEA1F
:103CE000320234BF00204FF000404FEAD13706FBCC
:103CF00007FC4FEA1C4C0CFB0BF7D21B03FB0CF729
:103D000061EB07010CFB0EF7B0EB074072EB1742BB
:103D10000CFB08F734BFA2EB0742B2EB074261EBA2
:103D200017414FEA0C444FEA910706FB07FC4FEAA4
:103D30001C4C0CFB0BF7B0EBC74072EB573203FB8C
:103D40000CF734BFA2EBC742B2EBC74261EB57316D
:103D50000CFB0EF7B0EBC70072EB57720CFB08F7C9
:103D600034BFA2EBC702B2EBC70261EB57714FEA57
:103D7000816141EA92114FEA826242EA90124FEA6F
:103D8000806004EBCC04039F4FEAD13706FB07FCAD
:103D90004FEA1C4C0CFB0BF7D21B03FB0CF761EB3F
:103DA00007010CFB0EF7B0EB074072EB17420CFB60
:103DB00008F734BFA2EB0742B2EB074261EB1741B1
:103DC0004FEA8C5504EB9C244FEA910706FB07FC55
:103DD0004FEA1C4C0CFB0BF7B0EBC74072EB5732B1
:103DE00003FB0CF734BFA2EBC742B2EBC74261EB57
:103DF00057310CFB0EF7B0EBC70072EB57720CFBA0
:103E000008F734BFA2EBC702B2EBC70261EB5771F0
:103E10004FEA816141EA92114FEA826242EA9012CE
:103E20004FEA806015EB4C2544F100044FEAD1378E
:103E300006FB07FC4FEA1C4C0CFB0BF7D21B03FBE9
:103E40000CF761EB07010CFB0EF7B0EB074072EBD0
:103E500017420CFB08F734BFA2EB0742B2EB074254
:103E600061EB17414FEA813141EA92414FEA8232D8
:103E700042EA90424FEA80304FEA0C7615EB1C156F
:103E800044F1000448EA03434EEA0B484FF0000EA9
:103E9000B2EB080C71EB030724BF624639464EEBC8
:103EA0000E0E4FF0000B0018524149414BEB0B0B2B
:103EB000B2EB080C71EB03077BF1000B24BF6246E9
:103EC00039464EEB0E0E4FF0000B0018524149419F
:103ED0004BEB0B0BB2EB080C71EB03077BF1000B08
:103EE00024BF624639464EEB0E0E51EA020718BF58
:103EF00046F0010616EB0E7655F1000254F1000172
:103F000003D5BDE88901BDE80088BDE88901BDE8A9
:103F10000048B619524141EB0101A3F1010370477A
:103F200080807F7E7D7C7B7A7978777676757473F6
:103F3000727171706F6E6E6D6C6C6B6A6A696868B5
:103F4000676666656464636362616160605F5F5E4B
:103F50005E5D5D5C5C5B5B5A5A59595858575756C1
:103F60005655555554545353525252515150505026
:103F70004F4F4F4E4E4D4D4D4C4C4C4B4B4B4A4A78
:103F80004A494949484848474747474646464545BC
:103F900045444444444343434342424242414141F5
:103FA0009C46002B30D477002BD04FEA37071CB546
:103FB00003B44FF010004FF01001BAF1000F06D01B
:103FC000BCF1000FDCBF40F0080040F008014FF0EA
:103FD00000000FBCBDE810400BF1010BBBF1010F5D
:103FE00008BF5FEA170722BF12F1010211F10101B8
:103FF0004FF0004143F1000300F0004043EA0000AD
:104000007047F9D35708D0E746EA06464FEA164606
:1040100013F1400F1FDD13F1200FDFBF16430A46D7
:10402000002120335B42BED0C3F1200746EA06469A
:104030004FEA164602FA07F746EA070622FA03F2A3
:10404000C3F1200701FA07F742EA070221FA03F158
:104050004FF00003A7E746EA020646EA06464FEAA3
:10406000164646EA0106BCBF46EA0646360C4FF045
:1040700000034FF000024FF0000194E72DE9804C5F
:1040800070B49A46934691E8380007C831EA400C6C
:1040900048BF34EA430C03D5FFF7E6FDFFF780FF86
:1040A000F0BCBDE8008C2DE9804C70B49A46934674
:1040B00091E8380007C810F0804F08BF13F0804F18
:1040C00003D100F005F8FFF76BFFF0BCBDE8008CF2
:1040D00020F07F4723F07F4C80EA030000F000408F
:1040E00007EB0C03A3F57C53A3F1FE0392F0000F42
:1040F00000F0B38095F0000F00F077802DE90149C2
:104100004FEA114021EA00484FEA144624EA0647E4
:1041100000FB06FC08FB06F607FB08F818EB064850
:104120004CEB164C00FB07F718EB07484CEB17401D
:104130004FEA124B22EA0B4E4FEA154625EA064794
:104140000BFB06FC0EFB06F607FB0EFE1EEB064EF7
:104150004CEB164C0BFB07F71EEB074E4CEB174BCB
:1041600018EB0B0840F1000018EB0E0B58EB0008A1
:1041700040F100008F1A4FF000014FF000063CBFE5
:10418000C943661B14BFB5EB040C00213CBFC943F7
:10419000F61B4FEA174427EA04454FEA1C472CEA6E
:1041A000074C04FB076205FB07F70CFB05F616EB53
:1041B000074642EB174204FB0CFC16EB0C4642EBA5
:1041C0001C421BEB060658EB020241414EEA8E0EE2
:1041D00046EA9E0601D5BDE80189B619524141EB78
:1041E0000101A3F10103BDE801894FEA144524EA66
:1041F00005464FEA114721EA074C05FB07F406FB89
:1042000007F70CFB06F111EB074144EB174405FBE4
:104210000CFC11EB0C4144EB1C444FEA124722EA20
:10422000074C05FB07F206FB07F70CFB06F616EB3F
:10423000074642EB174205FB0CFC16EB0C4642EB23
:104240001C456A1854F1000148BF7047B619524125
:1042500041EB0101A3F10103704795F0000F37D046
:104260004FEA114221EA02464FEA144724EA074C7A
:1042700002FB07F106FB07F70CFB06F414EB0744FF
:1042800041EB174102FB0CFC14EB0C4441EB1C41CD
:104290004FEA154725EA074C02FB07F506FB07F72F
:1042A0000CFB06F616EB074645EB174502FB0CFC2C
:1042B00016EB0C4645EB1C42121951F1000148BFA8
:1042C0007047B619524141EB0101A3F10103704758
:1042D0004FEA144524EA05464FEA114721EA074C04
:1042E00005FB07F106FB07F70CFB06F212EB074292
:1042F00041EB174105FB0CFC12EB0C4251EB1C414E
:104300004FF0000648BF7047921841EB0101A3F13E
:104310000103704703B401984100009850EAC1209E
:1043200018BF04204A0D18BF40F0010040F2FF7290
:10433000B2EB515F08BF40F00200012808BF052022
:1043400002B0704730380A2801D20120704700209F
:104350007047000010B500290AD00878002807D05F
:1043600005487844FDF7C4F8002801D0002010BDAE
:104370000248784410BD00008A020000820200005A
:1043800010B500290AD00878002807D005487844DD
:10439000FDF7AEF8002801D0002010BD0248784497
:1043A00010BD00007A02000072020000F1EE100A57
:1043B0004FF6FF71C0F2C03120EA010040F04070BA
:1043C000E1EE100A7047FCF781BCFCF7B5BD0000B8
:1043D0000000000000000000303132333435363741
:1043E0003839414243444546403058003031323339
:1043F0003435363738396162636465664030780039
:10440000040000080000000000000002000100009D
:104410001030313233343536373839616263646590
:1044200066787000303132333435363738394142AE
:10443000434445465850000002400000000000A0E0
:104440000000000005400000000000C8000000005F
:104450000C4000000000409C0000000019400000DB
:104460000020BCBE0000000034400000BFC91B8E0D
:1044700000000004B5400000504BCFD06607E2CFEB
:10448000010000006C4100003E8251AADFEEA7341B
:1044900001000000D9420000DCB5A0E23A301F97CD
:1044A000FFFFFFFFB4450000FD25A0C8E9A3C14FF1
:1044B000FFFFFFFFFF3F0000000000800000000042
:1044C000FF3F00000000008000000000000000002E
:1044D00000000000010203040607080900000000B4
:1044E000010203045374617274204669726D776F20
:1044F000726B2075706C6F6164696E67202E2E2E52
:104500000D0A007573657220627574746F6E206396
:104510006C69636B65640D0A0053656E6465722097
:1045200063616E63656C2073656E64696E67206697
:10453000696C650D0A00537461727420426F6F7468
:104540006C6F616465722066726F6D206B65696C5B
:104550000D0A007761697420616761696E0D0A0058
:104560005374617274204170706C69636174696F17
:104570006E0D0A005374617274204D61696E206C77
:104580006F6F700D0A004275666665722073697AF6
:1045900065206E6F7420656E6F75676820666F7238
:1045A0002031207061636B65740D0A0046696C658B
:1045B00020726563656976656420737563636573EE
:1045C0007366756C6C790D0A0000000018470008CE
:1045D0000000002010000000E80100082847000843
:1045E0001000002000080000040200081C00000069
:1045F00043000000F8FFFFFF0C0000000E00000069
:104600000F0000002E000000100100004300000019
:10461000F8FFFFFF004040404040404040404141E3
:104620004141414040404040404040404040404087
:104630004040404040050202020202020202020221
:10464000020202020220202020202020202020021E
:1046500002020202020290909090909010101010AE
:10466000101010101010101010101010101010104A
:1046700002020202020288888888888808080808DE
:1046800008080808080808080808080808080808AA
:1046900002020202400000000000000000000000D2
:1046A000000000000000000000000000000000000A
:1046B00000000000000000000000000000000000FA
:1046C00000000000000000000000000000000000EA
:1046D00000000000000000000000000000000000DA
:1046E00000000000000000000000000000000000CA
:1046F00000000000000000000000000000000000BA
:1047000000000000000000000000000000000000A9
:1047100000000000000000000024F400010100007F
:08472000100000000000000081
:04000005080001AD41
:00000001FF
