:020000040800F2
:10000000C00600204D020008B90F0008B10F00081B
:10001000B50F000845040008251100080000000085
:10002000000000000000000000000000C10F0008F8
:100030004904000800000000BD0F0008C50F0008BB
:1000400067020008670200086702000867020008EC
:1000500067020008670200086702000867020008DC
:1000600067020008670200086702000867020008CC
:1000700067020008670200086702000867020008BC
:1000800067020008670200086702000867020008AC
:10009000670200086702000867020008670200089C
:1000A000670200086702000867020008670200088C
:1000B000670200086702000867020008670200087C
:1000C000670200086702000867020008670200086C
:1000D000670200086702000867020008670200085C
:1000E000670200086702000867020008670200084C
:1000F000670200086702000867020008670200083C
:10010000670200086702000867020008670200082B
:10011000670200086702000867020008DD0F000898
:10012000670200086702000867020008670200080B
:1001300067020008670200086702000867020008FB
:1001400067020008670200086702000867020008EB
:1001500067020008670200086702000867020008DB
:1001600067020008670200086702000867020008CB
:10017000670200086702000867020008000000002C
:1001800067020008670200086702000867020008AB
:10019000670200086702000867020008670200089B
:1001A00067020008670200086702000800F002F812
:1001B00000F03CF80AA090E8000C82448344AAF1C5
:1001C0000107DA4501D100F031F8AFF2090EBAE8C3
:1001D0000F0013F0010F18BFFB1A43F0010318477B
:1001E0003414000054140000103A24BF78C878C1B9
:1001F000FAD8520724BF30C830C144BF04680C602D
:10020000704700000023002400250026103A28BF74
:1002100078C1FBD8520728BF30C148BF0B60704778
:100220001FB501F0E2F91FBD10B510BD00F0D0F808
:100230001146FFF7F5FF00F077FF00F0EEF803B48A
:10024000FFF7F2FF03BC00F0F5F800000948804713
:1002500009480047FEE7FEE7FEE7FEE7FEE7FEE7A8
:10026000FEE7FEE7FEE7FEE704480549054A064BC0
:1002700070470000C90F0008AD010008C000002051
:10028000C0060020C0020020C002002053EA020C79
:1002900000F069802DE9F04B4FF00006002B1FBFE6
:1002A000B3FA83F503FA05F424FA05F65E4012BFAB
:1002B0001643B2FA82F502FA05F4C5F120051EBF15
:1002C00022FA05FC44EA0C04203556EA044C4FEAB5
:1002D000144418BF641C4FF000084FF0000990420E
:1002E00071EB030C39D3002919BFB1FA81F701FA78
:1002F00007F6B0FA80F700FA07F6C7F120071EBF2D
:1003000020FA07FC46EA0C062037B6FBF4FCA7EB04
:100310000507103F07F01F0BCBF120062CFA06F65D
:100320000CFA0BFB44BFB3460026202FA4BF5E4649
:100330004FF0000B5BEA060C08BF4FF0010B19EB06
:100340000B0948EB0608ABFB027C06FB02CC0BFB5F
:1003500003CCC01B71EB0C01C1E70B4602464146C2
:100360004846BDE8F08B13B5084318BF4FF0FF3087
:100370000146AFF30080BDE81C4070474FF000021B
:1003800000B5134694469646203922BFA0E80C508B
:10039000A0E80C50B1F12001BFF4F7AF090728BF66
:1003A000A0E80C5048BF0CC05DF804EB890028BFE2
:1003B00040F8042B08BF704748BF20F8022B11F00B
:1003C000804F18BF00F8012B704770477047704787
:1003D000754600F02BF8AE4605006946534620F0FE
:1003E0000700854618B020B5FFF73EFFBDE8204066
:1003F0004FF000064FF000074FF000084FF0000BE1
:10040000AC46ACE8C009ACE8C009ACE8C009ACE84F
:10041000C00921F007018D46704710B50446AFF3BF
:1004200000802046BDE81040FFF709BF0048704734
:100430001000002001491820ABBEFEE72600020094
:1004400070470000FEE70000704700002DE9F04F04
:1004500082B000F13E4242F2004502F1FF77C4F261
:1004600002050A2243F6004E4FEAB726A84208BF0B
:100470000922C4F2010E092E38BF4FEAB722012526
:10048000002600274FF00008009208E008F101085C
:100490000437B8F1100F06F1020600F0A7800C68CF
:1004A00005FA08F914EA090FF0D0D1F804B00322D4
:1004B0000BF0030CACF10104B240012C6FEA020A0C
:1004C00010D88268CC6802EA0A02B44022438260F3
:1004D0004268CBF3001422EA090204FA08F422432A
:1004E000426005E0BCF1030F02D14FF0030C20E0A5
:1004F000C2688C6802EA0A02B4402243BCF1020FCF
:10050000C26016D16FF0030202EA58020244D2F828
:1005100020C007F01C050F230C69AB402CEA030335
:1005200004FA05F52B431362D1F804B001250BF052
:10053000030C02680CFA06F302EA0A021A431BF4DF
:10054000403F0260A2D0002243F644030192C4F26D
:1005500002031A684FF6084C42F480421A601A6887
:10056000CFF6FF7C02F480420192019A28F0030248
:10057000724452F80C3007F00C050F24AC40A34332
:10058000009C04FA05F52B4342F80C30DEF80820F5
:100590004B6842EA090543F60C4CDC0258BF22EADC
:1005A0000905CEF80850C4F2010CDCF800209C02CA
:1005B00042EA090558BF22EA0905CCF80050DEF8E6
:1005C00004209C0342EA090558BF22EA0905CEF837
:1005D0000450DEF80020DB0342EA090558BF22EA96
:1005E0000905CEF80050012550E700BF02B0BDE874
:1005F000F08F0000426902EA0103914341EA03419E
:1006000081617047002A08BF0904816170470000BA
:1006100040F27000C2F200000068704740F2000033
:1006200040F27001C2F20000C2F2000100780A68D4
:10063000104408607047000080B543F60040C4F2E3
:100640000200016841F400710160016841F48061B9
:100650000160016841F480710160032000F08AF8B4
:10066000002000F005F800F027F8002080BD000011
:1006700070B540F20006C2F2000640F2080132787E
:10068000C2F200014FF47A730968B3FBF2F2044638
:10069000B1FBF2F1084600F01DFB0F2C4FF00105F5
:1006A00008D838B94FF0FF3021460022002500F06D
:1006B00035F87460284670BD82B0002043F64001D2
:1006C0000190C4F202014A6842F480424A604A68DA
:1006D00002F480420192019A0090086840F0805034
:1006E0000860086800F0805000900098072002B071
:1006F00000F040B8002848BF7047C1B200F01F00AA
:10070000012202FA00F04EF20012CEF2000242EA9A
:10071000D10121F0030108607047000010B54EF6CA
:100720000C5CCEF2000CDCF80030C3F3022E8EF02D
:100730000704042C28BF0424BEF103034FF0FF3E3E
:100740000EFA04F438BF0023A14399400EFA03F3D4
:100750009A43114300F00F0200F160430901043A8B
:1007600003F564436244002848BF02F10C0319708A
:1007700010BD00004EF60C51CEF200010A684FF693
:10078000FF031A4060F30A2242F0806040F0FD70DF
:10079000086070472DE9F041002800F08B8043F697
:1007A0000808C4F202080446D8F8F8030D4600F021
:1007B0000F00884207D288F8F853D8F8F80300F001
:1007C0000F00A84276D12068810717D5410705D5CB
:1007D000D8F8001041F4E051C8F80010010705D521
:1007E000D8F8001041F46041C8F80010D8F80010A3
:1007F000A26821F0F0011143C8F80010C0073FD1F2
:10080000D8F8F80300F00F00A84207D988F8F85389
:10081000D8F8F80300F00F00A8424BD12068410738
:1008200007D5D8F80010E26821F4E0511143C8F868
:100830000010000708D5D8F80000216920F46040B6
:1008400040EAC100C8F8000000F054F8D8F80010E1
:1008500041F20462C1F30311C0F60002515C40F2A0
:10086000080220FA01F140F20400C2F20000006820
:10087000C2F200021160FFF7FBFE0020BDE8F0812C
:100880006068811E022907D258F8081C89015CBFE4
:100890000120BDE8F08111E0012807D158F8081CBB
:1008A00089035CBF0120BDE8F08107E058F8081C0F
:1008B000890703D40120BDE8F08100BFD8F80010FB
:1008C00021F003010843C8F80000FFF7A1FE064627
:1008D00041F28837D8F80000616800F00C00B0EBF6
:1008E000810F8DD0FFF794FE801BB842F2D9032010
:1008F000BDE8F08110B543F60404C4F20204606858
:1009000000F00C0142F200400829C0F2F40007D0C8
:10091000042918BF10BD41F20020C0F27A0010BDBA
:10092000216801F03F02216823684902C3F388115E
:1009300006D4A1FB00010023FFF7A8FC07E000BFDD
:1009400041F20020C0F27A004843B0FBF2F0216887
:100950000222C1F3014102EB4101B0FBF1F010BDF5
:100960002DE9F04182B0002868D00446007843F6B3
:100970000006C007C4F202060BD0B06800F00C00FD
:10098000042840F09F803068800302D5606800280A
:1009900054D0207880071AD5B06810F00C0F09D019
:1009A000B06800F00C00082840F0A6807068400293
:1009B00000F1A2803068800702D5E06801283DD1AF
:1009C0003068216920F0F80040EAC10030602078EA
:1009D000000737D4207840074CD4A56955B3B068D8
:1009E00000F00C00082840F0BB80012D26D0706874
:1009F000E16900F480028A4220D1216A00F03F02BE
:100A00008A421BD147F6C071626A0140B1EB821F76
:100A100014D1A16A4FF6FF73C903994300F4403221
:100A2000A1F580318A4209D1E16A00F07060B0EB33
:100A3000016F03D1002002B0BDE8F081012002B0B7
:100A4000BDE8F0816069002840F20000C4F2472050
:100A500076D00121C0F8801EFFF7DAFD054600BF01
:100A6000706F8007B6D4FFF7D3FD401B0228F7D97B
:100A7000DDE000BF306C10F080580AD100200190FA
:100A8000306C40F080503064306C00F08050019049
:100A9000019847F20007C4F200073868C00541D446
:100AA000386840F480703860FFF7B2FD054600BF3B
:100AB0003868C00536D4FFF7ABFD401B0228F7D9D4
:100AC000B5E000BFB06800F00C00082803D17068E2
:100AD00040023FF558AF6068B0F5803F07D0B0F5F1
:100AE000A02F40F08D80306840F480203060306866
:100AF00040F4803030608DE0E068002852D0002063
:100B0000C4F2472001210160FFF782FD054600BFC6
:100B1000306880073FF554AFFFF77AFD401B02288D
:100B2000F6D984E0A068012805D005284ED1306FA1
:100B300040F004003067306F40F0010030674FE054
:100B40000021C0F8801EFFF763FD0546706F800727
:100B50007FF540AFFFF75CFD401B0228F6D966E049
:100B60000027C4F2472700203866FFF751FD022D09
:100B700005460BD1306880015ED5FFF749FD401B6B
:100B800002284FF00300F5D955E700BF3068800117
:100B90007FF550AFFFF73CFD401B02284FF00300EC
:100BA000F4D948E70020C4F2472000210160FFF794
:100BB0002FFD0546306880077FF509AFFFF728FD58
:100BC000401B02284FF00300F4D934E7316F0028AE
:100BD00021F001013167316F21F0040131674DD0FF
:100BE000FFF716FD054641F2883700BF306F8007DA
:100BF00056D4FFF70DFD401BB842F7D917E000BFF0
:100C00003168002821F480313160316821F480217D
:100C100031604FD0FFF7FCFC054600BF3068800311
:100C20003FF5B7AEFFF7F4FC401B6428F6D903206C
:100C300002B0BDE8F08100BF04F11C052FCD0843D0
:100C400040EA8210D9034FF6FF729143A1F580313B
:100C500040EA05600843706001203866FFF7D8FC61
:100C6000044600BF306880013FF5E4AEFFF7D0FCDA
:100C7000001B02284FF00300F4D9DCE6FFF7C8FCA4
:100C8000054641F2883700BF306F800708D5FFF76F
:100C9000BFFC401BB8424FF00300F5D9CBE600BFC4
:100CA000B8F1000F7FF499AE306C20F080503064C2
:100CB00093E600BFFFF7ACFC054600BF3068800339
:100CC0007FF567AEFFF7A4FC401B64284FF00300DC
:100CD000F4D9B0E6411E0020B0EB116F1CBF01201B
:100CE00070474EF21002CEF2000251604EF62351D0
:100CF000CEF20001F0230B70072190601160704765
:100D00007047000070470000002804BF01207047B2
:100D100010B5044690F83D0028B9002084F83C0046
:100D2000204600F01FF8022084F83D002068211DB5
:100D300000F05AF9012084F8460084F83E0084F857
:100D40003F0084F8400084F8410084F8420084F8B1
:100D5000430084F8440084F8450084F83D000020F6
:100D600010BD00007047000090F83D1001291CBF25
:100D700001207047022180F83D10006841F2FF72A7
:100D8000C168C4F20002904241F00101C1600DDC73
:100D900040F2FF71C4F20001884215DCB0F1804FCF
:100DA0002AD040F20041C4F2000123E040F2FF31BA
:100DB000C4F20101884213DC41F60001C4F20001D3
:100DC000884219D0002113E040F60001C4F200016E
:100DD000884211D040F60041C4F200010AE000BF91
:100DE00044F20001C4F20101884205D040F2004102
:100DF000C4F20101884206D1816801F00701062989
:100E000004BF00207047016841F00101016000202B
:100E1000704700007047000010B50168044608697B
:100E2000800744BFC8685FEA807039D4086940070A
:100E300044BFC8685FEA40703ED40869000744BFF9
:100E4000C8685FEA007045D40869C00644BFC86836
:100E50005FEAC0604AD40869C0071CBFC8685FEA7F
:100E6000C07051D10869000644BFC8685FEA0060DD
:100E700052D40869400644BFC8685FEA406053D452
:100E80000869800646BFC8685FEA806010BD6FF0E1
:100E9000200220460A61BDE81040FFF733BF00BFC3
:100EA0006FF002000861012020778869800743D035
:100EB0002046FFF7AFFF45E06FF004000861022015
:100EC0002077886910F4407F40D02046FFF7A2FFCA
:100ED00042E000BF6FF00800086104202077C86975
:100EE00080073DD02046FFF795FF3FE06FF01000F0
:100EF000086108202077C86910F4407F3AD0204666
:100F0000FFF788FF3CE000BF6FF00100086120465A
:100F100000F03EF82168A5E76FF0800008612046E8
:100F2000FFF7EEFE2168A4E76FF04000086120465D
:100F300000F03CF82168A3E7204600F025F82046A1
:100F400000F024F82168002020776FE7204600F0A9
:100F50001BF8204600F01AF82168002020776CE783
:100F6000204600F011F8204600F010F8216800201B
:100F7000207769E7204600F007F8204600F006F8E1
:100F800021680020207766E7704700007047000066
:100F9000016841F20040C4F20000814218BF70476E
:100FA00000F501304FF40051FFF724BB70470000FB
:100FB000FEE70000FEE70000FEE7000070470000CB
:100FC00070470000FFF72ABB4EF68850CEF20000B3
:100FD000016841F4700101607047000040F2740044
:100FE000C2F20000FFF718BF10B540F6FF3E0368DD
:100FF000C4F2000E40F2004C7045C4F2010C27DC34
:10100000B0F1804F31D040F20042C4F20002904271
:101010002BD040F60002C4F20002904225D041F6E7
:10102000FF72C4F20002904229DC70453CDCB0F152
:10103000804F5FD040F20042C4F20002904259D08B
:1010400040F60002C4F20002904253D056E000BFC6
:1010500040F60042C4F20002904206D0604504D03F
:101060000022C4F201029042D9D14A6823F07003F1
:10107000134341F6FF72C4F200029042D5DD43F6FD
:10108000FF72C4F20102904222DC42F20002C4F27A
:10109000000290422ED00022C4F20102904229D0D8
:1010A000604527D02AE000BF40F60042C4F20002AB
:1010B00090421FD041F60002C4F20002904219D0C3
:1010C00041F60042C4F20002904213D016E000BF85
:1010D00044F20002C4F2010290420BD044F6000236
:1010E000C4F20102904205D044F20042C4F201026F
:1010F000904203D1CA6823F44073134323F0800263
:101100004B69D1F800E08C681A430260C46240F475
:101110008062C0F828E0624504BF096901630121CB
:10112000416110BDFEE7000096B043F6300641F67F
:10113000000BC4F20206C4F2020BFFF77DFA0AADFF
:1011400005F108002821FFF719F900240994CDE9D9
:101150000744CDE9054404943069012740F08050EC
:101160003061306900F080500490049845F600002A
:101170000494CFF6FE705BF8001067F38F314BF8E4
:1011800000105BF8000000F44040049004984FF415
:1011900080300B9028460A971094FFF7E1FB28B1A6
:1011A000EFF3108072B600BFFEE700BF0F20CDE95D
:1011B00005074FF4C05008904FF4A050099005A8BF
:1011C00000210794FFF7E6FA20B1EFF3108072B622
:1011D000FEE700BF00250A953068ABF5805940F066
:1011E000040030603068162100F004000A900A986C
:1011F0000A953068002240F020003060306800F02E
:1012000020000A900A980A95306840F0800030600B
:10121000306800F080000A900A980A95306840F023
:1012200001003060306800F001000A900A980A95C9
:10123000306840F002003060306800F002000A9030
:101240000A980A95306840F040003060306800F03D
:1012500040000A900A980A95306840F0100030600B
:10126000306800F010000A900A980A95306840F043
:1012700008003060306800F008000A900A9848467C
:10128000FFF7C0F9ABF5C050802100228246FFF77E
:10129000B9F9ABF540604FF4405100220390FFF7DD
:1012A000B1F958464FF4C0410022FFF7ABF94FF6B1
:1012B0003F000A9002200B9003200D900C20ABF50C
:1012C00080670AAC0E90384621464FF002080C9514
:1012D000FFF7BCF84FF46070CDE90A0805200E90C6
:1012E00038462146CDE90C55FFF7B0F84FF4806041
:1012F000CDE90A080E200E9038462146CDE90C555E
:10130000FFF7A4F801200A9003200D900C200E9006
:10131000484621460127CDF82C804FF002080C9555
:10132000FFF794F81620CDE90A0748462146CDE993
:101330000C55CDF80490FFF789F848F207000A90A1
:101340004FF4901750462146CDE90B75CDF808A013
:10135000FFF77CF841F65800CDE90A080E200E9000
:1013600050462146CDE90C55FFF770F880200A90D1
:101370000120CDE90B05504621460D95FFF766F893
:101380002020CDE90A07484621460C95FFF75EF874
:101390000920ABF5A05A4FF003090E9050462146A4
:1013A000CDE90A98CDE90C55FFF750F80420CDE9B6
:1013B0000A05504621460C95FFF748F848F23310CD
:1013C000CDE90A080C2758462146CDE90C590E975D
:1013D000FFF73CF84FF68370CDE90A08ABF50060E3
:1013E0002146CDE90C594FF003090E970C27FFF762
:1013F0002DF84FF47060CDE90A080E200E9050468B
:101400002146CDE90C55FFF721F84FF45040CDE9C6
:101410000A0850462146CDE90C550E970C27FFF7D8
:1014200015F84FF40050CDE90A05504621460C95B9
:10143000FFF70CF80E97039F4CF20370CDE90A08F2
:1014400038462146CDE90C59FFF700F84FF400600B
:10145000CDE90A05384621460C95FEF7F7FF4FF413
:1014600040500A900120CDE90B05384621460D95E4
:10147000FEF7ECFF4FF40C600A904FF002080E27C5
:1014800058462146CDE90B850D950E97FEF7DEFFF8
:101490000E97019F4FF49860CDE90A08384621461F
:1014A000CDE90C55FEF7D2FF4FF400700A904FF0D3
:1014B00012094FF0040838462146CDE90B950D95E9
:1014C000CDF83880FEF7C2FF029F4FF48070CDE95F
:1014D0000A0938462146CDE90C55CDF83880FEF78B
:1014E000B5FF4FF4C0600A9007204FF002084FF09C
:1014F00003090E9038462146CDE90B85CDF834908E
:10150000FEF7A4FF4820CDE90A080E200E900398AC
:101510002146CDE90C55FEF799FF4FF4A050CDE9D7
:101520000A0809200E90584621464FF00208CDE9DE
:101530000C55FEF78BFF4FF4C0400A900127584628
:101540002146CDE90B750D95FEF780FF6020CDE9B2
:101550000A080C200E9050462146CDE90C59FEF7A2
:1015600075FF0A9530680AA940F040003060306885
:1015700000F040000A900A984FF40050CDE90A07A5
:101580005846CDE90C55FEF761FF58464FF400511F
:101590000122FFF737F80595306940F2740440F0F6
:1015A000200030613069C2F2000400F02000059094
:1015B000059841F20040C4F200004FF47A714FF4F4
:1015C000FA6284E823002046C4E903256561FFF739
:1015D0009BFB372000210022FFF7A0F83720FFF700
:1015E00089F82046FFF7C0FBFEE7F1EE100A4FF640
:1015F000FF71C0F2C03120EA010040F04070E1EE1E
:10160000100A7047000000000000000001020304FF
:101610000607080938160008000000201000000026
:10162000E80100084816000810000020B00600007D
:10163000040200080000000001000000100000008B
:081640000024F400000000008A
:04000005080001AD41
:00000001FF
