:020000040800F2
:10000000A0120020BD0200086F300008292D000852
:100010006D3000080B190008B53B00080000000017
:10002000000000000000000000000000D1350008C2
:100030000D190008000000009B340008D3350008AB
:10004000D7020008D7020008D7020008D70200082C
:10005000D7020008D7020008D7020008D70200081C
:10006000D7020008D7020008D7020008D70200080C
:10007000D7020008D7020008D7020008D7020008FC
:10008000D7020008D7020008D7020008D7020008EC
:10009000D7020008D7020008D7020008D7020008DC
:1000A000D7020008D7020008D7020008D7020008CC
:1000B000D7020008D7020008D7020008D7020008BC
:1000C000D7020008D7020008D7020008D7020008AC
:1000D000D7020008D7020008D7020008D70200089C
:1000E0000F190008D7020008D7020008D70200083D
:1000F000D7020008D7020008D7020008D70200087C
:10010000D7020008D7020008D7020008D70200086B
:10011000D7020008D7020008D7020008D70200085B
:10012000D7020008D7020008D7020008D70200084B
:10013000D7020008D7020008D7020008D70200083B
:10014000D7020008D7020008D7020008D70200082B
:10015000D7020008D7020008D7020008D70200081B
:10016000D7020008D7020008D7020008D70200080B
:10017000D7020008D7020008D702000800000000DC
:10018000D7020008D7020008D7020008D7020008EB
:10019000D7020008D7020008D7020008D7020008DB
:1001A000D7020008D7020008D702000800F002F8C2
:1001B00000F075F80AA090E8000C82448344AAF18C
:1001C0000107DA4501D100F06AF8AFF2090EBAE88A
:1001D0000F0013F0010F18BFFB1A43F0010318477B
:1001E0001872000038720000103A24BF78C878C135
:1001F000FAD8520724BF30C830C144BF04680C602D
:10020000704700000023002400250026103A28BF74
:1002100078C1FBD8520728BF30C148BF0B60704778
:100220006E2900F0A181702900F06E82662906F027
:100230006686692900F05C81642900F0598175297E
:1002400000F056816F2900F00182782900F04F827A
:100250000368DB0928BF41F08001632900F00D87A6
:10026000732900F01287E32900F03087F32900F0AA
:100270003587002070471FB506F02FFE00F0AAFF5B
:1002800004000020002106F0C3FA401C606000203A
:10029000002106F0A7FAE0601FBD10B510BD01F007
:1002A000D7F81146FFF7E7FF05F058F801F0DCFA40
:1002B00003B4FFF7F2FF03BC01F020FB09488047BD
:1002C00009480047FEE7FEE7FEE7FEE7FEE7FEE738
:1002D000FEE7FEE7FEE7FEE704480549054A064B50
:1002E0007047000069360008AD010008A002002038
:1002F000A0120020A0080020A008002053EA020C51
:1003000000F069802DE9F04B4FF00006002B1FBF75
:10031000B3FA83F503FA05F424FA05F65E4012BF3A
:100320001643B2FA82F502FA05F4C5F120051EBFA4
:1003300022FA05FC44EA0C04203556EA044C4FEA44
:10034000144418BF641C4FF000084FF0000990429D
:1003500071EB030C39D3002919BFB1FA81F701FA07
:1003600007F6B0FA80F700FA07F6C7F120071EBFBC
:1003700020FA07FC46EA0C062037B6FBF4FCA7EB94
:100380000507103F07F01F0BCBF120062CFA06F6ED
:100390000CFA0BFB44BFB3460026202FA4BF5E46D9
:1003A0004FF0000B5BEA060C08BF4FF0010B19EB96
:1003B0000B0948EB0608ABFB027C06FB02CC0BFBEF
:1003C00003CCC01B71EB0C01C1E70B460246414652
:1003D0004846BDE8F08B13B5084318BF4FF0FF3017
:1003E0000146AFF30080BDE81C4070470FB40449DC
:1003F00010B503AA029800F04DFE10BC5DF814FB86
:10040000880100200FB41CB5074B06AA7B4469463F
:100410000090059800F00FFE0020694600F01EFED7
:100420001CBC5DF814FB00004D0C000070B50446C8
:1004300085690068C10601D5302600E02026C00786
:1004400007D070BDD4E9012130469047206A401C96
:1004500020626D1EF6D570BD70B5044685690078C2
:10046000C00707D170BDD4E9012120209047206A40
:10047000401C20626D1EF6D570BD09684A0501D585
:1004800040B27047C905FCD500B2704709684A05FB
:1004900001D5C0B27047C905FCD580B2704770B5B0
:1004A0000C460546012A05D02878800600D5EA6961
:1004B000002302E0012305E05B1C934202D2E05CD2
:1004C0000028F9D1A869E618C01AA861286A18445A
:1004D00028622846FFF7AAFF04E0D5E9012114F8B5
:1004E000010B9047B442F8D32846FFF7B5FF70BD23
:1004F0002DE9F0410646002410687529314616A5FD
:1005000010D0FFF7BAFF002802DA404213A507E037
:1005100031688A0701D512A502E0490704D511A563
:10052000012401E0FFF7B2FF00210A2206F12407AF
:1005300009E0B0FBF2FCB0FBF2F302FB1C00303030
:1005400078541846491C0028F3D123462A463046E1
:10055000BDE8F04100F003BB000000002D000000EA
:100560002B0000002000000011680268006A53059B
:1005700001D508700AE0D30501D5088006E013060E
:1005800003D5C217C1E9000200E0086001207047EE
:100590002DE9FF5F15468A460446DFF8AC80F84433
:1005A0000027D8E900103E46CDE9001010E03AF8E7
:1005B00016106A4602A800F0AFFD411C07D0217852
:1005C000890603D5E269391891420DD80744761C93
:1005D0002078800602D5E069B84205DDAE42E6DB50
:1005E0003AF816000028E2D1A069C01BA06120469D
:1005F000FFF71CFFD8E90010CDE90010002017E03C
:100600003AF818106A4602A800F086FDB0F1FF3FE4
:1006100081460BD000250DF1080B05E0D4E901213E
:100620001BF8050090476D1C4D45F7D308F10100FC
:10063000B0428046E4DB206A384420622046FFF75F
:100640000BFFBDE8FF9F00006269000070B5044623
:1006500021461068FFF71AFF002104F1240505E088
:1006600000F007023032C0086A54491C0028F7D154
:100670002068002308A2050708D500F020000843E1
:1006800004D0E069012305A2401EE0612046BDE8D8
:10069000704000F064BA000000000000300000006C
:1006A000F0B40D460188090502D51B4C7C4402E0DC
:1006B000194C7C440E34002100F1240305E002F0C3
:1006C0000F061209A65D5E54491C002AF7D1027874
:1006D0000023120704D5702D06D009B1022311346E
:1006E0002246F0BC00F03BBA01231034F8E770B5A5
:1006F00004460D4621461068FFF7C8FE024629460B
:100700002046BDE87040CBE70368126843F0200341
:1007100003600823C361C3E75C6800002DE9F05F54
:10072000894604464FF0000ADFF874B1FB44C0F874
:1007300020A02046E1688847002874D0252806D0EC
:10074000D4E901219047206A401C2062F1E700268D
:100750005F462046E16888472028054607DB312DA3
:1007600005D2781910F8200C08B10643F1E7B0075C
:1007700001D526F00406C4F81CA00027C4F818A070
:100780002A2D09D0284606F025F838B304EB87084F
:10079000303DC8F8185019E059F8041B204604EB06
:1007A00087029161E1688847012F054618D1E06909
:1007B000002820DA26F020061DE0D8F8180000EB0B
:1007C000800005EB40003038C8F818002046E1688A
:1007D0008847054605F0FEFF0028EED1012F0AD01C
:1007E0002E2D08D12046E16888477F1C0546022F40
:1007F00046F02006C4DBA069002803DA404246F038
:100800000106A061F00701D026F010066C2D0BD078
:10081000682D09D04C2D39D06A2D35D0742D35D0A6
:100820007A2D33D016E038E0E1682F46204688471D
:10083000B842054609D16C2F26D04FF48060E1689C
:10084000064320468847054604E06C2F1AD04FF433
:10085000807006430DB3A5F14100192802D8203558
:1008600046F400664A462946204626604E46FFF773
:10087000D7FC80B101280BD0F61D26F0070000F14F
:10088000080956E74020E4E78020D8E70020D6E7B3
:1008900006F104094DE7284652E7206ABDE8F09FBB
:1008A000046800000FB400B589B00BA86A46009038
:1008B00003480A9900F024FC09B05DF814FB00001D
:1008C000340100202DE9FF5F1D464FF0FF3B9146AC
:1008D0004FF000085F46D5E90146A96901987F1CE1
:1008E0008847296A824688470028F6D1BAF1FF3F37
:1008F0000CD0002E24F4C06419DD600614D5BAF1C2
:100900002B0F09D0BAF12D0F0ED103E0584604B0D9
:10091000BDE8F09F44F48064A96901987F1C884772
:10092000761E8246002E02DDBAF1300F03D0B9F1F7
:10093000000F26D032E0A969761E01987F1C44F48E
:1009400000748847002E824605DDBAF1780F06D084
:10095000BAF1580F03D0B9F1000F10D01EE0B9F171
:10096000000F02D0B9F1100F18D1A969761E0198B5
:100970007F1C24F4007488478246102002E008207F
:1009800000E00A20814609E0A96908FB0908761EF3
:1009900001987F1C44F4007488478246002E05DDD0
:1009A0004946504600F09EFB0028EDDAE9690198BF
:1009B0008847A00502D46FF00100A8E7E00725D121
:1009C000600613D5600502D5C8F1000000E040467E
:1009D00029680A1D2A600968220501D5087015E0FA
:1009E000220701D5088011E008600FE02868011D8A
:1009F00029600068210502D580F8008006E0210703
:100A000002D5A0F8008001E0C0F8008038467EE7FB
:100A100010B5044603E004F041FA401C09D014F874
:100A2000010B05490028F6D1BDE810400A2004F06A
:100A300035BA4FF0FF3010BD88010020032A40F284
:100A4000308010F0030C00F0158011F8013BBCF170
:100A5000020F624498BF11F801CB00F8013B38BF88
:100A600011F8013BA2F1040298BF00F801CB38BF96
:100A700000F8013B11F0030300F07283083AC0F064
:100A8000088051F8043B083A51F804CBA0E808105C
:100A9000F5E7121D5CBF51F8043B40F8043BAFF38F
:100AA0000080D20724BF11F8013B11F801CB48BFE9
:100AB00011F8012B24BF00F8013B00F801CB48BF1F
:100AC00000F8012B70474FF000020429C0F012809B
:100AD00010F0030C00F01B80CCF1040CBCF1020FF1
:100AE00018BF00F8012BA8BF20F8022BA1EB0C01C6
:100AF00000F00DB85FEAC17C24BF00F8012B00F8BC
:100B0000012B48BF00F8012B70474FF0000200B5E1
:100B1000134694469646203922BFA0E80C50A0E820
:100B20000C50B1F12001BFF4F7AF090728BFA0E8CE
:100B30000C5048BF0CC05DF804EB890028BF40F89A
:100B4000042B08BF704748BF20F8022B11F0804FDC
:100B500018BF00F8012B70477047704770472DE9A8
:100B6000F0470D4699469246044600F12408016874
:100B7000880604D5E06921F01001216000E0012021
:100B8000A84201DD471B00E00027A1697A1902EBAA
:100B90000900081AA0612078C00602D42046FFF799
:100BA00045FC002608E0D4E901211AF80600904728
:100BB000206A401C761C20624E45F4DB2078C0067B
:100BC0000AD52046FFF732FC06E0D4E901213020A7
:100BD0009047206A401C2062381EA7F10107F4DC10
:100BE00007E0D4E9012118F805009047206A401C6D
:100BF0002062281EA5F10105F3DC2046FFF72CFC3E
:100C00002078000602D50220BDE8F0870120FBE72E
:100C10002DE9FF4F0C461E464FF0FF378BB0D2E94F
:100C20000001DDF860800A908A46C1F30A5505B9D3
:100C30003D46002108464FF00000BAF1000F00F4D5
:100C4000400005DA00EB80004FF4400101EA50005B
:100C50004FEA9059B9F1010F00DDB9460A9850EA00
:100C60004A000ED044F61050A5F2FF3545432F142C
:100C7000B8F1000F1ED07542291E1EDDC9F1000219
:100C80001CE0B8F1010F4FF0000001D0302103E06B
:100C9000F24305E02154401CB042FBDB3046002209
:100CA000002121540B99C1F80880C1E900200FB040
:100CB000BDE8F08FBD1B6D1CDEE74A4600DA6942D5
:100CC00006A800F027FB06AB93E8070003AB83E818
:100CD000070050460A9905F09DF98DE80700A0F538
:100CE00000501F3800900398002D0ADD42F21F01CA
:100CF0004A460844002303A90390684605F006FC11
:100D000009E0A0F500504A461F38002303A90390CC
:100D1000684605F010FC8DE807000004000C03D0C5
:100D20004FF0FF30410800E01046B8F1000F03D04B
:100D30000022009215461EE0751E05D400F04EFA02
:100D4000303262556D1EF9D5B3460122084302D0F8
:100D500000227F1C04E02078302801D100227F1E71
:100D6000002A099784D01DE0112D07DA00F036FA29
:100D7000303262556D1C50EA0102F5D1084302D0B1
:100D80000098C8B10EE00021681E05E0235C625C9B
:100D900063542254401E491C8142F7DBAB46A81B1A
:100DA000401E0990002004F80B000B98099AC0F827
:100DB0000880C0E9002B7AE711264FF0000857E7BA
:100DC0002DE9F04F88460446D21D22F0070191B06C
:100DD000D1E90001CDE90A0105F0E4FC02460B98D7
:100DE000C00F01D02D2007E02068810701D52B20FE
:100DF00002E0202101EAC000032A099001D0072A5D
:100E000005DB03464146204600F02EFA0BE1207830
:100E1000800601D5E06900E00620B8F1650F814643
:100E200006D0B8F1660F18D0B8F1670F70D131E075
:100E30000020B9F1110F009001DB112301E009F14D
:100E400001030AAA01A90CA8FFF7E2FEDDE90C7074
:100E5000002609F10105834647E001204B4600903A
:100E60004FF000470AAA01A90CA8FFF7D1FEDDE95F
:100E70000DB00C995D46002610B909F101000D185E
:100E8000B9EB050003D4C0F1FF3609F10105A5EB6C
:100E900009002BE0B9F1010F01DA4FF00109002040
:100EA000B9F1110F0090484601DD112300E003461F
:100EB0000AAA01A90CA8FFF7ABFEDDE90C704D46AC
:100EC00000268346207800070AD4AB4500DA5D4649
:100ED00001A8012D04DD411911F8011C302907D0AA
:100EE0004F4502DA17F1040F04DA012082460FE0C1
:100EF0006D1EEEE7002F02DCED1B3E4403E0781C84
:100F0000A84200DD7D1CB81B00F1010A4FF000472C
:100F10002078000703D4AA4501DB4FF0FF3A0021F7
:100F2000B7F1004F0DF143088DF8431024D0022093
:100F30002B23002F01DA7F422D230A21021EA0F16C
:100F4000010000DC5FB197FBF1FC97FBF1F201FBC4
:100F50001C7C17460CF1300C08F801CDEEE7A8F127
:100F6000010003702188090501D5452100E06521B4
:100F7000A0F1010800F8011C09980FA9A1EB0807CE
:100F8000FF1D00B10120411901EBEA70A16938444D
:100F9000081A401EA0612078C00602D42046FFF740
:100FA00045FA099828B1D4E901219047206A401CEC
:100FB00020622078C00622D52046FFF737FA1EE0CF
:100FC000002E04DBB34502DD01A8805D00E0302087
:100FD000D4E901219047206A401C2062761CAAF1C6
:100FE00001005FEA000A0AD100F0F4F8C068016865
:100FF000405CD4E901219047206A401C2062281EF1
:10100000A5F10105DCDC07E0D4E9012118F8010BAA
:101010009047206A401C2062381EA7F10107F3DCCC
:101020002046FFF719FA032011B041E601694A1C76
:1010300002610878704700B58FB0CDE90131002119
:10104000059105497944CDE9031011466846FFF73B
:1010500065FB0FB000BD0000E5FFFFFF0A6802F866
:10106000010B0A60704710B5436913B1AFF30080FC
:1010700001E0FFF714FA012010BD127800F12401FD
:101080000A7000224A700122EDE711684FF0FF322A
:10109000E9E70000074B70B50D467B44FFF7CBFF37
:1010A0000446284600F0CCF910B14FF0FF3070BD77
:1010B000204670BDFF3D000010B5436913B1AFF38A
:1010C000008001E0FFF764FA012010BD128800F1F2
:1010D000240182840022C2840122EDE711684FF0CE
:1010E000FF32E9E73A2800D2303820F02002412AC6
:1010F00001D3A2F13700884201D34FF0FF3070478F
:10110000034B7B449361034B7B44D36100F0F2B803
:101110008B390000EF0200002DE9F04116460C4625
:10112000054600F04FF8036893F80101012807D045
:10113000FF2C12D8185D80B101202C70BDE8F08121
:10114000D3F807013246214603F20713C718284691
:10115000BC46BDE8F041002360474FF0FF30EDE7AB
:1011600010B5203AC0F00B80B1E81850A0E8185034
:10117000B1E81850A0E81850203ABFF4F5AF5FEA84
:10118000027C24BFB1E81850A0E8185044BF18C929
:1011900018C0BDE810405FEA827C24BF51F8043BD0
:1011A00040F8043B08BF7047D20728BF31F8023B24
:1011B00048BF11F8012B28BF20F8023B48BF00F8B8
:1011C000012B704710B500F005F8001D10BD00BFE1
:1011D00041560000004870474800002030B5B0F18B
:1011E0000A0271F100034FEA900E4EEA817EB0EBE5
:1011F0000E0061EB91014FEA101E4EEA017E10EBEA
:101200000E0041EB11114FEA102E4EEA016E10EB69
:101210000E0041EB11214FEA104E4EEA014E10EB49
:101220000E0041EB1141401841F100014FEAD0009E
:1012300040EA41704FEAD1014FEA810444EA9074D8
:1012400010EB800544EB01046D1944EB0404521BC0
:10125000A3414FF0000348BF0A3200D530BD401C07
:1012600041F1000130BD00002DE9F0411F46044668
:1012700003260168072A01F4006004DB08B116A503
:1012800005E016A503E008B115A500E015A521F0BD
:1012900010002060A069C01EA0610FB1401EA061B7
:1012A0002046FFF7C3F84FB1D4E9012138469047F3
:1012B000206A401C2062C01C206206E0206AFAE717
:1012C000D4E9012115F8010B9047761EF8D220468B
:1012D000FFF7C2F8BDE8F0814E414E006E616E002E
:1012E000494E4600696E6600026811441378016039
:1012F00018467047D16005497944516104497944E1
:10130000116200211161114600F0D0B8EDFFFFFF1E
:10131000990100002DE9F047814616468AB035480C
:1013200078440DC88DE80D0032487844801C03AC29
:101330000DC884E80D0041F69B300844372190FB2E
:10134000F1F290FBF1F5A5F1800501FB12041B3CC5
:1013500002D56442012000E00020DFF898A080461A
:101360000027FA44AAF1BE0A0EE0E0070AD032468E
:10137000684607EB470101230AEB810105F0DBF822
:101380008DE8070064107F1C002CEED1194F7F44BC
:10139000AE3F19E0E80715D007EB04100DF1180A6D
:1013A00090E80E008AE80E00C068F04201D198195A
:1013B00008903246012306A903A805F0BCF803AB48
:1013C00083E807006D10641C002DE3D14FF001038A
:1013D00032466946B8F1000F03A802D005F096F82E
:1013E00001E005F0A8F8C9E90001C9F808200AB031
:1013F000BDE8F087A05C0000704710B54FF0FF34E7
:10140000C1688A020FD5036B42689A420BD101462C
:1014100090F82520104600F003FA401C01D1204628
:1014200010BD002010BD11F0C00FF8D10269416855
:101430009142F4D90268491E521CC0E90021F0E72C
:10144000007B00F0800070470048704728000020B3
:101450007546FFF7F9FFAE4605006946534620F092
:101460000700854618B020B5FEF736FFBDE82040DE
:101470004FF000064FF000074FF000084FF0000B50
:10148000AC46ACE8C009ACE8C009ACE8C009ACE8BF
:10149000C00921F007018D46704710B50446FFF7DB
:1014A00091FE0068005D00F0010010BD2DE9F34FD2
:1014B0004FF0000A0C4656468DB001200C9001F109
:1014C0000C000B9062690B9801219047051E2DD0EE
:1014D000252D2CD0216A8847C0B162690B98012163
:1014E0009047216A88470028F7D16269411E0B980E
:1014F000904700E0761CA1690D988847216A8847CB
:101500000028F7D1E1690D988847DBE7A1690D98BC
:101510008847A842074601D1761CD3E7E1690D98B8
:1015200088477F1C02D1BAF1000F6FD06BE162696E
:101530000B9800273D46394690472A2804D1626916
:101540000B98012190470125DFF8D08262690B9842
:1015500001219047A0F130010A290AD24745E5DC74
:1015600007EB870100EB4107303FDFD445F0100562
:10157000ECE7E90601D46FF000476C280AD04C284C
:1015800014D0682815D06A280DD074281CD07A2869
:101590001AD01DE062690B98012190476C2802D097
:1015A00045F0040514E045F002050DE045F0200586
:1015B0000AE062690B9801219047682802D045F043
:1015C000080505E045F4006562690B980121904724
:1015D000C4E9015765283DD019DC58287AD00CDCC5
:1015E000452837D004DC252826D041289ED131E07B
:1015F00046282FD0472899D12CE05B2877D0612846
:1016000028D063287CD0642823D15AE0F6E06F28E4
:1016100048D008DC66281DD067281BD0692821D057
:101620006E2816D127E0702845D0732868D0752819
:1016300047D078280DD14DE0A1690D98884725281D
:1016400005463FF469AFE1690D9888476D1C3FF48A
:101650006AAFD8E00D9923466A466FF00100AFF3F8
:101660000080C5E045F0400023464FF00002606076
:10167000A80736D43EE0E8077FF447AF2068011D95
:1016800021600068290501D506701BE7290701D5EF
:10169000068017E7A90703D5F117C0E9006111E734
:1016A00006600FE745F0400023464FF008026060F7
:1016B000A80716D41EE040F60E0125EA010060607E
:1016C00016E045F0400023464FF00A026060A8078C
:1016D00007D40FE045F040006060A80708D5234616
:1016E00010220D996FF00100AFF3008080E007E059
:1016F000102223460D996FF00100FFF7E3F877E021
:101700004FF0000963284F46C8464B46CB4602D0EF
:101710005B2806D038E0E80601D40120A06001274C
:1017200032E06269D4F80CB00B98012190475E2832
:1017300007D14FF0010949466269D4F80CB00B9803
:101740009047216939B900210A4603AB43F82120AB
:10175000491C0829FADBD8B3216949B308F101080B
:1017600062690B98012190475D28F4D1B9F1000F0F
:1017700009D0002003A951F82020D24341F82020AD
:10178000401C0828F7DB03AB2069002820794FEACA
:1017900040701ED05B462246CDF80080CDE901970F
:1017A0000D9900286FF0010020DAAFF300801FE0F0
:1017B000C11703AA00EBD1614B1121F01F0102EB0D
:1017C0008302411A13680120884003431360C7E76E
:1017D00019E00D99224600286FF00100009702DA07
:1017E000AFF3008004E0AFF3008001E0AFF30080CE
:1017F00000280ADA401C06D10C9820B14FF0FF30C7
:101800000FB0BDE8F08F5046FAE7E90701D10AF1C1
:10181000010A064400200C9054E60000CCCCCC0C0D
:10182000CA68431C0FD00D4B1A420CD1D3070AD003
:1018300081F825004B680B6300238B6012F0C06FAA
:101840000B6003D004E04FF0FF30704742F00072AD
:10185000034B1A40034B1A43CA60704780200800AC
:10186000BFFFDFFF0010480010B50446AFF3008053
:101870002046BDE81040FEF71BBD00000000000040
:1018800030B44FF0013C50F8042B51F8043BCCFA33
:1018900052F4D51A20D1FCB950F8042B51F8043B6E
:1018A000CCFA52F4D51A17D1B4B950F8042B51F828
:1018B000043BCCFA52F4D51A0ED16CB950F8042B73
:1018C00051F8043BCCFA52F4D51A05D1002CDAD0E9
:1018D00030BC4FF00000704729BAB1FA81F111F025
:1018E0001801D1F120008440F2D1CA40CB4012F05F
:1018F000FF0213F0FF0330BCD01A704701491820D3
:10190000ABBEFEE7260002007047FEE770474FF4CB
:10191000805000F049B80022AFF30080B0B50D4C04
:101920000346607A08B10120B0BD657A0020605599
:10193000657A04EB85056B60637A23441A72627AD8
:10194000531C3032637242F63A73C8700A70A1F8C1
:101950000130B0BDDC010020B0B5044600F00AF94A
:1019600005460548611C007818BF044400F002F9E0
:10197000401BA042FAD3B0BD00000020B0F5805F4C
:1019800018BF704780B506480121017005484FF423
:10199000804100F0E2F8BDE8804003F0FFBA00BFEC
:1019A000880000200018024003490A68024208BF6C
:1019B00070470860FFF7E2BF143C01402DE9FC4F7F
:1019C0005D4A0A244FF0010B4FF000094FF0000A66
:1019D00090425A4A08BF092402444FEAB223092B15
:1019E00038BF4FEAB22400940022102A08BFBDE895
:1019F000FC8F0F680BFA02F6374200F09780D1F89F
:101A00000480032303FA0AF708F0030CFF43ACF148
:101A1000010EBEF1010F0ED88468CD683C4005FA76
:101A20000AF52C438460C8F3001445689440B5431C
:101A30002C43446005E0BCF1030F02D14FF0030CCE
:101A400020E0C4688D683C4005FA0AF52C43BCF1DF
:101A5000020FC46016D109F01C0E0F2303FA0EFC0E
:101A60006FF0030303EA520505442C6A24EA0C0CC8
:101A70000C6904FA0EF444EA0C042C62D1F80480D8
:101A800008F0030C05680CFA0AF43D402C4318F4E6
:101A9000403F04604AD0002322F0030701932A4B01
:101AA0001C6844F480441C601C680F2304F48044C8
:101AB000019409F00C0403FA04FC214B019D9E469D
:101AC0001F44224BFD589846009B25EA0C0503FA5B
:101AD00004F42C4347F80840DEF808404F68FB0246
:101AE00044EA0605174B58BF24EA0605CEF808500D
:101AF000BD029C461B6843EA060458BF23EA06045D
:101B0000CCF80040BD03DEF8043043EA060458BFB9
:101B100023EA0604CEF80440FD03DEF8003043EA71
:101B2000060458BF23EA0604CEF8004009F1040970
:101B30000AF1020A013258E7002402400000FEBF09
:101B4000003C01400C3C01404438024008FCFFFFCF
:101B50000069084018BF01207047426902EA01038A
:101B6000914341EA034181617047002A08BF09049B
:101B70008161704701480068704700BF440200203F
:101B8000F8B528B3044690F83D0020B901F069FC8F
:101B9000204600F029FB01F0FBFB016841F4004105
:101BA0000160016821F40041016000F04FFC3B49F5
:101BB00000253B4A88424FF0000138BF0121904286
:101BC00038BF01256368374A934238BF0D460DB1CF
:101BD0000120F8BD34494FF47A77B0FBF1F5216864
:101BE0004E6826F03F062E434E604FF496766E43C5
:101BF000934228BFB6FBF7F56A1C0D6A25F03F0536
:101C00002A434CF6FF750A62CA69AA43274DAB42C4
:101C10000AD85B000138B0FBF3F001306FF31F30DE
:101C2000042898BF042013E0A56801383DB11925A8
:101C30006B4301F0EAFB0AD000F5804004E003EBBF
:101C4000430301F0E2FB02D000F5004000E0012078
:101C5000104304F10C06C861E0690A6822F0C00272
:101C60001043226A104348F2FF32086088689043AC
:101C70006CCE184310438860C86820F0FF002843EA
:101C80003043C86001F06AFB00202021206484F802
:101C90003D10206384F83E00F8BD00BF80841E0024
:101CA00000093D00A186010040420F00A08601000E
:101CB0002DE9FC4B1D4617468B4601F017FB81466C
:101CC00001F07CFA0DD1C94E204601221923CDF82E
:101CD000009006F5702101F011F910B901F00FFA2A
:101CE00002D10220BDE8FC8B01F0FDF901D101F029
:101CF000EFFA0168A6F10212DDF8288021F40061F4
:101D00000160222101F056FB65853546618DE26256
:101D100067622185E16A026842F4806211F5803FC2
:101D2000026018BF01292CD101F072FA20464FF051
:101D300001110022434601F00DFA48B12068006805
:101D4000C00544BF4FF4007020640120BDE8FC8B47
:101D50002069B0F5804F1AD14BF00100C0B2216864
:101D600042464B4601F075FB0028EED1208D02283B
:101D700040D0012841D000284CD100210191216898
:101D80003EE00829D0D0216B1129CDD0CEE7062026
:101D90002F46216842464B4600EADB1505F1F0006C
:101DA0000861B91D204601F0E3F80028CDD1206874
:101DB0005FFA8BF142464B4601612046394601F0FD
:101DC000D7F80028C1D100200022434601F035FB9E
:101DD000816901910199016841F480710160204697
:101DE0004FF0011101F0B6F90028A7D145F0F1003C
:101DF0003546B4E701F0B7FA10E001F023FB019299
:101E00004A6901928A690192019A0A6842F4007251
:101E10000A600BE021680A6842F480620A600022CE
:101E200001924A690192896901910199AF1C0104EB
:101E300030D080B203280DD8022821D0012818D133
:101E400001F005FA00287FF480AF2068616A00691C
:101E500008701CE001F0FBF900287FF476AF2068E1
:101E6000616A0069087001F0C0FAE0D50869107075
:101E70000DE001F0D1FA00287FF467AF01F043F9DB
:101E800001F0CAFA00287FF460AF01F0EEFA01F029
:101E90004CF9CCE7202084F83D00002084F83C0079
:101EA00084F83E00BDE8FC8B2DE9FC471F46164632
:101EB000894601F01BFA824601F080F90DD14B4DA5
:101EC000204601221923CDF800A005F5702101F06C
:101ED00015F810B901F013F902D10220BDE8FC8712
:101EE00001F001F901D101F0F3F90168A5F1021245
:101EF000DDF8288021F400610160212101F05AFA07
:101F00006785618DE26266622185E16A11F5803F35
:101F100018BF012919D101F07BF920464FF00111BA
:101F200000224346CDF800A000F0E8FF38B1206859
:101F30000068C00544BF4FF40070206421E02069B0
:101F4000B0F5804F07D1FE2013E00829E3D0216BC4
:101F50001229E0D0E1E7062021684246534600EA14
:101F6000D910F0300861A91D204601F001F840B9F0
:101F7000FF20216800EA09004246534601F069FA51
:101F800010B10120BDE8FC87002001F056FA8069FD
:101F900001900198208D28B320464146524601F019
:101FA0003DF8C0B901F069F9228D531E23854E69B1
:101FB000760709D51B0407D0437802300B616062B5
:101FC000901E208501F09FF920464146524600F0C0
:101FD00079FF0028DED0206C0428D2D1206801F0DF
:101FE000F9F8CEE701F0FFF8BDE8FC870200010038
:101FF0002DE9FE431F4616460D4601F077F981464E
:1020000001F0DCF809D1764920460122192301F0BC
:10201000A1F810B901F073F802D10220BDE8FE83E7
:1020200001F020F903D1136843F001031360136832
:1020300023F40063136022223B4601F05AF96949F8
:102040003246608DE162294620852046CDE900892F
:1020500000F084FE08B101F001BA208D022806D0FC
:1020600001280AD0002170B90291216808E001F02E
:102070007AF90A600022029207E001F0E3F9029285
:1020800001F045F906E0029121684A6902928969E6
:10209000029102991A4F01042CD080B203280CD867
:1020A00002281ED0012816D101F0D1F80028D2D183
:1020B0002068616A0069087019E001F0C8F800281A
:1020C000C9D12068616A0069087001F08EF9E2D513
:1020D000086910700BE001F09FF90028BBD101F0F6
:1020E00012F801F099F90028B5D101F0BEF901F01C
:1020F0001CF8D0E7202084F83D00002001F0ACB8A7
:10210000040001002DE9FE43994616460F4601F0F2
:10211000EDF8054601F052F80AD131492046012276
:102120001923009500F0EAFE10B900F0E8FF02D193
:102130000220BDE8FE8301F095F803D1136843F057
:1021400001031360136823F40063136021224B46DC
:1021500001F0CFF823493246608DE162394620858F
:102160002046CDE9008500F05BFE08B101F076B9AC
:10217000218D080422D0204641462A4600F04EFF19
:1021800010BB606A2268014611F8013B1361638D40
:10219000013B63856162238D591E2185566976074F
:1021A000E7D509044FF00001E3D041780230116116
:1021B000991E6062218501F0A6F8DAE720464146C3
:1021C0002A4600F07FFE30B1206C0428CED1206872
:1021D00001F000F8CAE701F006F8BDE8FE8300BF91
:1021E000020010000000FFFF704700001F48034975
:1021F00000780A6810440860704700BF440200205D
:1022000080B50B48016841F400710160016841F438
:1022100080610160016841F480710160032000F079
:102220007BF8002000F006F800F022F8002080BDC6
:10223000003C024070B50D4E04464FF47A71307880
:10224000B1FBF0F08B490968B1FBF0F000F08CFCB9
:1022500001250F2C08D838B94FF0FF302146002255
:10226000002500F033F87460284670BD000000209F
:1022700082B000200C4901904A6842F480424A60D2
:102280004A6802F480420192019A0090086840F086
:1022900080500860086800F0805000900098072087
:1022A00002B000F039B800BF40380240002809D41D
:1022B000734600F000FF9E46034A42EAD00020F039
:1022C00003000160704700BF00E100E0F0B5184B6B
:1022D0004FF0FF361C68C4F30224E51E84F00704A7
:1022E00038BF002506FA05F7BA43042C28BF04249A
:1022F00006FA04F4A14300F00F04A940043C114382
:10230000044A234409010244002848BF03F10C0297
:102310001170F0BD00E400E005494FF6FF030A68C4
:102320001A4060F30A22034810430860704700BF58
:102330000CED00E00000FA052DE9F041002857D02F
:102340003F4B04468846D3F8000400F00F00884253
:1023500004D283F8008400F08FFE49D12068810701
:1023600011D5410703D5996841F4E05199600107FF
:1023700003D5996841F460419960A1689A6822F098
:10238000F00211439960C0072BD100F075FE04D90B
:1023900083F8008400F070FE2AD12068410705D53B
:1023A000E1689A6822F4E05211439960000706D56B
:1023B0002069996821F4604141EAC00098601C4698
:1023C00000F05EF8A1681F4AC1F30311515CC840D8
:1023D000284908601C480068FFF72CFF0020BDE872
:1023E000F0816068811E022905D21968890107D42D
:1023F0000120BDE8F08101281DD119688903F7D5B6
:1024000099681D4621F0030108439860FFF7B2FB6D
:10241000064641F288376068A9682B4601F00C0136
:10242000B1EB800FB1D0FFF7A5FB801BB842F2D90A
:102430000320BDE8F08119688907D9D5E0E700BF1E
:1024400000380240DC6F00080400002009480A49F7
:102450000A4A00680968C1F38221515CC84070478C
:1024600004480549054A00680968C1F34231515CD6
:10247000C84070470C00002008380240EC6F00088C
:1024800010B5134C606800F00C011248082903D005
:1024900004291CD1104810BD2168236801F03F02B7
:1024A00021685B02C1F3881105D4A1FB0001002360
:1024B000FDF724FF03E008484843B0FBF2F0216831
:1024C0000222C1F3014102EB4101B0FBF1F010BD6A
:1024D000043802400024F40000127A002DE9FC4187
:1024E000002860D004460078C34EC0070BD0B06807
:1024F00000F00C00042840F08F803068800302D583
:10250000606800284FD02078800718D5B06810F098
:102510000C0F07D000F03BFE40F096807068400240
:1025200000F192803068800702D5E06801283AD136
:102530002069316821F0F80141EAC000306020785C
:10254000000733D42078400743D4A76947B300F08D
:102550001EFE40F0AA80012F25D0E169706800F4CA
:1025600080028A421FD1216A00F03F028A421AD1BA
:1025700047F6C071626A0140B1EB821F13D1A16AB4
:102580004FF6FF72C903914300F44032A1F5803148
:102590008A4208D1E16A00F07060B0EB016F02D1AD
:1025A0000020BDE8FC810120BDE8FC816169934801
:1025B00000296AD00121C0F8801EFFF7DBFA05462A
:1025C000706F8007BED4FFF7D5FA401B0228F7D9F9
:1025D000C9E0306C10F080580AD100200190306CB6
:1025E00040F080503064306C00F0805001900198D1
:1025F000834F3868C0053AD4386840F4807038603A
:10260000FFF7B8FA05463868C00530D4FFF7B2FACC
:10261000401B0228F7D9A6E000F0B9FD03D170688D
:1026200040023FF56AAF6068B0F5803F07D0B0F573
:10263000A02F40F08280306840F480203060306805
:1026400040F48030306082E0E06800284CD06B4875
:1026500001210160FFF78EFA0546306880073FF5DB
:1026600067AFFFF787FA401B0228F6D97BE0A06826
:10267000012805D0052848D1306F40F004003067AC
:10268000306F40F00100306749E00021C0F8801E43
:10269000FFF770FA0546706F80077FF553AFFFF7BD
:1026A00069FA401B0228F6D95DE0544900208846AB
:1026B0000866FFF75FFA0546022F0AD147463068E1
:1026C000800153D5FFF756FA411B03200229F6D9A2
:1026D00067E7306880017FF563AFFFF74BFA411B76
:1026E00003200229F5D95CE7444800210160FFF787
:1026F00041FA0546306880077FF521AFFFF73AFAC7
:10270000411B03200229F5D94BE7316F002821F046
:1027100001013167316F21F00401316745D0FFF7C6
:1027200029FA054641F28837306F80074CD4FFF70D
:1027300021FA401BB842F7D915E03168002821F48E
:1027400080313160316821F48021316045D0FFF75C
:1027500011FA0546306880033FF5D5AEFFF70AFA57
:10276000401B6428F6D90320BDE8FC811C341FCC33
:102770000843D90340EA82104FF6FF72914340EAC2
:102780000460A1F580310843706001203866FFF7CE
:10279000F1F90446306880013FF502AFFFF7EAF92E
:1027A000011B03200229F5D9FBE6FFF7E3F90546F3
:1027B00041F28837306F800706D5FFF7DBF9411B00
:1027C0000320B942F6D9ECE6B8F1000F7FF4BDAEB4
:1027D000306C20F080503064B7E6FFF7CBF9054647
:1027E000306880037FF58FAEFFF7C4F9411B0320EB
:1027F0006429F5D9D5E600BF003802400000474201
:102800000070004070B538B10446406A30B1002015
:10281000206104F1140007E001254BE06068B0F589
:10282000827F03D004F11C00002101600025A56215
:1028300094F8510020B9204684F8505000F03CF83C
:10284000022084F8510094E80F0001F4827102F430
:1028500004420668114403F40062114426F0400665
:102860000660226902F002021144626902F001026C
:102870001144A26902F400731944E36903F03803B8
:102880001944236A03F080031943A36A03F4005335
:1028900019430160042101EA1241626A02F0100248
:1028A00011444160C16921F40061C1610120656585
:1028B00084F85100284670BD70472DE9F84300F0B8
:1028C00051FC04BF0220BDE8F8834FF001091D460A
:1028D00016460F4684F85090FFF74CF9804694F85E
:1028E0005100012844D1002F44D0002E42D00320B3
:1028F00084F8510000206065E686A6862763A087DD
:10290000A063C4E91000E087A1682068B1F5004F1A
:1029100007D1016821F040010160016841F4804164
:1029200001600168490601D400F07EFDE26861683B
:10293000B2F5006F20D109B1012E01D100F042FCA7
:102940006E1CE08E90B300F04AFC08D4FFF712F939
:10295000002EF6D0A0EB0800A842F2D337E0216B9E
:1029600031F8022BC2602163E08E0138E086E8E78F
:1029700002202DE001202BE009B1012E02D139788F
:1029800000F0E1FC6E1CE08E80B100F028FC08D461
:10299000FFF7F0F8002EF6D0A0EB0800A842F2D323
:1029A00015E0216B097800F0CEFCECE720462946C3
:1029B000424600F073FD08B120206065A06808B9A8
:1029C00000F071FC606D002818BF012000E00320BA
:1029D00000F0B5BB2DE9F84300F0C4FB04BF0220B2
:1029E000BDE8F88301201E4615460F4684F85000C6
:1029F000FFF7C0F894F85110814601290BD06068A8
:102A0000B0F5827F5ED1A2680220002A40F0988053
:102A1000042940F09580002F00F09180002D00F0F7
:102A20008E80002E00F08B8094F8510004281CBF8B
:102A3000052084F8510000206065E687E686C4E939
:102A40001000A563A6872763A6862068016849064B
:102A500001D400F0E9FCE268DDF820806168B2F59D
:102A6000006F31D109B1012E01D100F0ABFB01267D
:102A700008F10105E08E10B9E08F002857D000F072
:102A8000AEFB0CD5E18E51B1012E08D1216B002691
:102A900031F8022BC2602163E18E0139E186816841
:102AA000C90706D0E18F21B1A16BC068012600F0F3
:102AB000A8FBFFF75FF8002DDCD0A0EB0900404534
:102AC000D8D332E002203BE009B1012E02D139789F
:102AD00000F039FC012608F10105E08E08B9E08F0D
:102AE00028B300F07CFB0ED5E18E61B1012E0AD136
:102AF000216B002609780173216B20680131216365
:102B0000E18E0139E1868168C90706D0E18F21B1E4
:102B1000A16BC068012600F02FFBFFF72BF8002DFA
:102B2000DBD0A0EB09004045D7D3032008E02046C6
:102B300041464A4600F0B2FC50B1202060650120B9
:102B4000002184F85010012184F85110BDE8F88369
:102B5000A16800200029F3D100902168CA68009282
:102B6000896800910099EBE7411E0020B0EB116FDE
:102B70001CBF01207047044AF023516003490B70C9
:102B8000072190601160704710E000E023ED00E045
:102B900090B110B5044690F83D0008B900F0ECFB88
:102BA00000F076FB2068016921F4904101614169E0
:102BB00021F02A0100F00CBC0120704770472DE97C
:102BC000F843054690F83E00202807D10C4641B155
:102BD000164632B195F83C00012805D10220BDE827
:102BE000F8830120BDE8F88300202221994628645B
:102BF00085F83E10012185F83C102863FEF7BAFFE6
:102C0000EE858046AE85A868B0F5805F01D1286961
:102C100010B10026274601E000272646002085F84F
:102C20003C00E88D08B32846202100F08FFA10BB45
:102C30005FB1A868B0F5805F0FD008B9286960B1AE
:102C40002868406800F07F0009E028680027406895
:102C50006FF35F2026F8020B03E02868406807F84E
:102C6000010BE88D0138E885DBE7202085F83E0080
:102C70000020BDE8F8830320BDE8F8832DE9F84380
:102C8000044690F83D00202806D10D4639B116467D
:102C90002AB100F063FA05D10220BDE8F8830120D3
:102CA000BDE8F883002099462064012084F83C00A8
:102CB000212084F83D00FEF75DFFE6848046A6846F
:102CC000A068B0F5805F01D1206910B100262F46C1
:102CD00001E000272E46002084F83C00E08CA8B1DB
:102CE0002046802100F032FAA8B927B117F8010B6D
:102CF0002168486006E036F8021B206800276FF361
:102D00005F214160E08C0138E084E7E72046402104
:102D100000F01CFA10B10320BDE8F883202084F8ED
:102D20003D000020BDE8F883FEE7026851694905CF
:102D30004FF000010FD56FF48063536120220163CF
:102D400080F83D2080F83E1080F83C10016C41F086
:102D50000401016401210846704700002DE9FC4789
:102D6000044600680E46DDF82890DDF82C801D46EC
:102D70001746002201684B4641F48061016000F073
:102D80005BFA48B120680068C00544BF4FF400708A
:102D900020640320BDE8FC8706F0FE0A2068484E48
:102DA0004A464346C0F810A02046314600F0E0F8FD
:102DB000E8B90020424600F040FB49468069019096
:102DC0000198204600F02AF958B92068012D04D056
:102DD000390A00F0F7FA20B92068F9B200F0F2FAE7
:102DE00040B1206C042802D1206800F0F3F90120E2
:102DF000BDE8FC87206800224B4600F01DFA002841
:102E0000C0D120684AF001014A464346016120468C
:102E1000314600F0ADF8002818BF0120BDE8FC875E
:102E20002DE9FE43044600680E460A9D0B9F994615
:102E30009046002201682B4600F04FFA48B1206806
:102E40000068C00544BF4FF4007020640320BDE853
:102E5000FE83206806F0FE012A463B4601611849C0
:102E6000204600F085F808B100F0F8BA00203A4694
:102E70000290206841690291294680690290029877
:102E8000204600F0CBF830B1206C0428ECD120684B
:102E900000F0A0F9E8E72068B9F1010F0AD04FEA85
:102EA00018213A4601612046294600F0B7F800286B
:102EB000EAD120685FFA88F101610020BDE8FE8355
:102EC00002000100F8B515460E4604464F1C206866
:102ED0004069400744BF0020F8BD2046FFF725FFAA
:102EE00050B9002FF3D0FEF745FE401BB04201D889
:102EF000002EECD100F019FA0120F8BD2DE9F047C1
:102F0000DDF820901D46924680468FB201F47F0482
:102F10005E1C1820B4F5803F08BF1420D8F80010BC
:102F200008583840C01BB0FA80F0400950451CD109
:102F3000002EEED0FEF71EFEA0EB0900A84201D83D
:102F4000002DE6D100202021C8F8300088F83D107F
:102F500088F83E0088F83C00D8F8400040F0200097
:102F6000C8F840000120BDE8F0870020BDE8F087E8
:102F70002DE9F0419846164604468FB2551C20684C
:102F800041693940B9420ED0416949050ED4002D3E
:102F9000F5D0FEF7EFFDA0EB08012020B1420BD8E1
:102FA000002EECD108E00020BDE8F08100F012F91D
:102FB0006FF480614161042000212022216384F8A4
:102FC0003D2084F83E1084F83C10216C08432064B6
:102FD0000120BDE8F08170B515460E460446206814
:102FE0004169490644BF002070BD4169C9060BD440
:102FF000FEF7C0FD401BB04201D8002EEFD100F01B
:10300000D0F940F0200004E06FF01001416100F0C1
:10301000C8F9206400F025FA012070BDF8B5154606
:103020000E4604464F1C20684069000644BF00203D
:10303000F8BD2046FFF779FE50B9002FF3D0FEF718
:1030400099FD401BB04201D8002EECD100F06DF983
:103050000120F8BD10B5034C0348611CFEF75BFC72
:10306000207010BDD800002010000020FEE7FEE711
:1030700028462146FDF716BCD3F8000400F00F00E7
:1030800040457047206850E8050F216820F0010096
:1030900041E80502002A70478DF8071002F0E6B8F3
:1030A000FF2002F07FBF207D00F07F002075704779
:1030B0004046FDF79BB900F01F010122C0B202FAA1
:1030C00001F1704740F080008DF8040041F080006D
:1030D0008DF8050042F080007047002102F04CBEE0
:1030E000204600F0B1BF012084F83C002068016850
:1030F000C907704701230125407801F00BB894F807
:103100003C00012870472068616A026822F48062EE
:10311000026000690870606A01306062208D0138C9
:103120002085608D013860857047606A013060627B
:10313000208D01382085618D01396185704700211E
:1031400084F8501084F85190BDE8F88342464B460D
:1031500000F0F6BACDF80090FFF7D0BE94F83C002E
:1031600001287047044690F85000012870472068F5
:1031700050E8030F216870470870A06B0130A0630E
:10318000E08F0138E08770473846FDF741BCB068F2
:1031900000F00C0008287047CAB2B2FBF0F202EB54
:1031A0008203A1EB430141EA0211704720464FF42C
:1031B000007102F08CBD284602F0C5BC94F83D00B9
:1031C0002028704737F8021BC1602763E08E013862
:1031D000E0867047016841F4007101607047206823
:1031E0008168890770472068016841F400710160B7
:1031F000202084F83D00002084F83C0084F83E0044
:10320000704721F8020BA163E08F0138E087704717
:10321000016841F48071016070479DF809259DF8AF
:103220000A159DF80D45BDF80E5570470E2001F0AA
:10323000F1BF204602F087BC016841F48071016053
:1032400020464FF00111CDF80080FFF757BE204611
:1032500041464A46FFF7BFBE84F83C0084F83E0072
:10326000BDE8FE8301220DF1280884F83C20226885
:1032700098E803011368DB077047606A216802461B
:1032800012F8013B0B61638D013B638562627047FD
:10329000242084F83D002068C16821F40051C160F9
:1032A000204600F0E9B9002000902068C168009134
:1032B00080680090009870479DF804009DF8051004
:1032C0009DF80620704794F91400B0F1FF3F704755
:1032D000016841F001010160704741F480710160B3
:1032E00020464FF001110097FFF708BE0446FEF795
:1032F00041BC84F83D20402284F83E200022226414
:10330000618560627047608D0138608570474A69E9
:1033100002928A690292029A0A6842F400720A6072
:10332000704741E80302002A7047002020212063F3
:1033300084F83D1084F83E0084F83C00206C40F096
:103340002000206470470173206B01302063E08E01
:103350000138E0867047204601F0AEBD086840F0B5
:1033600001000860704721680A6822F480620A60E0
:103370000A6842F400627047002084F83C0020464E
:10338000FFF71CBC04F130010123012500F0C2BE8F
:10339000242084F83D002068016821F001010160CB
:1033A000704700202021206384F83D1084F83E00FF
:1033B000206C704784F83D10102184F83E100021E5
:1033C000216470474246016120464946FFF726BE08
:1033D0004161C16841F40051C16000202021206496
:1033E00084F83D1084F83E1010BD608D0138608572
:1033F000606A2168421C208D6262013820854B6919
:103400005B077047044602F09FBDB0FBF3F001304C
:103410006FF31F300028704720463946002243468C
:10342000CDF80090FFF76ABD016841F040010160EE
:1034300070474FF40071FDF746BB01902068416969
:103440000191704721680A6822F480620A600022B4
:103450007047086120462946FFF78ABD0120BDE874
:10346000FE83002084F83C0070472068616A02688F
:1034700042F40072026000690870608D0138608556
:10348000616A20684A1C6262228D013A22850069C5
:1034900048707047314601F00FBD70471CB50446B7
:1034A0004A4813460A4611490068B0FBF1F04FF450
:1034B0007A71484301906068B0F5827F0AD1204656
:1034C000802100F02BF870B1606D40F02000606545
:1034D00003201CBD019830B101980138019020688B
:1034E00080680006F6D400201CBD00BF00366E01C7
:1034F000B0B5094D0446FEF73DFBC5E90004B0BD7B
:1035000080B5FEF737FB0449D1E90021821A00207B
:103510008A4238BF012080BDE00000202DE9FC4137
:103520001E4617460D468046FEF724FB301AC41986
:10353000FEF720FB0646254801370068C0F3CB3074
:1035400060430190D8F8000081682940A9420ED15B
:10355000002FF9D0FEF70EFB801BA0420AD2019883
:10356000019901390191002808BF0446EAE70020CB
:10357000BDE8FC81D8E900014268B1F5827F22F004
:10358000E00242600BD1D8F80810B1F5004F02D02C
:10359000B1F5806F03D1016821F040010160D8F8D6
:1035A0002810B1F5005F07D1016821F400510160D6
:1035B000016841F400510160002088F850000120AA
:1035C00088F851000320BDE8FC8100BF0C000020FA
:1035D0007047FEF70BBE000070B592B006AC282114
:1035E00004F10800FDF791FA01A81421FDF78DFA06
:1035F00000251B4801260095016841F080510160BB
:10360000006800F0805000900098009506961548DC
:10361000016866F38F310160006800F4404000905B
:103620004FF480300C95079000982046FEF756FF27
:1036300018B1EFF3108072B6FEE74FF4A050059575
:10364000CDE90265002104900F20019001A8FEF74A
:1036500073FE18B1EFF3108072B6FEE712B070BDC2
:1036600040380240007000400248016841F4700197
:103670000160704788ED00E0B0B50446006804F1D1
:1036800008030ECB056925F4405519432A4349F236
:103690000C650261C26863691943E369AA4319436F
:1036A0001143C1604169A26921F440711143416134
:1036B000214940F48060884202D1FEF7D1FE01E04A
:1036C000FEF7C4FEE26919216368A0FB0101B2F5AF
:1036D000004F17D15A00DB0FFCF710FE174B642187
:1036E000B0FBF1F203F1805302FB0300322303EB42
:1036F000C000B0FBF1F04FF4F87101EA400100F0B6
:10370000070012E09A009B0FFCF7F8FD64210B4BB9
:10371000B0FBF1F202FB0300322303EB0010B0FB1D
:10372000F1F000F0F00100F00F0001EB021108448D
:1037300021688860B0BD00BF001401409CFFFF0FEE
:103740002DE9F0411D4690460F4604465E1C206858
:1037500000683840B8421DD0002EF8D02DB1FEF7D9
:1037600009FAA0EB0800A842F1D9FFF700FD20F408
:10377000D070FFF7D6FDF8D1FFF784FCFCD12020F4
:10378000002184F83D0084F83C1084F83E000320BA
:10379000BDE8F0810020BDE8F081000008B1012003
:1037A0007047F8B5D24D287880077BD4424E062268
:1037B0000A243068016862F3C5010160200603D065
:1037C000FFF76EFC013CF9E700200021002702F022
:1037D000D3FA012855D14FF47A70FFF789FE0820FB
:1037E0004FF4D57102F0C8FA012808D100276C46C1
:1037F000042F21D0FFF754FCE0550137F8E7A9204A
:10380000FFF76BFC0121012702283CBF02276FF064
:103810005601CCB2FFF774FE20B12046FFF75DFCE5
:103820000028F7D1FFF76CFE50B310204FF4007161
:1038300002F0A2FA20BB24E09DF802000027012834
:103840001FD19DF80300AA281BD1FFF759FE30B104
:10385000A9204FF0804102F08FFA0028F5D1FFF740
:103860004FFE68B13A200021002702F085FA40B9E6
:103870000027042F18D0FFF713FCE0550137F8E7B5
:103880000027C648077000F01DFB4FB130680222C8
:10389000016862F3C5010160287820F0010000E0B2
:1038A000012028702878F8BD9DF800000C274006FC
:1038B00058BF0427E5E700BFEC010020BFB508B101
:1038C00004259CE0B4480078C0070FD104250429E2
:1038D00000F293801446DFE801F0030B902B5C00AC
:1038E00002F08AFAB0FA80F0450986E0032586E006
:1038F0000920FFF7F2FB00287ED16846102102F074
:10390000E6F9002878D09DF8000000F0C0004028BB
:1039100040F087809DF808109DF809209DF8070069
:10392000890441EA822141EA806000F580609CE0E0
:103930009A4D287840075BD40920FFF7CEFB00287A
:103940005AD16846102102F0C2F9002854D02878D4
:103950009DF80B1080079DF80A005FBF01F003027D
:10396000490941EAC20101315DBFC0F38400013061
:1039700048439DF80D2041BF4FF0FF3303EB9212F7
:1039800000F03F00C90942BF41EA400001309040C9
:103990006BE0824D287810F0060F2DD06A4600208B
:1039A0000B21FFF78BFF38BB9DF800003F2803D8A1
:1039B0009DF80A0040061FD52878D4E9001410F0BD
:1039C000080508BF4902202002F0D6F9A0B9002D51
:1039D00008BF64022146212002F0CEF960B92620FA
:1039E000FFF77BFB40B947F2305002F0C5FA79E7A8
:1039F0008D20FFF772FB28B1012500F063FA2846FD
:103A000004B0B0BDFFF74CFB6846102102F05FF92F
:103A10000028F1D03025280621D0FFF741FB013DD9
:103A2000F9E79DF805009DF80A509DF808309DF8CB
:103A300006109DF8072000F00F009B0901F003011C
:103A400000EBD5109DF8095043EA820242EA812139
:103A500005F00305013100EB4500073803E09DF850
:103A60000A001021000901FA00F020600025C4E7D7
:103A700070B50426A0BB1D4693B347480078C00725
:103A800012D146480C460078000758BF5202012D5B
:103A90000CD11120114602F06FF960B9FFF786FBD7
:103AA000B0FA80F0460916E0032619E0122011460C
:103AB00002F062F928B101260DE0013D04F5007421
:103AC00005D0FFF773FB0028F7D12E4600E0002653
:103AD0000C20FFF702FB00F0F5F9002E18BF0126BD
:103AE000304670BD08B1012070472B480078704700
:103AF00008000020F8B5042600284AD11D46002BF6
:103B000047D025480C460178C90717D100784007EF
:103B100016D4224817460078010758BF5702012DD6
:103B200010D11820394602F027F9B8B92046FE21F5
:103B300002F048FAB0FA80F0460925E0032628E0B2
:103B4000022626E010F0060F03D09720294602F047
:103B500013F91920394602F00FF928B1012613E0B4
:103B6000013D04F5007407D02046FC2102F02AFA3A
:103B70000028F5D12E4600E000260020FD2102F0AD
:103B800021FA002808BF012600F09CF9002E18BF7A
:103B900001263046F8BD00BF08000020F0000020DC
:103BA000FFF7FCBDFFF78ABEFFF762BFFFF79ABFC2
:103BB000FFF7A0BFFEE700001FB5044640484FF4E2
:103BC000405102221023CDE9004202918A214FF296
:103BD0002D320068FEF70CFA00B11FBD208800BA34
:103BE000000C20801FBD00BFE0B540BA4FF440512B
:103BF0000DF106020223ADF80600314800918A213A
:103C00000068FEF751F9B0FA80F040098CBD00BFA2
:103C1000BFB5044600200129ADF80C00029014D86D
:103C200042F20B400D46FFF7DFFF68B10620FDF7BB
:103C300093FE23484FF44051062300918A210068E7
:103C400002AAFEF735F810B1002004B0B0BDBDF8EF
:103C50000800012D40BA0BD0E5B902F0C9FE9FED76
:103C6000140B53EC102B02F0DBFE9FED130B09E05D
:103C700002F0BEFE9FED0A0B53EC102B02F0D0FEBB
:103C80009FED090B53EC102B02F00AFE02F0D6FD5B
:103C900000EE100A012084ED000AD6E700BF00BF45
:103CA0009B7631CD74AF733F00000000008048C0A8
:103CB000732EC55565DF653F00000000008046C0DB
:103CC000E801002080B542F21640FFF78DFF30B1C9
:103CD00043F26600FFF788FF08B1012080BD002095
:103CE00080BD0000B0B504464FF0FF30E062002018
:103CF000E070FFF79EFA08B10420B0BDB4F82E02C0
:103D00004AF6552188421CBF0320B0BD94F830000C
:103D1000E92805D0EB2816D194F83200902812D16A
:103D200004F1660001F018FB084D20F07F40A84226
:103D300007D004F1820001F00FFB05F14C518842DD
:103D400001D10020B0BD0220B0BD00BF46415400EB
:103D5000F0B51C4B00220024402A11D09D5865B1BB
:103D60000668B5420AD19D1887686E68BE4205D1C3
:103D7000AE684769BE4201D10BE001241032EBE787
:103D80001222002C18BF0022881E18BF1046C0B295
:103D9000F0BD09B11020FAE7A889A0F58070B0FA4B
:103DA00080F040090001F2E710B5064A0021002327
:103DB000402B08BF10BDD458844208BFD1501033E7
:103DC000F6E700BFF40000200268C36A490A508980
:103DD000B1FBF0F0191D0A6822B1904204D3801A99
:103DE0000831F8E700207047496808447047426985
:103DF0000239023A91422FBF0020826A408901FBBA
:103E0000002070472DE9F04104688846074681B1DB
:103E10003846414601F050F802283CBF0120BDE879
:103E2000F081411C21D061694546884207D2BDE836
:103E3000F081E56815B16069854200D301252E4601
:103E400060690136864228BF022601D3022D09D3BC
:103E50003846FFF71FFB411CE9D050B10128E6D0DE
:103E6000AE42EDD10020BDE8F0814FF0FF30BDE85B
:103E7000F081204631464FF0FF3201F080FE0146CE
:103E8000B8F1000F06D029B920464146324601F06C
:103E900076FE014631B10120012908BF4FF0FF3005
:103EA000BDE8F081D4E90401E660023988429CBF94
:103EB00001382061207940F0010020713046BDE8D2
:103EC000F081000080B5054810210122FDF74DFE6C
:103ED000FF20BDE8804002F065B800BF001002403E
:103EE0002DE9F0470446C06938B10F46616901F118
:103EF00020060021B1EB565F01D004270BE03546C8
:103F0000D4F800906FF35F2545B109EB05006661B9
:103F1000002730302062F8B2BDE8F087A169013097
:103F2000E06171B12F48B9F80A20104400F5C000D3
:103F300010EA562FE9D1FFF70EFA022809D202271C
:103F4000E9E7B9F80800B0EB561FDED80020E061C1
:103F5000D3E78046013020D0D9F81400804507D23D
:103F600048464146C4F81880FFF741FFE061CCE7BE
:103F7000002FEBD0A1692046FFF744FF80460130B7
:103F8000032806D2184901EAC000184921FA00F7AF
:103F9000C1E7484601F096FF08B10127BBE709F1E8
:103FA0003000FFF746FA48464146FFF720FF4FF042
:103FB000000A0127B9F80A10C9F82C008A450CD26A
:103FC000484689F8037001F07DFF0028A3D1D9F895
:103FD0002C000AF1010A0130ECE7A0EB0A00C9F855
:103FE0002C00BDE7FFFF1F00F8FFFF0001070200E4
:103FF000B0B50468054600F027F868B9E969FFF72D
:1040000018F948B9286A007858B1E52809D0284637
:104010000121FFF765FFF0E7042804BF0720B0BDCA
:1040200018B9E969FFF705F900B1B0BD286A202188
:10403000FCF749FD286A05F124010B2201F07CFD03
:104040000120E0700020B0BDF8B504460020A6684D
:10405000256860617EB16F893146BFB9FFF77BF992
:104060000146013004BF0120F8BD02291AD3686956
:104070008142F2D316E02878032802D36E6A002E1C
:10408000E9D1288970B1686A002603E028463146E4
:10409000FFF7ADFEC4E9066020B105F130002062F3
:1040A0000020F8BD0220F8BD214A115C09B10020B2
:1040B000704701211154111802EB80004068097A01
:1040C00002680846104700BF10B5194C231804EBCE
:1040D000800040681B7AD0F810C01846BDE8104038
:1040E000604700BFB0B5124D2C1805EB800040684A
:1040F000247AD0F808C02046BDE8B040604700BF31
:104100000B4A111802EB80004068097A42680846A1
:10411000104700BFB0B5064D2C1805EB8000406875
:10412000247AD0F80CC02046BDE8B040604700BFFC
:10413000DC0100202DE9F04F89B008901646884632
:1041400008A807A9002200F0B3FC002867D1DDF819
:104150001CB0C6F800B0DBE90406B11E884219D9CC
:104160009BF80050012D19D1CDF808B0022600248B
:1041700002AF3846FFF78EF920B1411C44D0012828
:1041800001D13FE00134DBF8140001368642F0D360
:1041900000203AE0C8F80000002040E0DBF8209062
:1041A000CDF804800BF1300A00244FF000080027FE
:1041B000B8F1000F0BD15846494601F0C4FCF0B9E4
:1041C0009BF8005009F101094FF400785746022D81
:1041D00004D138886FF00101022207E0384601F06F
:1041E000BBF820F070406FF003010422B0FA80F0B9
:1041F0004009044488441744013ED9D10020DDF829
:10420000048002E0022000E00120C8F80040CBF862
:1042100010409BF8041041F001018BF8041009B024
:10422000BDE8F08F2DE9FC4715468046A1F1010954
:1042300000240DF106066F4682464C4515DA2846E5
:10424000314601223B4600F077FA009801280CD154
:104250009DF806000D28F2D001340AF8010B0A2857
:10426000EBD100208AF8000005E000208AF8000069
:10427000002C08BFA0464046BDE8FC872DE9F84F5A
:104280000E466946FFF7BEF80546002840F0F88064
:10429000657D002D40F0F480E16AA1B3701C40D030
:1042A000E068B04238BF0646A661002E00F0C0802C
:1042B000751E20462946FFF787FD009F0146E061F5
:1042C0003846FFF794FD002800F0D880F10500F093
:1042D000AF807989226A013901EA55210E18964288
:1042E00000F0A680FEF7EFFF40F3B180787804F18C
:1042F0003001324601230125FFF7F4FE002840F08B
:10430000BE80266294E0E768B74235D2207D800700
:1043100033D5A0460021374658F8180FC8F80010CA
:1043200033E08B46A06802275BF8048BE0B1DDF830
:10433000009082460237002605462046294600F0B6
:10434000BBFD012840F29A80411C7ED0691C0136D9
:1043500005468842F1D0474598BFEBE8026AD9F894
:1043600014108842E5D3E16A0F6047458EBF1125DE
:104370000025CBF8005083E03746A046002558F8CA
:10438000180F002FC8F800507AD0009D69894E029E
:1043900038B17A1E0138B0FBF6F1B2FBF6F28A4270
:1043A00004D2A168002945D0E16104E071420840CF
:1043B000E169A0613F1AD9B1B74251D9A06930442F
:1043C000A061207D800703D4FEF7C5FF014605E00C
:1043D0002046FFF717FD014600283FD0481C34D087
:1043E00002294BD36869814248D2BF1BE161E3E7F0
:1043F000D8F800600027E068864204D9207DE66096
:1044000040F040002075F00512D0226A97420FD08C
:1044100094F91400009EB0F1FF3F34DD707804F190
:1044200030013A4601230125FFF75CFE38BB2762C5
:10443000002525E020460021FFF7E4FC014601307D
:1044400003D001291AD0A160AEE7012517E07878E2
:10445000FEF798FF98B9FEF726FE47E700210027F0
:10446000D8F80000C619F805C8F80060C2D0284680
:10447000FFF7BDFC10B100EB5727BCE702256575BF
:104480002846BDE8F88F7078FEF77CFF0028F6D14B
:10449000FEF709FEC2E70000FEB505466846144671
:1044A000CDE9001100F05BFD002817D40C4901EBA9
:1044B00080077E6826B13046FFF776FC002030701A
:1044C0000DB10020287000207D6035B1012C04D191
:1044D00001A802A9002200F0EBFAFEBD0B20FEBDF0
:1044E000E80000202DE9F04F8FB00E9168B102F086
:1044F0003F09154604460EA801A94A4600F0D8FA1D
:10450000074638B10020206000E00927F8B20FB05C
:10451000BDE8F08FDDF804800E99CDF8088002A880
:1045200000F0EEFB074668B99DF93700002808D473
:1045300015F03E0118BF012102A8FFF709FC07464C
:1045400000E0062719F01C0F15D00FB3042F0DD172
:104550006E48002101F11002502A20D04158002954
:104560001146F7D102A8FFF743FD0746002FC9D136
:1045700049F0080919E0002FC4D19DF80E00C106CA
:1045800000F1A2805FEA897149D5C00705D146E0F4
:104590009DF80E0010F0110F03D00727B2E7122785
:1045A000B0E75FEA497000F191805FEA097036D5A3
:1045B00000F0D3FC0A9E0546294606F10E0001F0E4
:1045C0003AFC06F11600294601F035FC2020314660
:1045D000F072404600F0B4FE05460020708398F863
:1045E0000010032908BFB082F061012088F80300A1
:1045F000ADB1D8F82C6002A82946002201F085FB55
:10460000074600287FF47EAF4046314601F09BFA12
:104610000746681E002FC8F80C007FF473AF0A9D90
:1046200000270021A562D8F82C00606209F008007C
:1046300049EAC00ABAF1010F88BF012102A800F0BF
:1046400045FE002820615ED04046294600F078FEF5
:104650000646A06005F11C0000F07EFE84F814A060
:10466000E762E060C4F8008027626775A76183464F
:1046700004F1300A4FF40071B8F80600A0805046EB
:10468000FCF721FA5FEA89607FF540AF0027BBF1B4
:10469000000F3FF43BAFC4F818B0B8F80A00450269
:1046A000380615D1AB4513D92046FEF7F3FE064672
:1046B00001300021ABEB050B022E38BF01214F006A
:1046C000002808BF0127EBE704271BE7082719E7A5
:1046D0000028E6617FF416AF5FEACB5011D0404668
:1046E0003146FFF784FB70B100EB5B22514601239A
:1046F0000127226298F80100FFF7F4FC00287FF4FC
:1047000001AF002702E70227FCE600BFF40000200B
:10471000B0B594B0044600200390CDE9011001AD7E
:10472000217821B1284601F09BFA0134F8E701A86D
:1047300001F0B8FA14B0B0BD2DE9FE4F04460020D8
:104740000F469B461646186002A9204601F0FCFB66
:104750000546002840F09680657D002D40F092804F
:10476000207DC00701D107258CE0E068A16904F134
:104770003009401AB04238BF064602980190002E18
:104780007AD008466FF35F2058B1C0F5007509EB89
:1047900000013846B54228BF35462A4601F0CCF91B
:1047A00043E001984089013800EA5128B8F1000F30
:1047B00001D0E16911E029B1E06A28B12046FFF794
:1047C00003FB04E0A16803E0E169FEF7C4FD0146D4
:1047D000022953D3481C53D0E1610198FFF707FB2E
:1047E00000284BD000EB080A750A29D0019A08EB83
:1047F00005005189884288BFA1EB080550783946E9
:1048000052462B46FFF76EFCD0BBFEF75CFD0BDC7F
:10481000206AA0EB0A00A84206D207EB40204946D6
:104820004FF4007201F088F96D02A069761B2F44E5
:104830004119DBF80000A1612844CBF800009EE795
:10484000226A524512D0FEF73EFD06DC0198494629
:10485000FEF750FCA8B9FEF726FC019849465246DF
:10486000012301254078FFF73DFC50B9A069C4F849
:1048700020A06FF35F2088E7002503E0022500E019
:10488000012565752846BDE8FE8FF8B56946FEF737
:10489000B9FD0746D0BB207D410601D4002735E095
:1048A00040B2009DB0F1FF3F27DD00F056FB616A8A
:1048B0000646FEF780FC074640BBA76AF87A3946F1
:1048C00040F02000F8722068A26801F0ABFAE168BD
:1048D00007F11C0001F0AFFA07F11600314601F0B4
:1048E000AAFA002078820120E870284601F0A6FA92
:1048F000217D01F0BF012175F8BD226A687804F1BD
:10490000300101230127FFF705FC08B13846F8BD47
:10491000FEF7C9FBC9E72DE9F84F044600208B4696
:1049200069469A4616461860204601F00DFB08B904
:10493000607D08B1BDE8F88F207D80075CBF07204F
:10494000BDE8F88FA16904F13008C843B04238BF10
:104950000646DDF80090002E00F08C800A466FF3CA
:104960005F227AB1C2F5007508EB02005946B542E4
:1049700028BF35462A4601F0DFF8207D40F0800050
:10498000207553E0B9F80A00013800EA5125CDB985
:1049900029B1E06A40B12046FFF716FA08E0A068A6
:1049A00030B92046002101E0E1692046FFF72AFAEC
:1049B000411C68D000285DD0012862D0A168E06168
:1049C00001B9A060FEF77FFC0ADC226A99F80100B9
:1049D00041460123FFF79EFB002854D1FEF763FBFD
:1049E000E1694846FFF703FA00284AD02B46054400
:1049F000770A2BD0B9F80A10D8192A46884288BFFE
:104A0000CF1A99F8010059463B46FFF783FBD0BB0C
:104A1000206A401BB84208D20BEB402140464FF4BD
:104A2000007201F089F8FEF73EFB7D02A169DAF819
:104A30000020E068AB4429442A448142A161CAF8BD
:104A4000002088BF0846E060761B84E7206AA84201
:104A50000BD0E068A169814207D299F80100414674
:104A60002A460123FFF73EFB68B9A26925626FF36E
:104A70005F2277E7207D40F0400020750020BDE8F0
:104A8000F88F022000E001206075BDE8F88F00007B
:104A9000E0B506480DF10701012247F2305304301A
:104AA000FEF78DF89DF807008CBD00BF8800002040
:104AB0002DE9F04F85B00F4600211646396000F011
:104AC0004EFA002815D4DFF82C82054608EB80004A
:104AD0004468A4B33C6006F0FE06207858B16078C4
:104AE000FFF70EFBC10706D10EB140072BD4002003
:104AF0006FE00B206DE0002065702070E8B2FFF7DA
:104B0000D3FAC1071DD10EB140071CD420460021A5
:104B10000025FFF7E7F8022827D101AE0025374628
:104B2000402D12D0601990F8F21121B100F5FB7000
:104B300000F012FC00E0002001C71035F0E70C2067
:104B400047E0032045E00A2043E0002756F82750BD
:104B500025B120462946FFF7C5F800E003200228CA
:104B600003D3791C032F0F46F0D3042801D1012071
:104B70002FE001282CD8B4F83B00B0F5007F27D1F6
:104B8000B4F846B0BBF1000F04D104F1540000F0BA
:104B9000E3FB834694F84060C4F818B0701EA6701A
:104BA000012815D894F83D70781EB7FA87F167810F
:104BB000384018BF01204909084309D194F8410041
:104BC00094F8421040EA012A0007A4F808A003D094
:104BD0000D2005B0BDE8F08FB4F8430018B904F11A
:104BE000500000F0B9FBE28F002AF1D00BFB06F178
:104BF00001EB1A1313449842EAD3C01AB842E7D320
:104C0000B0FBF7F02B442A444FF00309A3624FF6A0
:104C1000F673C4E90752861C984240F6F573666144
:104C200038BF4FF00209984298BF4FF00109B9F11F
:104C3000030F0BD1B4F85A0050EA0A00C8D104F1AE
:104C40005C0000F089FB6062B00010E0BAF1000F78
:104C5000BED011446162A0F6F671090B0E2991BF16
:104C6000700006EB460100F0010000EB510000F27D
:104C7000FF10BBEB502FABD34FF0FF30C4E9030064
:104C80008020B9F1030F207127D1B4F8600001280A
:104C900023D1691CFEF7CDFAF8B900204AF6552158
:104CA0002071B4F82E02884217D104F1300000F0D0
:104CB00053FB1149884210D104F5057000F04CFBFC
:104CC0000E49884209D104F5067000F045FB2061C9
:104CD00004F5077000F040FBE06084F80090B8F83D
:104CE00000000130A8F80000E0802046FFF75CF8E3
:104CF000FDE600BFE800002052526141727241613E
:104D00002DE9F84FD0F800900D46044628785C282D
:104D100001D02F2801D10135F8E70020A0602878C4
:104D2000202806D2802084F82F00FEF7D9F9BDE8AC
:104D3000F88F09F13000DFF8608104F1240600905B
:104D40004FF020304FF0000B082301270021C6F858
:104D50000700706030600BEB0300BC46431A15F887
:104D60000B205F460BF1010B212A38D32E2A21D0CC
:104D70005C2A2ED02F2A2CD09F421BD050B2B0F1EB
:104D8000FF3F03DC4348104410F8802C002718F83C
:104D900007000E2F03D001379042F8D110460028AB
:104DA0006FD1A2F16100C0B21A2838BF203A725404
:104DB0000131D4E7A2F12E0008210B230027B0FA1D
:104DC00080F0420906201CEA020FC4D1AFE70BF1C4
:104DD000010B15F80B005C28F9D02F28F7D000291B
:104DE0004FD03078E52804BF052030700020212AFC
:104DF00038BF0120D4F800A0800084F82F00FEF70F
:104E00006FF990BB5D44E169504600F09CFE60BBC9
:104E1000216A087860B3C87A00F03F02A271CA7AAA
:104E2000120709D40022B35C8F5C0A2A02D0013237
:104E30009F42F8D09F4206D020460021FFF750F84D
:104E40000028E0D011E094F82F1049071CD4C006C8
:104E50001DD5606900996FF35F200144484600F05A
:104E60006FFAA0604FF020306CE704287FF45FAF4A
:104E700094F82F0040074FF0040058BF0520BDE80C
:104E8000F88F0620BDE8F88F0020BDE8F88F0520D8
:104E9000BDE8F88FF46F00088C730008E0B501904E
:104EA000044801A9012247F230530430FDF7E6FE21
:104EB00001988CBD88000020F8B502292DD3056823
:104EC0000C466869884228D92878032827D0022808
:104ED00035D0012821D1286A04EB540700EB572173
:104EE000FEF769F988BB7E1C6FF35F27E81990F81D
:104EF0003070286A00EB5621FEF75DF928BB6FF38E
:104F00005F26A81990F83000E20747EA002108461A
:104F10006FF31F3018BF0809F8BD0120F8BD286ADB
:104F200000EBD411FEF747F978B904F07F0005EBE8
:104F30008000303000F010FA20F07040F8BD286A90
:104F400000EB1421FEF737F910B14FF0FF30F8BD38
:104F5000E0B205EB4000008EF8BD0020704710B5B0
:104F60000268BAB10023D15C212911D33A2901D0BA
:104F70000133F8E71178A1F13004092C0AD8012B8C
:104F80004FF0FF3108BF002C06D1D118013101606C
:104F9000002101E04FF0FF31084610BDE0B50DF1F2
:104FA00007010F2000F036F900B18CBD9DF8070015
:104FB00000F0FE010F20FEF76FF88CBDE0B50DF19B
:104FC00007010F2000F026F900B18CBD9DF8070005
:104FD00000F0FD010F20FEF75FF88CBDE0B50DF18C
:104FE0000701FEF723F900B18CBD9DF8070000F022
:104FF000FE010E20FEF750F88CBDE0B50DF1070163
:10500000FEF714F900B18CBD9DF8070000F0FD011A
:105010000E20FEF741F88CBDE0B50DF10701FEF75B
:1050200005F900B18CBD9DF8070040F001010E208C
:10503000FEF732F88CBDBCB5044600206A46072155
:10504000CDF803000090002000F0FAF800B1BCBDDC
:105050009DF800209DF801309DF8021002F00F0528
:10506000120902EB820205EB4202227003F00F02EA
:105070001B0903EB830302EB430262704A0605D46B
:10508000C1F3011242EA8202520006E0CA060A2374
:1050900003EAE2728B0648BF0C3201F00F019DF863
:1050A000063011439DF80520A1709DF8041001F011
:1050B0000F05C1F3011141EA810105EB41012171A5
:1050C00002F00F01120902EB820201EB42011A0900
:1050D000617103F00F0102EB820201EB420101F565
:1050E000FA61E180BCBDE0B50146002006290190CF
:1050F00007D029B901AA0720042100F0A1F888B13E
:105100008CBD01AA0B20032100F09AF80028F7D1EA
:10511000FEF7D2F8FDF7D6FF03228DF8060001A9AD
:105120000B200EE0FEF7C8F89DF80730FDF7CAFF28
:1051300004228DF8060043F080008DF8070001A9D5
:10514000072000F0ABF88CBDBCB5054625A00C4689
:10515000FBF75EFCE1B20A20B1FBF0F101EB81024A
:10516000A4EB420242EA01118DF80510E9B2B1FB4D
:10517000F0F101EB8102A5EB420242EA01118DF848
:105180000110210AFEF708F88DF80610290CCAB2A2
:10519000B2FBF0F202EB820302F00302A1EB430147
:1051A00041EA02118DF80310290AFDF7F5FF8DF889
:1051B0000210210CA1F5FA618AB2B2FBF0F000EB0B
:1051C0008002A1EB4201072241EA00100DF101012A
:1051D0008DF8070000208DF80400002000F05EF834
:1051E000BCBD00BF695274635365744461746554F7
:1051F000696D653A0D000000E0B50DF10701FEF79D
:1052000015F89DF8070040F004010E2000F02EF87C
:105210008CBD0000BFB502462B4801254FF0FF347E
:10522000CDE9001502940378406819460123FCF784
:10523000DFFE002818BF4FF0FF3004B0B0BD00BF44
:10524000BFB50346204889B24FF0FF35CDE90021B4
:105250001A4601230295047840682146FCF7C8FEEF
:10526000002818BF4FF0FF3004B0B0BDBFB58DF8B7
:105270000F10154902464FF0FF3301240DF10F05C1
:1052800002930123CDE9005448680978FCF73AFFFE
:10529000002818BF4FF0FF3004B0B0BDBFB50346C3
:1052A000094892B24FF0FF358DE826001A460123D7
:1052B000047840682146FCF725FF002818BF4FF00E
:1052C000FF3004B0B0BD00BFD0000020F0B51B4BD4
:1052D000046800221D1D042A0ED055F8046CA64255
:1052E00007D186682F68B74203D146696F68B74215
:1052F00016D010350132EEE703F108050022042A2A
:1053000013D055F8086C16B110350132F7E745F89F
:10531000084C0024AC808468406945F8044C28603F
:1053200003EB0210838911B11BB10020F0BD591CA1
:1053300001E04FF480718181501CF0BDF400002029
:105340000246488B1278032A05D10A7D497D090659
:1053500041EA02410844704700687047ADF5A36D0B
:10536000FCF74EFFFEF738F90024914D0DF144088B
:10537000DFF890960127B0944146286840F040003D
:105380002860286800F04000B090B098CDE9134440
:1053900012974FF4C0401190864800F5DE368246E1
:1053A0003046C84730464FF400510022FCF7DDFB81
:1053B00030464FF4804100220A96FCF7D6FBB094A9
:1053C0004146286840F001002860286800F001008C
:1053D000B090CDE91174CDE913440AF5D237B098F5
:1053E0003846C847B0944146686940F0100068618B
:1053F000686900F01000B090072013941494159081
:10540000022012904FF4C0601190B0983846C847FF
:10541000DFF8F4050AF534410C2240F8041F4FF47C
:10542000E131C0E90114C0E90344C0E90524C461C5
:10543000FDF7AEFBB0944FF0040B122641462868EE
:1054400040F004002860286800F00400B0904FF499
:105450008070CDF854B01394129614941190B098B3
:10546000099738462F46C847CDF854B04FF400701E
:105470000AF5D63B4146CDE9126414941190584682
:10548000C847B0944FF48041D146286940F40000E9
:105490002861DFF8780501614749C0F800A0C0E93C
:1054A000024441602969C0E90544C0E9074401F4A8
:1054B0000001B091B099FCF763FB18B101460FF2FF
:1054C000505002E00FF260500021FAF78FFFDFF832
:1054D0003C45DDF828A0DFF83065D021204600F0FB
:1054E00017FDFFF77BFDFFF788FDFFF757FDFFF77F
:1054F00065FD0120FFF780FE4FF404100DF1440814
:10550000002512904FF480504146CDE9135511907B
:105510005846FCF753FA282000210022FCF7D6FE5B
:105520002820FCF7C3FE204600F0F8FCFEF7CAFB7B
:10553000B09509F5DA344146386840F0100038601B
:10554000386800F01000B090052015900320CDE9D8
:1055500013500220129064201190B0982046FCF75E
:105560002DFAB0954FF48271786940F4005078615B
:10557000DFF8C804416009F55841C0E908550160E9
:105580000A21C0E90A512021C1614FF400718161F3
:105590007969C0E90255C0E9045501F40051B091A0
:1055A000B099FDF72FF948B101460FF2944008E099
:1055B00030380240005C0040A08601000FF29840A5
:1055C0000021FAF713FF0320DDF824B01490002027
:1055D0001390012012901020119011A92046FCF781
:1055E000EDF9204610210122FCF7BFFADFF87C0418
:1055F000FBF70EFA0DF5A160FFF71DFD9DF80C05F8
:105600009DF80835FDF709FE8DE831000FF2604086
:10561000FAF7ECFEDFF87C44351D0DF217572046F3
:10562000FBF7F6F928463946012247F23053FDF7D9
:10563000C6FA9DF817056E2800F093807928EED100
:10564000DFF86C54DFF86C740FF24C480DF59E6473
:10565000FDF72EFDFDF70CFDFDF796FDDDF8F004DE
:10566000A0F6B83111F57A7FF2D3DFF84C84DFF879
:105670004054DFF840740DF2F444ADF80E05FDF728
:1056800017FDFDF7F5FCFDF77FFDDDF8F404A0F153
:105690000D0111F10C0FF2D3DFF82084DFF8105464
:1056A000DFF810740DF59F648DF80D05FDF700FD12
:1056B000FDF7DEFCFDF768FDDDF8F804A0F1200140
:1056C00011F11F0FF2D3DFF8F883DFF8E453DFF8AE
:1056D000E4730DF2FC448DF80C05FDF7E9FCFDF7D1
:1056E000C7FCFDF751FDDDF8FC041728F5D8DFF8FD
:1056F000D483DFF8BC53DFF8BC730DF5A0648DF8DC
:105700000A05FDF7D5FCFDF7B3FCFDF73DFDDDF81F
:1057100000053B28F5D8DFF8B083DFF89453DFF8B5
:1057200094730DF204548DF80905FDF7C1FCFDF7E3
:105730009FFCFDF729FDDDF804353B2BF5D89DF8DE
:105740000C05FDF76AFD8DF808358DE83100DFF8AE
:105750007C03FAF74BFEDDF80805DDF80C15FFF7C2
:10576000F3FCFDF777FC4FF47A70FCF7F5F8DFF8FF
:105770006003FBF74DF9DFF85C13B0A80122FEF7D8
:105780008BFE20B10146D448FAF730FEFEE7D3483D
:10579000FBF73EF9CF4810A90FAAFEF7CBFC20B1CA
:1057A0000146CF48FAF722FEFEE70F98109A41898A
:1057B000406902384A43484352084108C948FAF749
:1057C00015FEC94924A80722FEF78CFE044688B9B5
:1057D00017ACC64929222046FBF730F924A816AB9E
:1057E00021462922FFF797F848B30446C0482146CE
:1057F000FAF7FCFD082C1CD1BB4CBF482146FAF738
:10580000F5FD24AD214633222846FEF76BFE17AC8A
:10581000BA491E222046FBF711F916AB284621464D
:105820001E22FFF778F850B10146B148FAF7DEFDC5
:105830000AE0B048AC492246FAF7D8FDFEE71699CF
:10584000AF48A94AFAF7D2FDAE48A749FAF7CEFD0C
:10585000EFF3108072B600210020FFF744FCFFF741
:10586000DBFBA94862B6FBF7D3F8A84824AF17AC16
:10587000AEA54FF000084FF0000901680E91416895
:105880000D918168007B0C910B903078002862D0DC
:10589000002030700DF5A160FFF7CDFB60B10E98D0
:1058A00017900D9818900C9819900B988DF8680027
:1058B0009748FBF7ADF838E00DF5A2600021FEF740
:1058C000A7F9BDF80E159DF80DA59DF808659DF882
:1058D00009359DF80A259DF80CB5C0B1DDF8100515
:1058E0000DF1180CACE80E0001F086FA41EC100B3B
:1058F00006988A49DDE90723CDE9006BCDF808A0B9
:10590000039020468DED040BFAF77CFD0AE0CDE90B
:1059100002A180492046CDE9006BFAF773FD7E486D
:10592000FBF776F8DDE909BA374E7D48FBF770F8EA
:1059300020463946FEF7ECFE169040B1014670480D
:10594000694AFAF753FD3846FEF79FFF03E06848BF
:105950000021FAF74BFD58460121FCF7F9F838B160
:105960005FEA096004D16F48B8F1000F03D103E08A
:10597000B8F1000F37D06C485B49FAF737FD38466D
:105980004146FEF77BFC204632213A46FEF74AFCB0
:1059900040B128462146FAF729FD30780028F2D098
:1059A0002A9E0DE09DF8A51011B16148FAF71EFD81
:1059B00027982A99814202D15E48FBF729F80026F0
:1059C00027993846FEF75AFC4FF0010850464FF42D
:1059D00000514246C146FCF7C8F8B0460A20FBF722
:1059E000BBFF094E51E758460121FCF7B1F84FF0D3
:1059F00000080028F2D15FFA89F000260128E5D0DE
:105A0000ECE700BFBD190008880000204802002014
:105A100069326320696E69742070726F626C656DA3
:105A20002025750D0A00000069326320696E6974D3
:105A300020737563632025750D0A0000EC010020BA
:105A400053504920696E69742070726F626C656D85
:105A50002025750D0A00000053504920696E6974B5
:105A600020737563632025750D0A000076720008A7
:105A700063757272656E742074696D653A20257560
:105A80003A25753A25752025752F25752F25750D15
:105A90000A00000053720008536574205965617252
:105AA0002028323030302D32393939293A2000005F
:105AB00089730008207300083573000822730008FA
:105AC00049730008737300085D730008E9710008EA
:105AD000967200089A7300086A710008BA7200088A
