:020000040800F2
:10000000E80B002069020008151C0008F11B00081D
:10001000111C00087D09000891250008000000005F
:10002000000000000000000000000000011D0008AA
:100030008109000800000000191C0008051D0008C7
:10004000830200088302000883020008830200087C
:10005000830200088302000883020008830200086C
:10006000830200088302000883020008830200085C
:10007000830200088302000883020008830200084C
:10008000830200088302000883020008830200083C
:10009000830200088302000883020008830200082C
:1000A000830200088302000883020008830200081C
:1000B000830200088302000883020008830200080C
:1000C00083020008830200088302000883020008FC
:1000D00083020008830200088302000883020008EC
:1000E00083020008830200088302000883020008DC
:1000F00083020008830200088302000883020008CC
:1001000083020008830200088302000883020008BB
:1001100083020008830200088302000883020008AB
:10012000830200088302000883020008830200089B
:10013000830200088302000883020008830200088B
:10014000830200088302000883020008830200087B
:10015000830200088302000883020008830200086B
:10016000830200088302000883020008830200085B
:1001700083020008830200088302000800000000D8
:10018000830200088302000883020008830200083B
:10019000830200088302000883020008830200082B
:1001A00083020008830200088302000800F002F8BE
:1001B00000F04AF80AA090E8000C82448344AAF1B7
:1001C0000107DA4501D100F03FF8AFF2090EBAE8B5
:1001D0000F0013F0010F18BFFB1A43F0010318477B
:1001E000CC590000EC590000103A24BF78C878C1FF
:1001F000FAD8520724BF30C830C144BF04680C602D
:10020000704700000023002400250026103A28BF74
:1002100078C1FBD8520728BF30C148BF0B60704778
:10022000692900F02981642900F02681752900F0F0
:100230002381732900F04D83002070471FB505F01E
:100240007EFB1FBD10B510BD00F05EFB1146FFF731
:10025000F5FF04F09FFC00F07CFB03B4FFF7F2FF16
:1002600003BC00F083FB00000948804709480047B1
:10027000FEE7FEE7FEE7FEE7FEE7FEE7FEE7FEE756
:10028000FEE7FEE704480549054A064B70470000B3
:10029000091D0008AD010008E8010020E80B00205E
:1002A000E8040020E804002053EA020C00F0698012
:1002B0002DE9F04B4FF00006002B1FBFB3FA83F57A
:1002C00003FA05F424FA05F65E4012BF1643B2FAAB
:1002D00082F502FA05F4C5F120051EBF22FA05FCDD
:1002E00044EA0C04203556EA044C4FEA144418BF83
:1002F000641C4FF000084FF00009904271EB030CB2
:1003000039D3002919BFB1FA81F701FA07F6B0FA1B
:1003100080F700FA07F6C7F120071EBF20FA07FC96
:1003200046EA0C062037B6FBF4FCA7EB0507103FA6
:1003300007F01F0BCBF120062CFA06F60CFA0BFB8C
:1003400044BFB3460026202FA4BF5E464FF0000BEB
:100350005BEA060C08BF4FF0010B19EB0B0948EBE9
:100360000608ABFB027C06FB02CC0BFB03CCC01BDC
:1003700071EB0C01C1E70B46024641464846BDE819
:10038000F08B13B5084318BF4FF0FF300146AFF3B1
:100390000080BDE81C4070470FB4044910B503AAA3
:1003A000029800F09BFA10BC5DF814FBE4000020FA
:1003B0000FB41CB5074B06AA7B446946009005980C
:1003C00000F05DFA0020694600F06CFA1CBC5DF894
:1003D00014FB0000E904000070B50446856900685C
:1003E000C10601D5302600E02026C00707D070BD29
:1003F000D4E9012130469047206A401C20626D1EDE
:10040000F6D570BD70B5044685690078C00707D180
:1004100070BDD4E9012120209047206A401C206251
:100420006D1EF6D570BD70B50C460546012A05D087
:100430002878800600D5EA69002302E0012305E060
:100440005B1C934202D2E05C0028F9D1A869E6184F
:10045000C01AA861286A184428622846FFF7BCFF22
:1004600004E0D5E9012114F8010B9047B442F8D318
:100470002846FFF7C7FF70BD2DE9F041064600246E
:1004800010687529314616A510D0AFF300800028FA
:1004900002DA404213A507E031688A0701D512A5A8
:1004A00002E0490704D511A5012401E0AFF3008063
:1004B00000210A2206F1240709E0B0FBF2FCB0FBA0
:1004C000F2F302FB1C00303078541846491C002817
:1004D000F3D123462A463046BDE8F04100F071B919
:1004E000000000002D0000002B0000002000000094
:1004F0002DE9F0474FF0000A89460446C0F820A0D5
:100500002046E1688847002876D0252806D0D4E91F
:1005100001219047206A401C2062F1E7E1682046F3
:1005200000268847C4F81CA005460027C4F818A078
:100530002A2D09D0284605F0FBF938B304EB8708CB
:10054000303DC8F8185019E059F8041B204604EB58
:1005500087029161E1688847012F054618D1E0695B
:10056000002820DA26F020061DE0D8F8180000EB5D
:10057000800005EB40003038C8F818002046E168DC
:100580008847054605F0D4F90028EED1012F0AD09E
:100590002E2D08D12046E16888477F1C0546022F92
:1005A00046F02006C4DBA069002803DA404246F08A
:1005B0000106A061F00701D026F010066C2D0AD0CC
:1005C000682D08D04C2D39D06A2D35D0742D35D0FA
:1005D0007A2D33D016E0E1682F4620468847B8428E
:1005E00005460AD16C2F27D04FF48060E16806439E
:1005F00020468847054605E027E06C2F1AD04FF4C7
:10060000807006430DB3A5F14100192802D82035AA
:1006100046F400664A462946204626604E46FFF7C5
:10062000FFFD80B101280BD0F61D26F0070000F178
:10063000080965E74020E4E78020D7E70020D5E7F8
:1006400006F104095CE7284661E7206ABDE8F08707
:10065000014904F0E1B80000E400002010B50446B0
:1006600003E004F0D9F8401C09D014F8010B054947
:100670000028F6D1BDE810400A2004F0CDB84FF0B4
:10068000FF3010BDE400002010B5431C02E010F85C
:10069000011B71B18107FAD14FF0013202C88C1AE7
:1006A0008C4314EAC211F9D0C01A0A0603D0C01E46
:1006B00010BDC01A10BD0A0401D0801E10BD090271
:1006C000FCD0401E10BD10B5203AC0F00B80B1E840
:1006D0001850A0E81850B1E81850A0E81850203A77
:1006E000BFF4F5AF5FEA027C24BFB1E81850A0E880
:1006F000185044BF18C918C0BDE810405FEA827C9A
:1007000024BF51F8043B40F8043B08BF7047D207B0
:1007100028BF31F8023B48BF11F8012B28BF20F851
:10072000023B48BF00F8012B70474FF0000204293C
:10073000C0F0128010F0030C00F01B80CCF1040C10
:10074000BCF1020F18BF00F8012BA8BF20F8022B44
:10075000A1EB0C0100F00DB85FEAC17C24BF00F8EA
:10076000012B00F8012B48BF00F8012B70474FF018
:10077000000200B5134694469646203922BFA0E8F1
:100780000C50A0E80C50B1F12001BFF4F7AF0907FD
:1007900028BFA0E80C5048BF0CC05DF804EB8900EE
:1007A00028BF40F8042B08BF704748BF20F8022B31
:1007B00011F0804F18BF00F8012B70477047704749
:1007C00070472DE9F0470D4699469246044600F1E0
:1007D00024080168880604D5E06921F01001216031
:1007E00000E00120A84201DD471B00E00027A169CD
:1007F0007A1902EB0900081AA0612078C00602D419
:100800002046FFF7E9FD002608E0D4E901211AF8A7
:1008100006009047206A401C761C20624E45F4DB9F
:100820002078C0060AD52046FFF7D6FD06E0D4E9B9
:10083000012130209047206A401C2062381EA7F119
:100840000107F4DC07E0D4E9012118F8050090471E
:10085000206A401C2062281EA5F10105F3DC204619
:10086000FFF7D0FD2078000602D50220BDE8F08712
:100870000120FBE701694A1C02610878704700B556
:100880008FB0CDE901310021059105497944CDE9C9
:10089000031011466846FFF72BFE0FB000BD0000A5
:1008A000E5FFFFFF0A6802F8010B0A60704710B508
:1008B000436913B1AFF3008001E0FFF7B4FD0120FD
:1008C00010BD127800F124010A7000224A70012242
:1008D000EDE711684FF0FF32E9E70000074B70B514
:1008E0000D467B44FFF7CBFF0446284600F008F88E
:1008F00010B14FF0FF3070BD204670BD333F000097
:10090000007B00F080007047754600F02BF8AE4683
:1009100005006946534620F00700854618B020B50B
:10092000FFF7B0FCBDE820404FF000064FF0000795
:100930004FF000084FF0000BAC46ACE8C009ACE843
:10094000C009ACE8C009ACE8C00921F007018D4638
:10095000704710B50446AFF300802046BDE8104054
:10096000FFF77BBC00487047280000200149182091
:10097000ABBEFEE72600020070470000FEE7000065
:100980007047000080B540F23813C2F200035A7A73
:10099000002A1CBF012080BD93F809C086460020B4
:1009A00003F80C005A7A03EB8202C2F804E05A7A88
:1009B0001A44107293F809C00CF101025A720CF13A
:1009C00030020A7042F63A72A1F80120C87080BD68
:1009D000B0B5044600F0F8F8054640F20000C2F257
:1009E00000000078611C18BF044400BF00F0ECF860
:1009F000401BA042FAD3B0BD2DE9F04F82B000F108
:100A00003E4242F2004502F1FF77C4F202050A229B
:100A100043F6004E4FEAB726A84208BF0922C4F2A7
:100A2000010E092E38BF4FEAB72201250026002704
:100A30004FF00008009208E008F101080437B8F10F
:100A4000100F06F1020600F0A7800C6805FA08F9FD
:100A500014EA090FF0D0D1F804B003220BF0030C14
:100A6000ACF10104B240012C6FEA020A10D882688E
:100A7000CC6802EA0A02B440224382604268CBF3A7
:100A8000001422EA090204FA08F42243426005E055
:100A9000BCF1030F02D14FF0030C20E0C2688C6858
:100AA00002EA0A02B4402243BCF1020FC26016D12E
:100AB0006FF0030202EA58020244D2F820C007F0A5
:100AC0001C050F230C69AB402CEA030304FA05F55F
:100AD0002B431362D1F804B001250BF0030C02681C
:100AE0000CFA06F302EA0A021A431BF4403F0260C2
:100AF000A2D0002243F644030192C4F202031A6812
:100B00004FF6084C42F480421A601A68CFF6FF7C18
:100B100002F480420192019A28F00302724452F8D2
:100B20000C3007F00C050F24AC40A343009C04FAE2
:100B300005F52B4342F80C30DEF808204B6842EAFA
:100B4000090543F60C4CDC0258BF22EA0905CEF831
:100B50000850C4F2010CDCF800209C0242EA0905AE
:100B600058BF22EA0905CCF80050DEF804209C03A7
:100B700042EA090558BF22EA0905CEF80450DEF81A
:100B80000020DB0342EA090558BF22EA0905CEF836
:100B90000050012550E700BF02B0BDE8F08F000013
:100BA0000069084018BF012070470000426902EA4E
:100BB0000103914341EA034181617047002A08BF64
:100BC000090481617047000040F29C10C2F20000ED
:100BD0000068704740F2000040F29C11C2F2000031
:100BE000C2F2000100780A681044086070470000F3
:100BF00080B543F60040C4F20200016841F4007180
:100C00000160016841F480610160016841F4807114
:100C10000160032000F076F8002000F005F800F0F5
:100C200027F8002080BD000070B540F20006C2F237
:100C3000000640F20C013278C2F200014FF47A73E0
:100C40000968B3FBF2F20446B1FBF2F1084600F08A
:100C500043FE0F2C4FF0010508D838B94FF0FF3094
:100C600021460022002500F021F87460284670BD5E
:100C700082B0002043F640010190C4F202014A68AC
:100C800042F480424A604A6802F480420192019A2A
:100C90000090086840F080500860086800F08050BC
:100CA00000900098072002B000F02CB810B54EF666
:100CB0000C5CCEF2000CDCF80030C3F3022E8EF098
:100CC0000704042C28BF0424BEF103034FF0FF3EA9
:100CD0000EFA04F438BF0023A14399400EFA03F33F
:100CE0009A43114300F00F0200F160430901043AF6
:100CF00003F564436244002848BF02F10C031970F5
:100D000010BD00004EF60C51CEF200010A684FF6FD
:100D1000FF031A4060F30A2242F0806040F0FD7049
:100D2000086070472DE9F041002800F08B8043F601
:100D30000808C4F202080446D8F8F8030D4600F08B
:100D40000F00884207D288F8F853D8F8F80300F06B
:100D50000F00A84276D12068810717D5410705D535
:100D6000D8F8001041F4E051C8F80010010705D58B
:100D7000D8F8001041F46041C8F80010D8F800100D
:100D8000A26821F0F0011143C8F80010C0073FD15C
:100D9000D8F8F80300F00F00A84207D988F8F853F4
:100DA000D8F8F80300F00F00A8424BD120684107A3
:100DB00007D5D8F80010E26821F4E0511143C8F8D3
:100DC0000010000708D5D8F80000216920F4604021
:100DD00040EAC100C8F8000000F07CF8D8F8001024
:100DE00045F65812C1F30311C0F60002515C40F2FF
:100DF0000C0220FA01F140F20400C2F20000006887
:100E0000C2F200021160FFF70FFF0020BDE8F08181
:100E10006068811E022907D258F8081C89015CBF4E
:100E20000120BDE8F08111E0012807D158F8081C25
:100E300089035CBF0120BDE8F08107E058F8081C79
:100E4000890703D40120BDE8F08100BFD8F8001065
:100E500021F003010843C8F80000FFF7B5FE06467D
:100E600041F28837D8F80000616800F00C00B0EB60
:100E7000810F8DD0FFF7A8FE801BB842F2D9032066
:100E8000BDE8F08140F20C0043F60801C2F2000018
:100E9000C4F202010068096845F66812C1F38221B4
:100EA000C0F60002515CC8407047000040F20C00E0
:100EB00043F60801C2F20000C4F2020100680968AA
:100EC00045F66812C1F34231C0F60002515CC840D9
:100ED0007047000010B543F60404C4F202046068D1
:100EE00000F00C0142F200400829C0F2F40007D0E3
:100EF000042918BF10BD41F20020C0F27A0010BDD5
:100F0000216801F03F02216823684902C3F3881178
:100F100006D4A1FB00010023FFF7C6F907E000BFDC
:100F200041F20020C0F27A004843B0FBF2F02168A1
:100F30000222C1F3014102EB4101B0FBF1F010BD0F
:100F40002DE9F04182B0002868D00446007843F6CD
:100F50000006C007C4F202060BD0B06800F00C0017
:100F6000042840F09F803068800302D56068002824
:100F700054D0207880071AD5B06810F00C0F09D033
:100F8000B06800F00C00082840F0A68070684002AD
:100F900000F1A2803068800702D5E06801283DD1C9
:100FA0003068216920F0F80040EAC1003060207804
:100FB000000737D4207840074CD4A56955B3B068F2
:100FC00000F00C00082840F0BB80012D26D070688E
:100FD000E16900F480028A4220D1216A00F03F02D8
:100FE0008A421BD147F6C071626A0140B1EB821F91
:100FF00014D1A16A4FF6FF73C903994300F440323C
:10100000A1F580318A4209D1E16A00F07060B0EB4D
:10101000016F03D1002002B0BDE8F081012002B0D1
:10102000BDE8F0816069002840F20000C4F247206A
:1010300076D00121C0F8801EFFF7C6FD054600BF2F
:10104000706F8007B6D4FFF7BFFD401B0228F7D9A9
:10105000DDE000BF306C10F080580AD10020019014
:10106000306C40F080503064306C00F08050019063
:10107000019847F20007C4F200073868C00541D460
:10108000386840F480703860FFF79EFD054600BF69
:101090003868C00536D4FFF797FD401B0228F7D902
:1010A000B5E000BFB06800F00C00082803D17068FC
:1010B00040023FF558AF6068B0F5803F07D0B0F50B
:1010C000A02F40F08D80306840F480203060306880
:1010D00040F4803030608DE0E068002852D000207D
:1010E000C4F2472001210160FFF76EFD054600BFF5
:1010F000306880073FF554AFFFF766FD401B0228BC
:10110000F6D984E0A068012805D005284ED1306FBB
:1011100040F004003067306F40F0010030674FE06E
:101120000021C0F8801EFFF74FFD0546706F800755
:101130007FF540AFFFF748FD401B0228F6D966E077
:101140000027C4F2472700203866FFF73DFD022D37
:1011500005460BD1306880015ED5FFF735FD401B99
:1011600002284FF00300F5D955E700BF3068800131
:101170007FF550AFFFF728FD401B02284FF003001A
:10118000F4D948E70020C4F2472000210160FFF7AE
:101190001BFD0546306880077FF509AFFFF714FD9A
:1011A000401B02284FF00300F4D934E7316F0028C8
:1011B00021F001013167316F21F0040131674DD019
:1011C000FFF702FD054641F2883700BF306F800708
:1011D00056D4FFF7F9FC401BB842F7D917E000BF1F
:1011E0003168002821F480313160316821F4802198
:1011F00031604FD0FFF7E8FC054600BF3068800340
:101200003FF5B7AEFFF7E0FC401B6428F6D903209A
:1012100002B0BDE8F08100BF04F11C052FCD0843EA
:1012200040EA8210D9034FF6FF729143A1F5803155
:1012300040EA05600843706001203866FFF7C4FC8F
:10124000044600BF306880013FF5E4AEFFF7BCFC08
:10125000001B02284FF00300F4D9DCE6FFF7B4FCD2
:10126000054641F2883700BF306F800708D5FFF789
:10127000ABFC401BB8424FF00300F5D9CBE600BFF2
:10128000B8F1000F7FF499AE306C20F080503064DC
:1012900093E600BFFFF798FC054600BF3068800367
:1012A0007FF567AEFFF790FC401B64284FF003000A
:1012B000F4D9B0E670B538B10446406A30B10020C8
:1012C000206104F1140007E0012070BD6068B0F5F2
:1012D000827F03D004F11C00002101600026A66279
:1012E00094F8510020B9204684F8506000F03CF892
:1012F000022084F8510094E80F0001F4827105681F
:1013000002F4044225F040050560114403F4006234
:101310002369114403F002026369114403F00102DE
:10132000A369E569114403F40072114405F0380221
:10133000256A114405F08002A56A114305F40052A4
:1013400011430160626A042101EA134102F01002B4
:1013500011444160C16921F40061C16101206665E9
:1013600084F85100304670BD704700002DE9F0430D
:1013700083B0044690F85000012803D1022003B046
:10138000BDE8F0834FF001091D4616460F4684F86C
:101390005090FFF719FC94F85110012944D1804670
:1013A000002F4FF0010018BF002E00F0D680032060
:1013B000002184F8510061652763A686E686A16353
:1013C000A187E187A0682164B0F5004F20686164BF
:1013D00007D1016821F040010160016841F48041BA
:1013E00001600168490603D4016841F040010160D1
:1013F0006168731EE268B1FA81F1B3FA83F34909B7
:101400005B09B2F5006F41EA03013DD131B137F814
:10141000021BC1602763E08E0138E086E08E002861
:101420006CD0681C0DD11EE0022096E0216B31F8D3
:10143000022BC2602163E08E0138E086E08E002836
:101440005CD0206881688907F0D4FFF7BDFBA0EB72
:101450000800A842F2D303207FE000BFFFF7B4FBEF
:10146000E08E00284AD0206881688907F6D5216B74
:1014700031F8022BC2602163E08E0138E086E08EF5
:101480000028F0D13AE000BF39B139780173206B00
:1014900001302063E08E0138E086E08E70B3681C76
:1014A0000BD11BE0216B09780173206B01302063A5
:1014B000E08E0138E086E08E00B3206881688907FD
:1014C000F0D4FFF781FBA0EB0800A842F3D3032080
:1014D00043E000BFFFF778FBE08E78B120688168B9
:1014E0008907F7D5216B09780173206B01302063E0
:1014F000E08E0138E086E08E0028EFD140F20C004B
:10150000C2F20000006849F68171C1F25E61A0FB81
:101510000101480D4FF47A71484302906068B0F5BC
:10152000827F23D1204680212A46434600F076FB65
:1015300028B1606D40F02000606520206065A068E3
:1015400038B9002001902068C1680191806801903D
:101550000198606D002818BF0120002184F8519087
:1015600084F8501003B0BDE8F08300BF0298002853
:10157000E5D0029801380290206880680006DED528
:1015800002980028DBD00298013802902068806819
:101590000006D4D502980028D1D0029801380290D4
:1015A000206880680006CAD502980028C7D0029833
:1015B00001380290206880680006D7D4BFE7000099
:1015C0002DE9F04383B0044690F85000012803D180
:1015D000022003B0BDE8F08301201E4615460F46E9
:1015E00084F85000FFF7F0FA94F851108146012971
:1015F00040F09880002F4FF0010018BF002D00F040
:101600009E80002E00F09B8094F851000021042859
:101610001CBF052084F851006165A563E687A68795
:101620002763E6862068A68621646164016849060E
:1016300003D4016841F0400101606168731EE268F3
:10164000B1FA81F1B3FA83F3DDF8288049095B0927
:10165000B2F5006F41EA03017AD131B137F8021BCC
:10166000C1602763E08E0138E086012518F1010092
:1016700031D101E0FFF7A8FAE08E18B9E08F002819
:1016800000F0D0802068816889070CD5E18E51B1C7
:10169000012D08D1216B002531F8022BC260216396
:1016A000E18E0139E1868168C907E3D0E18F002925
:1016B000E0D0C068A16B012521F8020BA163E08F87
:1016C0000138E087D6E700BFFFF77EFAA0EB0900FC
:1016D000404580F0FD80E08E18B9E08F002800F0D2
:1016E000A1802068816889070CD5E18E51B1012D58
:1016F00008D1216B002531F8022BC2602163E18EF5
:101700000139E1868168C907DED0E18F0029DBD08D
:10171000C068A16B012521F8020BA163E08F01389D
:10172000E087D1E76068B0F5827F07D1A068002824
:101730004FF0020008BF042901D15BE7022001211C
:1017400084F85110002184F8501003B0BDE8F083F4
:1017500039B139780173206B01302063E08E013894
:10176000E086012518F1010033D101E0FFF72CFAE2
:10177000E08E10B9E08F002854D020688168890776
:101780000ED5E18E61B1012D0AD1216B00250978BA
:101790000173216B206801312163E18E0139E186FB
:1017A0008168C907E2D0E18F0029DFD0C068A16B52
:1017B00001250870A06B0130A063E08F0138E0873D
:1017C000D4E700BFFFF700FAA0EB0900404580F026
:1017D0008180E08E08B9E08F20B320688168890796
:1017E0000ED5E18E61B1012D0AD1216B002509785A
:1017F0000173216B206801312163E18E0139E1869B
:101800008168C907DED0E18F0029DBD0C068A16BF9
:1018100001250870A06B0130A063E08F0138E087DC
:10182000D0E700BF40F20C00C2F20000006849F6A9
:101830008171C1F25E61A0FB0101480D4FF47A7124
:10184000484302906068B0F5827F0FD12046802126
:1018500042464B4600F0E2F960B3606D40F0200074
:10186000606520206065012069E700BF029808B329
:101870000298013802902068806800061AD5029804
:10188000C0B102980138029020688068000611D526
:10189000029878B1029801380290206880680006AA
:1018A00008D5029830B1029801380290206880680B
:1018B0000006DBD4A06800284FF000007FF43FAFA3
:1018C00001902168CA68019289680191019936E7FF
:1018D000032034E7032032E7411E0020B0EB116FF4
:1018E0001CBF012070474EF21002CEF20002516080
:1018F0004EF62351CEF20001F0230B7007219060C9
:1019000011607047002804BF0120704710B50446DD
:1019100090F83D0028B9002084F83C00204600F0F3
:1019200021F8242084F83D002068C16821F400518A
:10193000C160204600F0F2F92068016921F490416D
:101940000161416921F02A014161C16841F40051FE
:10195000C16000202021206484F83D1084F83E10EE
:1019600010BD0000704700002DE9F04381B004462F
:1019700090F83D0020280DD10F4600294FF00100BE
:1019800000F0DD801646002A00F0D98094F83C0073
:10199000012803D1022001B0BDE8F083012084F8C2
:1019A0003C000020206421201D4684F83D00FFF704
:1019B0000BF9A684E684A1680646B1F5805F03D1E1
:1019C0002069002800F01081B8460027002084F824
:1019D0003C00E18C2068002900F0908005F10109AD
:1019E0000DE000BFB8F1000F28D018F8011B4160CE
:1019F000E18C0139E184E18C002900F07F800168ED
:101A00000906EFD4B9F1000F0AD0FDB1FFF7DCF8F9
:101A1000801BA8421AD8206801680906F6D5E1E7BC
:101A200001680906DED4016809065CBF01685FEA47
:101A30000161D7D401680906F2D5D3E737F8021B54
:101A40004FF000086FF35F21D1E700BF206850E836
:101A5000030F216820F4D07041E80302BAB3206874
:101A600050E8030F216820F4D07041E8030272B3FC
:101A7000206850E8030F216820F4D07041E8030289
:101A80002AB3206850E8030F216820F4D07041E8A1
:101A90000302002ADAD11AE0206850E8050F216815
:101AA00020F0010041E80502DAB1206850E8050F96
:101AB000216820F0010041E8050292B1206850E859
:101AC000050F216820F0010041E805024AB12068B5
:101AD00050E8050F216820F0010041E80502002AC6
:101AE000DAD1202084F83D0084F83E00002084F8FC
:101AF0003C00032001B0BDE8F08300BF0168490647
:101B000019D4FDB1691C0DD10168490613D40168CF
:101B100049065CBF01685FEA41610CD4016849066F
:101B2000F2D508E0FFF750F8801BA8420AD82068D9
:101B300000684006F6D5202084F83D00002001B062
:101B4000BDE8F083206850E8030F216820F4D070CE
:101B500041E80302E2B3206850E8030F216820F453
:101B6000D07041E803029AB3206850E8030F21685F
:101B700020F4D07041E8030252B3206850E8030F0C
:101B8000216820F4D07041E80302002ADAD11FE076
:101B9000206850E8050F216820F0010041E80502A7
:101BA000002A9ED0206850E8050F216820F001002F
:101BB00041E80502002A3FF494AF206850E8050F81
:101BC000216820F0010041E80502002A3FF489AFB6
:101BD000206850E8050F216820F0010041E8050267
:101BE000002AD5D17DE700BF4FF00008EEE60000E7
:101BF000FEE7000010B540F28804C2F2000440F293
:101C00001000611CC2F20000FEF7BCFE207010BD87
:101C1000FEE70000FEE70000704700002DE9F041FC
:101C200082B01E4690460D460446FEF7CDFF301AA0
:101C300000EB0807FEF7C8FF40F20C01C2F20001FA
:101C40000968C1F3CB317943019121688A682A4040
:101C5000AA4227D1064618F101001FD0FEF7B4FFB3
:101C6000801BB84222D2019801990028A1F10101FC
:101C700001912168896808BF074601EA0500A8426A
:101C8000ECD00FE088682840A8420BD18868284033
:101C9000A84207D188682840A84203D18868284014
:101CA000A842EFD0002002B0BDE8F081D4E90001E5
:101CB0004268B1F5827F22F0E00242600AD1A16859
:101CC000B1F5004F02D0B1F5806F03D1016821F06A
:101CD00040010160A16AB1F5005F07D1016821F4FC
:101CE00000510160016841F400510160012084F855
:101CF0005100002084F85000032002B0BDE8F081BC
:101D000070470000FEF766BF4EF68850CEF2000026
:101D1000016841F4700101607047000010B504468D
:101D20000068D4E902C22369016921F440511143DA
:101D30000161626943EA0C01E3691143C268194316
:101D400049F20C639A431143C1604169A26921F4CD
:101D5000407141F20043114340F48062C4F2010338
:101D60009A42416102D1FFF7A1F801E0FFF78AF83A
:101D7000E16963681922B1F5004FA0FB020123D18C
:101D80005A00DB0FFEF790FA48F21F51C5F2EB1133
:101D9000A0FB01235A094FF69C73C0F6FF7303F1B1
:101DA000805302FB0300322303EBC000A0FB0101C0
:101DB0004FF4F87000EA111000EB0210C1F3421169
:101DC00008442168886010BD9A009B0FFEF76CFAEA
:101DD00048F21F51C5F2EB11A0FB01235A094FF63F
:101DE0009C73C0F6FF7302FB0300322303EB001069
:101DF000A0FB0101F02000EA511000EB0210C1F33A
:101E0000431108442168886010BD000000281CBFF1
:101E1000012070472DE9F04F85B040F20807C2F26B
:101E200000073878800700F1868140F24414C2F23E
:101E300000042068062201680DF10D0562F3C5015A
:101E400003AE01604FF0FF084FF0320920462946EB
:101E5000324601238DF80D80CDF80090FFF7B0FBDE
:101E600020462946324601238DF80D80CDF800909A
:101E7000FFF7A6FB20462946324601238DF80D8048
:101E8000CDF80090FFF79CFB2046294632460123FF
:101E90008DF80D80CDF80090FFF792FB2046294683
:101EA000324601238DF80D80CDF80090FFF788FBB6
:101EB00020462946324601238DF80D80CDF800904A
:101EC000FFF77EFB20462946324601238DF80D8020
:101ED000CDF80090FFF774FB2046294632460123D7
:101EE0008DF80D80CDF80090FFF76AFB204629465B
:101EF000324601238DF80D80CDF80090FFF760FB8E
:101F000020462946324601238DF80D80CDF80090F9
:101F1000FFF756FB00200021002603F033FA40F2C1
:101F200090050128C2F2000540F0E080FEF74CFE6B
:101F30004FF47A71C5E9010108204FF4D57103F01F
:101F400021FA012840F0A08040F24414C2F20004BB
:101F50000DF10F0A0DF10E06FF274FF0320B204650
:101F60005146324601238DF80F70CDF800B0FFF7CF
:101F700027FB20465146324601238DF80F70CDF8DD
:101F800000B0FFF71DFB20465146324601238DF875
:101F90000F70CDF800B0FFF713FB9DF80EB08DF871
:101FA0000F70204651463246012332270097FFF733
:101FB00007FBBBF1010F4FF0000640F093809DF846
:101FC0000E0040F20807AA28C2F2000740F08E80F7
:101FD000FEF7FAFDD5E90112401A904206D2A92077
:101FE0004FF0804103F0CEF90028F1D1FEF7ECFD6F
:101FF000D5E90112401A904272D23A2000210026FF
:1020000003F0C0F9002871D140F24414C2F2000478
:102010000DF1110A04AEFF274FF0320B2046514656
:10202000324601238DF81170CDF800B0FFF7C8FAE1
:102030009DF81000514602902046324601238DF84B
:102040001170CDF800B0FFF7BBFA2046514632467A
:1020500001238DF81170CDF800B0FFF7B1FA8DF8BB
:10206000117040F208072046514632460123C2F261
:102070000007CDF800B0FFF7A3FA02980C2640063F
:1020800058BF042632E000BFA920002103F07AF9EE
:10209000012602284FF001003CBF6FF056000226D7
:1020A000C4B200BFFEF790FDD5E90112401A90427C
:1020B00005D22046002103F065F90028F2D1FEF791
:1020C00083FDD5E90112401A904209D210204FF445
:1020D000007103F057F9002818BF002606E000BF82
:1020E000002603E040F20807C2F2000741F20000B8
:1020F000C4F20200102101222E700125FEF75EFDC0
:1021000040F24414C2F200040DF113010DF1120269
:10211000204601238DF81380CDF80090FFF750FA88
:1021200046B120680222016862F3C5010160387877
:1021300020F001053D70387805B0BDE8F08F000053
:102140002DE9F04786B028B10425284606B0BDE841
:10215000F08700BF40F20800C2F200001446027887
:10216000D2070FD104294FF004056DD8DFE801F044
:1021700004106C32580000BF03F07AFAB0FA80F015
:10218000450961E00325284606B0BDE8F08700BF99
:102190000920002103F0F6F8002854D10DF10600C3
:1021A000102103F077F800284DD09DF8060000F0CC
:1021B000C000402840F09A809DF80E109DF80F2036
:1021C0009DF80D00890441EA822141EA806000F512
:1021D0008060AAE040F29005C2F20005287840072E
:1021E0002CD40920002103F0CDF860BB0DF10600CE
:1021F000102103F04FF830B329789DF810008907BB
:1022000000F196809DF81110C0F3840001F00302E4
:10221000490941EAC20101300131484385E000BF6C
:1022200040F29001C2F20001097811F0060F0AD0C5
:102230000078C00708BF00F05DFA04E08D2000219F
:1022400003F0A0F8E0B1012541F20000C4F2020061
:1022500010210122FEF7B2FCFF208DF8170040F29A
:1022600044103227C2F200000DF117010DF11602E1
:1022700001230097FFF7A4F9284606B0BDE8F087D0
:1022800040F244104FF0FF084FF03209C2F2000054
:102290000DF106010DF1170201238DF80680CDF82E
:1022A00000900125FFF78CF90DF10600102102F0D6
:1022B000F1FF0028C8D040F2441A3025C2F2000ACB
:1022C0000DF117060DF11607504631463A46012327
:1022D0008DF81780CDF80090FFF772F9013D2806C0
:1022E000F2D19DF81000102100091CE09DF80B00B0
:1022F0009DF8103000F00F0000EBD3109DF80F3068
:102300009DF80E709DF80C109DF80D2003F003034E
:1023100000EB4300BB0901F0030143EA820242EAF9
:1023200081210131073801FA00F0206000258BE798
:102330009DF8111000F03F009DF81320C90941EAF3
:1023400040004FF0FF31013001EB92118840ECE783
:1023500070B582B04FF00406D8B91C46CBB140F23C
:102360000800C2F200000078C00711D140F29000CE
:10237000C2F2000000780D46000758BF5202012C3F
:102380000AD11120114602F0FDFFC8B1012627E055
:102390000326304602B070BD1220114602F0F2FF53
:1023A00030B101261CE000BF013C05F5007511D0DD
:1023B00028464FF4007102F06DFF0028F4D10AE0C6
:1023C00028464FF4007102F065FFB0FA80F046092C
:1023D00006E000BF00240C20002102F0D3FF2646B7
:1023E00041F20000C4F2020010210122FEF7E6FBD8
:1023F000FF208DF8070040F244103225C2F20000A1
:102400000DF107010DF1060201230095FFF7D8F841
:10241000002E18BF0126304602B070BD00281CBF38
:102420000120704740F20800C2F2000000787047B7
:102430002DE9F04784B000284FF0040040F08B8075
:102440001C46002B00F0878040F20800C2F200001A
:102450000D460178C9071BD1007840071CD440F213
:102460009000C2F2000000781646010758BF5602DD
:10247000012C15D11820314602F084FF00284DD1DF
:102480002846FE2103F0DEF9B0FA80F0440946E068
:10249000032004B0BDE8F087022004B0BDE8F08757
:1024A00010F0060F03D09720214602F06BFF192091
:1024B000314602F067FF88BB04E000BF013C05F530
:1024C000007507D02846FC2103F0BCF90028F5D19F
:1024D00001E000BF0024FEF777FB40F244180546F8
:1024E0004FF0FF094FF0320AC2F200080DF10B075E
:1024F0000DF10A0640463946324601238DF80B900D
:10250000CDF800A0FFF75CF89DF80A00FF2825D061
:10251000FEF75AFB401BB0F5FA7FEBD3012441F2E2
:102520000000C4F2020010210122FEF747FBFF2049
:102530008DF80F0040F244103227C2F200000DF176
:102540000F010DF10E0201230097FFF739F8002C5F
:1025500018BF0124204604B0BDE8F087FD208DF8A7
:102560000D0040F244103227C2F200000DF10D01BF
:1025700003AA01230097FFF723F8D0E7FFF746BC33
:10258000FFF7DEBDFFF7E4BEFFF748BFFFF750BF20
:10259000FEE7000040F29C01C2F200018A6882421C
:1025A00004BF00228A608A69824204BF00228A61D5
:1025B0008A6A824204BF00228A628A6B824204BF16
:1025C00000208863704700002DE9F04F81B0D0F8FB
:1025D00000808946074639B14046494602F02CF949
:1025E00002280FD201244FE0D8F80CA0BAF1000F56
:1025F00003D0D8F8140082450CD308F1140B4FF027
:10260000010A0CE00446013022D0D8F81400CA4672
:10261000844239D3BAF1020F08F1140B1ED20AF129
:1026200001050026DBF80000A91981420AD23868AA
:1026300002F002F90446013026D04CB3012C23D01D
:102640000136EFD30024204601B0BDE8F08F00BF73
:102650004FF0FF34204601B0BDE8F08F564600BF72
:10266000DBF8000001368642386828BF0226314672
:1026700002F0E2F80446013006D06CB1012C03D020
:1026800056454FF00004EBD1204601B0BDE8F08F75
:102690000AEB0600441C00E03446404621464FF059
:1026A000FF3202F06FFDB9F1000F05D020B94046AE
:1026B0004946224602F066FD40B10124012808BFC8
:1026C0004FF0FF34204601B0BDE8F08FD8E9040197
:1026D000C8F80C40023988429CBF0138C8F8100085
:1026E00098F8040040F0010088F80400204601B08A
:1026F000BDE8F08F80B582B041F20000C4F2020064
:1027000010210122FEF75AFAFF208DF8070040F24F
:1027100044104FF0320CC2F200000DF107010DF130
:1027200006020123CDF800C0FEF74AFF02B080BDCB
:102730002DE9F04F81B00446C0690425B8B10F46B9
:1027400061694FF6FF72C0F21F0201F12006964246
:102750000DD8B246D4F800906FF35F2ABAF1000F9B
:102760000AD009EB0A003030666120620025E8B229
:1027700001B0BDE8F08F00BFA1690130E06189B10F
:10278000B9F80A00104400F5C00010EA562FE8D14D
:10279000484602F051F8022810D20225E8B201B0F2
:1027A000BDE8F08FB9F80800B0EB561FD9D800206B
:1027B000E0610425E8B201B0BDE8F08F8046013049
:1027C00030D0D9F8140080450ED2A8F1020B02389F
:1027D0008345C4F8188062D2B9F80A00D9F82810E5
:1027E0000BFB00105CE000BF002FE0D0A169204689
:1027F000FFF7EAFE8046013003280FD24FF6F8714A
:10280000C0F2FF0101EAC00040F20171C0F2020112
:1028100021FA00F5E8B201B0BDE8F08F484602F0B9
:10282000E3FF28B10125E8B201B0BDE8F08F00BF99
:1028300009F130004FF40071FDF777FFD9F814006B
:10284000A8F1020B811EB9F80A208B4504D2D9F8F1
:1028500028100BFB021100E000214FF00007C9F81F
:102860002C10A2B10125484689F8035002F0BCFFA4
:1028700000287FF47CAFD9F82C00B9F80A20013782
:10288000411C9742C9F82C10EDD3D9F81400C91B8C
:10289000C9F82C1002388345C4F818809CD3002056
:1028A000E0615EE72DE9F047D0F81C800446B8F1FE
:1028B000000F5FD0D4F800A04FF6FF79C0F21F09D7
:1028C000414609E03089B0EB571F57D970193030B5
:1028D0000029676120625DD0504602F013FC002899
:1028E0005FD1216A0878002846D0C97A01F03F02FA
:1028F0000F2AA27118BF2E2830D1E16904200029C7
:102900004FD0626902F120074F454AD83D462668FC
:102910006FF35F25002DD9D1A2690131002AE16151
:10292000D0D07089484400F5C00010EA572FCDD1AF
:102930003046114601F080FF022825D3411C25D0E6
:102940007269904224D2811E023A9142A0610DD256
:102950007089B26A01FB002109E000BFE528CCD0F4
:1029600001F01F000828C8D00AE000BF0021E16183
:10297000ACE700BF042014E0042012E0042010E0C3
:102980000020BDE8F08700BF02200AE0012008E037
:10299000042006E0B8F1000F4FF0000018BFBDE8BA
:1029A000F0870021E161BDE8F0870000B0B58168E3
:1029B0000568044600206061E1B1688988B16B69EF
:1029C0008A1E023B9A4273D2AB6A02FB0030A161BD
:1029D000E061F0B96AE000BF022967D3686981420B
:1029E00064D2206801F028FF01460130F4D10120B3
:1029F000B0BD00BF2878032802D3696A0029DCD162
:102A00002889002852D0686A00210028A161E0616D
:102A10004CD005F130002062E169284602F072FBDB
:102A200050B9206A007850B1E52808D0204601212D
:102A3000FFF77EFE0028EFD004283FD0A0BBE1695D
:102A4000284602F05FFB002818BFB0BD216A0020B5
:102A5000C861886148610861C86088604860086032
:102A6000216A94F824200A7094F825204A7094F87A
:102A700026208A7094F82720CA7094F828200A71BA
:102A800094F829204A7194F82A208A7194F82B200E
:102A9000CA7194F82C200A7294F82D204A7294F886
:102AA0002E208A720121E970B0BD00BF0220B0BDA6
:102AB0000020C4E906100220B0BD00BF0720B0BD51
:102AC00040F23811C2F200010A5C002A1CBF00204B
:102AD000704701230A180B5401EB80004168107AFB
:102AE0000968084740F2381CC2F2000C0CEB800366
:102AF0005B686044007A1B691847000080B540F2AB
:102B0000381CC2F2000C0CEB800EDEF804E06044CE
:102B1000007ADEF808C0BDE88040604740F2381116
:102B2000C2F2000101EB800252680844007A516849
:102B30000847000080B540F2381CC2F2000C0CEBD4
:102B4000800EDEF804E06044007ADEF80CC0BDE8D8
:102B50008040604710B5044600F0BAFE002818BF58
:102B600010BD4CB3206838B3017829B3A188C2885E
:102B7000914221D14078FFF7D1FFC0071CD12069D5
:102B80000138032884BF022010BD40F29C01C2F22C
:102B9000000101EB0010818AB1F5807218BF0A466E
:102BA000002A18BF013A1104828204BF002181600B
:102BB0000020206010BD00BF092010BD10B558B323
:102BC0000446006840B3017831B3A188C2889142BD
:102BD00022D14078FFF7A2FFC0071DD12069B8B10C
:102BE0000138032884BF022010BD40F29C01C2F2CC
:102BF000000101EB0010818AB1F5807218BF0A460E
:102C0000002A18BF013A1104828204BF00218160AA
:102C10000020206010BD00BF092010BD2DE9F04F3D
:102C200083B016468846029002A801A9002201F04E
:102C300035F818B103B0BDE8F08F00BFDDF804B07F
:102C4000DBE90404C6F800B0A11E88421AD99BF83B
:102C500000C0BCF1010F1BD10226002706E000BF17
:102C60000137DBF81400013686424BD25846314614
:102C700001F0E2FD0028F3D0411C51D00128F0D131
:102C8000022040E0C8F80000002003B0BDE8F08F4B
:102C9000DBF820A00BF1300900270021002214E00E
:102CA0009678D57853783602107846EA054633444C
:102CB00063F31B20B0FA80F043096FF00306042091
:102CC00002443144013C1F441CD019B1BCF1020F35
:102CD000E6D10EE05846514602F014FA98B99BF836
:102CE00000C00AF1010A4FF400714A46BCF1020F1C
:102CF000D6D110886FF00106B0FA80F043090220A7
:102D0000DEE700BF00209BF80410C8F8007041F017
:102D10000101CBF810708BF8041003B0BDE8F08F00
:102D20000120F0E72DE9F04782B0804615460120EA
:102D30000129D8BF0146A1F1010900240DF10606C1
:102D40006F46C2464C451AD02846314601223B46C2
:102D500000F03AFB0098012810D19DF806000D28DC
:102D6000F2D00AF8010B0A2804F10104EAD100208C
:102D70008AF80000404602B0BDE8F087A146002076
:102D80008AF80000B9F1000F08BFC846404602B0FB
:102D9000BDE8F08710B582B0009129B34FF0FF3E37
:102DA00001EB0E0C9CF80130212B21D33A2B1FD0C4
:102DB0009CF80230212B27D33A2B25D09CF80330E6
:102DC000212B39D33A2B37D09CF804400EF1040E56
:102DD000A4F13A03B3FA83F34FEA531C212C1AD31C
:102DE0003A2CDDD117E000BF0B21084602B010BD20
:102DF0003A3BB3FA83F34FEA531C0EF1010EBCF1D8
:102E0000000F0BD122E000BF3A3BB3FA83F34FEA45
:102E1000531C0EF1020EBCF1000F17D00978A1F17E
:102E20003003092B3ED8BEF1010F4FF00B0108BF54
:102E3000002BDAD10AE000BF3A3BB3FA83F34FEA42
:102E4000531C0EF1030EBCF1000FE7D140F29C03BE
:102E5000C2F200035968A9B19C688C4204BF0024E7
:102E60009C609C698C4204BF00249C619C6A8C42DB
:102E700004BF00249C629C6B8C4204BF00249C63B2
:102E800000240C70002188B1012A01705860ACD177
:102E9000684601A9002200F001FF0146084602B081
:102EA00010BD00BF0B21084602B010BD5960084696
:102EB00002B010BD2DE9F04F8FB00E9190B102F02D
:102EC0003F0A154680460EA801A9524600F0E6FECC
:102ED000814668B10020C8F8000048460FB0BDE840
:102EE000F08F00BF4FF0090948460FB0BDE8F08FE2
:102EF000019C0E9902A8029401F058F9814638B35A
:102F00001AF01C0F00F01281B9F1000F00F0EE80F2
:102F1000B9F1040F3CD140F29C00C2F2000081687C
:102F2000002900F0F1808169002900F0ED80816ABC
:102F3000002900F0E980806B002800F0E5804FF068
:102F400012094AF0080AB9F1000F27D00CE100BFBE
:102F50009DF93700002815D440F29C00C2F2000011
:102F60008168002900F08A80029A914276D1C16876
:102F7000049A914272D10169079A91424FF000017F
:102F80006DD19EE01AF01C0F4FF0060900F0CE80C4
:102F90004AF0080AB9F1000F40F0E6801AF0080084
:102FA00000F0E28001F0B0FC0A99020A8873030C79
:102FB000070E88752020CA730B744F74CA750B7680
:102FC0004F76C8722078B1F81AB0032805D1087D71
:102FD0004A7D000440EA026083440020488322784E
:102FE000032A08BF8882C8610120BBF1000FE0708E
:102FF00000F0BE80BBF1010F00F05481029D6869B2
:10300000584540F24F81E06A5F46009004E000BFFF
:103010008642374680F0A0802846394601F00CFCF5
:103020000646013000F04281002E00F09580012E0E
:1030300000F0388128463946002202F0A3F8002823
:1030400040F03881D5E90410821E9142E0D22A79FD
:103050000131296142F001012971D9E7002182691A
:1030600082B1029B9A420ED1C269049B9A420AD154
:10307000026A079B9A4206D1012122E0012182695E
:10308000002AEED10121826A62B1029B9A420AD1E2
:10309000C26A049B9A4206D1026B079B9A4202D1F4
:1030A00002210EE00121826BEAB1029B9A4219D102
:1030B000C26B049B9A4215D1026C079B9A4211D1B4
:1030C000032115F03E0206D100EB0110808AB0F515
:1030D000807F7FF415AF1AF01C0F4FF010097FF4BA
:1030E00057AF23E0E1B11AF01C0F23D09DF80E007A
:1030F00010F0110F28D1082000EA4509B9F1000F9E
:103100003FF44CAF30E000BF02A8FFF74FFC814610
:103110004AF0080AB9F1000F3FF440AF24E000BFC5
:103120001AF01C0F4FF012097FF432AFB9F1000F03
:103130007FF4D0AE9DF80E00C10609D45FEA8A7113
:1031400016D510F0010013D04FF00709C2E600BFFA
:103150004FF00409BEE600BF0099204601F0D2FFFF
:103160008146ABF10100E060B9F1000F7FF4B2AE2F
:103170000AF008004AEAC007E06A0A9E0021C8E98E
:10318000090602A8012F88BF012101F095FC002843
:10319000C8F8100000F086802078758B032805D1D0
:1031A000307D717D000440EA01600544C8F8085094
:1031B000D6F81CB04FF00009C8F80CB0C8F82C9035
:1031C000C8F80040E08808F13006A8F8040030464E
:1031D0004FF4007188F8147088F81590C8F82090A2
:1031E000C8F81890FDF7A1FA5FEA8A607FF575AE1E
:1031F000BBF1000F3FF471AEC8F818B0608900272A
:10320000BBEB402F24D90096A2464402A7EB4029ED
:103210005E4600BFD8F80000294601F00DFB0546C8
:1032200002284FF0000038BF01204700681C08BF8B
:103230000127A6EB040B27B909EB0600A0425E4666
:10324000E8D83846002F18BF0120009E544600E001
:103250000020C8F81C50D8B958466FF35F20B8B1A9
:103260006169A81E023988421CD26189A26A00FBEA
:103270000120B8B100EB5B22C8F82020607831460D
:1032800001234FF00109FFF739FC00287FF422AE3B
:10329000002FB9467FF41EAE4FF0000948460FB02C
:1032A000BDE8F08F4FF0020914E600BF4FF00109AE
:1032B00010E600BF81460DE6F0B583B00291C8B1BB
:1032C000044602A801A90022002600F0E7FC0546FA
:1032D00060B9DDE901712046276000F067FF05460F
:1032E00000060BD0E8B2042808BF05252660E8B226
:1032F00003B0F0BD0925E8B203B0F0BD94F92F008A
:10330000B0F1FF3F04DDA079C00603D40525EDE749
:10331000A0680BE0216A3A78488B032A05D10A7D20
:10332000497D120442EA01610844A060F9882768D7
:10333000A180002161610146D0B17A8972B37D69B3
:103340008B1E023DAB4237D2BD6AA16103FB025224
:10335000E261A2B307F130012162C8B12046002129
:10336000002501F0A9FB00282061C0D11225BDE78E
:103370003978032902D3796A0029DED13889F0B17E
:10338000786A0021A161E061C8B107F130002062D4
:1033900000252561E8B203B0F0BD00BF022520681A
:1033A00001F04AFA014601300CD0022907D37869AE
:1033B0008142F4D39AE700BF0020C4E90610022539
:1033C00094E700BF012591E72DE9F04F81B0044655
:1033D0000020186004B32068C0B189460178A9B103
:1033E0001646A188C288914210D140781D46FFF749
:1033F00095FBC0070AD1677D7FB9207DC00711D139
:103400000727384601B0BDE8F08F00BF09273846CE
:1034100001B0BDE8F08F00BF0927384601B0BDE814
:10342000F08F00BFE068A169401AB04238BF06467D
:10343000002E00F03381D4F800E004F1300BCDF819
:1034400000E00EE0DDF800E04FEA4820A1692A68BC
:10345000814401440244361A4FF00007A1612A60FA
:10346000DBD00A466FF35F22A2B1C2F50070B04212
:1034700028BF30460BEB020110F00302A0F1010C53
:1034800014D011F8013B4F46012A07F8013B11D136
:10349000624650E0BEF80A005F46013800EA512B50
:1034A000BBF1000F10D0E06974E000BF02464F4648
:1034B00041E000BF11F8013B022A89F8013033D105
:1034C00009F10207821E36E0002949D0E36A002B89
:1034D00048D05A68002A00F0E7802068490A4089ED
:1034E000B1FBF0F003F12401904243D351F8183CB2
:1034F000002B00F0D980801A98423DD351F8102C4F
:10350000002A00F0D180C01A904237D351F8083C0D
:10351000002B00F0C980801A984231D351F8202B3B
:10352000C01A002AE0D1BFE011F8012B09F103070E
:1035300089F80220C21EBCF1030FFFF487AF3B1FC6
:10354000043900BF11F8047F043A03F8047F4F7870
:103550005F708F789F70CF78DF70F3D176E700BF10
:10356000A06810E02068E16901F066F9DDF800E08C
:1035700009E000BF1C3904E0143902E00C3900E016
:103580000439096808440228C0F08E80411C00F00C
:103590009180E061DEF8141002380239884280F030
:1035A0008380BEF80A10DEF8282000FB01200028E6
:1035B0007AD05FEA562800EB0B0A47D00BEB0800E5
:1035C00088429EF8010088BFA1EB0B08494652468D
:1035D0004346FFF793FA00286CD194F91400BB46D8
:1035E000B0F1FF3F3FF72EAF206AA0EB0A00404545
:1035F000BFF428AF09EB402000211BF801200BEBA2
:10360000010342545F78421857709F7810319770C9
:10361000DF78B1F5007FD7701F7917715F79577127
:103620009F799771DF79D7711F7A17725F7A577216
:103630009F7A9772DF7AD7721F7B17735F7B5773FE
:103640009F7B9773DB7BD373D7D1FBE6226ABB46A4
:1036500052451DD094F91400B0F1FF3F0DDC9EF8E7
:103660000100594601230127FFF764FAE8B9207DDC
:10367000DDF800E000F07F0020759EF8010059465B
:10368000524601230127FFF739FADDF800E060B95F
:10369000A269C4F820A06FF35F22E6E6002738464F
:1036A00001B0BDE8F08F00BF02276775384601B052
:1036B000BDE8F08F01276775384601B0BDE8F08F8F
:1036C0002DE9F041D0B104460068B8B10D4601784B
:1036D000A1B1A188C288914210D14078FFF71EFAAB
:1036E000C0070BD175B12046FFF7DCF8014604385E
:1036F00018BF084660B3BDE8F08100BF0920BDE8EF
:10370000F08100BFA168256800200029606100F0F9
:103710009180688990B16B698A1E023B9A4280F061
:103720009D80AB6A02FB00308FE000BF0229C0F031
:103730009880686981424FF00200DCD2206801F075
:103740007BF801460130F1D10120BDE8F08100BFD6
:1037500000206872E1690029CDD000202E210027C9
:103760003A460B2F98BF0B2256423B46F7182DD0F6
:10377000226AD25C202A17D17A1C27D0226A1A44E6
:103780005278202A12D1BA1C20D0226A1A44927888
:10379000202A0DD1FA1C19D0226A1F1D1A44D27892
:1037A0003B46202AE2D004E05F1C02E09F1C00E0C0
:1037B000DF1C052A08BFE522092F02BF2B180130A4
:1037C00059722B1801305A72CAE700BF291800201D
:1037D0004872236AD4F81CC0DA7AD4F800802A72BE
:1037E000DF6961692F601A7E9F7DDE7D5B7E12023C
:1037F00042EA034247EA0623120ABCF1000FEB80BB
:10380000AA803FF478AF4FF6FF73C0F21F0301F1B7
:1038100020059D4288BFBDE8F0812F466FF35F27EA
:1038200017B308EB07003030206200206561BDE867
:10383000F08100BF2878032803D3696A00297FF448
:1038400068AF288968B1686A0021A161E06140B170
:1038500005F1300020620020BDE8F0810020C4E9BD
:1038600006100220BDE8F081A1690CF10100E061C1
:1038700001B3B8F80A00184400F5C00010EA552F4B
:10388000CFD1404600F0D8FF0228EAD3411C3FF4D4
:103890005BAFD8F81410884211D2821E02398A42D6
:1038A000A06111D2B8F80A00D8F8281002FB001065
:1038B0000BE000BFB8F80800B0EB551FB1D80020EE
:1038C000E061BDE8F08100BF0020E061A9E70000F1
:1038D000F0B581B090B10446006878B1017869B163
:1038E000A188C288914209D14078FFF717F9C00733
:1038F00004D1207D410605D4002640E0092630464B
:1039000001B0F0BD256840B2B0F1FF3F2EDD00F000
:10391000FBFF616A0746284601F0F4FB064670BBD0
:10392000A06AC17A41F02001C172A1682268418376
:103930001278032A03D10A0C090E02754175E16859
:103940008775C161390AC175390C0176390E417626
:10395000002141820120E870284601F0DFFE217D30
:1039600001F0BF01217501B0F0BD00BF6878226A87
:1039700004F1300101230126FFF7DCF810B13046D5
:1039800001B0F0BD207D00F07F002075BFE7000092
:103990002DE9F04F81B0044600201860A4B12068E2
:1039A00090B18B46017879B11646A188C2889142C0
:1039B0000AD140781D46FFF7B1F8C00704D1607DF9
:1039C00030B101B0BDE8F08F092001B0BDE8F08F43
:1039D000207D800704D4072001B0BDE8F08F00BF30
:1039E000A169C843B04238BF0646002E00F04681A8
:1039F000D4F800E004F13008CDF800E013E000BF97
:103A0000217D41F080012175A169E2680144914264
:103A100088BF0A46E2602A6883440244361AA161DC
:103A20002A6000F02B810A466FF35F22A2B1C2F533
:103A30000070B04228BF304608EB020110F00302CC
:103A4000A0F1010C40D05B4613F8017B012A01F87C
:103A5000017B3DD162464CE0BEF80A00013800EA25
:103A60005127002F40F07F80002957D0E36A002BB8
:103A70005AD05A68002A00F001812068490A40891A
:103A8000B1FBF0F003F12401904255D351F8183CFA
:103A9000002B00F0F380801A98424FD351F8102C7D
:103AA000002A00F0EB80C01A904249D351F8083C3C
:103AB000002B00F0E380801A984243D351F8202B6A
:103AC000C01A002AE0D1D9E002465B4611E000BFEF
:103AD0009BF80130022A01F8013B03D10BF10203EC
:103AE000821E06E09BF802200BF1030301F8012B74
:103AF000C21EBCF1030FFFF483AF0439043B00BFC7
:103B000013F8047F043A01F8047F5F784F709F78C0
:103B10008F70DF78CF70F3D172E700BFA068A0B9D3
:103B20002046002102E000BFE1692046FEF74CFD7F
:103B3000DDF800E009E000BF1C3904E0143902E0C0
:103B40000C3900E0043909680844411C00F0A080E9
:103B5000002800F09380012800F09880A168E061BF
:103B6000002908BFA06094F91400B0F1FF3F0FDCFA
:103B70009EF80100226A41460123FEF7DBFF002880
:103B800040F08680207DDDF800E000F07F002075A9
:103B9000E069DEF8141002380239884276D2BEF8A5
:103BA0000A10DEF8282000FB012000286ED05FEA12
:103BB000562900EB070A49D007EB090088429EF816
:103BC000010088BFA1EB0709594652464B46FEF754
:103BD000B1FF00285CD1206ADDF800E0A0EB0A000C
:103BE00048452FD20BEB4020002100BF425C431818
:103BF00008F801205F7808EB010257709F781031B8
:103C00009770DF78B1F5007FD7701F7917715F79F2
:103C100057719F799771DF79D7711F7A17725F7A21
:103C200057729F7A9772DF7AD7721F7B17735F7B09
:103C300057739F7B9773DB7BD373D7D1207D00F0C5
:103C40007F0020754FEA4920DEE600BF206A50451C
:103C50000DD0E068A169814209D29EF80100414679
:103C600052460123FEF74AFFDDF800E080B9A26961
:103C7000C4F820A06FF35F22D9E600BF207D40F09A
:103C800040002075002001B0BDE8F08F022000E068
:103C90000120607501B0BDE8F08F00002DE9F0470C
:103CA00000230B600368002B44D04FF0FF3700BFA8
:103CB000DE197578212D19D33A2D17D0B578212D1D
:103CC0001CD33A2D1AD0F578212D1FD33A2D1DD0B3
:103CD00035790437A5F13A06B6FA86F67609212D2C
:103CE00001D33A2DE4D166B317E000BFA5F13A063F
:103CF000B6FA86F6760901377EB922E0A5F13A06D2
:103D0000B6FA86F676090237DEB106E0A5F13A0684
:103D1000B6FA86F6760903379EB11E78303E092E34
:103D200008D8012F4FF00B0508BF002E06D02846FB
:103D3000BDE8F0870B20BDE8F08700BF3B440133AE
:103D4000036040F29C06C2F200067468002C00F08A
:103D50000381207802F0FE050C6068B16078FEF700
:103D6000DDFEC10708D140070A21002D18BF01EA76
:103D7000E0752846BDE8F087002020800020FEF78F
:103D80009FFEC1071CBF0320BDE8F087002D1EBFAA
:103D900010F004000A20BDE8F0870020E0704FF02A
:103DA000FF30E0622046002101F0ACF900281CBF82
:103DB0000120BDE8F087B4F82E024AF6552A504596
:103DC00040F0F08194F83000E92807D0EB2840F06B
:103DD000C78094F83200902840F0C28094F86720A1
:103DE00094F8683094F86610120244F2461042EAE1
:103DF0000342C0F254001144814206D0D4F882102C
:103E000000F14C50814240F0AB800027B4F83B00F9
:103E1000B0F5007F1CBF0D20BDE8F087B4F8460068
:103E2000002808BF606D94F84030A061591E012938
:103E3000A37000F2B78194F83D20511E1140B2FAF0
:103E400082F518BF01216D092943628140F0AA81E2
:103E500094F8415094F8421045EA01212D07218140
:103E600040F0A081B4F84350002D08BF256DB4F890
:103E70003E90B9F1000F00F0958100FB03FE0EEBC0
:103E800011134B449D42C0F08D81ED1A9542C0F054
:103E90008981B5FBF2F24FF6F6754FF00308AA429E
:103EA00040F6F57538BF4FF00208AA4298BF4FF0B0
:103EB000010802F1020C07EB09053B44B8F1030FBE
:103EC000C4F814C0C4E90775A36240F03F81B4F898
:103ED0005A2011431CBF0D20BDE8F08740F2FF12AD
:103EE000E16D02EB8C02B0EB522F61623CBF0D2002
:103EF000BDE8F0874FF0FF30C4E90300B4F860007C
:103F000080210128217140F04081791C204601F078
:103F1000F9F8002840F03981B4F82E02002150450C
:103F2000217140F03281206B45F25221C4F26111BF
:103F3000884240F02A81D4F8140247F27221C6F276
:103F40004111884240F02181D4F81C02D4F81812A3
:103F5000C4E9030119E100BF0C20BDE8F08700BFF0
:103F600094F8F201002814BFD4F8F671002794F8F1
:103F70000202002814BFD4F80652002594F8120259
:103F8000002814BFD4F816924FF0000994F82202CA
:103F9000002814BFD4F826824FF000087FB3002019
:103FA000E0704FF0FF30E0622046394601F0AAF899
:103FB00028BBB4F82E02504521D194F83000E928EE
:103FC00005D0EB281BD194F83200902817D194F833
:103FD000672094F8683094F86610120244F2461094
:103FE00042EA0342C0F25400114481423FF40EAF52
:103FF000D4F8821000F14C5081423FF407AF8DB3EA
:104000000020E0704FF0FF30E0622046294601F0CA
:1040100079F838BBB4F82E02504523D194F830001B
:10402000E92805D0EB281DD194F83200902819D149
:1040300094F8672094F8683094F86610120244F2FD
:10404000461042EA0342C0F254001144814201D1B9
:104050002F46DBE6D4F8821000F14C5081422F4607
:104060003FF4D4AEB9F1000F32D00020E0704FF031
:10407000FF30E0622046494601F044F840BBB4F806
:104080002E02504524D194F83000E92805D0EB28C1
:104090001ED194F8320090281AD194F8672094F831
:1040A000683094F86610120244F2461042EA034265
:1040B000C0F254001144814202D14F46A6E600BF2F
:1040C000D4F8821000F14C5081424F463FF49EAE2E
:1040D000B8F1000F66D00020E0704FF0FF30E062D2
:1040E0002046414601F00EF800281CBF0120BDE823
:1040F000F087B4F82E02504554D194F83000E928E6
:1041000005D0EB284ED194F8320090284AD194F88B
:10411000672094F8683094F86610120244F2461052
:1041200042EA0342C0F254001144814202D14746A0
:104130006CE600BFD4F8821000F14C508142474633
:104140001CBF0D20BDE8F08760E600BF51B30CEB4B
:104150004C0302F0010707EB5303A2F6F672B2F527
:10416000704F38BF4FEA4C0303F2FF1205EB0E010C
:10417000B0EB522F61623CBF0D20BDE8F0874FF0DD
:10418000FF30C4E9030080202071308884F800806B
:1041900001303080E0802046FEF7FCF900252846FB
:1041A000BDE8F0870D20BDE8F08700002DE9F04F55
:1041B00083B0D0F8008004460D4600E0043528782E
:1041C0005C2801D02F2814D168785C2801D02F28D2
:1041D0000CD1A8785C2801D02F2809D1E8785C2878
:1041E000ECD02F28EAD0033503E000BF013500E012
:1041F00002350022A2602878202835D2802084F859
:104200002F0098F8000062610328C0F0B982D8F846
:104210002410002900F0B482B8F80A00D0B1D8F810
:1042200014308A1E023B9A4280F0D282D8F828309D
:1042300002FB00300028A161E06140F0AA82CAE2DE
:104240000229C0F0C882D8F8140081424FF0020061
:1042500080F0AA82206800F0EFFA01460130EFD129
:10426000012003B0BDE8F08F04F1240A08F1300CFE
:1042700004F12C0E4FF020304FF0050B4FF00009E9
:10428000CAF80700CAF80400CAF8000028782128F4
:1042900028D2012704200026002E00F0AD829AF8D3
:1042A0000010E52908BF8AF800B02668B9F1000FB0
:1042B00084F82F00626100F0AF807089002800F060
:1042C0007F827369A9F10201023B994280F09882D2
:1042D000B36A01FB00310029C4F81890E16140F095
:1042E000B18078E26B1C0026C7B22E2F00F05281FD
:1042F0002F2F00F04D815C2F00F04A81082E00F036
:104300004A8141B2B1F1FF3F06DD6FF0210151FA60
:1043100080F15D290ED96DE045F67010C0F6000001
:10432000384410F8800C6FF0210151FA80F15D29BA
:1043300000F26080DFE811F034025E005E005E0093
:104340005E005E005E005E003402340234025E00F5
:104350005E005E005E005E005E005E005E005E006D
:104360005E005E005E005E003402340234023402FD
:10437000340234025E005E005E005E005E005E009D
:104380005E005E005E005E005E005E005E005E003D
:104390005E005E005E005E005E005E005E005E002D
:1043A0005E005E005E005E005E0034025E0034026D
:1043B0005E005E005E005E005E005E005E005E000D
:1043C0005E005E005E005E005E005E005E005E00FD
:1043D0005E005E005E005E005E005E005E005E00ED
:1043E0005E005E005E005E005E005E0034025E0005
:1043F0005E003402A0F16101C9B21A2938BF203829
:104400000AF80600985D711C21280E46BFF46CAFB7
:104410004F1C042043E700BF3078032805D3D6F8AB
:104420002490B9F1000F7FF448AF3089002800F0E4
:10443000D281716A4FF000090029C4F81890E16137
:1044400000F0C98106F1300020623046CDE901EC70
:1044500000F058FE002840F0A5813D4412E000BF66
:104460003889B0EB591F40F2BB8100BF07EB0B004E
:10447000303020623046C4F8149000F043FE00282B
:1044800040F09081216A0878002800F0AB81C87A5A
:1044900000F03F02A271CA7A120737D40A789AF85C
:1044A00000309A4232D14A7894F825309A422DD180
:1044B0008A7894F826309A4228D1CA7894F827301E
:1044C0009A4223D10A7994F828309A421ED14A7927
:1044D00094F829309A4219D18A7994F82A309A426C
:1044E00014D1CA7994F82B309A420FD10A7A94F8F1
:1044F0002C309A420AD14A7A94F82D309A4205D14A
:10450000897A94F82E20914200F01881E1690029FF
:1045100000F06881606900F120094FF6FF70C0F279
:104520001F00814500F25E81CB4627686FF35F2B49
:10453000BBF1000F9AD1A2690131002AE1618FD04D
:1045400078894FF6FF73C0F21F03184400F5C000CE
:1045500010EA592F7FF48AAF3846114600F06CF903
:104560000228C0F03881411C3FF47AAE7969884254
:1045700080F03681821E02398A42A06104D2788995
:10458000B96A02FB001100E00021E1616EE700BFA3
:10459000771CB6E02E20C0B22E2840F02D81A8193D
:1045A0004778212F04D2B71C0420082674E600BFE8
:1045B000E34600F1020C0023F8B22E2800F01C8123
:1045C0002F2800F093805C2800F09080032B00F0EF
:1045D000138179B27246B1F1FF3F06DC45F67011E6
:1045E000C0F60001084410F8807C6FF0210050FAFA
:1045F00087F15D2900F262800620DFE811F0D50026
:104600005F005F005F005F005F005F005F00D5003C
:10461000D500D5005F005F005F005F005F005F00B6
:104620005F005F005F005F005F005F005F00D5001C
:10463000D500D500D500D500D5005F005F005F0034
:104640005F005F005F005F005F005F005F005F0072
:104650005F005F005F005F005F005F005F005F0062
:104660005F005F005F005F005F005F005F005F0052
:10467000D5005F00D5005F005F005F005F005F0056
:104680005F005F005F005F005F005F005F005F0032
:104690005F005F005F005F005F005F005F005F0022
:1046A0005F005F005F005F005F005F005F005F0012
:1046B0005F00D5005F005F00D50000BFA7F161007B
:1046C000C0B21A2838BF203FD7541CF80370964652
:1046D000212F03F10103BFF46FAFF018871C0420F2
:1046E0000022DC464FF0050BD9E500BFF018871C0F
:1046F00003F108060022DC464FF0050B01E000BF85
:104700000437E85D5C2801D02F2814D1E8194178DE
:104710005C2901D02F290BD181785C2901D02F2968
:1047200008D1C0785C28EBD02F28E9D0033702E00D
:10473000013700E002370020AEE500BF94F82F10EB
:10474000490729D4C00663D5606902996FF35F20D9
:10475000084498F80010B0F81A90032905D1017D9B
:10476000407D090441EA00608144DDE901ECC4F8C0
:10477000089000224FF020304FF0050B80E500BF7D
:10478000B8F8080038B3D8F824000021A161E0612E
:1047900008B308F130002062002003B0BDE8F08FBC
:1047A000062001E004281DD003B0BDE8F08F00BF53
:1047B000B9F1020F0FD3706981454FF00200F3D2B7
:1047C0002068494600F038F881460130F0D147E5CD
:1047D0000020C4E90610022003B0BDE8F08F00BF3E
:1047E0000020E06194F82F0040074FF0040058BF0C
:1047F000052003B0BDE8F08F062003B0BDE8F08FC0
:104800000020C4E90690022003B0BDE8F08F00BF8D
:10481000052003B0BDE8F08F80B582B0019040F272
:10482000A010C2F2000001A9012247F23053FDF7A7
:104830009BF8019802B080BDF0B581B0022931D358
:10484000054640690C4688422CD9287803282DD08B
:10485000022847D0012825D1286A04EB540700EB31
:104860005721284600F04EFC002842D17E1C6FF3F1
:104870005F27296AE81990F8307001EB5621284625
:1048800000F040FCA8BB6FF35F26A81990F8300039
:10489000E20747EA002108466FF31F3018BF0809F6
:1048A00001B0F0BD012001B0F0BD00BF286A00EBEF
:1048B000D411284600F026FCD8B904F07F0005EB9F
:1048C000800191F8323091F8300091F8312091F860
:1048D00033101B0243EA0141114461F31B2001B074
:1048E000F0BD00BF286A00EB1421284600F00AFC46
:1048F00020B14FF0FF3001B0F0BD00BFE0B205EBDA
:104900004000008E01B0F0BD002070472DE9F04F4F
:10491000ABB0044688461FA82146FEF7CDFC28B15F
:10492000014651A0FBF738FDFEE700BF19AD1FA8F7
:104930002946FEF7C5FE814650B11FA8FEF73EF995
:1049400057A04946FBF728FD48462BB0BDE8F08F3D
:104950000935B8F1000F08F101063FDD0DF1640AD9
:10496000EB4605E01FA85146FEF7AAFE002879D1C4
:104970009DF86D0000286BD09DF86C004746C0067E
:104980000ED400BF0920FBF763FE013FFAD145F6C4
:104990000230C0F600002946FBF7FEFCE2E700BF4C
:1049A00045F63A315846C0F6000122462B46FBF741
:1049B000FFFC47460920FBF74BFE013FFAD145F6C5
:1049C0000230C0F600002946FBF7E6FC58463146A7
:1049D000FFF79CFF0028C5D02DE000BF45F6023A46
:1049E000C0F6000A0DF17C0819AFEB4609E000BFE4
:1049F00050462946FBF7D0FC40463946FEF760FE9C
:104A000080BB9DF86D0018B39DF86C00C006EFD513
:104A100045F63A315846C0F6000122462B46FBF7D0
:104A2000C7FC50462946FBF7B7FC58463146FFF70E
:104A30006DFF0028E0D0814611A04946FBF7ACFC91
:104A40001FA8FEF7BBF848462BB0BDE8F08F00BFAB
:104A50001FA8FEF7B3F84FF0000948462BB0BDE899
:104A6000F08F00BF814668E7665F6F70656E6469AE
:104A700072206572726F7220282564290D0A000069
:104A8000694C697374446972416E6446696C65204F
:104A90006E6F74206F6B20282564290D0A000000BA
:104AA000665F72656164646972206572726F7220FC
:104AB000282564290D0A0000F0B540F29C0CC2F2D2
:104AC000000C0368DCF808209A420BD1DCF80C607B
:104AD0008568AE4206D1DCF810604569AE4201D16E
:104AE000002246E0DCF818E09E450BD1DCF81C40C3
:104AF0008568AC4206D1DCF820404569AC4201D162
:104B0000012236E0DCF828409C420BD1DCF82C5026
:104B10008668B54206D1DCF830504669B54201D10D
:104B2000022226E0DCF838609E420BD1DCF83C50D3
:104B30008768BD4206D1DCF840504769BD4201D1CB
:104B4000032216E04FF0000532B1BEF1000F05D090
:104B500034B19EB9032204E0002202E0012200E009
:104B600002220CEB0217BB6083684069BD82C7E973
:104B700003300CEB0210838A11B12BB10020F0BD81
:104B8000591C8182501CF0BD4FF480718182501CF1
:104B9000F0BD0000ADF5A96D43F6300A0024C4F263
:104BA000020AC4F20204FCF723F8C1AD05F10800C3
:104BB0002821FBF7DCFD00273797CDE93577CDE9D4
:104BC00033771797DAF81000012640F08050CAF8C2
:104BD0001000DAF8100000F080501790179847F294
:104BE00000001797CFF6FE70215866F38F312150E1
:104BF000205800F44040179017984FF48030C2902E
:104C00002846C196C797FCF79BF928B1EFF31080AF
:104C100072B600BFFEE700BF0F2033A9C1C14FF439
:104C2000A050CDE9360733A80021FCF77BF828B166
:104C3000EFF3108072B600BFFEE700BF0027C197F8
:104C4000DAF8000004F5C05540F04000CAF8000052
:104C5000DAF800000DF2345800F04000C190C1981D
:104C60004FF4C040CDF834054FF0010928464146C5
:104C7000CDF83895CDF83C75CDF84075FBF7BCFE06
:104C800028464FF400510022FBF798FF28464FF4C6
:104C900080410022FBF792FFC197DAF800004146FD
:104CA00040F00100CAF80000DAF8000000F001004E
:104CB000C190C1982046CDF83495CDF83875CDF81F
:104CC0003C75CDF84075FBF797FEC197DAF81400F4
:104CD0004FF0020940F01000CAF81400DAF814008E
:104CE000414600F01000C190C1984FF4C060CDF86B
:104CF00034050720CDF844052046CDF83895CDF889
:104D00003C75CDF84075FBF777FE40F2A010A4F596
:104D10007041C2F200000C234FF4E13280E88600BB
:104D2000C0E90377C0E90537C761FCF7EBFDC19720
:104D3000DAF80000414640F01000CAF80000DAF846
:104D4000000000F01000C190C1986420CDF8340537
:104D50000320CDF83895CDF84005052004F580599D
:104D6000CDF844054846CDF83C75FBF745FEC197A4
:104D7000DAF81400A4F54C4140F40050CAF81400CD
:104D8000DAF814004FF4827200F40050C190C19818
:104D900040F24410C2F200004FF40073202680E875
:104DA00086000A21C0E90377C0E90573C661C0E93E
:104DB0000877C0E90A71FCF77DFA002819BF01469F
:104DC000A9A0AFA00021FBF7E7FA1020CDF8340529
:104DD0000120CDF838050020CDF83C050320CDF8A2
:104DE00040050DF234514846FBF706FE48461021B7
:104DF0000122FBF7E3FEFCF7FDFE4FF47A70FBF7B0
:104E0000E7FDA4A0FBF72AFCA6A0FBF727FC45F6CC
:104E10003F31C0F60001C1A80122FDF7BBFF28B158
:104E20000146A9A0FBF7B8FAFEE700BFADA0FBF76B
:104E300015FC45F63F30C0F60000C0A9BFAAFDF73B
:104E4000EDFE48B1014645F63F20C0F60000FBF7F5
:104E5000A3FA00BFFEE700BFBF98C09A416940892E
:104E6000023941435043420845F699204908C0F6AB
:104E70000000FBF791FA45F63F30C0F60000002134
:104E8000FFF744FD47F67400C0F27400329046F616
:104E90006940C2F63960319047F25340C4F26D6008
:104EA000309033A830A90A22FEF704F850B1024628
:104EB00045F66B20C0F6000030A9FBF76DFA00BF85
:104EC000FEE700BF45F6DE20C0F6000030A9FBF784
:104ED00063FA45F64030C0F6000090E88E0000F11D
:104EE000100E9EE8405017911BA981E84050817F29
:104EF000808B189219938DF87A10ADF8780033A84A
:104F000017A916AB1F221A97FEF742FD40B10146C2
:104F100045F65620C0F60000FBF73EFA08E000BF59
:104F2000169945F60020C0F6000030AAFBF734FAC7
:104F300045F6603103AEC0F6000130464B22FBF768
:104F4000C2FB3046FBF7A0FB024633A816AB314646
:104F5000FEF71EFD40B1014645F65620C0F60000A2
:104F6000FBF71AFA08E000BF169945F60020C0F6D4
:104F7000000030AAFBF710FA33AE3046FDF7EAFD29
:104F800030A930460122FDF795FF48B1024645F6AB
:104F90008220C0F6000030A9FBF7FEF9FEE700BF53
:104FA00045F61A2030AEC0F600003146FBF7F4F9A2
:104FB00045F6F010C0F600003146FBF7EDF90DF1B3
:104FC000020033AA0A21FDF7ADFE78B10FF22418D2
:104FD0000DF1020733AE40463946FBF7DDF938469E
:104FE0000A213246FDF79EFE0028F4D19DF8E1002B
:104FF00010B141A0FBF732FB36983999814205D1B7
:1050000045F60730C0F60000FBF728FB33A8FDF794
:10501000A1FD45F62930C0F60000FBF71FFB45F661
:105020003F31C0F60001002000220026FDF7B2FE4D
:105030000AE000BF20460121FBF7B2FD002808BFAF
:1050400006466420FBF7C4FC20460121FBF7A8FDBF
:105050000028EFD0002EEDD128464FF40051FBF789
:10506000A5FD0126EDE700BF53504920696E697424
:105070002070726F626C656D2025750D0A0000004E
:1050800053504920696E69742073756363202575D8
:105090000D0A000053746172742050726F67726160
:1050A0006D0D00002D2D2D2D2D2D205344206361DD
:1050B000726420696E69742073656374696F6E2011
:1050C0002D2D2D2D2D2D0D00665F6D6F756E7420AD
:1050D0006661696C65642C206572726F723A202576
:1050E000640D0A00665F6D6F756E7420737563637F
:1050F0000D00000025730000665F6572726F720D0F
:10510000000000002DE9F041C66A8E4204BF002075
:10511000BDE8F0810446C0780D4610B3607804F114
:1051200030084146324601230127FDF703FD18B13F
:105130003846BDE8F08100BF216AA269711A0020DB
:105140009142E0700DD2A778022F0AD3A16960784E
:105150000E44414632460123FDF7ECFC013F012F8E
:10516000F4D8607804F130012A460123FDF7C6FC2B
:10517000074600281CBF4FF0FF350127E56238467F
:10518000BDE8F0812DE9F047022921D305464069A9
:105190000E4688421CD92878144603281CD00228C1
:1051A0003CD0012814D1286A06EB560700EB5721A2
:1051B0002846FFF7A7FF00283FD105F1300807F187
:1051C000010A16F001096FF35F2739D1E0B23DE023
:1051D0000220BDE8F08700BF286A00EBD611284600
:1051E000FFF790FF002818BFBDE8F08706F07F00AA
:1051F00005EB800090F8331004F0706201F0F001CC
:1052000042EA0161220A80F83120220C090E80F85E
:10521000304080F8322080F833100AE0286A00EB32
:1052200016212846FFF76EFF38B9F0B205EB4000B3
:105230000486EE1C012030700020BDE8F08700BF1E
:1052400018F8070000F00F0064F30B10296A08F843
:10525000070001202E4606F8030F01EB5A212846CD
:10526000FFF750FF0028E8D1B9F1000F6FF35F2A74
:105270000AD118F80A00C4F3032100F0F000084432
:1052800008F80A00D6E700BFC4F3071008F80A00C0
:10529000D0E700002DE9F04F83B00C468046FBF7C5
:1052A00093FC40F2900640F24419C2F20006C82175
:1052B0004FF0FF0A4FF0320BC2F200090DF1050763
:1052C00001ADC6E9010100BF484639462A4601231F
:1052D0008DF805A0CDF800B0FCF772F99DF8040038
:1052E000FF2807D1FBF770FCD6E90112401A904263
:1052F000EAD341E0FE283FD1F4B1A8F1010540F224
:1053000044184FF0FF094FF0320AC2F200080DF1C5
:1053100007060DF1060700BF404631463A46012315
:105320008DF80790CDF800A0FCF74AF99DF806002B
:10533000013C05F8010FEFD140F24415C2F200051F
:10534000FF2632270DF1090102AA284601238DF814
:10535000096000970124FCF733F90DF10B010DF101
:105360000A02284601238DF80B600097FCF728F904
:10537000204603B0BDE8F08F0024204603B0BDE80E
:10538000F08F00002DE9F04182B0044640B2B0F148
:10539000FF3F0D4620DD0C2C29D041F20000C4F265
:1053A000020010210122FBF709FC40F24410FF2605
:1053B0003227C2F200000DF107010DF106020123B0
:1053C0008DF807600097FCF7FBF800F051F970B911
:1053D000F0B202B0BDE8F08137200021FFF7D2FF24
:1053E00006460128F4D804F07F040C2CD5D140F2F5
:1053F000441644F04000C2F200068DF807004FF05A
:1054000032080DF107010DF1060230460123CDF8F7
:1054100000800127FCF7D4F8280E8DF807000DF165
:1054200007010DF1060230460123CDF80080FCF79C
:10543000C7F8280C8DF807000DF107010DF10602E1
:1054400030460123CDF80080FCF7BAF8280A8DF821
:1054500007000DF107010DF1060230460123CDF8DA
:105460000080FCF7ADF80DF107010DF106023046A2
:1054700001238DF80750CDF80080FCF7A1F8002C2F
:1054800008BF6FF06A070DF107010DF10602304603
:105490000123082C08BF6FF078078DF80770CDF84E
:1054A0000080FCF78DF80C2C0FD1FF208DF8070041
:1054B00040F24410C2F200000DF107010DF10602A6
:1054C0000123CDF80080FCF77BF840F24410FF2464
:1054D000C2F200000DF107010DF1060201238DF863
:1054E0000740CDF80080FCF76BF89DF90660B6F137
:1054F000FF3F3FF76DAF40F244108DF80740322474
:10550000C2F200000DF107010DF106020123009423
:10551000FCF756F89DF90660B6F1FF3F3FF758AF2C
:1055200040F24410FF25C2F200000DF107010DF119
:10553000060201238DF807500094FCF741F89DF90D
:105540000660B6F1FF3F3FF743AF40F2441032240C
:10555000C2F200000DF107010DF1060201238DF8E2
:1055600007500094FCF72CF89DF90660B6F1FF3F58
:105570003FF72EAF40F24410FF25C2F200000DF1BC
:1055800007010DF1060201238DF807500094FCF786
:1055900017F89DF90660B6F1FF3F3FF719AF40F2EB
:1055A00044103224C2F200000DF107010DF1060291
:1055B00001238DF807500094FCF702F89DF906606E
:1055C000B6F1FF3F3FF704AF40F24410FF25C2F2AF
:1055D00000000DF107010DF1060201238DF80750BF
:1055E0000094FBF7EDFF9DF90660B6F1FF3F3FF732
:1055F000EFAE40F244103224C2F200000DF1070178
:105600000DF1060201238DF807500094FBF7D8FF37
:105610009DF90660B6F1FF3F3FF7DAAE40F2441065
:10562000FF25C2F200000DF107010DF10602012372
:105630008DF807500094FBF7C3FF9DF90660B6F1A3
:10564000FF3F3FF7C5AE40F244103227C2F20000E0
:105650000DF107010DF1060201238DF807500097A7
:10566000FBF7AEFF9DF80660F0B202B0BDE8F08136
:105670002DE9F04F83B041F20008C4F20208404621
:1056800010210022FBF79AFA40F24419C2F20009F5
:105690004FF0FF0A4FF0320B0DF107010DF106023A
:1056A000484601238DF807A0CDF800B0FBF788FF2E
:1056B000FBF78AFA06460DF1090702AC012500BF87
:1056C00048463946224601238DF809A0CDF800B09E
:1056D000FBF776FF9DF80800FF281BD0FBF774FA54
:1056E000801BB0F5FA7FEBD3404610210122FBF777
:1056F00065FAFF208DF80B0040F244103227C2F209
:1057000000000DF10B010DF10A0201230097FBF7D8
:1057100057FF0025284603B0BDE8F08FF0B581B0F3
:105720000446C07818B3E56A607804F13006314663
:105730002A4601230127FDF7FDF918B1384601B0CB
:10574000F0BD00BF216AA269691A00209142E07091
:105750000DD2A778022F0AD3A16960780D44314693
:105760002A460123FDF7E6F9013F012FF4D82078FE
:1057700003282DD1207901282AD104F134004FF4D7
:10578000FD71FAF7D2FF45F25220C4F261102546AE
:1057900045F8300F4AF65520A5F8FE0147F2722071
:1057A000C6F24110C5F8E40155E909100123C5F816
:1057B000E80155F8140CC5F8EC11421C15F82F0C33
:1057C000294645F8042CFDF7B5F9002005F82C0C06
:1057D000607800210022FDF785F90746002818BFF0
:1057E0000127384601B0F0BDF0B581B00446C0785D
:1057F000F8B1E56A607804F1300631462A460123A3
:105800000127FDF797F9C8B9206AA169281A00276E
:105810008842E77012D2A778022F0AD3A169607874
:105820000D4431462A460123FDF784F9013F012F3B
:10583000F4D80027384601B0F0BD00BF384601B0AB
:10584000F0BD00002DE9F04F85B089468046FBF79A
:10585000BBF940F2441706464FF0FF0A4FF0320BF7
:10586000C2F200070DF10B040DF10A05384621467E
:105870002A4601238DF80BA0CDF800B0FBF7A0FE5F
:105880009DF80A00FF2807D0FBF79EF9801BB0F5B2
:10589000FA7FEBD348E000BF40F244103224C2F25A
:1058A00000000DF10D0103AA01238DF80D90009465
:1058B000FBF786FEB9F1FD0F32D040F24415C2F27B
:1058C0000005284641464FF400724FF0FF33FBF7C6
:1058D0004DFDFF260DF10F010DF10E0228460123AB
:1058E0008DF80F600094FBF76BFE0DF1110104AA17
:1058F000284601238DF811600094FBF761FE0DF13D
:1059000013010DF11202284601238DF81360009453
:10591000FBF756FE9DF8120000F01F00052803D18A
:10592000012005B0BDE8F08F002005B0BDE8F08F84
:1059300030380A2801D20120704700207047F1EE6C
:10594000100A4FF6FF71C0F2C03120EA010040F0AA
:105950004070E1EE100A70470000000000000000F7
:105960000102030406070809000000000102030405
:1059700043554541414141434545454949494141D7
:105980004592924F4F4F5555594F554F9C4F9E9FA3
:1059900041494F55A5A5A6A7A8A9AAABACADAEAFE6
:1059A000B0B1B2B3B4414141B8B9BABBBCBDBEBFDE
:1059B000C0C1C2C3C4C54141C8C9CACBCCCDCECF7A
:1059C000D1D145454549494949D9DADBDCDD49DFD3
:1059D0004FE14F4F4F4FE6E8E85555555959EEEF17
:1059E000F0F1F2F3F4F5F6F7F8F9FAFBFCFDFEFF3F
:1059F0004461746120696E2025733A0D0A0D0A0016
:105A000057726F7465202564206279746573207401
:105A10006F2027257327210D0A0053756363657373
:105A20007366756C79206F70656E2027257327204B
:105A3000666F722072656164696E67210D0A006687
:105A40005F67657466726565206572726F72202883
:105A50002564290D0A00665F777269746520657296
:105A6000726F7220282564290D0A00665F6F7065C9
:105A70006E202573206572726F7220282564290DAF
:105A80000A00665F6F70656E202573206572726F05
:105A90007220282569290D0A00534420636172642D
:105AA0002073746174733A0D0A2531306C75204B84
:105AB000694220746F74616C20647269766520732A
:105AC000706163652E0D0A2531306C75204B69427B
:105AD00020617661696C61626C652E0D0A005375F8
