:020000040800F2
:10000000780600204D020008690D0008610D000807
:10001000650D0008450400088D0D00080000000073
:10002000000000000000000000000000710D00084A
:1000300049040008000000006D0D0008750D00085F
:1000400067020008670200086702000867020008EC
:1000500067020008670200084D04000867020008F4
:1000600067020008670200086702000867020008CC
:1000700067020008670200086702000867020008BC
:1000800067020008670200086702000867020008AC
:10009000670200086702000867020008670200089C
:1000A000670200086702000867020008670200088C
:1000B000670200086702000867020008670200087C
:1000C000670200086702000867020008670200086C
:1000D000670200086702000867020008670200085C
:1000E000670200086702000867020008670200084C
:1000F000670200086702000867020008670200083C
:10010000670200086702000867020008670200082B
:10011000670200086702000867020008670200081B
:10012000670200086702000867020008670200080B
:1001300067020008670200086702000867020008FB
:1001400067020008670200086702000867020008EB
:1001500067020008670200086702000867020008DB
:1001600067020008670200086702000867020008CB
:10017000670200086702000867020008000000002C
:1001800067020008670200086702000867020008AB
:10019000670200086702000867020008670200089B
:1001A00067020008670200086702000800F002F812
:1001B00000F03CF80AA090E8000C82448344AAF1C5
:1001C0000107DA4501D100F031F8AFF2090EBAE8C3
:1001D0000F0013F0010F18BFFB1A43F0010318477B
:1001E000A8100000C8100000103A24BF78C878C1D9
:1001F000FAD8520724BF30C830C144BF04680C602D
:10020000704700000023002400250026103A28BF74
:1002100078C1FBD8520728BF30C148BF0B60704778
:100220001FB501F01BF81FBD10B510BD00F0D0F8D0
:100230001146FFF7F5FF00F0ABFD00F0EEF803B458
:10024000FFF7F2FF03BC00F0F5F800000948804713
:1002500009480047FEE7FEE7FEE7FEE7FEE7FEE7A8
:10026000FEE7FEE7FEE7FEE704480549054A064BC0
:1002700070470000790D0008AD01000878000020EB
:1002800078060020780200207802002053EA020C51
:1002900000F069802DE9F04B4FF00006002B1FBFE6
:1002A000B3FA83F503FA05F424FA05F65E4012BFAB
:1002B0001643B2FA82F502FA05F4C5F120051EBF15
:1002C00022FA05FC44EA0C04203556EA044C4FEAB5
:1002D000144418BF641C4FF000084FF0000990420E
:1002E00071EB030C39D3002919BFB1FA81F701FA78
:1002F00007F6B0FA80F700FA07F6C7F120071EBF2D
:1003000020FA07FC46EA0C062037B6FBF4FCA7EB04
:100310000507103F07F01F0BCBF120062CFA06F65D
:100320000CFA0BFB44BFB3460026202FA4BF5E4649
:100330004FF0000B5BEA060C08BF4FF0010B19EB06
:100340000B0948EB0608ABFB027C06FB02CC0BFB5F
:1003500003CCC01B71EB0C01C1E70B4602464146C2
:100360004846BDE8F08B13B5084318BF4FF0FF3087
:100370000146AFF30080BDE81C4070474FF000021B
:1003800000B5134694469646203922BFA0E80C508B
:10039000A0E80C50B1F12001BFF4F7AF090728BF66
:1003A000A0E80C5048BF0CC05DF804EB890028BFE2
:1003B00040F8042B08BF704748BF20F8022B11F00B
:1003C000804F18BF00F8012B704770477047704787
:1003D000754600F02BF8AE4605006946534620F0FE
:1003E0000700854618B020B5FFF73EFFBDE8204066
:1003F0004FF000064FF000074FF000084FF0000BE1
:10040000AC46ACE8C009ACE8C009ACE8C009ACE84F
:10041000C00921F007018D46704710B50446AFF3BF
:1004200000802046BDE81040FFF709BF0048704734
:100430001000002001491820ABBEFEE72600020094
:1004400070470000FEE7000070470000012000F048
:1004500021B80000B0B5044600F00AF9054640F2A4
:100460000000C2F200000078611C18BF044400BF05
:1004700000F0FEF8401BA042FAD3B0BD012818BF1F
:10048000704741F60000C4F202004FF4005100F042
:10049000E1B8000043F61441C4F201010A680242C7
:1004A00014BF08607047FFF7E9BF00002DE9F04F67
:1004B00082B000F13E4242F2004502F1FF77C4F201
:1004C00002050A2243F6004E4FEAB726A84208BFAB
:1004D0000922C4F2010E092E38BF4FEAB7220125C6
:1004E000002600274FF00008009208E008F10108FC
:1004F0000437B8F1100F06F1020600F0A7800C686F
:1005000005FA08F914EA090FF0D0D1F804B0032273
:100510000BF0030CACF10104B240012C6FEA020AAB
:1005200010D88268CC6802EA0A02B4402243826092
:100530004268CBF3001422EA090204FA08F42243C9
:10054000426005E0BCF1030F02D14FF0030C20E044
:10055000C2688C6802EA0A02B4402243BCF1020F6E
:10056000C26016D16FF0030202EA58020244D2F8C8
:1005700020C007F01C050F230C69AB402CEA0303D5
:1005800004FA05F52B431362D1F804B001250BF0F2
:10059000030C02680CFA06F302EA0A021A431BF47F
:1005A000403F0260A2D0002243F644030192C4F20D
:1005B00002031A684FF6084C42F480421A601A6827
:1005C000CFF6FF7C02F480420192019A28F00302E8
:1005D000724452F80C3007F00C050F24AC40A343D2
:1005E000009C04FA05F52B4342F80C30DEF8082095
:1005F0004B6842EA090543F60C4CDC0258BF22EA7C
:100600000905CEF80850C4F2010CDCF800209C0269
:1006100042EA090558BF22EA0905CCF80050DEF885
:1006200004209C0342EA090558BF22EA0905CEF8D6
:100630000450DEF80020DB0342EA090558BF22EA35
:100640000905CEF80050012550E700BF02B0BDE813
:10065000F08F0000426902EA0103914341EA03413D
:1006600081617047002A08BF09048161704700005A
:1006700040F27000C2F200000068704740F20000D3
:1006800040F27001C2F20000C2F2000100780A6874
:10069000104408607047000080B543F60040C4F283
:1006A0000200016841F400710160016841F4806159
:1006B0000160016841F480710160032000F08AF854
:1006C000002000F005F800F027F8002080BD0000B1
:1006D00070B540F20006C2F2000640F2080132781E
:1006E000C2F200014FF47A730968B3FBF2F20446D8
:1006F000B1FBF2F1084600F01DFB0F2C4FF0010595
:1007000008D838B94FF0FF3021460022002500F00C
:1007100035F87460284670BD82B0002043F6400171
:100720000190C4F202014A6842F480424A604A6879
:1007300002F480420192019A0090086840F08050D3
:100740000860086800F0805000900098072002B010
:1007500000F040B8002848BF7047C1B200F01F0049
:10076000012202FA00F04EF20012CEF2000242EA3A
:10077000D10121F0030108607047000010B54EF66A
:100780000C5CCEF2000CDCF80030C3F3022E8EF0CD
:100790000704042C28BF0424BEF103034FF0FF3EDE
:1007A0000EFA04F438BF0023A14399400EFA03F374
:1007B0009A43114300F00F0200F160430901043A2B
:1007C00003F564436244002848BF02F10C0319702A
:1007D00010BD00004EF60C51CEF200010A684FF633
:1007E000FF031A4060F30A2242F0806040F0FD707F
:1007F000086070472DE9F041002800F08B8043F637
:100800000808C4F202080446D8F8F8030D4600F0C0
:100810000F00884207D288F8F853D8F8F80300F0A0
:100820000F00A84276D12068810717D5410705D56A
:10083000D8F8001041F4E051C8F80010010705D5C0
:10084000D8F8001041F46041C8F80010D8F8001042
:10085000A26821F0F0011143C8F80010C0073FD191
:10086000D8F8F80300F00F00A84207D988F8F85329
:10087000D8F8F80300F00F00A8424BD120684107D8
:1008800007D5D8F80010E26821F4E0511143C8F808
:100890000010000708D5D8F80000216920F4604056
:1008A00040EAC100C8F8000000F054F8D8F8001081
:1008B00041F27622C1F30311C0F60002515C40F20E
:1008C000080220FA01F140F20400C2F200000068C0
:1008D000C2F200021160FFF7FBFE0020BDE8F081CC
:1008E0006068811E022907D258F8081C89015CBF84
:1008F0000120BDE8F08111E0012807D158F8081C5B
:1009000089035CBF0120BDE8F08107E058F8081CAE
:10091000890703D40120BDE8F08100BFD8F800109A
:1009200021F003010843C8F80000FFF7A1FE0646C6
:1009300041F28837D8F80000616800F00C00B0EB95
:10094000810F8DD0FFF794FE801BB842F2D90320AF
:10095000BDE8F08110B543F60404C4F202046068F7
:1009600000F00C0142F200400829C0F2F40007D068
:10097000042918BF10BD41F20020C0F27A0010BD5A
:10098000216801F03F02216823684902C3F38811FE
:1009900006D4A1FB00010023FFF778FC07E000BFAD
:1009A00041F20020C0F27A004843B0FBF2F0216827
:1009B0000222C1F3014102EB4101B0FBF1F010BD95
:1009C0002DE9F04182B0002868D00446007843F653
:1009D0000006C007C4F202060BD0B06800F00C009D
:1009E000042840F09F803068800302D560680028AA
:1009F00054D0207880071AD5B06810F00C0F09D0B9
:100A0000B06800F00C00082840F0A6807068400232
:100A100000F1A2803068800702D5E06801283DD14E
:100A20003068216920F0F80040EAC1003060207889
:100A3000000737D4207840074CD4A56955B3B06877
:100A400000F00C00082840F0BB80012D26D0706813
:100A5000E16900F480028A4220D1216A00F03F025D
:100A60008A421BD147F6C071626A0140B1EB821F16
:100A700014D1A16A4FF6FF73C903994300F44032C1
:100A8000A1F580318A4209D1E16A00F07060B0EBD3
:100A9000016F03D1002002B0BDE8F081012002B057
:100AA000BDE8F0816069002840F20000C4F24720F0
:100AB00076D00121C0F8801EFFF7DAFD054600BFA1
:100AC000706F8007B6D4FFF7D3FD401B0228F7D91B
:100AD000DDE000BF306C10F080580AD1002001909A
:100AE000306C40F080503064306C00F080500190E9
:100AF000019847F20007C4F200073868C00541D4E6
:100B0000386840F480703860FFF7B2FD054600BFDA
:100B10003868C00536D4FFF7ABFD401B0228F7D973
:100B2000B5E000BFB06800F00C00082803D1706881
:100B300040023FF558AF6068B0F5803F07D0B0F590
:100B4000A02F40F08D80306840F480203060306805
:100B500040F4803030608DE0E068002852D0002002
:100B6000C4F2472001210160FFF782FD054600BF66
:100B7000306880073FF554AFFFF77AFD401B02282D
:100B8000F6D984E0A068012805D005284ED1306F41
:100B900040F004003067306F40F0010030674FE0F4
:100BA0000021C0F8801EFFF763FD0546706F8007C7
:100BB0007FF540AFFFF75CFD401B0228F6D966E0E9
:100BC0000027C4F2472700203866FFF751FD022DA9
:100BD00005460BD1306880015ED5FFF749FD401B0B
:100BE00002284FF00300F5D955E700BF30688001B7
:100BF0007FF550AFFFF73CFD401B02284FF003008C
:100C0000F4D948E70020C4F2472000210160FFF733
:100C10002FFD0546306880077FF509AFFFF728FDF7
:100C2000401B02284FF00300F4D934E7316F00284D
:100C300021F001013167316F21F0040131674DD09E
:100C4000FFF716FD054641F2883700BF306F800779
:100C500056D4FFF70DFD401BB842F7D917E000BF8F
:100C60003168002821F480313160316821F480211D
:100C700031604FD0FFF7FCFC054600BF30688003B1
:100C80003FF5B7AEFFF7F4FC401B6428F6D903200C
:100C900002B0BDE8F08100BF04F11C052FCD084370
:100CA00040EA8210D9034FF6FF729143A1F58031DB
:100CB00040EA05600843706001203866FFF7D8FC01
:100CC000044600BF306880013FF5E4AEFFF7D0FC7A
:100CD000001B02284FF00300F4D9DCE6FFF7C8FC44
:100CE000054641F2883700BF306F800708D5FFF70F
:100CF000BFFC401BB8424FF00300F5D9CBE600BF64
:100D0000B8F1000F7FF499AE306C20F08050306461
:100D100093E600BFFFF7ACFC054600BF30688003D8
:100D20007FF567AEFFF7A4FC401B64284FF003007B
:100D3000F4D9B0E6411E0020B0EB116F1CBF0120BA
:100D400070474EF21002CEF2000251604EF623516F
:100D5000CEF20001F0230B70072190601160704704
:100D6000FEE70000FEE70000FEE70000704700001D
:100D700070470000FFF782BC4EF68850CEF20000AC
:100D8000016841F47001016070470000FEE7000057
:100D900096B043F6300740F2000BC4F20207C4F2EB
:100DA000020BFFF779FC0AAD05F108002821FFF7D7
:100DB000E5FA00240994CDE90744CDE905440494FB
:100DC0003869012640F080503861386900F0805061
:100DD0000490049847F200000494CFF6FE705BF88C
:100DE000001066F38F314BF800105BF8000000F440
:100DF0004040049004984FF480300B9028460A96A7
:100E00001094FFF7DDFD28B1EFF3108072B600BF3C
:100E1000FEE700BF0F20CDE905064FF4C050089053
:100E20004FF4A050099005A800210794FFF7E2FCB9
:100E300020B1EFF3108072B6FEE700BF00240A94E1
:100E40003868162140F0040038603868002200F04D
:100E500004000A900A980A9438684FF0160940F086
:100E600020003860386800F020000A900A980A9440
:100E7000386840F080003860386800F080000A90E0
:100E80000A980A94386840F001003860386800F029
:100E900001000A900A980A94386840F0020038600D
:100EA000386800F002000A900A980A94386840F006
:100EB00040003860386800F040000A900A980A94B0
:100EC000386840F010003860386800F010000A9070
:100ED0000A980A94386840F008003860386800F0D2
:100EE00008000A900A980BF500600290FFF7BAFB21
:100EF000584680210022FFF7B5FB0BF540604FF408
:100F0000405100220390FFF7ADFB0BF5C0504FF4AA
:100F1000C04100220190FFF7A5FB4FF63F000A9069
:100F200002200B9003200D900C200BF5A0550AAE6B
:100F30000E90284631464FF002080C94FFF7B6FA9F
:100F40004FF46070CDE90A0805200E90284631461E
:100F5000CDE90C44FFF7AAFA4FF48060CDE90A0806
:100F60000E200E90284631464FF00208CDE90C4481
:100F7000FFF79CFA01200A900320029D0D900C209F
:100F80000E90284631464FF0010ACDE90B84FFF759
:100F90008DFA28463146CDE90A9A4FF00109CDE98C
:100FA0000C44FFF783FA48F207000A904FF49018B8
:100FB00058463146CDE90B84FFF778FA41F65800E0
:100FC0000A9002200B900E200E90584631464FF0AA
:100FD000020ACDE90C44FFF769FA8020CDE90A093D
:100FE00058463146CDE90C44FFF760FA2020CDE9A0
:100FF0000A08284631460C94FFF758FA09200BF5E9
:1010000080654FF003080E9028463146CDE90A8AE4
:101010004FF00209CDE90C44FFF748FA0420CDE96E
:101020000A04284631460C940095FFF73FFACDE9B3
:101030000C48DDF8048048F23310CDE90A094FF07E
:101040000C0A40463146CDF838A0FFF72FFA4FF68C
:101050008370CDE90A090320CDE90D0A0BF5805014
:1010600031460C944FF00C0AFFF720FA4FF47060F1
:10107000CDE90A090E200E9028463146CDE90C44F0
:10108000FFF714FA4FF45040CDE90A0928463146DB
:10109000CDE90C44CDF838A04FF00C0AFFF706FA62
:1010A0004FF40050CDE90A04284631460C94FFF76E
:1010B000FDF94CF20370039DCDE90A090320CDE947
:1010C0000D0A284631460C94FFF7F0F94FF4006002
:1010D000CDE90A04284631460C94FFF7E7F94FF4AE
:1010E00040500A900120CDE90B04284631460D946A
:1010F000FFF7DCF94FF40C600A904FF002090E255F
:1011000040463146CDE90B940D940E95FFF7CEF98C
:101110000E95029D4FF49860CDE90A0928463146A4
:10112000CDE90C44FFF7C2F94FF400700A904FF07C
:1011300012094FF0040A28463146CDE90B940D946C
:10114000CDF838A0FFF7B2F94FF48070CDE90A0965
:1011500058463146CDE90C44CDF838A0FFF7A6F942
:101160004FF4C0600A9003200D90072002250E90D6
:1011700058463146CDE90B54FFF798F94820CDE9A0
:101180000A050E200E9003983146CDE90C44FFF776
:101190008DF94FF4A050CDE90A0509200E90404684
:1011A00031464FF0020ACDE90C44FFF77FF94FF4C6
:1011B000C0400A904FF0010940463146CDE90B94FA
:1011C0000D944546FFF772F96020CDE90A0A032025
:1011D0000D900C200E90009831460C94FFF766F9A4
:1011E0000A9438680AAE40F04000386038683146EA
:1011F00000F040000A900A984FF40050CDE90A0927
:1012000028464FF00108CDE90C44FFF74FF9284676
:101210004FF400510122FFF725FA05943868314652
:1012200040F001003860386800F001000590059832
:101230004FF48810CDE90B045846CDF828800D9462
:10124000FFF734F9062000210022FFF797FA062065
:10125000FFF780FA6420FFF7FDF8FBE7F1EE100AD4
:101260004FF6FF71C0F2C03120EA010040F040703B
:10127000E1EE100A704700000000000000000102CB
:101280000304060708090000A81200080000002057
:1012900010000000E8010008B8120008100000204B
:1012A00068060000040200080100000010000000B1
:0812B0000024F400000000001E
:04000005080001AD41
:00000001FF
