:020000040800F2
:100000000000032019100008E1300008E330000868
:10001000E5300008E7300008E93000080000000083
:10002000000000000000000000000000D195000862
:10003000EB3000080000000061960008F18E000817
:1000400069100008691000086910000869100008AC
:10005000691000086910000869100008691000089C
:10006000691000086910000869100008691000088C
:10007000691000086910000869100008691000087C
:10008000691000086910000869100008691000086C
:10009000691000086910000869100008691000085C
:1000A000691000086910000869100008691000084C
:1000B000ED30000869100008691000086910000898
:1000C000691000086910000869100008691000082C
:1000D000691000086910000869100008691000081C
:1000E000691000086910000869100008691000080C
:1000F00069100008691000086910000869100008FC
:1001000069100008691000086910000869100008EB
:100110006910000869100008F9300008053100086E
:1001200069100008691000086910000869100008CB
:1001300069100008691000086910000869100008BB
:1001400069100008691000086910000869100008AB
:10015000691000086910000869100008691000089B
:10016000691000086910000869100008691000088B
:1001700069100008691000086910000800000000FC
:10018000691000086910000869100008691000086B
:10019000691000086910000869100008691000085B
:0C01A0001D31000869100008293100081A
:1001B00010B5054C237833B9044B13B10448AFF3A1
:1001C00000800123237010BDD40200200000000035
:1001D000C877020808B5034B1BB103490348AFF3C6
:1001E000008008BD00000000D8020020C877020887
:1001F000034613F8012B002AFBD1181A0138704767
:1002000001F0FF01102A2BDB10F0070F08D010F8C7
:10021000013B013A8B422DD010F0070F42B3F6D1CB
:10022000F0B441EA012141EA014122F007047FF0E4
:1002300000070023F0E80256083C85EA010586EA3B
:10024000010685FA47F5A3FA87F586FA47F6A5FA77
:1002500087F68EB9EED1F0BC01F0FF0102F0070283
:1002600032B110F8013B013A83EA010313B1F8D12E
:100270000020704701387047002D06BF354603380F
:10028000073815F0010F07D1013015F4807F02BF48
:10029000013015F4C03F0130F0BC0138704700BF99
:1002A00081F0004102E000BF83F0004330B54FEA27
:1002B00041044FEA430594EA050F08BF90EA020F94
:1002C0001FBF54EA000C55EA020C7FEA645C7FEA27
:1002D000655C00F0E2804FEA5454D4EB5555B8BF4A
:1002E0006D420CDD2C4480EA020281EA030382EABB
:1002F000000083EA010180EA020281EA0303362D4D
:1003000088BF30BD11F0004F4FEA01314FF4801C1F
:100310004CEA113102D0404261EB410113F0004F31
:100320004FEA03334CEA133302D0524263EB4303E8
:1003300094EA050F00F0A780A4F10104D5F1200E86
:100340000DDB02FA0EFC22FA05F2801841F10001E1
:1003500003FA0EF2801843FA05F359410EE0A5F1B5
:1003600020050EF1200E012A03FA0EFC28BF4CF0E6
:10037000020C43FA05F3C01851EBE37101F000459C
:1003800007D54FF0000EDCF1000C7EEB00006EEBA9
:100390000101B1F5801F1BD3B1F5001F0CD3490833
:1003A0005FEA30004FEA3C0C04F101044FEA44528A
:1003B00012F5800F80F09A80BCF1004F08BF5FEA11
:1003C000500C50F1000041EB045141EA050130BDF1
:1003D0005FEA4C0C404141EB0101013C28BFB1F503
:1003E000801FE9D291F0000F04BF01460020B1FA4E
:1003F00081F308BF2033A3F10B03B3F120020CDA21
:100400000C3208DD02F1140CC2F10C0201FA0CF0FE
:1004100021FA02F10CE002F11402D8BFC2F1200C63
:1004200001FA02F120FA0CFCDCBF41EA0C01904019
:10043000E41AA2BF01EB0451294330BD6FEA040462
:100440001F3C1CDA0C340EDC04F11404C4F120024D
:1004500020FA04F001FA02F340EA030021FA04F35F
:1004600045EA030130BDC4F10C04C4F1200220FAB6
:1004700002F001FA04F340EA0300294630BD21FAF4
:1004800004F0294630BD94F0000F83F4801306BFBA
:1004900081F480110134013D4EE77FEA645C18BFAE
:1004A0007FEA655C29D094EA050F08BF90EA020F45
:1004B00005D054EA000C04BF1946104630BD91EA3D
:1004C000030F1EBF0021002030BD5FEA545C05D140
:1004D0004000494128BF41F0004130BD14F580047F
:1004E0003CBF01F5801130BD01F0004545F0FE41F3
:1004F00041F470014FF0000030BD7FEA645C1ABF28
:10050000194610467FEA655C1CBF0B46024650EA5E
:10051000013406BF52EA033591EA030F41F400218A
:1005200030BD00BF90F0000F04BF0021704730B510
:100530004FF4806404F132044FF000054FF00001E5
:1005400050E700BF90F0000F04BF0021704730B5A6
:100550004FF4806404F1320410F0004548BF40427B
:100560004FF000013EE700BF42004FEAE2014FEAD0
:1005700031014FEA02701FBF12F07F4393F07F4FAB
:1005800081F06051704732F07F4208BF704793F0AE
:100590007F4F04BF41F40021704730B54FF46074C1
:1005A00001F0004521F000411CE700BF50EA0102C4
:1005B00008BF704730B54FF000050AE050EA01026D
:1005C00008BF704730B511F0004502D5404261EBDD
:1005D00041014FF4806404F132045FEA915C3FF41E
:1005E000D8AE4FF003025FEADC0C18BF03325FEABB
:1005F000DC0C18BF033202EBDC02C2F1200300FA6C
:1006000003FC20FA02F001FA03FE40EA0E0021FA90
:1006100002F11444BDE600BF70B54FF0FF0C4CF47E
:10062000E06C1CEA11541DBF1CEA135594EA0C0F30
:1006300095EA0C0F00F0DEF82C4481EA030621EA6B
:100640004C5123EA4C5350EA013518BF52EA0335A6
:1006500041F4801143F4801338D0A0FB02CE4FF058
:100660000005E1FB02E506F00042E0FB03E54FF088
:100670000006E1FB03569CF0000F18BF4EF0010E80
:10068000A4F1FF04B6F5007F64F5407404D25FEA7C
:100690004E0E6D4146EB060642EAC62141EA55512F
:1006A0004FEAC52040EA5E504FEACE2EB4F1FD0C71
:1006B00088BFBCF5E06F1ED8BEF1004F08BF5FEAEF
:1006C000500E50F1000041EB045170BD06F00046A1
:1006D00046EA010140EA020081EA0301B4EB5C044E
:1006E000C2BFD4EB0C0541EA045170BD41F4801146
:1006F0004FF0000E013C00F3AB8014F1360FDEBF6B
:10070000002001F0004170BDC4F10004203C35DA46
:100710000C341BDC04F11404C4F1200500FA05F3C9
:1007200020FA04F001FA05F240EA020001F000426A
:1007300021F0004110EBD37021FA04F642EB0601E0
:100740005EEA430E08BF20EAD37070BDC4F10C040A
:10075000C4F1200500FA04F320FA05F001FA04F2CE
:1007600040EA020001F0004110EBD37041F10001BA
:100770005EEA430E08BF20EAD37070BDC4F12005C5
:1007800000FA05F24EEA020E20FA04F301FA05F22D
:1007900043EA020321FA04F001F0004121FA04F2D5
:1007A00020EA020000EBD3705EEA430E08BF20EAA5
:1007B000D37070BD94F0000F0FD101F000464000DF
:1007C00041EB010111F4801F08BF013CF7D041EA61
:1007D000060195F0000F18BF704703F00046520065
:1007E00043EB030313F4801F08BF013DF7D043EA36
:1007F0000603704794EA0C0F0CEA135518BF95EAEC
:100800000C0F0CD050EA410618BF52EA4306D1D172
:1008100081EA030101F000414FF0000070BD50EA91
:10082000410606BF1046194652EA430619D094EA1B
:100830000C0F02D150EA013613D195EA0C0F05D105
:1008400052EA03361CBF104619460AD181EA030159
:1008500001F0004141F0FE4141F470014FF0000011
:1008600070BD41F0FE4141F4780170BD70B54FF0AC
:10087000FF0C4CF4E06C1CEA11541DBF1CEA13552C
:1008800094EA0C0F95EA0C0F00F0A7F8A4EB05040E
:1008900081EA030E52EA03354FEA013100F0888005
:1008A0004FEA03334FF0805545EA131343EA1263CE
:1008B0004FEA022245EA111545EA10654FEA002683
:1008C0000EF000419D4208BF964244F1FD0404F53C
:1008D000407402D25B084FEA3202B61A65EB030598
:1008E0005B084FEA32024FF480104FF4002CB6EB55
:1008F000020E75EB030E22BFB61A754640EA0C00D5
:100900005B084FEA3202B6EB020E75EB030E22BF14
:10091000B61A754640EA5C005B084FEA3202B6EB55
:10092000020E75EB030E22BFB61A754640EA9C0014
:100930005B084FEA3202B6EB020E75EB030E22BFE4
:10094000B61A754640EADC0055EA060E18D04FEAA2
:10095000051545EA16754FEA06164FEAC30343EA42
:1009600052734FEAC2025FEA1C1CC0D111F4801F0F
:100970000BD141EA00014FF000004FF0004CB6E708
:1009800011F4801F04BF01430020B4F1FD0C88BFA7
:10099000BCF5E06F3FF6AFAEB5EB030C04BFB6EBB2
:1009A000020C5FEA500C50F1000041EB045170BDA5
:1009B0000EF0004E4EEA113114EB5C04C2BFD4EBD2
:1009C0000C0541EA045170BD41F480114FF0000E56
:1009D000013C90E645EA060E8DE60CEA135594EAD2
:1009E0000C0F08BF95EA0C0F3FF43BAF94EA0C0FD5
:1009F0000AD150EA01347FF434AF95EA0C0F7FF44A
:100A000025AF104619462CE795EA0C0F06D152EA9D
:100A100003353FF4FDAE1046194622E750EA410681
:100A200018BF52EA43067FF4C5AE50EA41047FF492
:100A30000DAF52EA43057FF4EBAE12E74FF0FF3CF7
:100A400006E000BF4FF0010C02E000BF4FF0010CC8
:100A50004DF804CD4FEA410C7FEA6C5C4FEA430C41
:100A600018BF7FEA6C5C1BD001B050EA410C0CBF90
:100A700052EA430C91EA030F02BF90EA020F0020F2
:100A8000704710F1000F91EA030F58BF994208BF59
:100A900090422CBFD8176FEAE37040F00100704716
:100AA0004FEA410C7FEA6C5C02D150EA013C07D16D
:100AB0004FEA430C7FEA6C5CD6D152EA033CD3D0B8
:100AC0005DF8040B704700BF8446104662468C46B2
:100AD0001946634600E000BF01B5FFF7B7FF0028E5
:100AE00048BF10F1000F01BD4DF808EDFFF7F4FF0E
:100AF0000CBF012000205DF808FB00BF4DF808ED99
:100B0000FFF7EAFF34BF012000205DF808FB00BFBB
:100B10004DF808EDFFF7E0FF94BF012000205DF8DD
:100B200008FB00BF4DF808EDFFF7CEFF94BF012092
:100B300000205DF808FB00BF4DF808EDFFF7C4FF8B
:100B400034BF012000205DF808FB00BF4FEA410CD4
:100B50007FEA6C5C02D150EA013C0AD14FEA430CB7
:100B60007FEA6C5C02D152EA033C02D14FF00000F4
:100B700070474FF0010070474FEA410212F5001232
:100B800015D211D56FF47873B3EB625212D94FEAD4
:100B9000C12343F0004343EA505311F0004F23FABE
:100BA00002F018BF404270474FF00000704750EA13
:100BB000013005D111F0004008BF6FF000407047D0
:100BC0004FF00000704700BF4A0011D212F500122A
:100BD00011D20DD56FF47873B3EB62520ED44FEA95
:100BE000C12343F0004343EA505323FA02F0704715
:100BF0004FF00000704750EA013002D14FF0FF3053
:100C000070474FF0000070474FEA4102B2F1E043F5
:100C100024BFB3F5001CDCF1FE5C0DD901F0004CE3
:100C20004FEAC0024CEA5070B2F1004F40EB830033
:100C300008BF20F00100704711F0804F21D113F15F
:100C40003872BCBF01F00040704741F480114FEA98
:100C50005252C2F11802C2F1200C10FA0CF320FA21
:100C600002F018BF40F001004FEAC1234FEAD3233E
:100C700003FA0CFC40EA0C0023FA02F34FEA4303A8
:100C8000CCE77FEA625307D150EA01331EBF4FF031
:100C9000FE4040F44000704701F0004040F0FE404C
:100CA00040F40000704700BF53B94AB9002908BF9B
:100CB00000281CBF4FF0FF314FF0FF3000F0AAB901
:100CC000ADF1080C6DE904CE00F03CF8DDF804E06D
:100CD000DDE9022304B0704738B500220023044642
:100CE0000D46FFF70BFF28B920462946BDE83840DE
:100CF00000F00AB8204605F1004100F005F8404236
:100D000061EB410138BD00BFD0B50C4B0022064657
:100D10000F46FFF781FCFFF757FF0446FFF702FC81
:100D2000074B0022FFF778FC02460B463046394657
:100D3000FFF7BAFAFFF748FF2146D0BD0000F03DAB
:100D40000000F0412DE9F047089D04468E46002B37
:100D50004DD18A42944669D9B2FA82F252B101FA6F
:100D600002F3C2F1200120FA01F10CFA02FC41EA7F
:100D7000030E94404FEA1C48210CBEFBF8F61FFA04
:100D80008CF708FB16E341EA034306FB07F199429F
:100D90000AD91CEB030306F1FF3080F01F81994252
:100DA00040F21C81023E63445B1AA4B2B3FBF8F02C
:100DB00008FB103344EA034400FB07F7A7420AD9B3
:100DC0001CEB040400F1FF3380F00A81A74240F2DB
:100DD00007816444023840EA0640E41B00261DB146
:100DE000D4400023C5E900433146BDE8F0878B427B
:100DF00009D9002D00F0EF800026C5E9000130463A
:100E00003146BDE8F087B3FA83F6002E4AD18B4213
:100E100002D3824200F2F980841A61EB03030120BD
:100E20009E46002DE0D0C5E9004EDDE702B9FFDEA9
:100E3000B2FA82F2002A40F09280A1EB0C014FEA54
:100E40001C471FFA8CFE0126200CB1FBF7F307FBB1
:100E5000131140EA01410EFB03F0884208D91CEB54
:100E6000010103F1FF3802D2884200F2CB804346F1
:100E7000091AA4B2B1FBF7F007FB101144EA0144D0
:100E80000EFB00FEA64508D91CEB040400F1FF315F
:100E900002D2A64500F2BB800846A4EB0E0440EA4D
:100EA00003409CE7C6F12007B34022FA07FC4CEA56
:100EB000030C20FA07F401FA06F31C43F9404FEA49
:100EC0001C4900FA06F3B1FBF9F8200C1FFA8CFE5E
:100ED00009FB181140EA014108FB0EF0884202FAB2
:100EE00006F20BD91CEB010108F1FF3A80F0888073
:100EF000884240F28580A8F102086144091AA4B230
:100F0000B1FBF9F009FB101144EA014100FB0EFEB0
:100F10008E4508D91CEB010100F1FF346CD28E45DF
:100F20006AD90238614440EA0840A0FB0294A1EB70
:100F30000E01A142C846A64656D353D05DB1B3EBCD
:100F4000080261EB0E0101FA07F722FA06F3F140FD
:100F50001F43C5E9007100263146BDE8F087C2F1A4
:100F60002003D8400CFA02FC21FA03F3914001431C
:100F70004FEA1C471FFA8CFEB3FBF7F007FB103655
:100F80000B0C43EA064300FB0EF69E4204FA02F401
:100F900008D91CEB030300F1FF382FD29E422DD954
:100FA000023863449B1B89B2B3FBF7F607FB163389
:100FB00041EA034106FB0EF38B4208D91CEB010109
:100FC00006F1FF3816D28B4214D9023E6144C91A89
:100FD00046EA004638E72E46284605E70646E3E699
:100FE0001846F8E64B45A9D2B9EB020864EB0C0EA3
:100FF0000138A3E74646EAE7204694E74046D1E7B2
:10100000D0467BE7023B614432E7304609E764445F
:10101000023842E7704700BFDFF834D0002103E018
:101020000C4B5B58435004310B480C4B42189A420E
:10103000F6D30B4A02E0002342F8043B094B9A42E4
:10104000F9D305F069F821F005FE01F0EBF97047DE
:10105000000003204C2A130800000020D4020020C6
:10106000D4020020043A0120FEE7704708B500F0E2
:101070006BFDBDE8084000F0F3BC00F067BD7047B1
:1010800010B50421044620F088FF204610BD000062
:1010900038B50C4B0C4C18800C4B822019806368BF
:1010A000984740F6110398420AD1094D23682C60F5
:1010B000822098472B688220DB689847002038BD43
:1010C0000120FCE7F00200204C000020F20200208A
:1010D000F40200204FF4A071F020FFF7D9BF000008
:1010E000F7B52D4D2B6804461B698220984780B2C6
:1010F0002080002843D02B680DF106025B6901A90E
:1011000082209847BDF80620A2F5B47292B20A2A4E
:1011100037D90B23B2FBF3F2204B1B889A4201D93B
:10112000013B9AB2BDF8043040F6B8318B422AD860
:10113000C3F571630E339BB20F21B3FBF1F3184972
:1011400009888B4201D94B1E9BB2164E164D306852
:101150002F68834281B28CBF591AC91AB8B2BA42F9
:101160008CBF101A801A89B280B201440529C8BF09
:1011700033603368C8BF2A6063802B68A38003B0E4
:10118000F0BD0022CEE7C3F56D6308339BB20E2B92
:10119000D2D80023D9E700BFF4020020F2020020D9
:1011A000F0020020F8020020FC02002037B568465B
:1011B0000D461446FFF794FFBDF8000030B1BDF8AE
:1011C00002302B60BDF804302360012003B030BD35
:1011D000032821D8DFE800F0020B12190F4B1A6820
:1011E000B2FA82F2520904210D4805F02DBA0B4BD8
:1011F0005A68B2FA82F252090821F5E7074B9A6859
:10120000B2FA82F252091021EEE7044BDA68B2FA20
:1012100082F252092021E7E7704700BF0003002057
:1012200000100240032821D8DFE800F0020B121959
:101230000F4B1A68003A18BF012204210D4805F02F
:1012400003BA0B4B5A68003A18BF01220821F5E790
:10125000074B9A68003A18BF01221021EEE7044BB1
:10126000DA68003A18BF01222021E7E7704700BF83
:10127000000300200010024003280DD8DFE800F032
:101280000206080A0421054805F0E3B90821FAE737
:101290001021F8E72021F6E7704700BF0010024058
:1012A00008B5032811D8DFE800F0020A0C0E04216B
:1012B000074805F0C3F9431E5842584108BD0821AC
:1012C000F6E71021F4E72021F2E70020F3E700BF62
:1012D0000010024070B5084D00240126E0B2FFF76F
:1012E000DFFF18B12B68012B18BF2E600134052CCD
:1012F00005F10405F2D170BD00030020012380F840
:10130000741080F87530704700207047034B4164BB
:10131000003918BF01211970704700BF57370120ED
:1013200000207047836B0BB10846184770474FF693
:10133000FF707047406803689B69184770477047A3
:101340007047000070B5044600F0ECFC2368D3F849
:101350008850044BD4E90F122046AC46BDE87040DB
:10136000604700BF000000D008B503680446D3F80A
:1013700080309847236820469B6F984700F0ECF830
:10138000236820461B6F9847292001F01DFB00F0C1
:10139000E3F8236820461B6F9847F8E710B504462A
:1013A0000BF0AAFB23682046D3F8AC30BDE8104010
:1013B000184700F0A9BC00F0ADBC00F0D9BC00F0AB
:1013C0007FBC00F0E1BC00F0E9BC00F083BC0AF097
:1013D000F9BD10B57C21044620F0DFFD204610BD8C
:1013E00090F877301BB1406803681B6818471846AF
:1013F0007047000010B590F8341090F874400C4B12
:101400008C421A7809D03AB90A4A0B4914880888DC
:1014100010800C8001221A7010BD002AFCD0054AF1
:1014200005491488088810800C800022F3E700BF6B
:10143000503701204C3701204E37012070B50D4642
:10144000194635B9094B0A4A0A4840F2D22121F01F
:10145000B7FBC0E90F52084B003A18BF01221A70BF
:101460000368BDE87040D3F88C3018473079020823
:1014700068790208B67902085637012008B5094B89
:101480001B888B4203D8084B1B88934205D9074B16
:10149000074A08489E2121F093FB074B1980074B10
:1014A0001A8008BD4C3701204E370120FB79020815
:1014B0005E7A0208B67902085237012054370120BB
:1014C000012108B50022084607F0A1FD0A4B18606B
:1014D00028B90A4B0A4A28210A4821F071FB002248
:1014E0000421012007F030FE074B186018B9074BA4
:1014F000034A2C21F0E708BD140300207C7B02087E
:10150000C57B0208F47B020810030020417C02081E
:10151000024B4FF0FF31186807F0C3BD14030020E1
:10152000014B186807F0E8BD14030020024B0021AE
:10153000186807F0B6BD00BF14030020FFF7F0BF26
:1015400003480449006800231A4607F038BE00BF6C
:10155000100300200400002013B5084C00231A4695
:1015600001A9206807F05BFE20684FF0FF330022DE
:1015700001A907F054FE02B010BD00BF1003002007
:1015800003685B6C18470120704703689B6A184723
:1015900082B0002301930D4B1A6B42F400021A63D0
:1015A0001A6B02F400020192019A1A6942F40002D5
:1015B0001A611A6922F400021A61054B054A1A6180
:1015C000054B4FF080629A6002B0704700380240CD
:1015D000F02500201D16000800E100E040F2EF3089
:1015E00070470000054B0360054B4FF08062C3F865
:1015F0008820BFF34F8FBFF36F8F7047E07D0208E5
:1016000000E100E010B504464FF45A61FFF7EAFF2D
:10161000204620F0C2FC204610BD0000024B1B6893
:10162000586803685B6918475837012070B504464D
:1016300025460A4B0C30002660602672667245F81B
:10164000203B602229460BF0ADFB04F55A63EE60A7
:101650002435AB42FBD1204670BD00BFE07D0208BF
:1016600008B50B290BD8DFE801F01206100A0A0AA8
:101670000A0808080808012008BD0520FCE7054BFA
:10168000054A0648662121F09BFA0020F4E7022073
:10169000F2E700BF837C02089E7C0208E87C020817
:1016A00008B50A2909D8DFE801F010060E08080875
:1016B000080606060600012008BD054B054A064837
:1016C000872121F07DFA0020F6E70220F4E700BF31
:1016D000837C0208337D0208E87C02082DE9F84388
:1016E0004F7F0C4639468146FFF7BAFF94F81E80BB
:1016F000054641464846FFF7B3FF41460646484681
:10170000FFF7CEFFA18A628B424B521A1A649A618C
:10171000228B521A1A61E28A586342EA01425A64E1
:1017200020696268D863DA60216894F81CC0802957
:101730004FEA0C6226D010D8202945EA020461D075
:1017400040295FD004295DD0324B2A4342F4003255
:101750004745DA615AD0304A40E0B1F5807F07D082
:10176000B1F5007FF0D142F4003242F0090203E00B
:1017700042F4003242F00A02DA61E2681A625E6202
:1017800058612AE0A4682A4342F40032211DD9623C
:10179000DA6122785E62586142B1012A21D01F4B82
:1017A0001F4A204840F2111121F00AFADA696188D3
:1017B00022F47F42013922F0100242EA0122DA616A
:1017C0000120144BDA6942F02002DA61DA699206EC
:1017D000FCD410229A600028BDD0134A1A60BDE8DC
:1017E000F8836288D969541E21F47F4222F01002E6
:1017F00042EA0422BCF1FF0042F0100218BF0120AF
:10180000DA61DEE744F40034DC61B8E740F201223B
:10181000E4E700BF00B00240010201007E7D020843
:10182000987D0208E87C02080102020070B50C46AF
:10183000897FFFF735FFA68AE18A628B154B256900
:10184000586341EA0641921B5964DD631A642668B5
:10185000E168082E0DD19A611A615862207F0E4A04
:1018600042EA0062DA610D4A19625D61DD601A6068
:1018700070BD0022D8611A6148090A0A02F4784250
:1018800000F4FC600243C1F3C4010A439A63044AB2
:10189000EDE700BF00B002400900010001020200B4
:1018A00001020300034B1A68D207FCD423229A607A
:1018B000704700BF00B0024030B50E4C2568ED0700
:1018C000FCD423251204A56042F001020225FF2B5F
:1018D00065636264E063E16008D01B0643F00213B5
:1018E000E361054B65626061236030BD034BE361DA
:1018F0000123F9E700B0024001000200020002FFEC
:1019000030B50B4C2568ED07FCD4232512041B06CB
:10191000A56043F40033022542F00102656362646E
:10192000E063E160E361034B65626061236030BDA9
:1019300000B00240010002000120704740207047C3
:1019400000EB81100830704700EB811008307047C1
:101950000120704741F2BC10704741F2BC1303FBF9
:1019600001000830704741F2BC1303FB010008304E
:101970007047012070471020704700EB01100830BD
:10198000704700EB011008307047084601F0F8BEC0
:1019900010B5034B0360044609F09BFE204610BDC2
:1019A000987E020810B50446FFF7F2FF2046482152
:1019B00020F0F3FA204610BD10B5034B0360044637
:1019C00009F087FE204610BD647E020810B504466B
:1019D000FFF7F2FF204641F2C41120F0DEFA204664
:1019E00010BD000010B5034B0360044609F071FE02
:1019F000204610BD307E020810B50446FFF7F2FF06
:101A00002046182120F0C9FA204610BD10B5094B18
:101A10000360044600F58F501030FFF7B9FF04F162
:101A20002C00FFF7C9FF04F11400FFF7DBFF20468D
:101A300010BD00BFCC7E020808B50248FFF7E6FFE4
:101A400008BD00BF1C03002010B50446FFF7DEFFF1
:101A5000204641F2D03120F0A0FA204610BD00000F
:101A60002DE9F34101F0D4FB054601F0D5FB00243C
:101A70000146234628462246009413F095FA264B49
:101A8000264A274D1A60204603F0D4FC254813F05F
:101A9000F3F92B78BFF35B8FDB0736D4284620F0B1
:101AA0007EFA90B3204C214B214F236004F11400A7
:101AB00000F5935604F12C086060C4F80880E760D4
:101AC000266109F007FE1B4B6361404609F002FEE8
:101AD000194BE362384609F0FDFD04F58053174ABF
:101AE000C3F8F02103F50E7003F012FE2246A6F1B2
:101AF0003C01304603F010FD304601F041FE104835
:101B000021F07CF8284620F056FA0E4802B0BDE8D5
:101B1000F041FFF717BC00BFBC3701200C250020A7
:101B200018030020080000201C030020CC7E0208BF
:101B30000C150020307E0208647E0208987E0208A0
:101B4000391A000890240020704700000148FFF770
:101B50000BBC00BF9024002070B5234C234E244BB7
:101B6000244D23603046FFF761FD284616F026FB22
:101B7000214B2248DC60224C03600022F0204FF40D
:101B800080712080C3E912121E4C1F492080C3E9D6
:101B900019121E4C1A864FF080714FF4A0705967CD
:101BA0000121C3E90422C3E90622C3E90822C3E9EB
:101BB0000A22C3E90E22C3E91022C3E91422C3E9B1
:101BC00016221A6683F86C201A67C3E9016583F848
:101BD000781020800E4C83F8341020800D4802705D
:101BE0000D4A1A6070BD00BFEC160020F0160020F0
:101BF0002079020810250020902400205837012069
:101C00004C37012052370120010000014E370120DE
:101C10005437012050370120AC7A02080148FFF701
:101C2000E1BC00BFF01600200020704781807047A3
:101C3000C18070470181704741817047704770478C
:101C400070477047704710B4C4880368121B8488BB
:101C50005B6D091B12B25DF8044B09B218474FF6D1
:101C6000FF7383814FF0FF3303621368C361106019
:101C7000704790F825201AB190F8242002B118601E
:101C80007047002070478B88838001207047704721
:101C900080F82610704790F82600704710B5002293
:101CA000B1F90840B1F90A10028042808480C180F5
:101CB00010BD0022028042808280C28070470000F6
:101CC000034B902283F85A2383F85823704700BFB0
:101CD00000E100E0094A0A49D3680A48C3F30A034D
:101CE000013B9BB20B801169C1F30A0101390180EC
:101CF0001364536B43F00103536370470068014062
:101D00008C2500208A250020014BD3F8AC007047B9
:101D100000680140024B0122C3F8AC105A627047C0
:101D20000068014070B504460AF0A1F923685D6EB1
:101D30000FF0EAFD01462046A8472368054AD3F87C
:101D400088502046AC460023BDE87040A2F516310D
:101D5000604700BF00B004D00AF070B990F84B3073
:101D600013B1024B01221A700AF074B988250020C1
:101D70000AF02EB90AF089BA90F8252012B103684A
:101D80005B69184770470000034B4FF080629A6010
:101D90004FF080729A60704700E100E0084B4FF00E
:101DA0008062C3F88820BFF34F8FBFF36F8F4FF06F
:101DB0008072C3F88820BFF34F8FBFF36F8F7047D7
:101DC00000E100E070B50023124E8380124B0360E7
:101DD000336893F8762005460AB1D86C00B9986844
:101DE0000368DB6A98473368B0FA80F4D86C6409FA
:101DF00030B10368DB6A9847002808BF44F001044B
:101E00002CB9064B064A07482C2120F0D9FE28465B
:101E100070BD00BF58370120DC7F0208D87E020861
:101E2000367F02086F7F020810B5144C236823B375
:101E3000134B144A1B6C11888B4213D1124B198817
:101E400005F030FC226892F86630013382F8663083
:101E5000FFF776FB20680AF04FFEBDE81040002037
:101E6000FFF7B6B905F01EFC206803681B6A9847A7
:101E7000BDE810400020FFF7D5B910BD583701204C
:101E8000006801408C2500208A25002010B50C46F2
:101E90009DF80810047042708370C170052B19D82A
:101EA000DFE803F003071A1A29290023C370012071
:101EB00010BD0A290AD8039B043003EB81018B4231
:101EC000F5D053F8042B40F8042BF8E70A22114808
:101ED00021F0BEFF0020EBE714290AD8039B043051
:101EE00003EB41018B42E2D033F8022B20F8022BA6
:101EF000F8E71422EBE7282909D8039B043019449A
:101F00008B42D4D013F8012B00F8012BF8E72822DC
:101F1000DDE700BFF47F020830B58FB00C4613999F
:101F200001919DF848100091014603A8FFF7AEFF0C
:101F3000054600283BD09DF80F3001939DF80E30E8
:101F400000939DF80C109DF80D301A48224621F0A0
:101F50007FFF012C1BD0022C11D004BB164822F0AD
:101F600013F816481423224603A9006807F027F93E
:101F7000B8B9134822F008F828460FB030BD114810
:101F800022F002F810481423002203A9EDE70F48BD
:101F900021F0FAFF0E481423002203A9E5E74FF0D1
:101FA000FF3001460B4821F053FF0025E4E70125EF
:101FB000E2E700BF35800208A38002088C280020D9
:101FC00015810208CE800208D0280020F480020883
:101FD000CC2800204C81020810B58EB00C46119917
:101FE00001919DF840100091014603A8FFF74EFFB4
:101FF000D0B1012C13D0022C0CD0BCB90C48234614
:10200000224603A9006807F0DAF8B0FA80F0400928
:102010000EB010BD002307481A4603A9F2E70023BB
:1020200005481A4603A9EDE70120F1E70020EFE794
:102030008C280020D0280020CC280020012808B5BA
:1020400013460ED0022809D070B90246074800682E
:1020500007F0E5F8B0FA80F0400908BD0448002216
:10206000F5E704480022F2E70020F6E78C2800207C
:10207000D0280020CC2800208FB55C4C5C485D4EF9
:10208000DFF88C81002542F21073E363258703F0AB
:10209000F1FD03F039FE4FF0FF3301226360CDE91B
:1020A00000552B46294610462570FFF735FF04F1F1
:1020B0000C07626839460120FFF7C0FF2072002834
:1020C000F7D02378002B36D1257B002DF1D1637B0F
:1020D000082B00F08580092B1BD147484FF00109E0
:1020E00084F8009021F050FF444BD3ED007AB7EE16
:1020F000007A77EE877AC3ED007ACDE900554FF08C
:10210000FF3363602B46072201210846FFF704FFD7
:10211000CFE70A2BCDD102233948237021F034FFB9
:10212000384806F061FACDE900554FF0FF3363609F
:102130002B460B22E8E7022B0ED1237B012B51D13A
:10214000637B0B2BB5D103232F48237021F01CFF99
:102150004FF0FF336360ACE7032B32D1257B012DB9
:102160001BD1637B0C2BA4D1042340460DF10C0939
:10217000237021F009FF94F83910484603F0E8FD78
:1021800038B1CDE900592B46062200212846FFF739
:10219000C3FE0023CDE90033CBE7002D89D1637B5B
:1021A0000D2B86D105231948237021F0EDFE15482B
:1021B00006F054FA4FF0FF3363600023CDE900339B
:1021C000A1E7042BB9D0052B7FF473AF237B012B40
:1021D0007FF46FAF637B072B7FF46BAF002323701B
:1021E0003046B3E7002BDAD063E700BF9425002028
:1021F00030260020548202088381020890250020A6
:10220000AA810208B8270020DB81020803820208A5
:1022100033820208024B034800221A6006F0E4B938
:10222000D425002000280020014B1868704700BF0B
:10223000D425002007B5064BADF806001B680548FD
:1022400001220DF1060105F089FF03B05DF804FBE2
:10225000100000206027002083B54448444C21F042
:1022600093FE444800224FF4005104F0EDF900239E
:1022700084F8383004F10C054FF0FF322946002075
:10228000FFF7DCFE0028F7D0237B012BF4D1637B22
:10229000012BF1D100252B46CDE9005528460F2210
:1022A0000221FFF739FE4FF0FF332570324F334ED6
:1022B000334D63600DE001290BD1637B062B08D100
:1022C000304B0193E37B00931022A37B0221FFF7A5
:1022D00023FE626839460020FFF7B0FE2072002816
:1022E000F7D0304621F050FE637B227B21782846D0
:1022F00021F0AEFD20780028EBD1217B0229DAD134
:10230000637B9A1E032AE4D8022B1AD194F810801A
:10231000B8F1000F0CD0174801224FF4005104F01F
:1023200093F9012384F838304FF0FF336360D0E72E
:10233000104842464FF4005104F086F984F8388082
:10234000F2E7032B08D1104B0193012300930E22D7
:102350000423FFF7E1FDE7E7042BCDE90000034686
:102360000CBF0A220D220121F3E700BF7782020889
:1023700090280020001802409C280020918202082A
:10238000B7820208A0280020C828002030B595B0E8
:10239000102200210AA820F09FFC1422002103A88B
:1023A00020F09AFC00241D4B01941A6C42F08052DC
:1023B0001A641B6C03F080530193019B184B029429
:1023C0001A6842F440421A601B6803F440430293C7
:1023D0000122029B4FF48033CDE9082302254FF4FC
:1023E0008003CDE90E5308214FF4A873CDE91013F3
:1023F00008A804231393129505F072F90F23CDE971
:1024000003354FF4A0504FF48053CDE90603052166
:1024100003A8059405F042FB15B030BD003802401A
:10242000007000402DE980489BB003F083FEFFF769
:10243000ADFF142200210DA8002420F04DFCC74B55
:1024400000941A6BC648C74D42F010021A631A6B0B
:1024500002F010020092009A01941A6B42F02002DE
:102460001A631A6B02F020020192019A02941A6B0D
:1024700042F080021A631A6B02F080020292029A02
:1024800003941A6B42F004021A631A6B02F00402FE
:102490000392039A04941A6B42F001021A631A6BB6
:1024A00002F001020492049A05941A6B42F00202AF
:1024B0001A631A6B02F002020592059A06941A6BCF
:1024C00042F040021A631A6B02F040020692069A2A
:1024D00007941A6B42F008021A631B6B03F008039F
:1024E000079322463C21079B04F0AEF89E48224603
:1024F000042104F0A9F89D4822464FF4405104F00D
:10250000A3F822469A484FF4C04104F09DF80126F2
:102510004FF003083C239248CDF840800DA90227D4
:102520004FF0040ACDE90D360F9403F0A1FF8E4859
:102530000F940DA9CDE90DA6109703F099FF4FF464
:1025400040538A480DA9CDE90D36CDE90F4703F078
:102550008FFF0DA94FF4C0438548CDE90D36CDE975
:102560000F4403F085FF8348834B036003F074FE40
:10257000824A834B2C62C5E9002328464FF48043EE
:10258000C5E90434C5E90244C5E9064404F046FA45
:102590001021284604F0CAFE2146284604F0E5FE34
:1025A0007848794984624FF48273C0E900134FF48C
:1025B00000751823C0E906530A23744DC362C0E9AD
:1025C0000244C0E90444C0E9084405F06BFD704BC7
:1025D0000D974FF01009C5E900364023C5E9049373
:1025E0004FF4C073C5E906344FF40063C5E90834FD
:1025F0004FF40053AB620DA907232846CDE90E3AEC
:10260000CDE910384FF0080BC5E9024ACDE9127741
:1026100005F048FC4FF6FF7209A92846CDE90AB635
:10262000089409960C9405F05DFC304603F0AEFD6D
:102630004FF6FF7209A92846CDE9097BCDE90B6465
:1026400005F050FC4FF6FF7209A92846CDE9098B29
:10265000CDE90BA405F046FC4FF40C730893089BDE
:102660000C934FF6FF7209A92846CDE909AB0B96EA
:1026700005F038FC40F26A51284605F051FC34223E
:1026800021460DEB020020F027FB424D424BAC8669
:10269000C5E900340923C5E905361D2340F20D1CA8
:1026A000C5E9073840F24313C5E909C340F2171ED4
:1026B00040F247132846C5E90BE3C5E902442C6103
:1026C00085F8364004F0F6FEFF21F022CDE9121421
:1026D0004FF4806805214FF4A073CDE90E24CDE9B5
:1026E0001481CDE916420DA922462846CDE91037BE
:1026F0002A4D18930D94ADF864408DF8664004F0AF
:10270000A4FF274B2B601B68DFF8A4B098472B6809
:10271000244DDB689847244BC5E90A47C5E90C44BA
:102720002846C5E90034C5E9027403F0A5FD314629
:10273000284603F059FE1D4D4A4621460DA820F0BB
:10274000CBFA4FF0804A43F24433C5E900A34FF679
:10275000FF13C5E90334284680232BE000380240EC
:10276000001002403026002000080240000C024009
:1027700000180240E825002000300240005C0040C4
:10278000A086010060270020005001402C27002077
:10279000400100A08426002000680140DC250020C4
:1027A00014000020F025002000B00240B8270020CF
:1027B00000100140AB61AC60CDE9094406F072F84D
:1027C0004FF480530DA928460D9306F0A1F809A9EE
:1027D0002846CDE9094406F037F92C482C4D046110
:1027E0004FF4E133C0E900B30C23C0E90534C0E97C
:1027F0000244C46106F0FCF9264BAC60C5E9003424
:10280000284642F2CF03EB60CDE90D44AC6106F0FF
:1028100049F80DA92846CDE90D4406F015F9FEF753
:1028200025FCFEF722FC1C4821F0AEFB06F06EFBF7
:102830001A4A2C21484606F087FC194B194A1860A1
:102840002C21484606F080FC174B184A18602C21B2
:10285000484606F079FC164B164A18602146164881
:1028600006F080FB154B164A18602146154806F005
:1028700079FB154B154A18602146154806F072FB86
:10288000144B186006F054FBFEE700BF48280020F8
:102890000028002000140040FD820208C4830208C2
:1028A0008C280020F4830208D0280020DC83020852
:1028B000CC280020A083020859220008E42500202B
:1028C000588302087B100008D82500207C8302086A
:1028D00079200008E0250020704770477FB5094B3C
:1028E0008DF817201B6802930DF117020123009247
:1028F00001930A460146044804F080FB07B05DF8E6
:1029000004FB00BF0C000020302600207FB5002310
:102910008DF81730084B1B6802930A4601230DF10E
:102920001701009101930146044804F0F7FB9DF85C
:10293000170007B05DF804FB0C00002030260020D3
:102940001FB5084C24680092CDE901340A460123E2
:102950000146054804F0E2FB003818BF012004B02E
:1029600010BD00BF0C0000203026002003F00EBC7C
:1029700008B506480022042103F066FEBDE80840C1
:1029800002480122042103F05FBE00BF000802409C
:1029900038B50B4D044601220A484FF4005103F0AC
:1029A00053FE00220421284603F04EFE2046FFF786
:1029B00041FC28460122BDE83840042103F044BE12
:1029C00000080240000C024038B50B4D04460022BE
:1029D0000A484FF4005103F037FE00220421284634
:1029E00003F032FE2046FFF725FC28460122BDE811
:1029F0003840042103F028BE00080240000C0240C9
:102A0000F7B5144E144F05460C46304600220421FB
:102A100003F01AFE00224FF40051384603F014FE72
:102A20002846FFF707FC0D4B0D481B68224601A9FD
:102A300005F036FD384601224FF40051019C03F0A9
:102A400003FE30460122042103F0FEFD204603B0C0
:102A5000F0BD00BF00080240000C02401000002042
:102A60006027002003F092BB13B5074C019047F29A
:102A70003053012201A9204606F0E8F80028F6D1DB
:102A8000019802B010BD00BF4828002013B50023F4
:102A9000084C8DF8073047F2305301220DF1070141
:102AA000204606F028F90028F5D19DF8070002B06D
:102AB00010BD00BF4828002002680D4B9A4213B594
:102AC000044601D103F050FB2368B3F1804F0CD1D1
:102AD00008484FF4804103F0BCFD00230121CDE9FB
:102AE00000330C220846FFF777FA02B010BD00BF92
:102AF00000100040001802407047000082B00E4BEA
:102B000000220092596C41F480415964596C01F4DF
:102B10008041009100990192196C41F08051196433
:102B20001B6C03F080530193019B0F216FF0010098
:102B300002B003F051BB00BF003802400268094BED
:102B40009A4282B00BD100230193074B1A6B42F4D7
:102B500080521A631B6B03F480530193019B02B0F4
:102B6000704700BF003002400038024007B50F4BED
:102B700002689A4216D10022A3F5F0430192196B24
:102B800041F4000119631B6B03F400030193052159
:102B90005A20019B03F020FB5A2003B05DF804EBA0
:102BA00003F04CBB03B05DF804FB00BF00B0024073
:102BB0002DE9F043044689B01422002103A820F037
:102BC0008BF82268244B9A4243D1244C2448002598
:102BD0000095236B43F004032363236B03F004038A
:102BE0000093009B0195236B43F001032363236B48
:102BF00003F001030193019B4FF012094FF400739E
:102C00004FF001080327042603A9CDE90339CDE9D4
:102C10000587079603F02CFC4FF480731148079644
:102C200003A9CDE90339CDE9058703F021FC02951D
:102C3000236C43F400032364236C03F40003029326
:102C4000029B236A43F400032362236A23F40003F4
:102C5000236209B0BDE8F083005C00400038024008
:102C60000008024000000240F0B599B0044614226A
:102C7000002107A820F030F830220DEB02000021DF
:102C800020F02AF822685E4B9A4240F0B780082371
:102C90000C93C0231093042312930CA84FF4003319
:102CA000159304F0D5FF08B1FFF726FF554B5648A2
:102CB000002400945A6C42F080625A645A6C02F00C
:102CC00080620092009A01941A6B42F020021A630B
:102CD0001A6B02F020020192019A02941A6B42F0E0
:102CE00001021A631A6B02F001020292029A039423
:102CF0001A6B42F002021A631A6B02F0020203928C
:102D0000039A04941A6B42F040021A631A6B02F0A1
:102D100040020492049A05941A6B42F004021A636A
:102D20001A6B02F004020592059A06941A6B42F09F
:102D300008021A631B6B03F00803069302250E2694
:102D4000069B0B964FF4806307A9CDE90735CDE9C3
:102D5000094503F08DFB41F658032C480B9607A953
:102D6000CDE907350927CDE9094503F081FB0323A8
:102D700027480B9707A9CDE90735CDE9094503F0A9
:102D800077FB4FF4706322480B9607A9CDE907350E
:102D9000CDE9094503F06CFB4FF40C631D480B961D
:102DA00007A9CDE90735CDE9094503F061FBC0234B
:102DB00019480B9607A9CDE90735CDE9094503F078
:102DC00057FB082315480B9607A9CDE90735CDE930
:102DD000094503F04DFB4FF4A0530E480B9707A98C
:102DE000CDE90735CDE9094503F042FB58202246DD
:102DF000052103F0F1F9582003F020FA19B0F0BDD5
:102E00000068014000380240001402400000024007
:102E1000000402400018024000080240000C02407A
:102E200010B5044688B01422002103A81FF054FFF7
:102E30002268144B9A4223D103F568430021019183
:102E40005A6C114842F480125A645A6C02F480128F
:102E50000192019A02911A6B42F020021A631B6BD5
:102E600003F020030293029B4FF4607202230321BC
:102E7000CDE903230523CDE9061303A903F0F8FAEE
:102E800008B010BD00500140001402400368B3F1C7
:102E9000804F07B516D103F50E3300220092196C4E
:102EA00041F0010119641B6C03F0010300931C2025
:102EB0000521009B03F090F91C2003B05DF804EBA2
:102EC00003F0BCB90B4A934211D10B4B0022019283
:102ED000196C41F0200119641B6C03F0200301936D
:102EE00037200521019B03F077F93720E5E703B090
:102EF0005DF804FB001400400038024010B50446A1
:102F000088B01422002103A81FF0E6FE2268144BAB
:102F10009A4223D103F59433002101915A6C114850
:102F200042F010025A645A6C02F010020192019AA7
:102F300002911A6B42F001021A631B6B03F001034A
:102F40000293029B4FF4C06202230321CDE90323C5
:102F50000723CDE9061303A903F08AFA08B010BDD0
:102F600000100140000002402DE9F04186B000232E
:102F700003932B4B1C68002C4FD14FF00108C3F872
:102F80000080284B00949A6B274842EA08029A6313
:102F90009B6B03EA08030093022703260C25009B82
:102FA00001A94FF63F03CDE90137CDE9046503F0F0
:102FB0005FFA1E48059501A9CDE90187CDE90346D1
:102FC00003F056FA48F233131948059501A9CDE9E3
:102FD0000137CDE9034603F04BFA4FF683731548EA
:102FE000059501A9CDE90137CDE9034603F040FA83
:102FF0004CF203731048059501A9CDE90137CDE9DD
:10300000034603F035FA60230C48059501A9CDE984
:103010000137CDE9034603F02BFA06B0BDE8F08195
:10302000D42800200038024000140240000802406A
:103030000018024000100240000C02400004024050
:1030400070B588B000230293204B1A6C42F0100236
:103050001A641B6C03F010030293054601A903A830
:10306000029B04F0D7FD069B4BBB04F0B3FD184E4A
:10307000184B336040F2E733F360174BB0FBF3F3C8
:10308000013B7360304600233361B360B36105F0E8
:1030900009FC044680B9304605F0A6FA044658B942
:1030A000362003F0CBF80F2D0DD8224629463620C6
:1030B00003F092F8094B1D60204608B070BD04F083
:1030C00089FD4000D3E70124F6E700BF0038024045
:1030D000D82800200010004040420F007C00002053
:1030E0007047FEE7FEE7FEE7FEE77047014805F0A0
:1030F000D1BA00BFB8270020014805F0CBBA00BF05
:10310000D8280020034A044813680133136005F0EF
:10311000C1BA00BFD425002000280020014804F0D7
:1031200037BA00BF84260020014803F0D3B800BF9F
:10313000F02500200120704708B51FF073FD16230D
:1031400003604FF0FF3008BD08B51FF06BFD16237C
:103150000360FEE770B50D4614460E46731B9C4295
:1031600001DC204670BDFFF791FC06F8010BF5E786
:1031700070B50D4614460E46731B9C4201DC20467A
:1031800070BD16F8010BFFF76FFCF5E74FF0FF304D
:1031900070474FF400534B60002070470120704788
:1031A000002070470A4A116808B5034609B9094961
:1031B00011601068694603448B4206D91FF032FD46
:1031C0000C2303604FF0FF3008BD1360FCE700BF25
:1031D00020290020083A0120704710B50421044638
:1031E0001EF0DBFE204610BD012908B506D00229DD
:1031F00008D059B902F06AF9006808BD02F066F912
:103200004068FAE702F062F98068F6E70020F4E728
:1032100000487047208402080F20704713B500242F
:1032200051B1036801948DF8034001AA9C680DF127
:103230000303A04702B010BD0846FBE7C0897047F2
:10324000008A7047C088704780887047807A00F095
:103250007F007047807AC0097047704710B5082119
:1032600004461EF09AFE204610BD7047704700F5D8
:1032700098730868496803C3704770477047416096
:1032800070477047064BC0F84C310023C0F85031EE
:1032900000F5A273C0F84801C0F84031704700BF84
:1032A00099350008012303727047704770477047D3
:1032B0007047704770477047704710B4C2684168E4
:1032C0005410034601EB6200D20748BF0A599B68BD
:1032D0005DF8044B48BFD358184743682BB1836847
:1032E0002BB9C06800F001007047184670470120F4
:1032F000704710B5142104461EF04FFE204610BD45
:1033000010B50C2104461EF048FE204610BD10B535
:10331000102104461EF041FE204610BD10B54FF4AA
:10332000AE7104461EF039FE204610BD10B5402196
:1033300004461EF032FE204610BD10B54021044662
:103340001EF02BFE204610BD70B50446B2B01D49DC
:10335000C02202A81FF0B2FC237C2F2B03D901232B
:10336000237232B070BD33B9174B1B781BB10EF00E
:10337000CBFA0EF0CFFA0325013DF2D0237C302B9F
:10338000EFD832AA02EB8303E68953F8C03C608988
:1033900093FBF6F206FB123313FB00F3ADF80400C7
:1033A0006068A189ADF800300368ADF8061012FB23
:1033B00001F21B69ADF8022069469847237C01336E
:1033C0002374D9E7E07702085637012008B50EF0DC
:1033D0009BFABDE808400EF051BF0000054B1B787A
:1033E00001462BB1406818B103680C315B6E184779
:1033F000704700BF57370120054B1B7801462BB1A2
:10340000406818B103680C315B6E1847704700BF05
:1034100057370120037A70B50546BBB94068036889
:10342000DB69984704464CB1A1886B8FC91A2368A1
:1034300020461B6B09B29847A469F4E768680368E3
:1034400005F10C011B6EBDE87040184770BD70B5EA
:10345000044690F8390094F838300130C0B29842F0
:1034600084F8390005D901232372002384F8393008
:1034700070BDB4F93A20002110F000F810F00102FC
:1034800083B206D04FF6FF710028D8BF0A469818BD
:1034900000B2238AC01AA08760680368DB69984776
:1034A00005464DB1A988A38F19442B6828461B6B8C
:1034B00009B29847AD69F4E760680368BDE87040F9
:1034C0005B691847037A70B50546BBB94068036865
:1034D000DB69984704464CB1A1886B8FC91A2368F1
:1034E00020461B6B09B29847A469F4E76868036833
:1034F00005F10C011B6EBDE87040184770BD70B53A
:10350000044690F8390094F838300130C0B298423F
:1035100084F8390005D901232372002384F8393057
:1035200070BDB4F93A2000210FF0A8FF10F001029D
:1035300083B206D04FF6FF710028D8BF0A4698180C
:1035400000B2238AC01AA08760680368DB699847C5
:1035500005464DB1A988A38F19442B6828461B6BDB
:1035600009B29847AD69F4E760680368BDE8704048
:103570005B69184710B50446D0F8400158B103689C
:10358000DB68984738B1D4F8400103689B689847D6
:103590000023C4F8403110BD2DE9F14FD0E9555A50
:1035A0000746A86803681B6A98479B2805D8464BBE
:1035B000464AA32146481FF003FB686803681B6A5C
:1035C00098470F2803D8434B404AA421F2E7E86804
:1035D00003681B6A98470B2803D83F4B3B4AA52139
:1035E000E8E70EF091F9DFF8F89004300EF0F2F908
:1035F000D9F8000010B10368DB689847D9F80000DB
:1036000010B103681B689847DFF8D880D8F800002D
:1036100010B103685B699847D7F83C0110B10368A3
:103620005B689847D8F8000010B103681B6898479A
:10363000D7F83C0110B103689B689847E8680368B5
:1036400000215B6A98474FF0000B244B036004464F
:10365000C0F804B080F808B0A868036859465B6AEF
:103660009847064602F0F0F86868036859465B6AB6
:1036700098473146054602F0C3F8C9F80040C7F83C
:103680003C51C8F80060E5B12B1DCAF80030336822
:10369000C5F808A03046DB68F56398472B682846D4
:1036A0001B689847214630460FF0E2FE236820460B
:1036B0001B69984723685B69204601B0BDE8F04F5D
:1036C00018472B46E1E700BF5C850208EA8502083F
:1036D000F88602083F870208E2870208189102086C
:1036E000A03701209C3701202DE9F0411D460368D9
:1036F000BDF918701B6B044616469847236831467F
:1037000020465B6B98472368294620469B6B984769
:10371000236839462046DB6BBDE8F04118470000BE
:10372000F8B5044617460E460EF022FA104B002557
:10373000C4E955760F4E1C60C4E953550E4B3068F2
:1037400023600E4BC4E95135036801219B68C4E92D
:103750004F559847284601F06DFE336893F8762060
:103760000AB1D86C00B9986816F00FFB2046F8BD76
:10377000AC37012058370120CC900208B4900208E1
:10378000064BC0F84C310023C0F8503100F5A2734D
:10379000C0F84801C0F84031704700BF99350008B3
:1037A000064BC0F84C310023C0F8503100F5A2732D
:1037B000C0F84801C0F84031704700BF8D3800089C
:1037C000064BC0F84C310023C0F8503100F5A2730D
:1037D000C0F84801C0F84031704700BF013D000803
:1037E000064BC0F84C310023C0F8503100F5A273ED
:1037F000C0F84801C0F84031704700BF31410008AF
:10380000064BC0F84C310023C0F8503100F5A273CC
:10381000C0F84801C0F84031704700BFF13F0008D0
:10382000064BC0F84C310023C0F8503100F5A273AC
:10383000C0F84801C0F84031704700BFC13B0008E4
:10384000064BC0F84C310023C0F8503100F5A2738C
:10385000C0F84801C0F84031704700BF813A000805
:10386000064BC0F84C310023C0F8503100F5A2736C
:10387000C0F84801C0F84031704700BFB13E0008B1
:1038800003685B6A184703685B6A18472DE9F047CD
:10389000D0E955690546B06803681B6A984741F24C
:1038A000BB13984205D8504B504AA32150481FF0F3
:1038B00087F9706803681B6A98470F2803D84D4B37
:1038C0004A4AA421F2E7F06803681B6A9847132864
:1038D00003D8494B454AA521E8E70EF015F8DFF873
:1038E0002C8104300EF076F8D8F8000010B103688F
:1038F000DB689847D8F8000010B103681B68984748
:103900003E4F386810B103685B699847D5F83C01B1
:1039100010B103685B689847386810B103681B688A
:103920009847D5F83C0110B103689B689847F06848
:10393000036800215B6A98470023436003720374A5
:103940002F4B304A02601A882F4B1B889A4204463C
:103950003DD90732D210428105330622B3FBF2F380
:1039600083810823C3810021B068FFF789FF824665
:1039700001F0B6FF70680021FFF785FF514606464B
:1039800001F088FFC8F80040C5F83C61C7F800A006
:103990003EB3331DC9F80030DAF80030C6F808909D
:1039A0005046DB68CAF83C609847336830461B686D
:1039B0009847214650460FF05BFD236820461B695F
:1039C0009847236820465B69BDE8F04718470733EE
:1039D0000621DB1005328381B2FBF1F2C181428105
:1039E000C1E73346D6E700BF5C8502088588020838
:1039F000F88602083F870208E28702089C37012008
:103A00004C3701203C9102084E370120A03701209D
:103A100003685B6A18470000F7B505460026144B9B
:103A20004660067245F80C3B044628460F460AF0ED
:103A3000C7F9104B84F838701B7884F83960A68772
:103A400023B901232372204603B0F0BD0A4B0B4F6C
:103A5000B3F900300093B7F90030324631462846BA
:103A6000FFF742FE28460AF027F93B886387EAE71A
:103A700084910208573701204E3701204C3701202E
:103A80002DE9F047D0E9554A0746A06803681B6A4C
:103A90009847B0F5D07F05D2424B434AA321434813
:103AA0001FF08EF8606803681B6A98470F2803D8D8
:103AB0003F4B3D4AA421F2E7E06803681B6A984740
:103AC0003F2803D83B4B384AA521E8E70DF01CFFFF
:103AD000DFF8E49004300DF07DFFD9F8000010B15C
:103AE0000368DB689847D9F8000010B103681B68C9
:103AF0009847DFF8C880D8F8000010B103685B6908
:103B00009847D7F83C0110B103685B689847D8F82C
:103B1000000010B103681B689847D7F83C0110B14A
:103B200003689B689847E0680021FFF771FF142144
:103B30000546FFF771FFA068036800215B6A98479C
:103B4000064601F0D5FD6068036800215B6A98476E
:103B50003146044601F078FDC9F80050C7F83C41F1
:103B6000C8F80060DCB1231DCAF800303368C4F81F
:103B700008A03046DB68F4639847236820461B683A
:103B80009847294630460FF073FC2B6828461B697E
:103B900098472B6828465B69BDE8F04718472346DD
:103BA000E2E700BF5C850208A0890208F8860208E7
:103BB0003F870208E2870208A03701209C370120D6
:103BC0002DE9F047D0E9554A0746A06803681B6A0B
:103BD0009847B0F5EE7F05D2424B434AA3214348B4
:103BE0001EF0EEFF606803681B6A98470F2803D831
:103BF0003F4B3D4AA421F2E7E06803681B6A9847FF
:103C00003F2803D83B4B384AA521E8E70DF07CFE5E
:103C1000DFF8E49004300DF0DDFED9F8000010B1BB
:103C20000368DB689847D9F8000010B103681B6887
:103C30009847DFF8C880D8F8000010B103685B69C6
:103C40009847D7F83C0110B103685B689847D8F8EB
:103C5000000010B103681B689847D7F83C0110B109
:103C600003689B689847E0680021FFF7D1FE1421A4
:103C70000546FFF7D1FEA068036800215B6A9847FC
:103C8000064601F0A5FC6068036800215B6A98475E
:103C90003146044601F062FCC9F80050C7F83C41C7
:103CA000C8F80060DCB1231DCAF800303368C4F8DE
:103CB00008A03046DB68F4639847236820461B68F9
:103CC0009847294630460FF0D3FB2B6828461B69DE
:103CD00098472B6828465B69BDE8F047184723469C
:103CE000E2E700BF5C850208C98A0208F88602087C
:103CF0003F870208E2870208A03701209C37012095
:103D00002DE9F047D0E9554A0746A06803681B6AC9
:103D1000984741F2BB13984205D8414B414AA32131
:103D200041481EF04DFF606803681B6A98470F28E2
:103D300003D83E4B3B4AA421F2E7E06803681B6AC4
:103D400098473F2803D83A4B364AA521E8E70DF0BB
:103D5000DBFDDFF8E09004300DF03CFED9F8000008
:103D600010B10368DB689847D9F8000010B1036808
:103D70001B689847DFF8C080D8F8000010B10368CE
:103D80005B699847D7F83C0110B103685B689847B6
:103D9000D8F8000010B103681B689847D7F83C01B9
:103DA00010B103689B689847E0680021FFF730FE78
:103DB00014210546FFF730FE0021A068FFF760FDE3
:103DC000064601F08DFD60680021FFF75CFD31467D
:103DD000044601F05FFDC9F80050C7F83C41C8F83F
:103DE0000060DCB1231DCAF800303368C4F808A0B5
:103DF0003046DB68F4639847236820461B68984781
:103E0000294630460FF034FB2B6828461B6998473B
:103E10002B6828465B69BDE8F04718472346E2E770
:103E20005C850208FA8B0208F88602083F870208C0
:103E3000E2870208A03701209C37012003685B6AF3
:103E400018470000F7B505460026154B4660067278
:103E500045F80C3B044628460F4609F0B1FF114BCC
:103E600084F838701B7884F83960A68723B9012359
:103E70002372204603B0F0BD0B4B0C4FB3F900305A
:103E80000093B7F90030324631462846FFF72CFC44
:103E9000284609F011FF3B885B426387E9E700BFD2
:103EA00060910208573701204E3701204C3701201E
:103EB0002DE9F047D0E9554A0746A06803681B6A18
:103EC0009847B0F5D07F05D2424B434AA3214348DF
:103ED0001EF076FE606803681B6A98470F2803D8B7
:103EE0003F4B3D4AA421F2E7E06803681B6A98470C
:103EF0003F2803D83B4B384AA521E8E70DF004FDE5
:103F0000DFF8E49004300DF065FDD9F8000010B141
:103F10000368DB689847D9F8000010B103681B6894
:103F20009847DFF8C880D8F8000010B103685B69D3
:103F30009847D7F83C0110B103685B689847D8F8F8
:103F4000000010B103681B689847D7F83C0110B116
:103F500003689B689847E0680021FFF76FFF142112
:103F60000546FFF76FFFA068036800215B6A98476A
:103F7000064601F0BDFB6068036800215B6A984754
:103F80003146044601F060FBC9F80050C7F83C41D7
:103F9000C8F80060DCB1231DCAF800303368C4F8EB
:103FA00008A03046DB68F4639847236820461B6806
:103FB0009847294630460FF05BFA2B6828461B6964
:103FC00098472B6828465B69BDE8F04718472346A9
:103FD000E2E700BF5C850208258D0208F88602082A
:103FE0003F870208E2870208A03701209C370120A2
:103FF0002DE9F047D0E9554A0746A06803681B6AD7
:104000009847B0F5EE7F05D2424B434AA32143487F
:104010001EF0D6FD606803681B6A98470F2803D816
:104020003F4B3D4AA421F2E7E06803681B6A9847CA
:104030003F2803D83B4B384AA521E8E70DF064FC44
:10404000DFF8E49004300DF0C5FCD9F8000010B1A1
:104050000368DB689847D9F8000010B103681B6853
:104060009847DFF8C880D8F8000010B103685B6992
:104070009847D7F83C0110B103685B689847D8F8B7
:10408000000010B103681B689847D7F83C0110B1D5
:1040900003689B689847E0680021FFF7CFFE142172
:1040A0000546FFF7CFFEA068036800215B6A9847CA
:1040B000064601F08DFA6068036800215B6A984744
:1040C0003146044601F04AFAC9F80050C7F83C41AD
:1040D000C8F80060DCB1231DCAF800303368C4F8AA
:1040E00008A03046DB68F4639847236820461B68C5
:1040F0009847294630460FF0BBF92B6828461B69C4
:1041000098472B6828465B69BDE8F0471847234667
:10411000E2E700BF5C8502084E8E0208F8860208BE
:104120003F870208E2870208A03701209C37012060
:104130002DE9F047D0E9554A0746A06803681B6A95
:10414000984741F2BB13984205D8414B414AA321FD
:1041500041481EF035FD606803681B6A98470F28C8
:1041600003D83E4B3B4AA421F2E7E06803681B6A90
:1041700098473F2803D83A4B364AA521E8E70DF087
:10418000C3FBDFF8E09004300DF024FCD9F8000008
:1041900010B10368DB689847D9F8000010B10368D4
:1041A0001B689847DFF8C080D8F8000010B103689A
:1041B0005B699847D7F83C0110B103685B68984782
:1041C000D8F8000010B103681B689847D7F83C0185
:1041D00010B103689B689847E0680021FFF72EFE46
:1041E00014210546FFF72EFE0021A068FFF748FBCB
:1041F000064601F075FB60680021FFF744FB31467D
:10420000044601F047FBC9F80050C7F83C41C8F824
:104210000060DCB1231DCAF800303368C4F808A080
:104220003046DB68F4639847236820461B6898474C
:10423000294630460FF01CF92B6828461B69984721
:104240002B6828465B69BDE8F04718472346E2E73C
:104250005C8502087F8F0208F88602083F87020803
:10426000E2870208A03701209C370120406A70478E
:10427000806A704770478B88C0690A68DB0A50F80B
:1042800023001044704710B5C2B1137BB3B1547B07
:10429000D27A240204F4E0641443026A98B202EB76
:1042A000840213888B4202D192F9020010BD05D816
:1042B000013880B204320028F3D1F7E70020F5E797
:1042C00010B52C2104461DF068FE204610BD0000EC
:1042D00030B58BB00446BDF860500895BDF85C5011
:1042E00007959DF8505006959DF84C5005959DF802
:1042F000485004959DF8445003959DF84050029510
:104300009DF83C500195BDF8385000950EF060FCCA
:10431000064B2360159BE361169B2362199B636226
:104320001A9BA36220460BB030BD00BFA8910208C3
:104330007047704770477047704790F82C0070477F
:10434000704730B50368018185B06D460146D3F8EA
:10435000843004462846984795E807003C3484E8B2
:10436000070005B030BD30B50368418185B06D46AA
:104370000146D3F8843004462846984795E807005C
:104380003C3484E8070005B030BD00220280428042
:104390008280C280704780F83610704770B503681D
:1043A00004461B6B154698472368294620465B6EDA
:1043B000BDE87040184700207047806C7047704718
:1043C000704770477047704730B4C26844685510F2
:1043D000034604EB6200D20748BF62599B6830BCB9
:1043E00048BFD358184743682BB183682BB9C068BE
:1043F00000F001007047184670470120704710B563
:104400004C2104461DF0C9FD204610BD10B54021C9
:1044100004461DF0C2FD204610BD10B51021044613
:104420001DF0BBFD204610BD10B54FF4EA710446E7
:104430001DF0B3FD204610BD08B590F832300BB129
:10444000FDF79AFC08BD08B5FDF796FC08BD10B550
:104450000446806A50B10368DB68984730B1A06AAF
:10446000036821469B68BDE81040184710BD70B531
:1044700004460D4609F0D4FBE06B58B10368DB68D5
:10448000984738B1E06B03682A4621469B68BDE82F
:104490007040184770BD0000036870B55E6B124B2A
:1044A0001B6804468DB22BB9104B114A6C21114880
:1044B0001EF086FB1049828D0988914203D80F4B6C
:1044C0000B4A6D21F3E713F812200D4B1B6853F8CC
:1044D000220003681B6B9847281A01B23346204616
:1044E000BDE87040184700BFB037012000920208B5
:1044F000429202087D920208B4370120C492020859
:10450000B837012038B500F1D403994204460D466E
:1045100003D10DF0F9F9FFF753F99834A54205D10D
:104520000DF0F2F9BDE83840FFF79AB938BD002226
:104530004FF0FF31C0E900218260704770B5036819
:1045400004461B6B154698472368294620465B6B3B
:10455000BDE87040184700002DE9F04F2DED028BAB
:1045600004468FB0A34600250EF0D6FDA54BE563AB
:104570004BF8403BA44B2566FF2204F16C07C4E9CD
:1045800010354FF4807384F866200CA9A4F86430C9
:1045900004F1980A4FF6FF763846C4E91255C4E98B
:1045A0001455C4E91655A56604F1D409ADF8306078
:1045B00009F064FC50460AF093FD48460AF090FD6D
:1045C0004FF48073A4F83431904BC4F838314FF471
:1045D0007F03C4F844318E4BC4F810314FF0FF33E1
:1045E000C4E9543504F5AE73A4F83C611846C4E937
:1045F0004555C4E94755C4E94955C4E94B55C4F884
:104600004051A4F84851C4F84C51C4F8585108EE30
:10461000103A0AF065FD7F4BC4F85C314FF001039E
:1046200084F880317C4BC4F89851C4E971347B4BD9
:10463000C4E973354FF4A0732A46584600932946BF
:10464000F023FFF751F8261D4FF07F43A36659462C
:10465000304607F021FA38460CA9ADF830500AF080
:1046600066FD4FF4A0732A46384600932946F0238E
:10467000FFF73AF83846294609F0C7FB3946304675
:1046800007F00AFA4FF48E728C215046FFF756FF5E
:104690004FF00103ADF824300C23ADF82C300BA9FA
:1046A0000CAB4FF0020200930B460AA9ADF828208C
:1046B0004FF00A0B0A46504609A9594FADF830B0E1
:1046C0000AF078FC04F5E271C4F8D0700391C4F8E4
:1046D000C0103046514607F0DFF94FF48E7229467C
:1046E0004846FFF72BFF4FF00103ADF824300B23B2
:1046F0004FF00202ADF82C300CABADF8282000933F
:104700000AAA0BAB09A94846ADF830B00AF052FC32
:10471000039BC4F80C71C4F8FC304946304607F0DE
:10472000BBF904F588786E23322200932946F023E2
:104730004046FEF7D9FF3B4BC4F84031D4F8103166
:10474000A4F8445104AF3846D3F884304146984722
:1047500097E8070004F5A67383E80700324B1B684F
:1047600004F5CE772BB9314B314A602131481EF028
:1047700027FA314B1B88042B03D8304B2C4A61217C
:10478000F4E72F4B0421186800F090FE2D4A0346F1
:104790001421384610F0AAF91C4BC4F858710CA922
:1047A000032740460C93ADF834700AF0D5F8414623
:1047B000304607F071F918EE100A2946D922FFF7A2
:1047C000BDFE0423ADF828300D23ADF82C30ADF834
:1047D00030300CAB18EE100A00930AAA0BAB09A9F3
:1047E000ADF824700AF0E6FB6123304618EE101A8B
:1047F000C4F8943107F050F920460FB0BDEC028B9D
:10480000BDE8F08F6894020888A202085485020867
:1048100048930208D89302085094020805450008FE
:104820001900F9FFFF4400FFB03701200092020891
:10483000029302087D920208B4370120C492020854
:10484000BC3701203A9302087047704770477047A1
:1048500030B4C26844685510034604EB6200D207C6
:1048600048BF62599B6830BC48BFD358184743685B
:104870002BB183682BB9C06800F00100704718465F
:1048800070470120704710B5102104461DF085FBCC
:10489000204610BD10B54FF4D07104461DF07DFBCD
:1048A000204610BD00F19803994270B504460D46AC
:1048B00003D10DF029F8FEF7B3FF04F1D4039D42B4
:1048C00003D10DF021F8FEF78BFF04F588739D42AC
:1048D00005D123682046DB6ABDE87040184770BDEB
:1048E0000022C0E90122C0E90322C0E90522C0E993
:1048F00007224FF480728284014A0260704700BF31
:104900009C9402082DE9F04F2DED028B04468DB0EA
:10491000A14600250EF000FC944BE56349F8403BAE
:104920002622294648461EF0D7F94846FFF7D8FF09
:104930008F4B236404F16C0AFF234FF6FF760AA91C
:1049400004F1980B84F86630A5665046ADF82860EF
:1049500009F094FA58460AF0C3FB04F1D40304F5B5
:104960008878184608EE103A0AF0BAFB2946262243
:1049700040461EF0B1F94046FFF7B2FF4FF0010389
:1049800004F5A47784F834317A4BC4F81031294601
:10499000C4F8385184F83C51A4F83E61A4F8406151
:1049A00084F84261A4F84461262238461EF094F946
:1049B0003846FFF795FF704BC4F848316F4BC4F889
:1049C00070314FF47F03C4F87C314FF0FF33C4E9FA
:1049D00062356B4BA4F87461C4E96434694BC4F864
:1049E00078514FF4A072C4E96635A4F88051C4F838
:1049F0008451009229462A464846F023FEF774FE69
:104A0000261D4FF07F43A3664946304607F044F821
:104A10000AA95046ADF828500AF089FB4FF4A0725D
:104A2000F023009229462A465046FEF75DFE2946AD
:104A3000504609F0EAF95146304607F02DF829466C
:104A400058464FF48E72FFF779FD4FF001020DF1D9
:104A5000240CADF81C200B230AAA4FF00A004FF0DB
:104A6000020AADF82430ADF828006346009207A989
:104A700008AA584604F5C879ADF820A00AF09AFAB9
:104A8000414AC4F8D02059463046C4F8C09007F0D7
:104A900003F818EE100A4FF48E728C21FFF74EFDCA
:104AA0004FF00101ADF81C100AA900910C2309A9CF
:104AB000ADF824304FF00A000B4608A9ADF82800E5
:104AC0000A4618EE100A07A9ADF820A00AF072FAFB
:104AD0002D4AC4F80C2118EE101A3046C4F8FC9088
:104AE00006F0DAFF4046A0222321FFF727FD092325
:104AF000ADF824300823A4F844310AAA09A9404695
:104B0000ADF828300AF038F94046012109F0BFF825
:104B100041463046C4F8389106F0BEFF13223846AD
:104B20001621FFF70BFD194BA4F87C5102ADC4F818
:104B300078313946284609F075FC95E8070004F5F8
:104B4000C27383E807000D4B0A930AA93846ADF8F3
:104B50002CA009F001FF3046394606F09DFF2046A3
:104B60000DB0BDEC028BBDE8F08F00BF1C950208B4
:104B700088A20208A0A00208F8A102085485020831
:104B800004950208A54800081900F9FFF7EF07FF90
:104B900070470368DB6A1847B423A0F89830704761
:104BA00010B59C2104461DF0F8F9204610BD08B54B
:104BB000B0F8983053B1013B9BB2A0F898302BB9B4
:104BC0000CF0A2FEBDE80840FEF7EABD08BD0000FB
:104BD0002DE9F341044626460EF09EFA00252E4BA1
:104BE000E56346F8403B2D4B2566C4E910354FF48C
:104BF0008072FF2304F16C07A4F8642084F8663007
:104C0000A4F890204FF6FF73254AA4F8923084F858
:104C10009430E26601A93846C4E91255C4E9145536
:104C2000C4E91655C4E91C55C4E91E55C4E920550C
:104C3000C4E92255A566ADF804300AF078FA2A4690
:104C400029463046A4F89850FFF778FC3046F0210A
:104C5000FCF7F0FF30464FF4A071FCF7EDFF04F1D4
:104C600004084FF07F43A3663146404606F014FF28
:104C70002A4629463846FFF761FC0E2301A938462B
:104C8000ADF804300AF053FA4046394606F004FF06
:104C9000204602B0BDE8F0815495020888A20208BF
:104CA00050A402087047000030B5164D2C78BFF3B1
:104CB0005B8F14F001048FB020D128461DF06FF9EE
:104CC000E0B13F230993104B0893104B1049114852
:104CD0000A940122CDE906430423CDE903320A23D5
:104CE0000093CDE90B44CDE901440594FFF7F0FAB8
:104CF00009481DF083FF28461DF05DF905480FB0F7
:104D000030BD00BF24290020A8120308C4140308E2
:104D1000F006030828290020A54C00087047000071
:104D200030B5174D2C78BFF35B8F14F001048FB0B2
:104D300022D128461DF033F9F0B13F230993114BDE
:104D40000893114B07930123CDE905330493042302
:104D5000CDE9024314230D490093BF221923CDE965
:104D60000B440B480A940194FFF7B2FA09481DF06E
:104D700045FF28461DF01FF905480FB030BD00BFA4
:104D800054290020AC120308C814030800070308C4
:104D9000582900201D4D00087047000030B5174D00
:104DA0002C78BFF35B8F14F001048FB022D128461A
:104DB0001DF0F5F8F0B13F230993114B0893114B07
:104DC00007930123CDE9054304930423CDE902436E
:104DD00028230D49009316222923CDE90B440B48C3
:104DE0000A940194FFF774FA09481DF007FF28465A
:104DF0001DF0E1F805480FB030BD00BF8429002048
:104E0000C0140308CC140308741103088829002077
:104E1000994D00087047017670478182C2827047C1
:104E20007047704730B4C26844685510034604EBBD
:104E30006200D20748BF62599B6830BC48BFD35854
:104E4000184743682BB183682BB9C06800F0010094
:104E50007047184670470120704710B5202104465E
:104E60001DF09BF8204610BD10B5102104461DF022
:104E700094F8204610BD70B505460B8825F8043F10
:104E80000446284610F014FAA071284610F0A0F845
:104E90000646284610F0D0F80023A360E081A681E2
:104EA00004F108000CF094FB284610F07DF9206115
:104EB00070BD000010B5034B036004460BF042F8D0
:104EC000204610BDC095020807B5074B036001904E
:104ED0000BF038F8019841F2B8111DF05EF8019816
:104EE00003B05DF804FB00BFC095020838B500F1BF
:104EF000D403994204460D4603D10CF005FDFEF79C
:104F00007FFC9834A54205D10CF0FEFCBDE838408A
:104F1000FEF796BC38BD00004FF4807181840D49C6
:104F200001600D4981624FF6FF7181854FF47F0169
:104F3000002241634FF0FF31C0E90122C0E90322A2
:104F4000C0E90522C0E90722C0E910120263028706
:104F5000C2637047F8A10208548502082DE9F04F9A
:104F60002DED048B04468DB0A24600250EF0D4F83A
:104F7000D34BE5634AF8403BD24B2566C4E9103574
:104F80004FF4807304F16C08A4F86430FF230AA97D
:104F90004FF6FF7784F866304046C4E91255C4E9FD
:104FA0001455C4E91655A566ADF8287008F066FFDB
:104FB00004F19803184608EE103A0AF091F804F14B
:104FC000D40304F58879184604F5AC7608EE903AD7
:104FD0000AF086F84846FFF79FFF304609F05AFD71
:104FE00004F53E73184609EE103AADF82870FCF748
:104FF000E9FEB54BC4F80033BDF82830A4F80433FB
:105000000AA904F54070C4E9C255C4E9C45584F83E
:10501000065384F81853FFF72EFFAC4BC4F8F83250
:1050200004F5497B2433C4F800335846FFF774FF76
:10503000A74BA84AC4F8243304F58053C4F86C5332
:10504000C3E96A24A44A4FF46161C3E96C2504F5FD
:1050500066700AF06DFF4FF4A0732A465046009325
:105060002946F023FEF740FB271D4FF07F43A36640
:105070005146384606F010FD40460AA9ADF82850C2
:105080000AF055F84FF4A0732A464046009329468B
:10509000F023FEF729FB4046294608F0B6FE4146BC
:1050A000384606F0F9FC18EE100A4FF48E722946C5
:1050B000FFF744FA4FF00203ADF820300B23ADF8B0
:1050C00024304FF00A010AAB07A84FF0010A08AAE2
:1050D000ADF828100093014609AB18EE100A04F54C
:1050E0008D5808F10808ADF81CA009F063FF7B4B50
:1050F000C4F8D03018EE101AC4F8C080384606F054
:10510000CBFC18EE900A4FF48E728C21FFF716FA42
:105110004FF00202ADF820200AAA0C234FF00A013A
:10512000009209AA18EE900AADF82430ADF82810C4
:10513000134607A908AAADF81CA009F03BFF674B6E
:10514000C4F80C3118EE901AC4F8FC80384606F00A
:10515000A3FCF02248463921FFF7F0F90DF10808C9
:105160004FF07F434946C4F840314046A4F84451CB
:1051700009F058F998E8070004F5A67383E80700DA
:10518000574B0A9348464FF006030AA9ADF82C3056
:1051900009F0E2FB4946384606F07EFC4FF0F00984
:1051A000052330460AA9ADF8283006F007FC4B4627
:1051B00030462A462946CDF80090FEF795FA782227
:1051C0001146304609F03FFD304679226FF07401F8
:1051D00009F0BEFD2B46642230462946009506F0B4
:1051E0009AFA3046322109F05DFD0A224123304609
:1051F000072109F013FD3046514609F0ABFC30465B
:10520000514609F0AAFC3046514609F0A9FC0AA90A
:105210004FF0060319EE100AADF8283007F0F7FE3C
:10522000304609F0A0FC80ED0A9A304609F09BFC5C
:105230004FF448634363304609F095FC4FF44663EE
:105240000364304609F08FFCB42107F077FF172282
:105250008E23114630460093C02309F053FC31469B
:10526000384606F019FC1923B322009329464B4611
:105270005846FEF739FA4FF07F43C4F85433D4F858
:105280002433A4F85853D3F88430594640469847FD
:1052900098E8070004F5587383E80700114B1B6872
:1052A00004F55C762BB9104B104A602110481DF0B4
:1052B00087FC104B1B880BBB0F4B0C4A6121F5E799
:1052C000C095020888A202088C950208B89E0208C0
:1052D00048930208A8950208ED4E00081900F9FF4E
:1052E00054850208B0370120009202080293020898
:1052F0007D920208B4370120C49202080F4B294660
:10530000186800F0D3F80E4A0346142130460FF017
:10531000EDFB0C4BC4F86C630AA958460A93ADF830
:105320002CA009F019FB3846594606F0B5FB20467B
:105330000DB0BDEC048BBDE8F08F00BFBC37012081
:105340003A930208548502080020704700207047F5
:105350000EB403B503AB002153F8042B01930DF0F9
:105360005FFA02B05DF804EB03B070470CB407B508
:1053700004AB53F8042B01930DF052FA03B05DF81F
:1053800004EB02B070470000436C10B5044673B3E1
:10539000038F2BB9184B194AC52119481DF010FC71
:1053A000C38E00EB43035B8C0BB30EF0F0FD238F39
:1053B000012B03D8134B144ACB21EEE7E28E531C8A
:1053C0009BB2092B194688BFA3F10A0104EB4101E6
:1053D00040F63F10498C814209D10A2B04EB42026E
:1053E00028BF002304EB4303508C5884518420468B
:1053F000BDE810400EF0CEBCEC950208F595020811
:10540000A0960208EA960208F89602080EF089BCF7
:1054100010B586B002AC84E806001A460AAB0593C4
:105420000193099B00932146089B0BF00FFE06B0E9
:1054300010BD000038B518BB124B13481B68134948
:10544000B3B11A689C681A4402605A681A440A6028
:105450001C440F4B00221A8000F038F8054600F07B
:1054600033F80C4B1C600C4B1D600C4B188007E094
:105470000B4B03600B4B0B600B4B1C68002CE8D1F3
:1054800038BD00BFB4290020B8290020BC29002065
:10549000C0290020B0370120B8370120B4370120DF
:1054A000EC140308D01403084C150308044B1B68C4
:1054B00053F82100034B1B6803EB4000704700BF0B
:1054C000BC290020B82900200720704700487047F9
:1054D000C429002010B5FFF723FC044C2060FFF71F
:1054E0005DFC6060FFF7E0FBA06010BDC4290020F8
:1054F000704710B54FF4AE7104461CF04EFD2046C7
:1055000010BD10B50446D0F8580100F006F9204649
:10551000BDE810400CF0BCBA10B50446FEF700F927
:10552000014B2360204610BDD49702087047704796
:10553000704704387047704710B5102104461CF0BE
:105540002CFD204610BDA0F10400F5E7C068152130
:1055500000F04AB8A0F10400FFF7F8BF10B5002230
:105560008260044AC16002F108042432046042608F
:1055700010BD00BF189802087047000010B5034B1B
:1055800003600446FEF71BFF204610BD5898020832
:1055900010B50446FFF7F2FF20464FF4EE711CF001
:1055A000FCFC204610BDD0F8D43101333C2B02DC8A
:1055B000C0F8D4317047D0F8D82101320023642AD2
:1055C000C0F8D431D8BF1346C0F8D83170470000B6
:1055D00010B50446FEF7C0FF014B2360204610BD06
:1055E00058980208FEF7ECBE10B50B460446064A72
:1055F000142100F5CE700FF079FA04F58870BDE83B
:1056000010400DF037BA00BF619C02087047704728
:1056100004387047704710B5102104461CF0BDFCDB
:10562000204610BDA0F10400F5E7806800F0B5B891
:10563000C06811B1002100F065B80121FBE7A0F1BD
:105640000400FFF7F5BF000010B500228260044A95
:10565000C16002F1080424320460426010BD00BF42
:1056600084980208806811B1002100F07DB8012102
:10567000FBE7704710B5034B03600446FFF7E5F8FE
:10568000204610BD7899020810B50446FFF7F2FFD6
:1056900020464FF4D0711CF080FC204610BD000065
:1056A00008B5054B1B682BB9044B054A05488721F3
:1056B0001DF086FA008808BDE8370120BC98020872
:1056C000F89802082B99020838B5044600F59F7037
:1056D000FFF7E6FF054604F5A270FFF7E1FF2B1A7E
:1056E0005942E06B5941BDE83840FFF7BBBF0000AD
:1056F00010B50446FFF706F9014B2360204610BDA4
:105700007899020800F5887008F0C1BAFFF79EB8D2
:105710000022026080F83920704710B500F10C01BA
:10572000044601220220FCF789FC2072D8B1237BB9
:10573000CBB9637B0E2B06D12068217C0368DB6824
:1057400001B101219847637B102B0CD1E28940F213
:1057500001139A4207D1206894ED040A0368BDE85A
:1057600010401B69184710BD1FB501220DF10F0035
:1057700061B1CDE900208DF80F2004230222002121
:105780001046FCF7C9FB05B05DF804FBCDE900202D
:105790008DF80F1004230222F2E707B50023CDE9AC
:1057A0000033032219460220FCF7B6FB03B05DF874
:1057B00004FB07B50023CDE900330422194602207B
:1057C000FCF7AAFB03B05DF804FB07B50023CDE9A5
:1057D0000033052219460220FCF79EFB03B05DF85A
:1057E00004FB704704387047704710B51021044619
:1057F0001CF0D3FB204610BDA0F10400F5E700002B
:1058000010B500228260044AC16002F1080420320F
:105810000460426010BD00BFA899020870470000F4
:1058200010B5034B03600446FFF7B2F9204610BDE4
:10583000E499020810B50446FFF7F2FF20469C21C8
:105840001CF0ABFB204610BD10B50446FFF7C0F9B5
:10585000014B2360204610BDE4990208FFF799B977
:1058600070470438704710B5102104461CF095FBB2
:10587000204610BDA0F10400F5E78068FFF799BF4E
:105880008068FFF7A2BFC06800F036B8A0F104003E
:10589000FFF7F9BF10B500228260044AC16002F12F
:1058A000080424320460426010BD00BF149A02084C
:1058B0007047000010B5034B03600446FFF7FAFA87
:1058C000204610BD5C9A020810B50446FFF7F2FFAF
:1058D000204641F2BC111CF060FB204610BD0000C8
:1058E00010B50446FFF73AFB014B2360204610BD7C
:1058F0005C9A0208FFF794BA70B52DED028BFDEEAD
:10590000C07A044682B017EE901A04F55C7514262E
:10591000052200F5AC70B0EE408A05F04AFF324631
:10592000002128461DF0D8F9084A8DED018A01AB07
:10593000314628460FF096FA04F5497002B0BDECE6
:10594000028BBDE870400DF095B800BF4C9A02087C
:10595000F02070474FF4A07070472920FDF734B84D
:105960002820FDF731B808B5FDF702F8CA20FDF789
:105970002BF8C320FDF70CF80820FDF709F850209C
:10598000FDF706F8CF20FDF71FF80020FDF700F81F
:10599000C120FCF7FDFF3020FCF7FAFFED20FDF7FA
:1059A00013F86420FCF7F4FF0320FCF7F1FF12204A
:1059B000FCF7EEFF8120FCF7EBFFE820FDF704F891
:1059C0008520FCF7E5FF0020FCF7E2FF7820FCF7DC
:1059D000DFFFCB20FCF7F8FF3920FCF7D9FF2C20A4
:1059E000FCF7D6FF0020FCF7D3FF3420FCF7D0FFF4
:1059F0000220FCF7CDFFF720FCF7E6FF2020FCF7A4
:105A0000C7FFEA20FCF7E0FF0020FCF7C1FF002001
:105A1000FCF7BEFFB120FCF7D7FF0020FCF7B8FF72
:105A20001B20FCF7B5FFB620FCF7CEFF0A20FCF7E1
:105A3000AFFFA220FCF7ACFFC020FCF7C5FF102091
:105A4000FCF7A6FFC120FCF7BFFF1020FCF7A0FF6A
:105A5000C520FCF7B9FF4520FCF79AFF1520FCF79D
:105A600097FFC720FCF7B0FF9020FCF791FF36208E
:105A7000FCF7AAFFC820FCF78BFFF220FCF7A4FF7D
:105A80000020FCF785FFB020FCF79EFFC220FCF74A
:105A90007FFFB620FCF798FF0A20FCF779FFA720CC
:105AA000FCF776FF2720FCF773FF0420FCF770FF5C
:105AB0002A20FCF789FF0020FCF76AFF0020FCF792
:105AC00067FF0020FCF764FFEF20FCF761FF2B204D
:105AD000FCF77AFF0020FCF75BFF0020FCF758FF83
